:1000000076C190C18FC18EC18DC18CC18BC18AC197
:1000100089C112C887C186C185C184C183C182C11B
:1000200081C180C17FC10D0045696E736368616CD9
:100030007470756E6B74203F20000D0A47696573FC
:10004000737A65697420696E2053656B756E64659B
:100050006E203F20000D0A6D696E2E204769657382
:1000600073696E74657276616C6C20696E2053746E
:10007000756E64656E203F20000D0A4E65756572D1
:10008000204E616D653A20000D616B7475656C6C76
:100090006572204D657373776572743A2000207A1B
:1000A000202D2048617570746D656E75650D0A0AA6
:1000B000006175730D0A002074202D20005A6569B7
:1000C00074737465756572756E670D0A002074200F
:1000D0002D206D696E2E2000466575636874696712
:1000E0006B656974736D657373756E670D0A0020B7
:1000F00061202D204175746F6D6174696B204D6FA7
:100100006475733A2000206F202D2050756D706546
:10011000206175730D0A002069202D2050756D70C7
:10012000652065696E0D0A00206E202D20426C75D9
:100130006D656E6E616D656E2061656E6465726E73
:100140000D0A000D0A53656B756E64656E6C616512
:100150006E6765204665696E74756E696E673A0DE7
:100160000A000D0A4D696E757465203F20000D0A66
:100170005374756E6465203F20000D0A546167203A
:100180003F20000D0A4D6F6E61742028312D3132F1
:1001900029203F20000D0A4A616872203F2032303A
:1001A000002041555320200020414E2020200020D7
:1001B00041555320202020202020202020202020B6
:1001C000202020200054494D45522020000D0A4295
:1001D0006C756D65202020202020202020202020EC
:1001E00053656E736F7220204175746F2047696587
:1001F00073737A65697420202020202050756D70FB
:1002000065207A756C65747A745F6765676F737360
:10021000656E206C65747A7465735F496E7465727F
:1002200076616C6C000D0A23503B000D0A23533B92
:10023000000D0A23503B003B5A656974000D0A43C8
:100240005356206F75747075742E205072657373D9
:100250002045534320746F20656E640D0A000D0A1B
:10026000002075202D20556872207374656C6C65B4
:100270006E0D0A0A00206B202D20616B7475656C71
:100280006C65204B6F6E66696775726174696F6E1D
:1002900020616E7A656967656E0D0A002063202D06
:1002A0002053656E736F727765727465202D3E20E2
:1002B0004353560D0A002073202D2053656E736F33
:1002C00072776572746520616E7A656967656E0D17
:1002D0000A000D0A0A47696573732D6F2D6D6174ED
:1002E0002048617570746D656E75650D0A00112486
:1002F0001FBECFE5D4E0DEBFCDBF11E0A0E6B0E089
:10030000E4E2FCE102C005900D92AA3DB107D9F7E5
:1003100022E0AAEDB1E001C01D92A036B207E1F7DC
:100320005DD77ECC6DCE811126C0662351F1939AA4
:10033000662301F190E0DC01AA0FBB1FAA0FBB1FCF
:10034000AA0FBB1FA05FBD4F880F991F880F991F71
:10035000880F991F80529E4F28E0FC0101900D925A
:100360002A95E1F728E0ECE4F2E0DC0101900D923F
:100370002A95E1F70895813031F4662361F0949A6B
:10038000D7CF93980895823041F4662311F0929A62
:10039000CFCF9298089594980895833031F46623CE
:1003A00011F0969AC5CF96980895843021F466236B
:1003B00049F0979ABDCF853009F0BACF662321F076
:1003C000C09AB8CF97980895C0980895811105C034
:1003D00082B383FB882780F90895813059F08230F9
:1003E00091F0833059F0843099F08530B1F488B3BE
:1003F0008170089582B382958170089582B386FBDF
:10040000882780F9089582B382FB882780F90895B0
:1004100082B3881F8827881F08958FEF08951F9340
:10042000CF93DF93182FEB012091DA013091DB019C
:1004300089E1189F200D311D1124B9016B5F7F4F99
:1004400040E150E0CE0187DB1F86888180325CF47A
:1004500086E0E2EAF0E0DE0101900D928A95E1F794
:100460001F5C1D831E82DF91CF911F910895CF9253
:10047000DF92EF92FF920F931F93CF93DF93CDB74D
:10048000DEB760970FB6F894DEBF0FBECDBF82ED2A
:1004900092E069D501E010E0CE0101966C0188EA96
:1004A000E82E80E0F82EB6018FEF800FB8DFDF92E4
:1004B000CF921F930F93FF92EF9277D70F5F1F4F4B
:1004C0000F900F900F900F900F900F900730110525
:1004D00051F786EB92E047D58CE992E044D585E769
:1004E00092E041D581E692E03ED560960FB6F89451
:1004F000DEBF0FBECDBFDF91CF911F910F91FF9057
:10050000EF90DF90CF900895FC0180811F928F9330
:1005100081811F928F9382811F928F9385811F9279
:100520008F93248130E0220F331F220F331F2E5967
:100530003F4F3F932F9383811F928F9383EB90E0E4
:100540009F938F9332D78DB79EB70E960FB6F894C0
:100550009EBF0FBE8DBF08952F923F924F925F9224
:100560006F927F928F929F92AF92BF92CF92DF92C3
:10057000EF92FF920F931F93CF93DF93CDB7DEB728
:1005800069970FB6F894DEBF0FBECDBF8DEC91E03A
:10059000EAD4F0EEEF2EF1E0FF2E03E112E0A12C01
:1005A000B12C912CCE0106966C01A1ED6A2EA0E033
:1005B0007A2EBCE38B2E85EE282E80E0382E9AEF23
:1005C000492E90E0592E46C088EA91E0CCD4C7016C
:1005D0009BDFF801F097808190E0D8012C91821B7D
:1005E00091093197208130E0F0964081241B310938
:1005F000F197408150E0F0966081461B5109F70168
:10060000608170E0F8013397E0816E1B710977FD1E
:10061000A4C057FD9DC037FD97C07F936F935F9334
:100620004F933F932F939F938F935F924F92BDD69B
:100630009394F9E1AF0EB11C88E0E80EF11C085F5D
:100640001F4F0FB6F894DEBF0FBECDBFB6E09B16AE
:1006500009F48CC06091DA017091DB016A0D7B1D99
:1006600049E150E0CE01019676DAB601892DD7DE58
:10067000892DD9D49F938F93DF92CF927F926F92DF
:1006800094D689810F900F900F900F900F900F903C
:10069000843509F467C08D3459F08FEA91E063D452
:1006A000892D94DE811190CF81EA91E05CD48FCFC7
:1006B0008B818F938A818F93AFEDB0E0BF93AF931F
:1006C00074D60F900F900F900F90E88DF98D4E8992
:1006D0005F899F01ABEABAEA12D6929582958F7034
:1006E00089279F7089279C01220F331F280F391FEC
:1006F000220F331F220F331F220F331FE21BF30B76
:10070000FF93EF939F938F939A01A9E8B8E8F7D5E9
:1007100096958795929582958F7089279F708927E6
:10072000889E9001899E300D1124421B530B5F93CC
:100730004F939F938F933F922F9237D60FB6F89493
:10074000DEBF0FBECDBFACCF285E3F4F019765CF58
:10075000445C5F4F215031095ECF645C7F4F415054
:10076000510957CF85EC91E0FED3AFCF69960FB614
:10077000F894DEBF0FBECDBFDF91CF911F910F91D7
:10078000FF90EF90DF90CF90BF90AF909F908F90B1
:100790007F906F905F904F903F902F900895ECE482
:1007A000F2E081811F928F9382811F928F938381C8
:1007B0001F928F9384811F928F9385811F928F93B5
:1007C0008FE091E09F938F93F0D58DB79EB70C96F5
:1007D0000FB6F8949EBF0FBE8DBF089585E991E0D6
:1007E000C2D3CDD38093510283E891E0BCD3C7D369
:1007F000809350028AE791E0B6D3C1D380934F0231
:100800008EE691E0B0D3BBD380934E0282E691E0B6
:10081000AAD3B5D380934D0210924C0283E491E0A9
:10082000A2D3809155028F93809154028F938AE2D4
:1008300091E09F938F93B9D5A2D30F900F900F9013
:100840000F901816190644F49093550280935402A1
:10085000BC0186E990E0AAC90895CF93DF93EB012C
:100860009B012B5F3F4F3F932F9390E001969F9307
:100870008F938BE591E09F938F9397D588E291E0DA
:1008800072D387E191E06FD386E091E06CD38FEE75
:1008900090E069D388810F900F900F900F900F9088
:1008A0000F908D3459F0843509F46FC081EB90E0DE
:1008B0005AD38EE990E0DF91CF9155C388ED90E057
:1008C00052D38A818F9389818F938DE691E09F9394
:1008D0008F936BD58DEC90E046D388810F900F906D
:1008E0000F900F90843509F450C08D34F9F64F897C
:1008F000588D9A01ABEABAEA02D5929582958F702B
:1009000089279F7089279C01220F331F280F391FC9
:10091000220F331F220F331F220F331F421B530B93
:100920005F934F939F938F9387E891E09F938F936B
:100930003CD54D895E899A01A9E8B8E8E0D496953E
:100940008795929582958F7089279F7089276CE390
:10095000689F9001699F300D1124421B530B5F93D8
:100960004F939F938F9385EA91E09F938F931DD52B
:100970008DB79EB70C960FB6F8949EBF0FBE8DBF75
:100980008EE990E0DF91CF91EEC28DEB90E0EBD25B
:1009900087EB90E0E8D28881843509F4A8CFA5CF11
:1009A0006F927F928F929F92AF92BF92CF92DF927F
:1009B000EF92FF920F931F93CF93DF93CDB7DEB7E4
:1009C00069970FB6F894DEBF0FBECDBFD82E89E170
:1009D000D89E500111246091DA017091DB016A0DFB
:1009E0007B1D49E150E0CE010196B5D8BE016A5F9A
:1009F0007F4F8D2D14DDBE016F5F7F4F8D2D2DDF5D
:100A000005EC11E0CC24CA9484E5782E9DE4692E8F
:100A10008D2D09D3F82EE92E88E890E0A4D2EF922C
:100A2000FF921F930F93C1D48ED20F900F900F900F
:100A30000F90892B69F380E090E080D28936D1F164
:100A4000ECF08F3609F447C08437C1F18E3609F4D3
:100A500046C069960FB6F894DEBF0FBECDBFDF91DA
:100A6000CF911F910F91FF90EF90DF90CF90BF90AB
:100A7000AF909F908F907F906F900895813609F48A
:100A80004BC0853631F788E290E06DD278D29B83F7
:100A90008A836091DA017091DB016A0D7B1D49E167
:100AA00050E0CE0101966CD8BE016F5F7F4F8D2D57
:100AB000D4DEAECF61E08D2D36DCAACF85E590E0A7
:100AC00052D25DD2998F888F8AE390E04CD257D270
:100AD0009F8B8E8BDECF60E08D2D25DC99CF89E753
:100AE00090E041D2FE0136964F01F12CF4011082C4
:100AF00080E090E023D28D30B1F08A30A1F0F40193
:100B000081934F01082E000C990B62D4F394FFE0FF
:100B1000FF12ECCF1D8ABDCF89818F3F59F08D34F4
:100B200039F0C982B6CF1D8AFF2009F471CFB1CF49
:100B30007982AFCF6982ADCFCF92DF92EF92FF92F1
:100B40000F931F93CF93DF93CDB7DEB769970FB69F
:100B5000F894DEBF0FBECDBF87EEC82E81E0D82E41
:100B6000E12CF12C10E017C08091520290E0F601C8
:100B700031972081821B91092E893F898217930723
:100B800008F03FC01F5FF9E1EF0EF11C88E0C80ECE
:100B9000D11C163039F16091DA017091DB016E0DD4
:100BA0007F1D49E150E0CE010196D5D7812F0EDCA3
:100BB000082F812F38D20111D7CF2091530230E076
:100BC000F6014081241B3109488D598D24173507C2
:100BD000C8F229812D34C9F02435A1F661E0812FB6
:100BE000A2DBD0CF69960FB6F894DEBF0FBECDBFA3
:100BF000DF91CF911F910F91FF90EF90DF90CF90F9
:100C0000089560E0812F8FDBBDCF2A813B812817BB
:100C1000390708F0B7CF61E0812F85DBB3CF0F93A1
:100C20001F93CF93C0E00BEC11E004C080914C0205
:100C30008C1309C088D1892BC9F380E090E0CF9153
:100C40001F910F917BC178DF8EE592E08CD18CE40F
:100C500092E05ADCC0E08C2FE6D19F938F931F93D4
:100C60000F93A3D3CF5F0F900F900F900F90C630CC
:100C700091F7C0914C02DECF2F923F925F926F921C
:100C80007F928F929F92AF92BF92CF92DF92EF921C
:100C9000FF920F931F93CF93DF93CDB7DEB7E49707
:100CA0000FB6F894DEBF0FBECDBF8DE392E05BD1EF
:100CB0008E01075D1F4F3E0189E1680E711CD8014E
:100CC000FE01319611921192119211921D92E61528
:100CD000F705C1F7A1E0B0E0BCABABABE1E0F0E001
:100CE000FAABE9AB512C7E01FFE2EF0EF11C96ED61
:100CF000292E91E0392E80914C028515D1F11CDF0F
:100D000050904C026801CE0101965C0199249394A5
:100D10008C2C801A882D87D1D5014D915D916D91D4
:100D20007C91480F591F611D711DF501419351932D
:100D3000619371935F01882D49DB882311F0D601FF
:100D40009C92BFEFCB1ADB0ACE14DF0409F75110D7
:100D500010C0EBA9FCA9EF2BF1F4A9A9BAA91A9725
:100D600009F45CC0A9A9BAA91196BAABA9AB1CAA8F
:100D70001BAAE9D0892B09F4BECF80E090E0DED039
:100D80008B3109F489C0833609F0B5CFE1E0F0E09A
:100D9000FCABEBABB0CF87E392E0E5D0D12C5801B0
:100DA0001D2DB301812F3BDB7F926F92A2EDB1E04D
:100DB000BF93AF93FAD21F5F0F900F900F900F90D9
:100DC000163079F7850181E392E0CDD0E8DCC12CC3
:100DD000D12C18AA1FA66091DA017091DB016C0D6D
:100DE0007D1D6F5F7F4F42E050E0C701B4D688A9F8
:100DF0008F938FA58F933F922F92D7D2F9E1CF0E89
:100E0000D11C0F900F900F900F9086E9C816D10457
:100E100001F7A9A9BAA91A9709F0A4CF8BE292E029
:100E2000A2D0BDDC5801FE0131966F01812C912CBE
:100E3000D6016D917D918D919C912CE330E040E045
:100E400050E03BD2CA01B9012AE030E040E050E076
:100E500034D23F932F933F922F92A7D2F601119253
:100E60001192119211926F01D5018D915D010F9038
:100E70000F900F900F90882319F088248394912C61
:100E8000C614D704A9F68928F9F41CAA1BAAE1E024
:100E9000F0E0FAABE9AB6DCFE4960FB6F894DEBFA5
:100EA0000FBECDBFDF91CF911F910F91FF90EF90BB
:100EB000DF90CF90BF90AF909F908F907F906F907A
:100EC0005F903F902F90089585E292E04CD067DCD0
:100ED0005801C12CD12C15C080E090E09F938F93D6
:100EE0003F922F9262D2FFEFAF1ABF0A89E1C80E7C
:100EF000D11C0F900F900F900F9096E9C916D10456
:100F000021F21A8E198ED5018C91882329F36091D4
:100F1000DA017091DB016C0D7D1D6F5F7F4F42E048
:100F200050E0C30118D6F5011082898D9A8DD6CF75
:100F30005D9BFECF8CB980E090E008955F9BFECF73
:100F40008CB190E008958BB1807890E00895FC0119
:100F50009081992339F031965D9BFECF9CB9919198
:100F60009111FACF0895FC019491992339F05D9B7A
:100F7000FECF9CB9319694919111F9CF089580E0FC
:100F800090E05F9BFECF5F9BFECF2CB12D30B1F088
:100F90002A30A1F0AC01440F551F880F991F880F0C
:100FA000991F880F991F840F951F820F911D27FD90
:100FB0009A95C0975D9BFECF2CB9E3CF089510BCE6
:100FC0008CE089B988E18AB98EE880BD6EE977E066
:100FD00088E997E0A0C195B3987F95BB833099F0DD
:100FE00050F0843031F0863051F485B3836085BB96
:100FF0000895A89A0895813011F4AA9A089595B396
:10100000892B85BB089585B3866085BB089584E0F0
:1010100083BF83E882BF87E08EBD1DBC1CBC89B73F
:10102000816089BF0895E82FF0E0EE0FFF1FE05CBC
:10103000FD4F8081918108951F920F920FB60F92FC
:1010400011242F933F934F935F936F937F938F93CD
:101050009F93AF93BF93EF93FF9383E882BF8091F9
:10106000DE018F5F8093DE018091DD018F5F8093D1
:10107000DD018091DD01893109F466C08091DE01D6
:1010800090E02091540230915502821793070CF49E
:101090004AC01092DE0180914C028F5F80934C0217
:1010A000909152029F5F909352028C33E0F1109224
:1010B0004C0280914D028F5F8C3308F46DC010920A
:1010C0004D0280914E028F5F80934E0290915302A9
:1010D0009F5F90935302883130F190915002E92F35
:1010E000F0E0EB56FF4F2081022E000C330B9230C4
:1010F00009F45DC010924E0280914F028F5F482F1D
:1011000050E0241735070CF04AC081E080934F026D
:101110009F5F9D3008F45FC0809350028091510220
:101120008F5F80935102FF91EF91BF91AF919F919B
:101130008F917F916F915F914F913F912F910F9080
:101140000FBE0F901F9018958091DC0181111DC07A
:10115000E091DF01F0E08CB59DB5EE0FFF1FE05C84
:10116000FD4F918380838091DF018F5F8093DF014A
:101170008091DF01863010F01092DF018091DF0155
:101180002ADF81E08093DC0104C08091DC018130A2
:1011900049F01092DD0172CF80934D02C4CF80934D
:1011A0004F02C1CF1DBC1CBC1092DC01F2CF80915C
:1011B0005102837011F42DE130E010924E028091C3
:1011C0004F028F5F482F50E02417350744F781E026
:1011D00080934F0293E090935002A5CF19BE17DF82
:1011E00015BA87E084BB12BA8CED81BB18BA81E0D6
:1011F00087BB80934F028093500286E990E0BBD476
:1012000090935502809354020196029730F48AEF2E
:1012100090E09093550280935402D1DE789480E15F
:1012200092E028E0DC01D097ECE4F2E0322F01906C
:101230000D923A95E1F7ECE4F2E0DC01322F0190F7
:101240000D923A95E1F7089632E08034930751F712
:101250000ED9C0E080914C028C1749F086E290E0F4
:1012600082DE8CE492E050D9C0914C0265DC6BDEEA
:10127000892B81F380E090E061DE9FEC980F96303F
:1012800030F4892F8DDB9FEC980F9630D0F38337A5
:1012900089F08B3661F0853739F0833611F0E7D865
:1012A000D9CFEADCE4D8D6CF99DAE1D8D3CF54D974
:1012B000DED8D0CFB4DCDBD8CDCFA1E21A2EAA1B6A
:1012C000BB1BFD010DC0AA1FBB1FEE1FFF1FA217F6
:1012D000B307E407F50720F0A21BB30BE40BF50BF3
:1012E000661F771F881F991F1A9469F7609570957C
:1012F000809590959B01AC01BD01CF010895A29FFF
:10130000B001B39FC001A39F01D0B29F700D811D9A
:101310001124911D08950F931F93CF93DF9300978E
:1013200031F46115710519F480E090E039C08B014A
:10133000EC016EE070E081E090E013D2FC01892BBB
:1013400099F380E883830115110571F013870287F3
:1013500081E883838091560290915702892B21F472
:10136000F0935702E09356022097C9F0D187C087C7
:101370008381826083838091580290915902892BE6
:1013800071F4F0935902E093580280915A029091BF
:101390005B02892B21F4F0935B02E0935A02CF01A8
:1013A000DF91CF911F910F910895A0E0B0E0EAED99
:1013B000F9E00FC4AE014B5F5F4FFA01619171918B
:1013C000AF01809158029091590208D0E2E01DC40B
:1013D000609158027091590228D30895ACE0B0E0B2
:1013E000E3EFF9E0E6C37C016B018A01FC0117829F
:1013F0001682838181FFB0C1CE0101964C01F701B5
:101400009381F60193FD859193FF81916F0188236C
:1014100009F49EC1853239F493FD859193FF819142
:101420006F01853221F4B70190E0FFD2E8CF512C53
:10143000312C20E02032A0F48B3269F030F480327D
:1014400059F0833269F420612CC08D3239F0803339
:1014500039F4216026C02260246023C0286021C0A6
:1014600027FD27C030ED380F3A3078F426FF06C04C
:10147000FAE05F9E300D1124532E13C08AE0389E8F
:10148000300D1124332E20620CC08E3221F426FD43
:101490005FC1206406C08C3611F4206802C0883613
:1014A00041F4F60193FD859193FF81916F018111C4
:1014B000C1CF982F9F7D9554933028F40C5F1F4F18
:1014C000FFE3F9830DC0833631F0833771F0833544
:1014D00009F057C021C0F801808189830E5F1F4F3A
:1014E00044244394512C540114C03801F2E06F0E8F
:1014F000711CF801A080B18026FF03C0652D70E04B
:1015000002C06FEF7FEFC5012C8784D22C018301CD
:101510002C852F77222E16C03801F2E06F0E711C39
:10152000F801A080B18026FF03C0652D70E002C0E5
:101530006FEF7FEFC5012C875BD22C012C852068D3
:10154000222E830123FC19C0832D90E048165906F2
:10155000A0F4B70180E290E068D23A94F5CFF501AB
:1015600027FC859127FE81915F01B70190E05DD254
:1015700031103A94F1E04F1A51084114510479F7AF
:10158000DEC0843611F0893631F5F80127FF07C037
:1015900060817181828193810C5F1F4F08C06081DF
:1015A0007181072E000C880B990B0E5F1F4F2F7651
:1015B000722E97FF09C090958095709561957F4F29
:1015C0008F4F9F4F2068722E2AE030E0A40165D231
:1015D000A82EA81843C0853729F42F7EB22E2AE002
:1015E00030E025C0F22FF97FBF2E8F36C1F018F4FE
:1015F000883579F0ADC0803719F0883721F0A8C060
:101600002F2F2061B22EB4FE0DC08B2D8460B82E1A
:1016100009C024FF0AC09F2F9660B92E06C028E09B
:1016200030E005C020E130E002C020E132E0F80106
:10163000B7FE07C060817181828193810C5F1F4F6B
:1016400006C06081718180E090E00E5F1F4FA401B1
:1016500024D2A82EA818FB2DFF777F2E76FE0BC074
:10166000372D3E7FA51450F474FE0AC072FC08C0EA
:10167000372D3E7E05C0BA2C372D03C0BA2C01C0D1
:10168000B52C34FF0DC0FE01EA0DF11D80818033C1
:1016900011F4397E09C032FF06C0B394B39404C07C
:1016A000832F867809F0B39433FD12C030FF06C053
:1016B0005A2CB31418F4530C5B18B32CB31460F405
:1016C000B70180E290E03C87B0D1B3943C85F6CF7F
:1016D000B31410F43B1801C0312C34FF11C0B70112
:1016E00080E390E03C87A1D13C8532FF16C031FDFC
:1016F00003C088E790E002C088E590E0B7010CC025
:10170000832F867851F031FF02C08BE201C080E266
:1017100037FD8DE2B70190E088D1A51430F4B70110
:1017200080E390E082D15A94F8CFAA94F401EA0DB4
:10173000F11D8081B70190E078D1A110F6CF332060
:1017400009F45DCEB70180E290E06FD13A94F7CF13
:10175000F7018681978102C08FEF9FEF2C96E2E11F
:1017600044C20F931F93CF93DF93869F8001879F7F
:10177000100D969F100D1124C8010DD0EC0100979B
:1017800021F0A80160E070E03ED1CE01DF91CF9161
:101790001F910F910895CF93DF938230910510F43C
:1017A00082E090E0E0915E02F0915F0220E030E0A4
:1017B000C0E0D0E0309711F14081518148175907BE
:1017C000C0F04817590761F482819381209719F07E
:1017D0009B838A832BC090935F0280935E0226C016
:1017E0002115310519F04217530718F49A01BE016B
:1017F000DF01EF010280F381E02DDCCF21153105FF
:1018000009F1281B390B2430310590F412968D9183
:101810009C9113976115710521F0FB0193838283DD
:1018200004C090935F0280935E02FD01329644C033
:10183000FD01E20FF31F81939193225031092D9303
:101840003C933AC020915C0230915D02232B41F41D
:10185000209162003091630030935D0220935C021E
:1018600020916000309161002115310541F42DB7C0
:101870003EB74091640050916500241B350BE09108
:101880005C02F0915D02E217F307A0F42E1B3F0B00
:101890002817390778F0AC014E5F5F4F24173507E2
:1018A00048F04E0F5F1F50935D0240935C0281939E
:1018B000919302C0E0E0F0E0CF01DF91CF91089575
:1018C0000F931F93CF93DF93009709F48CC0FC0113
:1018D00032971382128200915E0210915F0201150D
:1018E000110581F420813181820F931F20915C02C8
:1018F00030915D022817390779F5F0935D02E09386
:101900005C0271C0D80140E050E0AE17BF0750F450
:1019100012962D913C911397AD012115310509F1D6
:10192000D901F3CF9D01DA01338322836081718174
:10193000860F971F8217930769F4EC01288139817C
:10194000260F371F2E5F3F4F318320838A819B8173
:1019500093838283452B29F4F0935F02E0935E0228
:1019600042C01396FC93EE931297ED014991599161
:101970009E01240F351FE217F30771F480819181D6
:10198000840F951F029611969C938E93828193816A
:1019900013969C938E931297E0E0F0E0D801129694
:1019A0008D919C911397009719F0F8018C01F6CF57
:1019B0008D919C9198012E5F3F4F820F931F209134
:1019C0005C0230915D022817390769F4309729F4D9
:1019D00010925F0210925E0202C013821282109374
:1019E0005D0200935C02DF91CF911F910F910895EA
:1019F000FC010590615070400110D8F780959095DA
:101A00008E0F9F1F0895DC0101C06D93415050401F
:101A1000E0F70895FC016150704001900110D8F783
:101A2000809590958E0F9F1F08950F931F93CF93CE
:101A3000DF93FB01238121FD03C08FEF9FEF28C0BF
:101A400022FF16C0468157812481358142175307F2
:101A500044F4A081B1819D012F5F3F4F31832083EA
:101A60008C93268137812F5F3F4F3783268310C0A9
:101A7000EB01092F182F0084F185E02D0995892BA2
:101A8000E1F68E819F8101969F838E83812F902F17
:101A9000DF91CF911F910F910895FA01AA27283065
:101AA00051F1203181F1E8946F936E7F6E5F7F4F2B
:101AB0008F4F9F4FAF4FB1E03ED0B4E03CD0670FA7
:101AC000781F891F9A1FA11D680F791F8A1F911DFA
:101AD000A11D6A0F711D811D911DA11D20D009F44A
:101AE00068943F912AE0269F11243019305D31938C
:101AF000DEF6CF010895462F4770405D4193B3E075
:101B00000FD0C9F7F6CF462F4F70405D4A3318F01B
:101B1000495D31FD4052419302D0A9F7EACFB4E0CC
:101B2000A6959795879577956795BA95C9F7009784
:101B30006105710508959B01AC010A2E0694579525
:101B4000479537952795BA95C9F7620F731F841F7C
:101B5000951FA01D0895DC01CB01FC01E199FECF8A
:101B600006C0FFBBEEBBE09A31960DB20D9241501C
:101B70005040B8F70895A8E1B0E042E050E0EDCF62
:101B8000DC01CB0102C02D9105D041505040D8F767
:101B90000895262FE199FECF9FBB8EBB2DBB0FB6BC
:101BA000F894E29AE19A0FBE01960895F2DF272F8A
:101BB000F1CF2F923F924F925F926F927F928F92CE
:101BC0009F92AF92BF92CF92DF92EF92FF920F93CC
:101BD0001F93CF93DF93CDB7DEB7CA1BDB0B0FB6D6
:101BE000F894DEBF0FBECDBF09942A883988488893
:101BF0005F846E847D848C849B84AA84B984C88429
:101C0000DF80EE80FD800C811B81AA81B981CE0F1F
:101C1000D11D0FB6F894DEBF0FBECDBFED01089504
:041C2000F894FFCF66
:101C24000000600220004A616E00466562004D615A
:101C34007200417072004D6169004A756E004A7508
:101C44006C0041756700536570004F6B74004E6FF4
:101C5400760044657A001F1C1F1E1F1E1F1F1E1FB7
:101C64001E1F426C756D6500202564202D20257390
:101C74000D0A00253032642E25732E323025303281
:101C84006420253032643A253032643A2530326497
:101C9400000D0A252D3136732020253575200025A9
:101CA4003575202000253032646D2530326473256B
:101CB4003364642530326468200020253364642C46
:101CC400253032643A253032643A253032640032A9
:101CD40030253032642D253032642D253032642095
:101CE400253032643A2530326400616B7475656C5A
:101CF4006C3D25642E206E6575657220576572747F
:101D04002028454E5445523D6B65696E65204165FA
:101D14006E646572756E6729203F000D0A0A2A2ACF
:101D24002025642E202573202A2A0D0A00206520F0
:101D34002D2045696E736368616C7470756E6B7485
:101D44003A2025750D0A00496E74657276616C6CD3
:101D54003A20256420546167652C2025642053743F
:101D6400642E0D0A00202020202047696573737AB1
:101D74006569743A20253032643A25303264206D26
:101D8400696E0D0A002575202020002C202535754C
:0A1D940030003B2573003B2575006D
:00000001FF
