:1000000043C400005DC400005BC400000C94DB121C
:1000100057C4000055C4000053C4000051C4000080
:100020004FC400004DC400000C94252F49C40000AB
:1000300047C4000045C4000043C4000041C40000A0
:100040003FC400000C94D60F3BC4000039C400002C
:1000500037C4000066C7000033C4000031C400008C
:100060002FC400002DC400002BC4000029C40000D0
:1000700027C4000025C4000023C4000021C40000E0
:100080001FC400001DC400001BC4000019C40000F0
:1000900017C4000015C4000013C4000011C4000000
:1000A0000FC400000DC400000BC40000322C642CEF
:1000B000482D642C482DAC2CD42C482DF02C182D18
:1000C00042B60A62243243140646220D69101E41CC
:1000D000281A5AA21C4EEE1545A21D6B082347256F
:1000E0000D4D5D0D4BCB0D55500E592F2052210A51
:1000F00054D62656210B57610A586E0F65E00A66E2
:10010000952A6DE32B6CA50A74F10775FF1678DB51
:10011000050000002A03430055004C002D0041005B
:1001200052004400550049004E004F003400330097
:10013000330000002A03430055004C002D0041000D
:1001400052004400550049004E004F003800360070
:10015000380000001603620075007300770061002C
:10016000720065002E0064006500000004030904AD
:10017000090243000201008032090400000102026A
:1001800001000524000110052401030104240206D6
:100190000524060001070582030800FF0904010089
:1001A000020A000000070504024000000705830260
:1001B0004000001201100102000008EB034B200078
:1001C0000001020001202F2000203D2000072E0505
:1001D0000DD391FF080500000C0021656A2D3B132B
:1001E00022F862073F181D1CC700B0876BF8B611D4
:1001F000EA2A001F41000D2E2D07D3913D04320045
:1002000000060021656A57C43023B900070018149E
:100210006C070090876BF85611E92A001F41000017
:10022000030F1E2627000000030F1E253638670027
:10023000030F256740605000030F2751888381001A
:10024000030F2750C8C3C2002700000000000000B1
:1002500067000000000000005000000000000000E7
:100260008100000000000000C200000000000050FB
:100270004C4C310D0A00504C4C300D0A00202846E1
:100280002D42616E643A203836384D487A29002074
:1002900028462D42616E643A203433334D487A2922
:1002A0000043554C2D41524455494E4F3836380085
:1002B00043554C2D41524455494E4F34333300562B
:1002C00020312E32302E303620612D63756C6677EA
:1002D000204275696C643A20707269766174652099
:1002E0006275696C642028756E6B6E6F776E29205D
:1002F0000043554C2D41524455494E4F00202F206C
:1003000000203D20004C4F56460D0A00424F5646F5
:100310000D0A00737065636966792076616C6964A3
:10032000206D6F6465206E756D6265720D0A000345
:1003300002FF0000000000000000000000000000BC
:10034000000000030210881182FF0000000000007E
:100350000000000000000003071088110B0D210EA3
:100360006B0FD01553FF00000000000B060D210E8F
:10037000650F6A1700181819161B431C68250026FC
:10038000110001024605D4042D03020700080210E3
:1003900089115C12061556FF004552523A434341FB
:1003A0000D0A000B08105B11F81547191D1A1C1BCC
:1003B000C71C001DB221B623EA0007022E030D045C
:1003C000E905CA070C0B060D210E650F6A10C8114E
:1003D00093120315341733181819161B4321562589
:1003E00000261129592C812D353EC34C454E4552CE
:1003F000520D0A004C4F56460D0A004C454E4552D0
:10040000520D0A000007024604C605260B0610C856
:100410001193120313221534173F182819161B4382
:100420002156250026110D210E650F6A070C1607AF
:1004300020F81E871F6B29592C812D353EC3FF00E4
:1004400000070246030D049A057D0642070C0B06C1
:100450000D210E650F6A10C8119312031534170091
:10046000181819161B431C6825002611FF000000F0
:100470000000000000000000000000000D2E2D070D
:10048000D3913D04320000060010B07155E43023D2
:10049000B900070018146C070090876BF85611E933
:1004A0002A001F41000D2E2D07D3913D043200007C
:1004B000060010ABA5550A3023B900070018146CCC
:1004C000070090876BF85611E92A001F41000D0ABA
:1004D000006B720020436865636B73756D20457215
:1004E000726F720D0A004B6F707020436F6D6D61FB
:1004F0006E6420556E6B6E6F776E0D0A004B6F70D9
:1005000070205265636569766520537562436F6D2F
:100510006D616E6420556E6B6E6F776E0D0A0052C2
:10052000585F494E49545F4552525F4D41524353C3
:10053000544154455F5258006B72532D52656365A8
:1005400069766553746172740D0A006B72452D52A1
:10055000656365697665456E640D0A0020427974AD
:100560006573206F72204B6579636F6465206973D2
:10057000206E6F206865782076616C75650D0A00C5
:100580004B6F7070205472616E736D697474204388
:100590006F6D6D616E64206E6F7420657175616C36
:1005A00020746F2000426C6F636B330D0A00426C45
:1005B0006F636B320D0A005B6865785D0D0A00742D
:1005C00069636B732D426C6F636B53746172745407
:1005D000696D653A20005B6865785D0D0A004B65C2
:1005E000794F666654696D653A20202020202020CE
:1005F00020202020005B6865785D0D0A00426C6F4A
:10060000636B2053746172742054696D653A2020C5
:10061000202020005B6865785D0D0A005469636BDB
:100620002054696D65723A2020202020202020204F
:100630002020005B6865785D0D0A004B65794F6688
:100640006654696D6520696E207469636B733A2026
:1006500020006D7365630D0A004B65794F66665423
:10066000696D653A202020202020202020202000B5
:100670000D0A005469636B2054696D65723A20203D
:10068000202020202020202020000D0A000D0A41DB
:100690006D6F756E74206F662042797465732028C3
:1006A0004865782920666F756E6420696E73696489
:1006B0006520636F6D6D616E64206C696E6520707E
:1006C0006172616D657465723A20202020202020BF
:1006D00020202020000D0A4E657874204368617246
:1006E00061637465722028696E742920616674657F
:1006F0007220706172616D65746572202873686F15
:10070000756C64206265206C696E6520656E64207E
:10071000636861726163746572293A20000D0A533F
:100720007472696E676C656E6774683A2020202069
:100730002000636F6D6D616E646C696E65706172CF
:10074000616D657465723A20005472616E736D69F3
:1007500074740D0A0054585F494E49545F45525213
:100760005F00012E4604AA540FE00000000600219D
:10077000656A97831663B947070C29366C07409161
:10078000876BF85611E92A001F41004E2F410045A2
:100790004F420D0A004E2F41004E2F41000053538F
:1007A00000547D7DFFFF4B4B7E7E002069732075DA
:1007B0006E6B6E6F776E2920557365206F6E6520A6
:1007C0006F66003F2028004F4646004F46460054C3
:1007D0004D4F444500534D4F4445006E6F742063A8
:1007E0006F6D70696C656420696E0D0A00045405B4
:1007F0003D1700000602000B080C000D210E6B0FC8
:10080000D0105C11041206132214F80A00154421BA
:10081000B622101818192E1ABF1B431C091DB52328
:10082000EA242A2500261F29592C812D352E090757
:10083000040800090006FF3EC2FF04760596170073
:10084000000602000B080C000D210E650F6A106AED
:10085000114A1206132214F80A00154721B6221075
:100860001818192E1A6D1B041C091DB223EA242A1C
:100870002500261F29592C812D352E090704080033
:10088000090006FF3EC2FF0011241FBECFEFDAE0D1
:10089000DEBFCDBF11E0A0E0B1E0E6EFFEE602C0B2
:1008A00005900D92A03DB107D9F71AE0A0EDB1E097
:1008B00001C01D92A333B107E1F703D00C9479373F
:1008C0009FCB2FE088E190E00FB6F894A895809335
:1008D00060000FBE2093600091E080E80FB6F894AE
:1008E00080936100909361000FBE2E9A2D9A04B6FA
:1008F00003FE11C083E390E08BD5882361F060E0B4
:1009000083E390E080D5F89481E085BF82E085BFE5
:10091000E0E0F8E3099589EF87BD84E085BD82E0DA
:1009200084BD80936E00109280008AE080938100E5
:1009300084B7877F84BF559A0E94B12B6FD60E94DF
:10094000FA2E0E9476260E94480F80E79BE2909341
:10095000B5048093B4040E94231689E08093D401E7
:10096000DCD65D9A0E94D62F17D20E944A104FD330
:100970000E94DB2A0E94A1170E949F180E942A1C35
:100980000E941F1D0E94AF150E9444250E940E3137
:10099000E9CF292F33272230310559F02330310593
:1009A00069F02130310539F582E190E023EB31E047
:1009B00026C083E490E020E731E021C09927813010
:1009C000910539F018F0029751F015C0ECE6F1E00E
:1009D00002C0E4E5F1E0849190E09F0110C01E990F
:1009E00003C024E131E002C024E331E0E4E3F1E0BC
:1009F000849190E004C080E090E020E030E0FA01D3
:100A00003183208308958EBD0DB407FEFDCF8EB5D2
:100A10000895A1E0B0E0EFE0F5E00C946C34482FCD
:100A20008A3008F048E088E0489F70011124F701FF
:100A3000E15EFD4F7F018BE290E0F70164918C0154
:100A40000F5F1F4F4983DFD4FFEFEF1AFF0A498181
:100A50000333110511F0C801F0CF4550453010F4B3
:100A600061E101C067E184E290E0CDD42196E6E047
:100A70000C948834CF93DF9382E090E0FC01EC503B
:100A8000FE4F6491EC012196BED4CB32D10511F01A
:100A9000CE01F4CF87E390E0FC01EA56FE4F64916B
:100AA000EC012196B0D4C036D10511F0CE01F4CFBF
:100AB0001E9918C060E18FE090E0A5D460EB80E162
:100AC00090E0A1D461E781E190E09DD460E184E40D
:100AD00090E099D460EB85E490E095D461E786E4FA
:100AE00090E091D488E095DFDF91CF910895289828
:100AF000806C89DF80E087DF289A0895A1E0B0E06C
:100B0000E4E8F5E00C9470342898806469837BDF16
:100B10006981862F78DF289A2196E2E00C948C3444
:100B2000289871DF289A0895EF92FF920F931F93F0
:100B3000CF93DF93EC0110924B03EA98209A289A06
:100B40008EE190E0D7D228988EE190E0D3D2289A17
:100B50008DE290E0CFD280E3E3DF84E690E0CAD27A
:100B6000289880E450DF7E0189E2E80EF11C8E01B6
:100B70000F5F1F4FCE014CD446DF0E151F0511F03D
:100B8000E801F5CF289A28988EE73DDF8BE290E0C8
:100B9000EC0121963DD437DFC333D10511F0CE01EE
:100BA000F7CF289A83E3BCDF81E0A9D2CDB7DEB7C7
:100BB000E6E00C948834A1E0B0E0E1EEF5E00C94BE
:100BC000703422E0298341E0BE016F5F7F4F0196C0
:100BD000BFD389811EDF82E090E0A6DF2196E2E0AC
:100BE0000C948C34CF93EA9886E39ADFCFEF85E3B9
:100BF00097DFC1508077803229F08AE090E07AD286
:100C0000C111F5CFCF910895CF93CFEF84E388DF63
:100C1000C1508077803129F08AE090E06BD2C11119
:100C2000F5CFEA9ACF910895A2E0B0E0EAE1F6E0CC
:100C30000C946E348C01FC0181818737E9F441E02A
:100C4000BE016F5F7F4FC801029682D3892BA1F04E
:100C500041E0BE016E5F7F4FC801049679D3892BB6
:100C600059F06A8189814ADF83E35ADFCDDF8981C8
:100C70006BD38A8169D32CC041E0BE016E5F7F4F88
:100C8000C801019665D3892B21F18A81893969F4DC
:100C900010E0812F2CDF58D3812F8770873009F423
:100CA000DFD21F5F1033A9F714C021DF182F83E4B0
:100CB0008BD28A8149D389EC91E0C5D2812F44D36C
:100CC00085EC91E0C0D240E262E0812F90E0CCD28E
:100CD000C7D22296E4E00C948A3486E321DF109296
:100CE000B6041092490310924B03089582E090E0FD
:100CF0001BDF81E08093B6041092490310924B03EE
:100D000008950F931F93CF93DF93082F10E0C62F02
:100D1000D0E085E3ECDE801731F0CE01EBD111504D
:100D2000C1F781E001C080E0DF91CF911F910F9169
:100D3000089585E2DCDE8F3311F080E0089586E3CC
:100D4000EFDE8091D001811104C086E792E07BD272
:100D500002C08DE3E5DE83E3E3DE64E081E0D1DF22
:100D600085E2C5DE8F3349F78091D001811103C040
:100D70008FE692E068D281E0089585E3B8DE8D3099
:100D800051F485E2B4DE8F3331F4D3DF84E3C8DE7F
:100D900080778031D9F708958091A706843009F0D3
:100DA00069C08093E9008091D10181112AC08091AE
:100DB000E80085FF26C08091F2009091F300892B16
:100DC00031F06091F10080E296E05DD4F4CF809143
:100DD000E800982F9B7F9093E8008F778093E8003E
:100DE00081E08093D1018CEC96E09093B2048093E3
:100DF000B104E091B404F091B50481E0099510923A
:100E0000D10183E08093E90080919F05882391F1CF
:100E10008091E80085FF2EC0F89480919F0588237B
:100E200069F08091F2009091F3008034910530F4E4
:100E30008DE995E03ED48093F100EFCF78948091D6
:100E4000F2009091F3002091E800322F3E7F309322
:100E5000E8002F772093E8008034910559F40E9430
:100E60009E2D8091E800982F9E7F9093E8008F77C9
:100E70008093E800089542E061EC82E00E944E2DEC
:100E800042E361E883E00E944E2D42E360E884E0A3
:100E90000E944E2D10920001109201011092020149
:100EA0001092030108958091A8069091A9069132AD
:100EB00029F0923261F1903299F512C0813A81F5B0
:100EC0008091E800877F8093E80067E070E080E031
:100ED00091E00E94C72D8091E800982F9B7F11C060
:100EE0008132F1F48091E800877F8093E80067E029
:100EF00070E080E091E00E94712E8091E800982FD0
:100F00009E7F9093E8008F778093E8000895813268
:100F100039F48091E800877F8093E8000C94782D65
:100F200008951F920F920FB60F9211248F939F93E3
:100F3000AF93BF93EF93FF938091B8049091B9045E
:100F4000A091BA04B091BB040196A11DB11D80937C
:100F5000B8049093B904A093BA04B093BB048091F1
:100F6000B7048F5F8093B704EEE5F5E0808191814F
:100F7000181619061CF4019791838083369685E034
:100F8000E637F80799F780917805909179050097F1
:100F900029F00197909379058093780580918B05CE
:100FA0008F3F19F0815080938B05FF91EF91BF9196
:100FB000AF919F918F910F900FBE0F901F9018953A
:100FC0002FB7F8944091B8045091B9046091BA04D5
:100FD0007091BB04FC0140835183628373832FBFF4
:100FE0000895A4E0B0E0E7EFF7E00C947034CE0190
:100FF0000196E6DF8C81A8D18B81A6D18A81A4D10C
:101000008981A2D12DD12496E2E00C948C341F93D7
:10101000CF93DF938091B8049091B904A091BA0462
:10102000B091BB042091D301281709F45FC08091CF
:10103000B8049091B904A091BA04B091BB04809314
:10104000D301A895CEE5D5E010E028813981232B86
:1010500019F4812F0E9405291F5F26961430A9F7E5
:101060008091780590917905892B11F40E9461296E
:1010700080918B05811102C00E94BF2980914A0591
:10108000882339F0815080934A05811102C00E9463
:1010900036188091B7048D3748F11092B7048091CB
:1010A000070181FF04C08BB190E289278BB9809141
:1010B000BC049091BD04843823E0920728F4019683
:1010C0009093BD048093BC048091D2018F5F809384
:1010D000D2018C3359F41092D20180915D058F5F5B
:1010E00080935D058C3310F010925D05DF91CF91F8
:1010F0001F910895880F991F0197F1F7089520ED2A
:1011000037E0815020F0F9013197F1F7FACF0895D7
:10111000CF93DF93DC0113968C911397843509F0FC
:1011200050C0CD010396CC91FD0170964DE04C1757
:1011300050F050E0D0E09E012F5031094217530784
:1011400009F03FC005C021912B3399F34F5FEFCFDA
:10115000FE013E97E80FF91F2081243591F5149682
:101160003C911497218132132CC015963C91159710
:101170002281321326C016963C9116972381321392
:1011800020C017963C911797248132131AC061979B
:10119000C80FD91F858188838681898381858A8349
:1011A00082858B8383858C8384858D8385858E83DF
:1011B0008C918A508C9312968C9112978A50129629
:1011C0008C93DF91CF910895CF93C82F8091A7067C
:1011D000843079F48091D40180FF0BC080919F0509
:1011E00087FDDADD6C2F8DE995E04DD2CA3009F428
:1011F000D3DD809155058823C9F08091D40183FF08
:1012000015C0CA3099F0CD3011F46BE301C06C2FDA
:1012100085EC94E038D2CD3019F485EC94E078DF99
:1012200083E080934A0582E080935005CF91089532
:10123000CF93DF93EC018991882311F0C5DFFBCFB9
:10124000DF91CF910895CF93DF93EC01FE0184915C
:10125000882319F0B9DF2196F9CFDF91CF91089556
:101260008DE0B2DF8AE0B0CFA6E0B0E0EAE3F9E0DB
:101270000C946E34062F1E8215E02AE030E01150E7
:10128000E1E0F0E0EC0FFD1FE10FF11DB9010E945C
:101290003934805D8083CB010150009769F01111D2
:1012A000EECF0AC0112359F01150E1E0F0E0EC0F4D
:1012B000FD1FE10FF11D4083015007FFF3CF81E0D7
:1012C00090E08C0F9D1F810F911DB2DF2696E4E008
:1012D0000C948A34A5E0B0E0E0E7F9E00C947034B7
:1012E0001D8224E0382F3F702150E22FF0E03A3089
:1012F00010F4305D01C0395CA1E0B0E0AC0FBD1F5F
:10130000EA0FFB1F308334E0969587953A95E1F715
:101310006150009739F7615067FD0BC0222349F0F7
:101320002150E1E0F0E0EC0FFD1FE20FF11D4083E2
:10133000F2CF81E090E08C0F9D1F820F911D78DF2E
:101340002596E2E00C948C3440E362E090E0C2CF5A
:10135000DC01FB0130E090E08D918823A9F081361B
:1013600008F0805220ED280F2A3030F02FEB280FA4
:10137000263030F429EC280F292B332379F006C0CE
:10138000803251F38A3341F3CF0105C0CF0101967A
:101390002083415041F4861B970B0895922F92951C
:1013A000907F31E0D9CFFC01D5CF20E030E05AE08A
:1013B000FC014191CF01442379F0E0EDE40FEA30E4
:1013C000B8F7F9015E9F90015F9F300D1124205303
:1013D0003109240F311DECCFFB01318320830895A7
:1013E000982F92959F709A3010F4905D01C0995C8F
:1013F000FB0190838F708A3010F4805D01C0895C9E
:10140000FB01818308950E943737F999FECF089533
:101410000C942F3708951F93CF93DF93162F1150FD
:101420001F3F59F0EC012196F3DF8EDF112311F0FD
:101430008AE3CADE1150CE01F3CFDF91CF911F9125
:101440000895A2E0B0E0E7E2FAE00C946D34FC010C
:1014500021812D3421F466E08AEF93E005C0203528
:1014600029F460E18AED93E0D6DF26C01A82198262
:1014700042E0BE016F5F7F4F01966ADF098110E095
:10148000823021F4102F00278A81082BC801C0DF89
:10149000F82E82E599DE40E364E0C8011BDF81E0BD
:1014A00093E0D1DE8F2D50DF8DEF92E0CCDE40E275
:1014B00062E08F2D90E0D8DED3DE2296E5E00C943A
:1014C0008934A6E0B0E0E7E6FAE00C946A346C01F7
:1014D00043E0BE016F5F7F4F01963ADF823088F1B3
:1014E000098110E0823021F0102F00272A81022B81
:1014F0007C01FF24FE01EE0DFF1D6081C80183DF2A
:10150000C8010F97039708F408D1EE0CFF1C8FEF6A
:10151000E81AF80AEC0CFD1CF7018081882389F099
:1015200041E0BE016F5F7F4FC70112DF892B49F099
:101530000F5F1F4F6981C80166DFE2E0EE0EF11C0C
:10154000EBCF2696E8E00C94863441E067E071E04A
:101550000196FEDE8091070180FF02C05D9801C008
:101560005D9A6091070184E390E04DCFA1E0B0E087
:10157000ECEBFAE00C9470341982009731F041E002
:10158000BE016F5F7F4F0196E3DE89818F3F09F4D3
:10159000FFCF882321F061E083E390E034DF0E94F5
:1015A000052F10926E00F89428E088E190E00FB6C5
:1015B000F894A895809360000FBE20936000FFCF41
:1015C000CF93DF93EC0161E080E090E01CDF64E109
:1015D00081E090E018DF4EDAA0D060E080E690E095
:1015E00012DF60E081E690E00EDF60E083E390E0F0
:1015F0000ADF62E084E390E006DF60E080E690E0EE
:1016000002DF60E081E690E0FEDE8981883719F034
:1016100080E090E0ABDFDF91CF91089580E090E033
:10162000F7DE813029F481E090E0F2DE843119F0B8
:1016300080E090E0C5DF84E390E0EADE809307017C
:101640000895FC018181883419F481EF92E014C07F
:101650008FEB92E0F8DD1E9903C080EB92E002C0B0
:1016600081EA92E0F0DD8091D601813019F48FE8B3
:1016700092E002C08DE792E0E6DDF2CDFC0112823D
:10168000108211820895FC018FB7F894928197FD22
:101690000EC09F5F9283208191E0920F9083DF01C3
:1016A000A20FB11D13966C93903809F410828FBF6E
:1016B0000895FC019FB7F8948281882371F08150CE
:1016C0008283818121E0280F2183DF01A80FB11DD2
:1016D00013968C91203809F411829FBF0895A2E0DF
:1016E000B0E0E5E7FBE00C9470341A82198242E026
:1016F000BE016F5F7F4F2CDE9981823039F4892FD4
:1017000090E0982F88272A81822B02C0892F90E0B1
:101710007FDE2296E2E00C948C34CF93DF9380EC52
:1017200091E0DDDFD82F83EC91E0D9DFC82F86EC84
:1017300091E0D5DF4D2F50E060E070E033272227A5
:10174000280F311D411D511D8C2F90E0982F8827A7
:10175000280F391F411D511DAAE1B0E00E942F340E
:10176000853F914010F082E001C081E08093D60176
:10177000DF91CF910895FA013081882369F0E1E08B
:10178000F0E0022E01C0EE0F0A94EAF7DB01A30F8E
:10179000B11D9C919E2B9C93222319F08FEF820FF9
:1017A0000BC081E0830F8C3010F4FA018083FB01C1
:1017B000E80FF11D108287E090E00895CF93C82FC5
:1017C0005B9A882319F08091D80102C08091DA01D8
:1017D00020E1829FC00111248DDC5B98CC2319F09D
:1017E0008091D70102C08091D90120E1829FC00180
:1017F000112480DCCF910895A3E0B0E0E2E0FCE0AA
:101800000C9460345C01162F622E842F90E09B8331
:101810008A832091BC043091BD040296089F802DDC
:101820001124992787FD90952817390720F485E022
:1018300093E009DD7DC0281B390B3093BD04209354
:10184000BC045D9880914B03882341F010924B03B8
:1018500089EC91E043D3FF24F39401C0F12C8091F3
:10186000B604811101C042DABDD9812E912CCC245D
:10187000C394D12C712C512C852D992787FD9095DF
:101880008815990524F480E099DF5394F5CF11234E
:1018900011F081E093DF20E0422E552447FC509464
:1018A000EA81FB814E165F062CF097E0392E4A0C38
:1018B0005B1C1AC087E0282E312C4A0C5B1CC60129
:1018C000022C01C0880F0A94EAF7F2019081892363
:1018D000298374DFF1E02F1A310829818FEF281650
:1018E000380669F72F5FD8CF832D992787FD90950C
:1018F0006816790664F4C601032C01C0880F0A94A7
:10190000EAF7F2019081892359DF3A94EDCF8E2DC9
:10191000F6DB015009F0AFCF8091BE04882311F0AF
:1019200073D902C086E3FCD8F1100E94401A5D9A78
:101930002396E2E10C947C34ADE0B0E0E2EAFCE016
:101940000C9463347C01162F842F022F6701C60E7E
:10195000D11C462FB701D7D2D6018C931F5F1D86AD
:1019600019825E2C670127E066246394712C8C2D0C
:101970008519811788F547E0A42EB12C4701880E00
:10198000911CF3010A2C01C0EE0F0A94EAF7D4016E
:101990008C91AE01435F5F4FBE016F5F7F4F8E231F
:1019A000EADE282FB1E0AB1AB10858F7D6018D91C5
:1019B0006D01082E82958025082E869586958025B6
:1019C0008F5F86958170AE01435F5F4FBE016F5F91
:1019D0007F4FD1DE282FCBCF222311F0215004C01E
:1019E0008D858F5F8D8727E089E18093D901809372
:1019F000DA0185E28093D7018093D8013AE0E32EA3
:101A00004D856CE0CE010196F7DE2D96EFE00C944B
:101A10007F34ADE0B0E0EFE0FDE00C946F34162FC2
:101A2000242F4BE0BE016F5F7F4F01962D8790DC26
:101A30002D85412F682FCE0101967EDF2D96E3E0A4
:101A40000C948B3443E066E0E4CFEF920F93CF9396
:101A5000DF93CDB7DEB760970FB6F894DEBF0FBE49
:101A6000CDBF40E1BE016F5F7F4F019671DC6981A0
:101A70004A810B818C818093DA018D818093D90119
:101A80008E818093D8018F818093D701E02EE294DC
:101A90007FE0E7220F70242F2F7042954F70CE0108
:101AA0000896AADE60960FB6F894DEBF0FBECDBFD3
:101AB000DF91CF910F91EF900895A9E1B0E0E3E6B7
:101AC000FDE00C9468344BE0BE016F5F7F4F0196E0
:101AD0003FDC182F893009F05AC099E19093D90161
:101AE0009093DA019093D80182E38093D70169E063
:101AF000CE01019612D2E1E0F0E0EC0FFD1FE10F04
:101B0000F11D8083198E1D86CE0101967C016E0128
:101B10009BE0C90ED11C27E0AA24A394B12CEC149D
:101B2000FD0429F100E010E0F501002E01C0EE0FE8
:101B30000A94EAF7D7018C91AE01475E5F4FBE0170
:101B4000635F7F4F8E2317DE282F0F5F1F4F0830F4
:101B5000110551F7AE01475E5F4FBE01635F7F4FD6
:101B600081E009DE282FBFEFEB1AFB0AD8CF222332
:101B700011F0215004C0898D8F5F898F27E0EAE042
:101B8000EE2E03E0498D6CE0CE010D9635DE6996B0
:101B9000EAE00C948434A9E1B0E0E1EDFDE00C94BE
:101BA00067344BE09E012F5F3F4F7901B9010196E9
:101BB000CFDB182F85E38093DA0196E19093D9016A
:101BC0009093D8018093D701612FC701B2D1F7015B
:101BD000E10FF11D808399249394910E198E1D8637
:101BE000870127E0AA24A394B12C802F8E19891590
:101BF00008F04AC0C12CD12CF5010C2C01C0EE0F0D
:101C00000A94EAF7D8018C91AE01475E5F4FBE019E
:101C1000635F7F4F8E23AFDD282FBFEFCB1ADB0A28
:101C200034E0C316D10441F7AE01475E5F4FBE01F9
:101C3000635F7F4F81E09FDD282FB4E0CB2ED12C56
:101C4000F5010C2C01C0EE0F0A94EAF7D8018C9133
:101C5000AE01475E5F4FBE01635F7F4F8E238BDD1A
:101C6000282FBFEFCB1ADB0A38E0C316D10441F7A7
:101C7000AE01475E5F4FBE01635F7F4F81E07BDD5A
:101C8000282F0F5F1F4FB1CFAAE0EA2E03E0498D46
:101C90006AE0CE010D96B0DD6996EBE00C948334DA
:101CA000EF920F93CF93DF9300D000D0CDB7DEB784
:101CB00043E0BE016F5F7F4F01964ADB8AE6809367
:101CC000DA0194E29093D90191E29093D801809344
:101CD000D70180E88C839FE0E92E03E026E043E013
:101CE00060E0CE01019688DD0F900F900F900F906D
:101CF000DF91CF910F91EF9008954F925F926F9285
:101D00007F928F929F92AF92CF92EF92FF920F931A
:101D10001F93CF93DF9310921602FC012181220FB3
:101D2000220F220F3381231BA7E09A2E920E1092CE
:101D30001603F12CB8E0AB2EA20EB1E0A7E0C7E08D
:101D4000EC2EC12C70E007E010E0C1E0D0E0BA1545
:101D500009F47FC0FC01EC0DF11D248130E00E2C54
:101D600002C0359527950A94E2F721703327E22FB8
:101D7000EE2011F0EA9403C0C394F7E0EF2E6B3429
:101D800061F4A33009F048C0F11005C0E1115DC055
:101D9000109216026DC0F12C41C0AF3F31F5663490
:101DA000A9F4E72FF0E0EA5EFC4FE0810E2EE29509
:101DB000E0250E2EE695E695E025EF5FE1FB662433
:101DC00060F8712C6216730641F004C0653429F482
:101DD000E11103C0F09216024BC07F5FE72FF0E0E5
:101DE000EA5EFC4F1082A7E032C0EE2361F1663458
:101DF00071F4E72FF0E0EA5EFC4F80809E010A2E2E
:101E000001C0220F0A94EAF7822A80821CC065343E
:101E100039F06B34C1F404C0AF3FD1F2EE2399F036
:101E2000E72FF0E0EA5EFC4F98012A1B3109A7FD7D
:101E300033952E0102C0440C551C2A95E2F79201FD
:101E40003081322B3083A15002C0FF24F394BF5F56
:101E50007ECFF09216029B1658F4653411F4AF3F12
:101E600009F0F1107F5FFA01708381E0711101C008
:101E700080E0DF91CF911F910F91FF90EF90CF9075
:101E8000AF909F908F907F906F905F904F9008954C
:101E9000539A5B985298E9E6F0E0808180618083F4
:101EA00082EC91E09093BD048093BC04109259029F
:101EB000109298021092D7021092B6040895809161
:101EC000AF0481110AC08091BE04882321F00E94D2
:101ED00076060C9404060C946D060895FC0121818D
:101EE00021110BC08091BE042FDA40E265E08091A1
:101EF000BC049091BD04B8D9B3C941E06EEB74E065
:101F0000019626DADCCF442339F04150FB01E40F7F
:101F1000F11D9081890FF7CF089520E0662339F0F5
:101F20006150FC01E60FF11D30812327F7CF822F8E
:101F30000895A091160240E035E020E0662399F074
:101F40006150FC01E60FF11D5081752F72957F7075
:101F50002727370FAA2311F0442319F05F70252794
:101F6000350F4F5FEBCF320F40E1349FC00111249A
:101F7000822B08958091B30480FD03C08460809318
:101F8000B30408951092DE011092DD0110926F00EB
:101F9000E09119028FE3E89FF0011124E65EFD4F06
:101FA0001082109289001092880008951F920F925B
:101FB0000FB60F9211242F933F934F935F936F931C
:101FC0007F938F939F93AF93BF93EF93FF93109261
:101FD0006F008091BE0483FF02C08EE2F5D880912D
:101FE00019029FE3899FF0011124E65EFD4F908165
:101FF000933018F09181923010F4C4DF17C09091A3
:102000001702933041F48091BE0482FFF6CF8CE03A
:1020100093E019D9F2CF9F5F909317028F5F8430BE
:1020200019F08093190202C010921902FF91EF91EA
:10203000BF91AF919F918F917F916F915F914F91E0
:102040003F912F910F900FBE0F901F901895DC01BC
:102050001196EC911197F0E050E02C91CF01841B88
:10206000950B0B964797A0F430E070E0C901861BF2
:10207000970B0B96479760F42E0F3F1F640F751F49
:10208000261B370B255F3F4F81E02731310508F0D4
:1020900080E00895A2E0B0E0E0E5F0E10C946C345B
:1020A0001A8219828091DB01882391F18091BE040C
:1020B00087FF16C084E30E9477058058803458F06B
:1020C000803C58F490E08055910933E095958795D0
:1020D0003A95E1F703C080E001C08FE08F5974D8D2
:1020E0008091BE0483FF12C082E76ED88091BE0447
:1020F00084FF03C08091DC0167D886E665D88091B3
:10210000BE0484FF03C08091DB015ED81092DB0126
:1021100080911702882309F43AC25D980091180251
:102120002FE3029F80011124065E1D4F9E012F5F49
:102130003F4F46E153E0BE016E5F7F4FC8013FD481
:10214000F8018081833009F09DC08A8181113AC0F5
:10215000AE014F5F5F4F66E4C801CFDD882391F188
:10216000F980FA94F9824F2D66E173E086E0CBDEC8
:10217000EF2DF0E0EA5EFC4FE0808E1105C023E019
:102180002F1510F486E41BC0282F30E02F5F3F4F3F
:102190006E2D70E02617370739F493E09F1520F471
:1021A00096E49A8380830EC04F2D66E173E08CE045
:1021B000AADE8E1106C0E3E0EF1518F484E58A83E9
:1021C00001C01A828091D6018230D1F48A818111B6
:1021D00017C0AE014F5F5F4F65E4C8018EDD8823F5
:1021E00079F0898181508983893051F469E086E1F1
:1021F00093E093DE90911F03891302C085E48A83E4
:102200009E012F5F3F4F46E153E0BE016E5F7F4F5F
:10221000C80191D38A81811135C0F801208142AD76
:102220006091DC01C801C99612DF682FC80109D38B
:10223000AE014F5F5F4F6BE4C8015FDD8823A1F003
:10224000F980FA94F9826F2D86E193E072DEEF2D2A
:10225000F0E090911602E91BF109EA5EFC4F9081D3
:10226000891302C08BE48A838A8181110BC0F80133
:10227000838191E0980F9383873021F413828181C9
:10228000815081833A81332309F4C5C02091BE0473
:1022900020FFC1C08091B3048E7F8B7F8093B304F5
:1022A00021FD63C050911502F9805F113DC040E0EF
:1022B0004517C0F4842F90E061E0640FFC01ED51FC
:1022C000FE4FDC01AA5EBC4F70818C91781741F003
:1022D000409315028091B3048D7F8093B30404C0B2
:1022E000462FE6CF4093150245131EC04091B80417
:1022F0005091B9046091BA047091BB048091DF01E0
:102300009091E001A091E101B091E201481B590BCD
:102310006A0B7B0B463251056105710528F48091EB
:10232000B30481608093B30440E04F1560F4842FC0
:1023300090E0FC01ED51FE4FDC01AA5EBC4F8C9198
:1023400080834F5FF2CF409315028091B804909143
:10235000B904A091BA04B091BB048093DF019093BB
:10236000E001A093E101B093E2013435E1F426FDF0
:102370001AC089818530B8F0809118038B3471F0D0
:10238000893661F09DEA980F923040F08D57823087
:1023900028F0809119038077803729F48091B30465
:1023A00081608093B304B801CE010296E3DD809191
:1023B000B30482FF30C08A810E94E4088091160233
:1023C000882319F0898181508983F12CE981FE16D7
:1023D00048F4EF2DF0E0EA5EFC4F80810E94A409F2
:1023E000F394F4CF80911602882351F0F0E0EA5E76
:1023F000FC4F80818F7040E361E090E00E946A09A9
:102400008091BE0485FF05C084E30E9477050E9489
:10241000A4090E9430098091BE0482FF96C080E723
:102420000E94E408F801808140E262E090E00E94AE
:102430003409F80187A940E265E0F0E18F9FC0010F
:1024400011240E943409F80180AD40E265E0F0E11A
:102450008F9FC00111240E943409F80181AD40E230
:1024600065E0F0E18F9FC00111240E943409F8015A
:1024700082AD40E265E0F0E18F9FC00111240E942F
:102480003409F80183AD40E265E0F0E18F9FC001BF
:1024900011240E943409F80184AD40E265E0F0E1C6
:1024A0008F9FC00111240E943409F80186A940E2DF
:1024B00064E090E00E943409F801828140E263E028
:1024C00090E00E943409F801818140E263E090E0ED
:1024D0000E943409F801238140E262E087E090E045
:1024E000821B91090E943409F80185AD96AD40E246
:1024F00065E024E0880F991F2A95E1F70E943409CE
:1025000080E20E94E4088091BE0485FF08C084E355
:102510000E9477050E94A40980E20E94E408F80165
:102520008381873019F081818F5F8183F12CF801DD
:102530008181F81640F4F801EF0DF11D84810E94AD
:10254000A409F394F4CF0E943009F801108216AA6E
:102550001092DE011092DD0180911702815080936C
:102560001702809118028F5F843019F0809318024F
:1025700002C0109218025D9A8091D601823039F41F
:102580008A81843521F486E193E00E94CE29229647
:10259000E6E00C9488349BED980F973150F496EF59
:1025A000960F9D3130F491E0681708F090E0892F84
:1025B000089580E008951F920F920FB60F92112494
:1025C000FF920F931F932F933F934F935F936F93BC
:1025D0007F938F939F93AF93BF93CF93DF93EF93AB
:1025E000FF9380919C05882321F082E080939C05D5
:1025F000F0C080914B05823021F483E080934B053D
:10260000E8C0009184001091850044E0169507957C
:102610004A95E1F7C09119028FE3C89FE0011124A8
:10262000C65EDD4F8091D601823049F42881253085
:1026300031F4073108F4CDC0083208F091C04A994E
:102640000FC0823051F48881853039F461E0CE01C9
:10265000F8D010928500109284000093DC01B9C07C
:102660009091DC01091B0093DB0110928500109210
:102670008400823039F48881853021F460E0CE0115
:10268000E0D0A7C082E086BBF8801091DC01FF207B
:1026900049F00091DB01F81609F170C08A8184309D
:1026A000A0F518821FAA18AE19AE1AAE1BAE1CAE4A
:1026B0001EAE1DAE1EAA198287E08B831C821536C2
:1026C00008F087C08091DB01853608F082C01FAB1F
:1026D00088AF81E08A8382E088837BC022E0402F3C
:1026E000612FCE01C796B3DC8823C1F2612F8FA979
:1026F0009AD08FAB6091DB0188AD95D088AF1EAECC
:102700001DAE8A818F5F8A8364C020EA3FE03093E8
:102710008900209388008A818A3088F08FA928ADAB
:1027200030E0280F311D253231054CF485E08883D7
:1027300028EE33E0309389002093880015C0809103
:10274000C404882379F0602F812F25DF882351F07E
:102750006FA988AD20DF882329F081E080934B05A5
:1027600011DC37C083E0888319AF0AAF198287E094
:102770008B831C8282E080936F002BC02F2D402F13
:10278000612FCE01C99663DC882371F061E0CE0130
:1027900058D06091DC0189AD46D089AF6091DB01F2
:1027A0008AAD41D08AAF15C02F2D402F612FCE01A9
:1027B000C7964DDC8823A1F260E0CE0142D0609143
:1027C000DC018FA930D08FAB6091DB0188AD2BD0BD
:1027D00088AFFF91EF91DF91CF91BF91AF919F9122
:1027E0008F917F916F915F914F913F912F911F91A9
:1027F0000F91FF900F900FBE0F901F901895E091D2
:1028000019028FE3E89FF0011124E65EFD4F8081FD
:10281000811107C081E090918B059F3F19F480E002
:10282000089581E00895282F30E0C901880F991F8D
:10283000820F931F860F911D959587959595879586
:102840000895FC012181223308F09CCB338166235B
:1028500081F081E090E0032E01C0880F0A94EAF72E
:10286000DF01A20FB11D14969C911497982B14961A
:102870009C93332319F03150338309C087E083835D
:102880002F5F2183DF01A20FB11D14961C9286A930
:102890008F5F86AB0895FC0134812581A081B181D1
:1028A000A30FB11D8C9190E0022E02C095958795E3
:1028B0000A94E2F7817099274FEF420F4583211167
:1028C00004C03F5F348327E025830895A2E0B0E091
:1028D000ECE6F4E10C9468347C01A12CB12CD12CF1
:1028E000CC24C394062F10E001501109A616F0F471
:1028F000C7014A836983CFDF4A816981882391F0C8
:10290000442349F098012A193B098C2D01C0880FF6
:102910002A95EAF706C08C2D0A2C01C0880F0A946C
:10292000EAF7D82A8FEFA81AB80AE0CF8D2D2296A1
:10293000EAE00C948434A6E0B0E0E1EAF4E10C941F
:1029400067348B017A015901FB012081211133C0C9
:102950001D8227E02E839C012C5F3F4F3A83298301
:10296000FC012181243039F58381813021F56A0110
:10297000912C41E0911006C067E0CE010196A6DFE0
:10298000806804C068E0CE010196A0DFF601819363
:102990006F019394F4E09F12ECCF41E067E0CE0129
:1029A000019694DF880FF701848385E0F501808329
:1029B00084E7F80180832696EBE00C948334A7E04B
:1029C000B0E0E5EEF4E10C946534FC017B016A01B2
:1029D00059018091D601823009F059C0DB018C91F8
:1029E000811155C01D8287E08E83CF0104969A83A2
:1029F00089838081853009F04AC02181338187E055
:102A000090E0831B9109B8E02B9F800D911D11244C
:102A10008039910509F03BC04A013FE0732E0FE079
:102A200010EF29E841E068E0CE0101962F834EDFE8
:102A3000080F111D2F812827F40121934F0124E253
:102A4000280F7A9479F741E068E0CE0101963EDFE5
:102A5000080F111D8095D6011F968C9380E1F5011A
:102A6000808341E068E0CE01019630DF90E0982F4E
:102A70008827081B190B41E068E0CE01019626DF8C
:102A800090E00817190719F483E5D7018C9327966E
:102A9000EDE00C948134A0E0B0E0E1E5F5E10C94C8
:102AA0006B34D82EEA98209A10924803289A8EE127
:102AB00090E00E947A0828988EE190E00E947A08BF
:102AC000289A8DE290E00E947A0880E30E949005A7
:102AD00084E690E00E947A088FEF8D0D833008F035
:102AE00039C0CBE6D3E0FE018491813470F0F4E18B
:102AF000DF9E90011124C0E0D0E0C901855E9C4FAB
:102B00007C018901045E1C4F15C0FE013196649161
:102B10000E947E05229693E0C73AD90721F7E7CFB6
:102B2000F801EC0FFD1F64910E947E052296C431CE
:102B3000D10531F0F701EC0FFD1F8491813480F352
:102B400083E30E949005D09248030E948D0B81E0A0
:102B50000E947F08CDB7DEB7E7E00C948734CF93AF
:102B6000DF93809148038823B1F14A9B21C086E31B
:102B70000E9490058BE30E947705D82FDF7759F1EB
:102B800028988FEF0E9403058EE40E94E40880914C
:102B900048030E94A409C0E080E00E9403050E944F
:102BA000A409CF5FCD13F8CF289A0E94300913C033
:102BB00085E30E947705813011F0813161F48AE369
:102BC0000E94900586E30E9490058DE30E94900587
:102BD00084E30E949005DF91CF910895A1E0B0E0D9
:102BE000E4EFF5E10C9470341982FC012181223765
:102BF000A9F42281222331F0BE016F5F7F4F02963C
:102C00000E94D50989819FEF980F933028F083E1C6
:102C100093E00E94230913C03EDF0BC0283749F41C
:102C200080914803882319F086E30E949005109252
:102C30004803809148030E94A4090E94300921960C
:102C4000E2E00C948C3480E690E00E94080A8093C5
:102C5000C40481E690E00E94080A80935505882309
:102C600021F081E28093BE042AC908955B9A0C94F6
:102C70007A085B980C947A08A7E0B0E0E2E4F6E109
:102C80000C946B349091CD04943559F420914E05F9
:102C900030914F052F5F3F4F30934F0520934E05E6
:102CA0003EC0963459F420914C0530914D052F5F6C
:102CB0003F4F30934D0520934C0531C0953459F466
:102CC0002091C1043091C2042F5F3F4F3093C20462
:102CD0002093C10424C09B3459F4209151053091B4
:102CE00052052F5F3F4F309352052093510517C077
:102CF000983459F420915305309154052F5F3F4F7C
:102D000030935405209353050AC02091BF0430919D
:102D1000C0042F5F3F4F3093C0042093BF0495E75A
:102D20009983882399F0BE016E5F7F4F809155058E
:102D30000E94F009BE016C5F7F4F8091C4040E9425
:102D4000F00985E58E8386E0D82E02C0DD24D39479
:102D50000E9476060E94F20516E080E891E086DF88
:102D600080E093E086DF1150C1F780E093E07EDFE2
:102D700080E891E07EDF80E891E078DF5B9887E390
:102D800090E00E94940583E00E947F0828988FE7D6
:102D90000E9403058091C7048D0D0E940305CE019A
:102DA00001967C018C01F80181918F010E9403053D
:102DB000802F8E198D15B8F38091C704882339F0C0
:102DC00085EC94E00E94590B0E940305F5CF289AE8
:102DD0000E94F20585EC94E00E943E0B15E18AE327
:102DE0000E9477058F7731F0115021F081E00E9429
:102DF0007F08F5CF64D82796E7E00C948734CF930B
:102E0000DF93EC018981811107C08091C4040E9485
:102E1000A4098091550513C08436A1F48091B804AB
:102E20009091B904A091BA04B091BB0440E364E06E
:102E30000E946A098EE20E94E40880914A050E947D
:102E4000A4094DC0833709F04DC040E361E0809193
:102E50004E0590914F050E946A098EE20E94E40897
:102E600040E361E080914C0590914D050E946A0914
:102E70008EE20E94E40840E361E08091C1049091F9
:102E8000C2040E946A098EE20E94E40840E361E005
:102E900080915105909152050E946A098EE20E942C
:102EA000E40840E361E080915305909154050E944D
:102EB0006A098EE20E94E40840E361E08091BF0469
:102EC0009091C0040E946A098EE20E94E40840E3E7
:102ED00061E080914805909149050E946A090E942D
:102EE00030092CC08936D9F441E064EC74E0CE019D
:102EF00002960E94A8096091C40480E690E00E94B6
:102F0000030A41E065E575E0CE0104960E94A80938
:102F10006091550581E690E00E94030A0FC085ECA0
:102F200094E00E943E0B21966991662329F085EC7E
:102F300094E00E94430BF8CF80E09EDEDF91CF91BA
:102F40000895A1E0B0E0E7EAF7E10C946A348091DB
:102F50004B05882309F486C0C090B804D090B9040A
:102F6000E090BA04F090BB04833009F061C08FE3B5
:102F70000E947705182F8630C8F080E296E00E9404
:102F80003E0B28988FEF0E94030580E00E94030506
:102F9000082F115049F080E00E940305682F80E25D
:102FA00096E00E94430BF5CF289A01C000E00E94F2
:102FB0005F0F10924B05053709F054C041E0BE0188
:102FC0006F5F7F4F83E296E00E94A809019759F551
:102FD00099818091C404981326C080912706853575
:102FE00071F480912206882339F080E296E00E94F5
:102FF000590B0E94E408F5CF0E94300933C080913C
:10300000220684508093220684E0809321066AE0A1
:1030100080E296E00E94430BE091B404F091B50485
:1030200088E009951FC080E296E00E943E0B1AC01E
:10303000823059F48091C3049C2D981B983090F0F5
:103040000E945F0F10924B050DC0813059F487E349
:1030500090E00E9494050E94040682E080934B0554
:10306000C092C3042196E8E00C948634C8DB882320
:1030700061F083E080935005809148059091490567
:1030800001969093490580934805809150058150A1
:1030900080935005882321F083E080934A050895AA
:1030A00081E0EACDCF93DF93EA98209A289A8EE1C7
:1030B00090E00E947A0828988EE190E00E947A08B9
:1030C000289A8DE290E00E947A0880E30E949005A1
:1030D00084E690E00E947A08C9EBD3E0FE013196C5
:1030E0006491FE0184910E947E052296F3E0CB3E1E
:1030F000DF07A1F780914A03811107C083E30E9493
:10310000900584E00E947F080FC0C3EAD3E0FE016F
:1031100031966491FE0184910E947E052296F3E02F
:10312000C93BDF07A1F7EACF84E30E94900585E35E
:103130000E9477058D30C1F7DF91CF910895A2E30A
:10314000B0E0E5EAF8E10C946E34809149038823FD
:1031500009F4A1C04A9B8AC08FE30E9477058F774C
:103160008983823368F08AE30E94900586E30E9497
:1031700090058DE30E94900584E30E9490058BC02A
:1031800028988FEF0E94030510E08981181760F4DA
:1031900080E00E940305E2E0F0E0EC0FFD1FE10F8C
:1031A000F11D80831F5FF1CF80E00E940305082F8F
:1031B00080E00E940305289A84E30E94900585E33D
:1031C0000E9477058D30C1F72A8196E792279A836E
:1031D00092E08981E92FF0E0981768F441E050E02F
:1031E0004C0F5D1FE40FF51F3081245223272083ED
:1031F0009F5F232FEECF81E090E08C0F9D1FE80FA3
:10320000F91F90818B81982790838091BE0484FF61
:1032100012C081E60E94E40810E08981811730F134
:10322000E1E0F0E0EC0FFD1FE10FF11D80810E9455
:10323000E4081F5FF2CF81E40E94E40810E0898176
:10324000811758F0E1E0F0E0EC0FFD1FE10FF11DF8
:1032500080810E94A4091F5FF2CF8091BE0485FF88
:1032600003C0802F0E94A4090E94300985E30E94B8
:103270007705813029F0813161F48AE30E9490055D
:1032800086E30E9490058DE30E94900584E30E94EE
:1032900090050E94BD06E296E4E00C948A348F9279
:1032A0009F92AF92BF92DF92EF92FF920F931F9384
:1032B000CF93DF93CDB7DEB7EA970FB6F894DEBFB2
:1032C0000FBECDBF41E38E010F5F1F4FB8010196C6
:1032D0000E94A8097C0199270197298130E0821773
:1032E000930709F0A3C080914903811104C0DADE7D
:1032F00083E00E947F08DB808A8196E789278A83A2
:1033000022E03981822F90E0F801E80FF91F23179E
:1033100050F4DE01A80FB91F8C9184529081892747
:1033200080832F5FEECF80818D258083CE01C7966D
:103330000E94E00785E30E94900585E30E947705DF
:10334000833181F1CE01C3960E94E0074BA95CA9AD
:103350006DA97EA98FA998ADA9ADBAAD84179507BF
:10336000A607B70760F44A015B01881A990AAA0AFE
:10337000BB0A2DEB82169104A104B10470F4481726
:1033800059076A077B0770F484549F4FAF4FBF4FB4
:1033900084179507A607B70728F489E993E00E94E8
:1033A000230927C085E30E947705833119F6D4FEEF
:1033B00008C088E70E947F0888E70E947F0888E7A6
:1033C00001C08AE00E947F0828988FE70E940305C9
:1033D00058018A2D801B8E1530F4F50181915F0113
:1033E0000E940305F6CF289A85E30E947705833172
:1033F000D9F385E30E947705863149F48BE30E9477
:10340000900586E30E9490058DE30E9490058091CF
:103410004903882349F084E30E94900585E30E94D4
:1034200077058D30C1F702C00E945F0FEA960FB694
:10343000F894DEBF0FBECDBFDF91CF911F910F91EA
:10344000FF90EF90DF90BF90AF909F908F90089586
:10345000FC012181223731F0223559F481E080933B
:103460004A0302C010924A031DDE81E080934903A3
:103470000895233711F4019612CF1092490308954D
:10348000CF93DF93EA98209A289A8EE190E00E94E9
:103490007A0828988EE190E00E947A08289A8DE2B6
:1034A00090E00E947A0880E30E94900584E690E014
:1034B0000E947A08C4E0D4E0FE018491813440F097
:1034C00083E30E94900584E00E947F08CFEF0BC049
:1034D000FE01319664910E947E052296F4E0C0348C
:1034E000DF0751F7EDCF84E30E9490058AE090E07A
:1034F0000E947A08C150B9F781E080934B030E9483
:103500008D0BDF91CF910895EF92FF920F931F9350
:10351000CF93DF93EC018B01F880F3946115710573
:1035200019F0E4E6F0E002C0E0E0F0E028E0F29E0E
:10353000C00111246AE070E00E944D349B012E0FFF
:103540003F1FC901AA2797FDA095BA2FE091BC049F
:10355000F091BD04AF0160E070E0481759076A07B9
:103560007B0728F484EF93E00E942309DFC0E21B6D
:10357000F30BF093BD04E093BC0480914B038111E5
:1035800001C07EDF85E30E9477058D3071F08AE50A
:103590000E94E40885E40E94E40882E50E94E408B1
:1035A00082E50E94E40881E34CC080914C03909135
:1035B0004D03A0914E03B0914F03892B8A2B8B2B87
:1035C00051F50E94F20585E30E947705833109F4E5
:1035D00043C08AE50E94E40885E40E94E40882E58D
:1035E0000E94E40882E50E94E40882E32AC08091F8
:1035F000B8049091B904A091BA04B091BB044F5F94
:103600005F4F6F4F7F4F84179507A607B707C9F61F
:1036100081E00E947F088091B8049091B904A09144
:10362000BA04B091BB0440914C0350914D0360919A
:103630004E0370914F0384179507A607B707B9F695
:10364000E7CF0E94E40885E30E9477050E94A40961
:103650000E94300915DF6AC0012B41F428988FE7DA
:103660000E940305EC2E0C2F1D2F0BC00AE010E06A
:1036700084E60E947F080150110901151105C1F768
:10368000EDCF802F8E198F1530F4F80181918F01C5
:103690000E940305F6CF289AC0E085E30E947705D3
:1036A000D82F85E30E947705D81305C0DD3031F0AF
:1036B00081E00E947F08CF5FCA3F79F785E30E94CF
:1036C00077058D30E9F08AE50E94E40885E40E94E0
:1036D000E40882E50E94E40882E50E94E40883E3AE
:1036E0000E94E40885E30E9477050E94A4098D2FBB
:1036F0000E94A4098C2F0E94A4090E943009C0DEF8
:1037000080914B03811102C00E945F0F8091B80429
:103710009091B904A091BA04B091BB0480934C037A
:1037200090934D03A0934E03B0934F03CDB7DEB7F4
:10373000E6E00C948834ACE0B0E0E1EAFBE10C9404
:103740006F34FC018BE0898381818A831B8282E054
:103750008C8387818D8380858E8381858F8384810F
:1037600088878581898786818A871B861C8684E174
:103770000E947F0860E070E0CE010196C5DE8AE518
:103780000E94E40810E0812F90E0298130E02817A2
:1037900039075CF0E1E0F0E0EC0FFD1FE80FF91FE6
:1037A00080810E94A4091F5FEECF8091BE0485FF37
:1037B00003C080E00E94A4090E9430092C96E3E037
:1037C0000C948B34CF93DF93EC01809153038111E0
:1037D00008C090915403911104C09091550399230E
:1037E000A9F09B81903319F09F7E903479F49F81EA
:1037F00098130CC0988580915403981307C099853D
:1038000080915503981302C0CE0195DF809150033B
:10381000811108C090915103911104C090915203FD
:103820009923A9F098819B3091F49B81903479F48D
:103830009F8198130CC0988580915103981307C0FD
:10384000998580915203981302C0CE0174DFDF91F5
:10385000CF910895AEE1B0E0E0E3FCE10C946E346A
:1038600080914B03882309F469C04A9B59C08FE3B8
:103870000E9477058F778E3108F08DE18983289833
:103880008FEF0E94030510E08981181760F480E033
:103890000E940305E2E0F0E0EC0FFD1FE10FF11DD7
:1038A00080831F5FF1CF80E00E940305082F80E036
:1038B0000E940305289ACE01019684DF8091BE0400
:1038C00084FF12C08AE70E94E40810E08981811712
:1038D000A8F1E1E0F0E0EC0FFD1FE10FF11D8081A8
:1038E0000E94E4081F5FF2CF8AE50E94E40810E01E
:1038F0008981811758F0E1E0F0E0EC0FFD1FE10F46
:10390000F11D80810E94A4091F5FF2CF8091BE0447
:1039100085FF03C0802F0E94A4090E9430090EC0B9
:1039200085E30E947705813149F48AE30E9490057E
:1039300086E30E94900584E30E9490056E96E4E081
:103940000C948A34AEE1B0E0E8EAFCE10C946E3409
:103950008C01FC018181823711F492DD36C08337FE
:1039600011F0863601F54DE1BE016F5F7F4FC80152
:1039700002960E94A80999270197298130E08217B1
:10398000930729F08BEE93E00E9423091EC061E0AB
:1039900070E0F8018181833711F060E070E0CE01C2
:1039A0000196B2DD12C0813621F443E063E573E095
:1039B00005C0873741F443E060E573E0C801029633
:1039C0000E94A80902C010924B036E96E4E00C948A
:1039D0008A34CF93DF93EA98209A289A8EE190E078
:1039E0000E947A0828988EE190E00E947A08289A2E
:1039F0008DE290E00E947A0880E30E94900584E6C0
:103A000090E00E947A08C0E4D4E0FE018491813401
:103A100058F083E30E94900581E00E947F080E9495
:103A20008D0BDF91CF910895FE01319664910E9434
:103A30007E052296F4E0CC37DF0739F7EACFAEE116
:103A4000B0E0E5E2FDE10C946E34809156038823EA
:103A500009F474C04A9B5FC08FE30E9477058F779B
:103A60008E3108F08DE1898328988FEF0E9403053D
:103A700010E08981181760F480E00E940305E2E0FD
:103A8000F0E0EC0FFD1FE10FF11D80831F5FF1CF10
:103A900080E00E940305082F289A8AE30E9490057F
:103AA00086E30E9490058DE30E94900584E30E94C6
:103AB00090058091BE0484FF12C087E70E94E4084D
:103AC00010E089818117D0F1E1E0F0E0EC0FFD1FFB
:103AD000E10FF11D80810E94E4081F5FF2CF87E5AE
:103AE0000E94E40810E08981811758F0E1E0F0E0DD
:103AF000EC0FFD1FE10FF11D80810E94A4091F5FE3
:103B0000F2CF8091BE0485FF03C0802F0E94A409DC
:103B10000E94300913C085E30E947705813011F0BF
:103B2000813161F48AE30E94900586E30E9490054A
:103B30008DE30E94900584E30E9490056E96E4E078
:103B40000C948A34FC018181823729F442DF81E0C0
:103B5000809356030895833711F010925603089509
:103B6000CF93DF93EA98209A289A8EE190E00E9402
:103B70007A0828988EE190E00E947A08289A8DE2CF
:103B800090E00E947A0880E30E94900584E690E02D
:103B90000E947A08289880E40E940305CCE7D4E0CC
:103BA000FE0184910E9403052196F4E0C938DF07E5
:103BB000B9F7809108010E940305809109010E94D4
:103BC000030580910A010E940305C0E0D0E0FE01D8
:103BD000E457FB4F84910E9403052196C931D1051A
:103BE000B1F7289A28988EE70E9403058BE290E0AF
:103BF000EC0121960E94080A0E940305C333D105F7
:103C000011F0CE01F5CF289A83E30E94900581E060
:103C10000E947F0881E08093B604DF91CF910895E0
:103C20008F929F92BF92CF92EF92FF920F931F932A
:103C3000CF93DF93EC018981843769F465E171E00A
:103C4000CE0102960E94D50940E260E08091150104
:103C50009091160111C0833709F083C18A818237A0
:103C600081F46BE071E0CE0103960E94D50980914A
:103C70000B0140E260E090E00E9434090E943009AC
:103C8000E3C15D9880915903811116C08091490369
:103C9000882329F081E08093580310924903809192
:103CA0004B03882329F081E08093570310924B0344
:103CB00057DF83E00E947F0886E30E9490058AE335
:103CC0000E9490058BE30E9490050E94F205FE0180
:103CD00001900020E9F73197EC1BFD0BBB24BA944F
:103CE000BE0EEB7F01E0E23209F000E0C12C7E0164
:103CF00082E0E80EF11C80910B0190E02C2D33271F
:103D000027FD3095281739070CF0E8C05B9A013081
:103D1000C9F48091140190E00E947A085B98809128
:103D20000C0190910D010E947A085B9A809112011A
:103D3000909113010E947A085B98809110019091F4
:103D400011010BC080911501909116010E947A0813
:103D50005B9880910C0190910D010E947A084701B7
:103D600011E01B150CF0B8C0F40181914F015B9A72
:103D7000803391F5013061F480911201909113012B
:103D80000E947A085B98809112019091130152C0B1
:103D900080911501909116010E947A085B9880919C
:103DA0001501909116019C01220F331F820F931F62
:103DB0000E947A085B9A80911501909116010E94E9
:103DC0007A085B9880911501909116019C01220F51
:103DD000331F820F931F7CC08133F9F4013061F4EB
:103DE00080911201909113010E947A085B98809152
:103DF0000E0190910F013AC080911501909116012A
:103E00009C01220F331F820F931F0E947A085B9838
:103E1000809115019091160148C08233D1F48091B0
:103E20001201909113010E947A085B9880910E0113
:103E300090910F010E947A085B9A809112019091F3
:103E400013010E947A085B9880910E0190910F01F6
:103E50003FC00130D1F480911201909113010E9472
:103E60007A085B9880911201909113010E947A0860
:103E70005B9A80911201909113010E947A085B98DD
:103E8000809112019091130123C0809115019091AE
:103E900016010E947A085B98809115019091160195
:103EA0009C01220F331F820F931F0E947A085B9A96
:103EB00080911501909116019C01220F331F820FF2
:103EC000931F0E947A085B988091150190911601CA
:103ED0000E947A081F5F45CFC3940DCF809159038C
:103EE000882341F08091BE0481110EC086E30E94B8
:103EF000900517C080915803882349F01092580309
:103F0000D1D881E0809349030E9404060AC08091C1
:103F10005703882321F010925703B2DA02C00E949F
:103F20005F0F5D9A89E60E94E40883E70E94E40837
:103F300011E01B150CF0A2CEFE01E10FF11D17FDE3
:103F4000FA958181803349F0813339F0823329F049
:103F5000013011F484E401C086E40E94E4081F5F8C
:103F6000E8CF8237B9F480914903882329F081E0B2
:103F7000809358031092490380914B03882329F0C2
:103F800081E08093570310924B03EADD81E0809338
:103F900059035AC0863651F58A81803351F480E145
:103FA0008093080180EB8093090181E780930A01E7
:103FB00007C043E068E071E0CE0102960E94A809C4
:103FC00089E60E94E40886E60E94E4088AE30E94EB
:103FD000E408809108010E94A409809109010E94CF
:103FE000A40980910A010E94A40948CE883721F5CE
:103FF00080915803882339F01092580353D881E0F8
:104000008093490310C080915703882321F01092B8
:10401000570336DA0EC082E090E00E94940580914A
:10402000BE04882319F00E94040603C086E30E94A0
:1040300090051092590308C0833631F465E171E0B0
:10404000CE0101960E94D509DF91CF911F910F916A
:10405000FF90EF90CF90BF909F908F900895A2E037
:10406000B0E0E5E3F0E20C9463347C01FC01818173
:10407000833709F09EC1198287E090E00E94AC343A
:104080008C0141E0BE016F5F7F4FC70102960E9425
:10409000A8098981F801808341E0BE016F5F7F4FED
:1040A000C70104960E94A8092981207FF801218375
:1040B00041E0BE016F5F7F4FC70106962A830E94D1
:1040C000A8098981F801828341E0BE016F5F7F4FBB
:1040D000C70108960E94A8098981F801838341E0FD
:1040E000BE016F5F7F4FC7010A960E94A8098981B0
:1040F000F801868341E0BE016F5F7F4FC7010C96D8
:104100000E94A8098981F801858341E0BE016F5FA3
:104110007F4FC7010E960E94A8098981F801848308
:1041200080E090E02A814191342F32953F7034270E
:1041300083279F5F9730B9F78F70822BF8018183B7
:1041400087E090E00E94AC345C0187E0F801D50183
:1041500001900D928A95E1F7D8011196C801069653
:10416000F8013D91219123272083E817F907C9F72A
:104170005D9880915C03811162C08091490388231E
:1041800029F081E080935B031092490380914B03F7
:10419000882329F081E080935A0310924B03EA9818
:1041A000209A289A8EE190E00E947A0828988EE161
:1041B00090E00E947A08289A8DE290E00E947A08A6
:1041C00080E30E94900584E690E00E947A08289897
:1041D00080E40E94030565EAE62E64E0F62EF7010E
:1041E00084910E940305FFEFEF1AFF0A2EECE216FE
:1041F00024E0F206A1F7289A28988EE70E9403058A
:104200008BE290E07C01EFEFEE1AFE0A0E94080AB2
:104210000E940305F3E3EF16F10411F0C701F2CF9A
:10422000289A83E30E94900581E00E947F0881E044
:104230008093B6040E948D0B83E00E947F0886E382
:104240000E9490058AE30E9490058BE30E949005EE
:104250000E94F2055B9A87EC94E20E947A085B98D0
:1042600089E50E947F0885E392E00E947A08712C1C
:1042700080911B0190E0272D332727FD30952817CB
:1042800039070CF057C0711002C022E001C027E0CE
:10429000F12C5B9A86EF99E02A830E947A085B985A
:1042A00086EF99E00E947A08F3942A81F2168CF343
:1042B0005B9A8CEF92E10E947A085B9880911701DB
:1042C000909118010E947A086801612CF601819092
:1042D0006F0148E0542E50E8E52EF12C912CC701D7
:1042E00088219921892B49F45B9A8091170190913B
:1042F00018010E947A085B9808C05B9880911701AA
:10430000909118010E947A085B9A80911701909110
:1043100018010E947A08F694E7945A9401F763947E
:10432000F7E06F12D3CF5B9880E090E00E947A08AC
:1043300073949ECF80915C03882341F08091BE04EA
:1043400081110FC086E30E94900518C080915B0325
:10435000882351F010925B030E94521881E08093F1
:1043600049030E9404060AC080915A03882321F061
:1043700010925A0385D802C00E945F0F5D9A89E5AA
:104380000E94E40883E70E94E4087501D12CF7013C
:1043900081917F010E94A409D394F7E0DF12F7CF47
:1043A0000E943009C5010E944435C8010E9444356D
:1043B0006EC08237A9F46BE171E0C70102960E94DA
:1043C000D50989E50E94E40882E70E94E4088AE3AF
:1043D0000E94E40880911B0140E260E090E02CC064
:1043E000843779F5F7018281803339F488ED94E0E0
:1043F00090931A018093190106C069E171E0C70129
:1044000002960E94D5098091190190911A01969502
:104410008795909318018093170189E50E94E4081D
:1044200084E70E94E4088AE30E94E40840E266E030
:104430008091190190911A010E9434090E9430095B
:1044400026C0883721F580915B03882341F01092C4
:104450005B030E94521881E08093490310C0809151
:104460005A03882321F010925A030AD80EC082E022
:1044700090E00E9494058091BE04882319F00E9468
:10448000040603C086E30E94900510925C03229606
:10449000EFE00C947F34CF93DF93EA98209A289A28
:1044A0008EE190E00E947A0828988EE190E00E94C8
:1044B0007A08289A8DE290E00E947A0880E30E94B0
:1044C000900584E690E00E947A08289880E40E9493
:1044D0000305C2E6D7E0FE0184910E940305219600
:1044E000F7E0CB38DF07B9F7289A28988EE70E94C3
:1044F00003058BE290E0EC0121960E94080A0E94DD
:104500000305C333D10511F0CE01F5CF289A83E31B
:104510000E94900581E00E947F0881E08093B604AC
:1045200080936F030E948D0BDF91CF910895A0E0DF
:10453000B0E0EDE9F2E20C9469348C01809156050B
:10454000F801838364839DE0E92EF12C0E94F2053B
:1045500085E30E947705833169F085E597E00E9445
:10456000230985E30E9477050E94A4090E9430096F
:1045700092DF49C04091B8045091B9046091BA04E7
:104580007091BB04409357055093580560935905AB
:1045900070935A0528988FE70E9403056801C0E0D0
:1045A000D0E08AEAB82EF60180810E940305C93066
:1045B000D10544F4F6018081B826C730D10511F445
:1045C000F801B0862196FFEFCF1ADF0ACF30D10570
:1045D00051F7289AC8EC85E30E947705833169F08A
:1045E00081E0E81AF108E114F10409F0AFCF8091FD
:1045F00056058F5F8093560506C081E00E947F08B4
:10460000C15049F7EDCFCDB7DEB7E9E00C94853462
:10461000ABE3B0E0EEE0F3E20C9466347C01FC0125
:1046200001900020E9F7AF0141505109481B590B97
:104630006C01F2E0CF0ED11CBE01625D7F4FC6015E
:104640000E94A809082F6CEC71E08DE191E00E94B6
:104650001937F70111818DE8810F823008F0D7C139
:1046600081E080936D0387858A3411F489E501C068
:104670008EE480931C018090B8049090B904A090BF
:10468000BA04B090BB044091B8045091B904609151
:10469000BA047091BB04409357055093580560933A
:1046A000590570935A0580911C01893509F050C055
:1046B00089E497E00E94230982E397E00E9423099E
:1046C000C7010E9418098DE197E00E942309F701B4
:1046D00001900020E9F7319740E260E0CF018E19A8
:1046E0009F090E94340985ED96E00E942309F70195
:1046F00001900020E9F73197808140E260E090E08E
:104700000E9434098DE896E00E94230940E260E0AF
:10471000802F90E00E9434098AE896E00E942309E5
:1047200083E796E00E94230940E364E08091590505
:1047300090915A050E946A0940E364E08091570510
:10474000909158050E946A0980E796E00E9423092B
:10475000F70101900020E9F77197EE15FF0509F0C8
:104760003DC142E0BE01625D7F4FC6010E94A809C3
:10477000029709F033C18FDE0EA5B701665F7F4F48
:1047800045E050E0CE0101960E9420371E824AE0AB
:1047900050E060E070E0CE0101960E94D3356B01DD
:1047A0007C0123E0F694E794D794C7942A95D1F737
:1047B00080911C018935F1F489E596E00E94230976
:1047C000CE0101960E94180982E596E00E94230915
:1047D0008BE396E00E94230940E364E0C7010E9456
:1047E0006A0940E364E0C6010E946A0983E396E037
:1047F0000E9423098FE0E1E4F1E0DE015F96019081
:104800000D928A95E1F78FA588A388A989A389A924
:104810008EA3602FCE014F968ADE133709F4EEC0C7
:1048200007FFECC04091570550915805609159051C
:1048300070915A058091B8049091B904A091BA047E
:10484000B091BB0488199909AA09BB098E37910553
:10485000A105B10548F48090B8049090B904A090E7
:10486000BA04B090BB04A8958091B8049091B904A3
:10487000A091BA04B091BB04841B950BA60BB70B97
:10488000C816D906EA06FB06A8F68090B8049090F0
:10489000B904A090BA04B090BB0480911C01893582
:1048A00009F073C08CE196E00E94230940E364E0C4
:1048B000C5010E946A0940E364E0C4010E946A09DC
:1048C00084E196E00E9423098DEF95E00E94230980
:1048D00040E364E08091590590915A050E946A096D
:1048E00040E364E080915705909158050E946A0961
:1048F00085EF95E00E9423098EED95E00E94230943
:1049000040E364E0C7010E946A0940E364E0C60135
:104910000E946A0986ED95E00E9423098FEB95E0DD
:104920000E9423098091B8049091B904A091BA041F
:10493000B091BB04409157055091580560915905BD
:1049400070915A05841B950BA60BB70B40E364E0EE
:10495000CD010E946A098091B8049091B904A09198
:10496000BA04B091BB042091570530915805821BC1
:10497000930B40E364E00E946A0987EB95E00E9494
:1049800023098EEA95E00E94230967EFCE014F9636
:10499000CEDD4091570550915805609159057091B1
:1049A0005A058091B8049091B904A091BA04B091CD
:1049B000BB04841B950BA60BB70B4597A105B1054E
:1049C00080F380911C01893521F485EA95E00E94ED
:1049D000230967EFCE014F96AADD10C080E895E06D
:1049E0000E94230940E260E08EE090E00E943409DA
:1049F0008CE595E00E94230910926F0380916E036D
:104A0000813011F40E94040610926D0339C01237F0
:104A100089F5F7018281853441F410926E0386E3B3
:104A20000E9490058BE495E022C08335F1F481E08B
:104A300080936E0330DD88E395E00E9423090E9495
:104A4000040685E30E9477058D30D1F08FE195E073
:104A50000E94230985E30E9477050E94A4090E9411
:104A6000300919DD10926E030BC08DEF94E00E94A7
:104A7000230906C086EE94E00E94230910926F037A
:104A8000EB96ECE00C948234A0E1B0E0EAE4F5E2CD
:104A90000C946B348E010F5F1F4F80E1F80111926F
:104AA0008A95E9F780916E03813009F064C08091A6
:104AB0006D03813009F45FC04A9B5DC08BE30E94A7
:104AC00077058F778F3008F08FE0898328988FEFF4
:104AD0000E940305F12CD12C3AEAE32E8981F816C5
:104AE000F0F480E00E940305E2E0F0E0EC0FFD1F2F
:104AF000EF0DF11D8083F7E0FF1510F0E8260DC0E3
:104B000098E0F9120AC0E81641F00E94A40984ED69
:104B100094E00E942309DD24D394F394DFCF289AF4
:104B20004AE050E06DE573E0C8010E940C37892B24
:104B300011F1E1E0DE16F9F081ED94E00E94230925
:104B400080E1F801ADE5B3E001900D928A95E1F7BF
:104B50008E010E5F1F4F7E01FBE0EF0EF11CF8018E
:104B600081918F010E94A4090E151F05C1F78EECDB
:104B700094E00E9423096096E7E00C948734109239
:104B8000760510922B0483E0809375038FEF80935A
:104B90008B050895E6E7F3E02081211105C0892BFC
:104BA000B1F080E090E00895B4E0E432FB07B8F79C
:104BB000009751F04181DC013C91431305C04281D3
:104BC00011963C91431751F0E20FF11DE5CF34E00F
:104BD000E432F30719F010F0E4E2F4E0CF010895B5
:104BE00094E0899FF0011124E457FA4F80818F3FB0
:104BF00091F080937003818180937103828180930F
:104C0000720383818093730321E04CE064E080E7CA
:104C100093E00C949C0C089585E294E0BBDF009730
:104C200099F020917503FC013081231768F4E20F9D
:104C3000F11D80818093270489E780932804818176
:104C40008093290481E0089580E00895EF92FF9217
:104C50001F93CF93DF931F92CDB7DEB7182F8091AC
:104C6000BE0486FF18C084E599830E94E408E12E03
:104C70009981F92E15E0F70181917F010E94A40925
:104C80001150C9F78091BE0485FF03C08AEF0E94CE
:104C9000A4090E9430090F90DF91CF911F91FF90DE
:104CA000EF90089586E30E94900580912704833554
:104CB00011F48BE901C08BE40E947F0821E04CE0F5
:104CC00065E085E294E00E949C0C0E94040685E267
:104CD00094E0BCCFE7DF80912704893631F081E092
:104CE0008093240489E280938B050895CF9385E314
:104CF00090E00E94080A80935C0586E390E00E94A1
:104D0000080A80938A05CFEFC0937A05C0937C058B
:104D1000C0937E05C0938005C0938205C09384052F
:104D2000C0938605C09388052ADF1092760381E040
:104D300080935B05C0938C058FEF9FEF90935F0589
:104D400080935E05109261051092600510926305D4
:104D500010926205C0939005909365058093640559
:104D60001092670510926605109269051092680509
:104D7000C093940590936B0580936A0510926D051E
:104D800010926C0510926F0510926E05C0939805F5
:104D900090937105809370051092730510927205BF
:104DA0001092750510927405CF910895ACE0B0E0B3
:104DB000ECEDF6E20C9469346C018C010F5F1F4F2F
:104DC00045E0BE016F5F7F4FC8010E94A809843093
:104DD00008F0F3C099819130A9F4833061F46A81BD
:104DE00085E390E00E94030A6B8186E390E00E94D5
:104DF000030A7CDF06C280915C050E94A4098091B1
:104E00008A059AC0923009F051C0813039F081E0B2
:104E10009A81913009F080E0F82E02C0FF24F394CB
:104E200080917603811104C08BE897E00E942309EA
:104E300006E713E0F8018081882309F4BBC0F4E0A1
:104E400004321F0708F0B6C033E00637130719F025
:104E500080E20E94E408F80181810E94A409F8011F
:104E600082810E94A409FF20E1F08AE30E94E40805
:104E700093E0F80180819817A0F4943038F090FF07
:104E800005C08CE29C870E94E4089C85EE24E39494
:104E9000E90EF801E90FF11D80810E94A4099E2D01
:104EA000E8CFF8018081080F111DC4CF933049F479
:104EB00080E090E06FDE865793409EEA981B892F32
:104EC0003BC0903171F50AE715E08BE7E82E85E0ED
:104ED000F82EC12CD12CF80180818F3FA1F0DD206C
:104EE00019F080E20E94E4088C2D0E94A4098AE354
:104EF0000E94E408F80180810E94A409F7018081E2
:104F00000E94A409D3940E5F1F4FC394F2E0EF0EEA
:104F1000F11C38E0C312DFCFD1104CC089E997E013
:104F200047C0913161F480917805909179056DE7E2
:104F300070E00E943934862F0E94A4093BC0923150
:104F4000C9F51CE8E12E15E0F12E0FE815E0C12CA3
:104F5000D12CF70180818F3FF1F0DD2019F080E244
:104F60000E94E4088C2D0E94A4098AE30E94E408B0
:104F7000F70180810E94A409F801329780810E9484
:104F8000A409F801319780810E94A409F801808169
:104F90000E94A409D394F4E0EF0EF11CC3940C5FBB
:104FA0001F4F34E0C312D5CFD11004C085E997E07C
:104FB0000E9423090E94300924C144E0BE01695FB8
:104FC0007F4FC8010E94A8094F81493608F477C075
:104FD0007A85588569857C3009F04BC020E030E047
:104FE00080E090E0F901E457FA4F708174131CC01F
:104FF000A181A51319C0A281A61316C02CE023839A
:105000009C01220F331F280F391FF901EE0FFF1FDC
:10501000E25AFA4F11821082F901EE0FFF1FE05A97
:10502000FA4F11821082CFC07F3FD9F44083518361
:1050300062832CE023839C01220F331F280F391F2A
:10504000F901EE0FFF1FE25AFA4F11821082F901A7
:10505000EE0FFF1FE05AFA4F1182108210925B058B
:10506000B2C001962C5F3F4F2031310509F0BACF15
:10507000C8C080E090E020E030E0FC01E457FA4F47
:10508000A081A41315C0A181A51312C0A281A613EB
:105090000FC07383F901EE0FFF1FE20FF31FEE0F36
:1050A000FF1FE05AFA4F81E090E091838083A9C00E
:1050B0002F5F3F4F049680319105F9F6A2C0E98138
:1050C00080915C05E817C0F190E0F0E09C01295F59
:1050D0003F4F2E173F0784F13A8120918A05321302
:1050E0002BC03C813F3231F442E06CE0C6010E94AB
:1050F000090D87C02D813C32B1F42093770581E002
:1051000090E090937905809378058091BC0490910C
:10511000BD04E4E02E9F800D911D11249093BD04E9
:105120008093BC046EC0E81BF90BEE0FF0E0E6586C
:10513000FA4F3083218365C080E090E02BDD7C0155
:10514000F80101900020E9F73197E01BF10BF6958B
:10515000E795BB24B394BE0EC7018B0D911D8657F6
:1051600093408F3A91050CF048C0F701B1928F013E
:1051700021E0822F880F81502B15D8F441E0B8012F
:10518000F601E80FF11DCF012C870E94A8092C859C
:10519000233058F020FD09C0D80111978C91843636
:1051A00021F4F801808180935D052F5F0F5F1F4F11
:1051B000E0CFF4E2EF16F4E0FF0618F5F701E20F96
:1051C000F11D10821EC022E04CE064E0CE01079683
:1051D0000E949C0C8FE08A8722E04CE064E0CE01C4
:1051E00007960E949C0C82E08A8722E04CE064E0F3
:1051F000CE0107960E949C0C04C08FE897E00E94A5
:1052000023092C96E9E00C9485340F931F93CF93D8
:10521000DF9390915B0591114FC093E0899F8001CE
:105220001124F801EE0FFF1FE25AFA4F94E0899F14
:10523000D0011124A457BA4F12969C91977040E860
:1052400050E0491B51099AEF949F9001959F300DB2
:105250001124359527953595279531832083E801CD
:10526000CC0FDD1FCE59DA4F288139812F5F3F4F98
:1052700039832883000F111F005A1A4FF80140810B
:1052800051814115510529F424303105A9F4A8DCD8
:1052900011C04130510539F4A3DC82E090E0F801FF
:1052A0009183808309C04230510531F499DCF801C3
:1052B0001182108219821882DF91CF911F910F9174
:1052C0000895A6E0B0E0E7E6F9E20C946C34209192
:1052D0008A052A831B8280917705882341F08330D9
:1052E00019F487E791E00FC08DE790E00CC02770BC
:1052F00030E02A513F4F4DE7429FC001439F900D40
:1053000011249595879590937905809378050BE7FF
:1053100015E0F12C7CE2E72EF801319790819F3F58
:10532000C1F080915C058F0D89838091770588237A
:1053300011F0EC8203C09C83F80180818D8321E011
:105340004CE065E0CE0101960E949C0CCE010196D6
:105350007DDCF3940E5F1F4FF8E0FF12DDCF8091EC
:105360007705882341F0833019F41092770503C044
:105370008250809377052696E6E00C9488348091DD
:105380002404882351F08EDC89E280938B05809180
:1053900024048150809324040895F1CBFF920F934D
:1053A0001F93CF93DF93FC01F0800181C281D381F1
:1053B00014818FE580938B051092240480915C0505
:1053C000811105C080918A05882309F4A9C08091C4
:1053D00025048F1104C080912604801729F0CFDBAB
:1053E000F092250400932604809176058F3F09F4FE
:1053F00097C0C0932704D093280410932904CC238A
:10540000F1F081111CC080915C05181761F0143611
:1054100051F08DEA8C0F823010F0CD3739F48FEFD8
:10542000809376057DC0C43509F47AC08D2F807FC6
:10543000803609F075C0D067D093280457C0ECDBE4
:10544000811105C080917605882309F469C0809197
:105450002B04811107C0E0917605F0E0E356F84F88
:10546000E49101C0E82FE33541F4C43531F4909163
:1054700076059E5F9093760504C0EC1711F07FDBF4
:105480004FC0882369F0809175038E5F8093750308
:10549000C3DB81110EC0809176058E5F8093760507
:1054A00080917605E82FF0E0E256F84F14911F3F07
:1054B00059F48091270480932B048436B9F48091A9
:1054C0005D058093290412C01093270497E79093F9
:1054D000280490915C05909329048E5F8093760553
:1054E00010922B048E3021F01123D1F0F3DB18C081
:1054F00085E294E04FDBDC01009781F02C9130E0F5
:1055000084E294E0821B930BA817B90730F4ED01F5
:10551000C20FD31F48814D93F7CF1C9230DBE4CFED
:10552000CDB7DEB7E5E00C948934FF920F931F935B
:10553000CF93DF938C01EC0109900020E9F72197CC
:10554000C81BD90BFC018181823751F487E390E0BD
:105550000E9494050E94040681E080939C0526C069
:10556000833711F5FC2E28988FE70E9403058C2FB6
:1055700082500E940305E801229612E01F1528F4CC
:1055800089910E9403051F5FF9CF289A0E94F205B6
:105590008AE30E9477058F7721F081E00E947F08DF
:1055A000F7CF0E94040602C010929C05CDB7DEB76B
:1055B000E5E00C948934A0E8B0E0E1EEFAE20C9466
:1055C0006A3480919C05882309F454C0813011F518
:1055D0008091B8049091B904A091BA04B091BB0431
:1055E00020912C04281709F445C085E30E94770513
:1055F000813129F48AE30E9490050E94040680917B
:10560000B8049091B904A091BA04B091BB048093FE
:105610002C0430C08FE30E947705D82E87FD27C069
:1056200028988FEF0E9403058E010F5F1F4F7801AE
:10563000C02E8E2D801B8D1538F480E00E9403054E
:10564000F70181937F01F5CF289A81E08093D401FF
:10565000802F8C198D1530F4F80181918F010E94F3
:10566000E408F6CF0E9430098FEF8093D40181E0E7
:1056700080939C05C058DF4FE8E00C9486340F936C
:105680001F93CF93DF93EC0110E0812F90E09C01FA
:10569000220F331F280F391FF901E054FF4F0491E7
:1056A0002F533F4FF90145915491002399F02097D2
:1056B00039F480E20E94E408802F0E94E40808C0C8
:1056C0008881801305C0CE01FA01099581E003C0ED
:1056D0001F5FDBCF80E0DF91CF911F910F91089585
:1056E000CF93C091D4018093D40180912206882366
:1056F000A1F180E296E00E94590BE0912D048A30DE
:1057000011F08D30F9F4EE2381F3F0E0E25DFB4F10
:1057100010828EE294E0B3DF811111C083EC97E038
:105720000E9423098EE294E00E9418098BEA97E018
:105730000E94230980E090E0A2DF0E9430091092CD
:105740002D04D3CFE7FDD1CF91E09E0F90932D0490
:10575000F0E0E25DFB4F8083C8CFC093D401CF91CE
:105760000895E4E6F0E080818B7F8083299A84B1FC
:10577000876084B9239880E58CBD8DB581608DBD2F
:10578000089520912D0A30912E0A2115310521F41A
:1057900020913D0130913E0180913B0190913C016F
:1057A000009741F48DB79EB740913F015091400161
:1057B000841B950B2817390718F4821B930B089547
:1057C00080E090E0089582E40E94E40840E265E011
:1057D00080912D0A90912E0A0E9434090E9430096E
:1057E00083E50E94E40840E265E080913D019091EC
:1057F0003E010E9434090E94300985E40E94E408B9
:1058000040E265E080913B0190913C010E943409A7
:105810000E94300986E40E94E408B3DF40E265E0BC
:105820000E9434090C943009A2E0B0E0EAE1FCE205
:105830000C947034E8EAF6E08091F100819386E000
:10584000E03BF807C9F72091A8063091A906832FFD
:1058500090E08A30910508F01BC1FC01EA5AFF4F25
:105860000C949734203879F0223809F011C18091D6
:10587000AC068093E9008091EB0085FB882780F9D6
:105880001092E90006C08091A3069091A4069111A0
:1058900082609091E800977F9093E8008093F100F8
:1058A0001092F1008091E800982F9E7F9093E8007D
:1058B0008F778093E8008091E80082FDAFC08091EF
:1058C000A7068111F8CFD5C0822F8D7F09F0E0C0E7
:1058D000222319F0223061F033C08091AA06813072
:1058E00009F0C7C0333009F080E08093A40628C0D7
:1058F0008091AA06811124C02091AC06277009F47A
:10590000B8C02093E9008091EB0080FF19C080911E
:10591000EB00313091F480618093EB0081E090E006
:10592000022E01C0880F0A94EAF78093EA001092D1
:10593000EA008091EB00886001C080628093EB00F8
:105940001092E9008091E800877F8093E8008091C1
:10595000E800982F9E7F66C021119AC02091AA0668
:105960008091E800877F8093E8009091E800892F7C
:105970008E7F8093E8009F779093E8008091E80005
:1059800080FD05C08091A7068111F8CF72C0822FDB
:105990008F77982F90689093E300882309F469C06B
:1059A00083E08093A70665C02058223008F070C0BD
:1059B000AE014F5F5F4F6091AC068091AA06909157
:1059C000AB060E94C904009709F453C02091E80077
:1059D000277F2093E800BC0189819A812CD11EC0C9
:1059E000203809F055C08091E800877F8093E80057
:1059F0008091A5068093F1008091E800982F9E7F0A
:105A00009093E8008F778093E8008091E80082FD12
:105A100005C08091A7068111F8CF2BC08091E800C6
:105A2000982F9B7F9093E8008F778093E80021C0A8
:105A300021112EC09091AA069230D8F48091E800EE
:105A4000877F8093E8009093A5068091E800982FC7
:105A50009E7F9093E8008F778093E8008091A50661
:105A6000882311F084E001C083E08093A7060E94A0
:105A70003B078091E80083FF0EC08091EB008062BD
:105A80008093EB008091E800877F8093E80003C05B
:105A90000E945307EECF2296E2E03EC78093E900D2
:105AA000EBEEF0E0808181608083EDEEF0E010822B
:105AB0006093EC0040838091EE00881F8827881F48
:105AC00008951092F40080E08093E9001092F000B5
:105AD0001092E8009091ED009D7F9093ED009091E1
