:100000000C9469030C9474200C94A1200C9491031B
:100010000C9491030C9491030C9446050C94910359
:100020000C9491030C9491030C9491030C94910300
:100030000C9491030C9491030C9491030C949103F0
:100040000C94CE200C9491030C9463250C9495256C
:100050000C9491030C9491030C9491030C949103D0
:100060000C9452190C94910307634236B79BD8A79E
:100070001A39685618AEBAAB558C1D3CB7CC5763CD
:10008000BD6DEDFD753EF6177231BF000000803F7B
:1000900008000000BE922449123EABAAAA2ABECD97
:1000A000CCCC4C3E00000080BEABAAAAAA3E000009
:1000B0000000BF000000803F000000000008417801
:1000C000D3BB4387D1133D190E3CC3BD4282AD2B38
:1000D0003E68EC8276BED98FE1A93E4C80EFFFBE30
:1000E00001C4FF7F3F00000000004661696C656449
:1000F0002072656164696E672068756D69646974F2
:10010000792066726F6D2044485400483A200046BA
:1001100061696C65642072656164696E67207465ED
:100120006D70657261747572652066726F6D2044C2
:1001300048540054656D70313A20005369747561FC
:1001400074696F6E203D2000466F72656361737441
:10015000203D200020685061007365616C65766504
:100160006C205072657373757265203D2000202AE3
:100170004600202A430054656D7065726174757283
:100180006532203D2000436F756C64206E6F7420D3
:1001900066696E6420612076616C696420424D500E
:1001A0003038352073656E736F722C206368656319
:1001B0006B20776972696E6721004E6F64652072EB
:1001C0006567697374726174696F6E3D25640A00B6
:1001D0004E4F44453A215245470A005265717565B4
:1001E000737420726567697374726174696F6E2EBF
:1001F0002E2E0A00496E697420636F6D706C6574F1
:10020000652C2069643D25642C20706172656E74D4
:100210003D25642C2064697374616E63653D2564BB
:100220002C20726567697374726174696F6E3D2505
:10023000640A005374617274696E672073656E732B
:100240006F722028524E4E4E412D2C20322E302ED1
:1002500030290A0025735453503A4D53473A5345B9
:100260004E442025642D25642D25642D256420739E
:100270003D25642C633D25642C743D25642C7074ED
:100280003D25642C6C3D25642C73673D25642C66EC
:10029000743D25642C73743D25733A25730A00213F
:1002A00054534D3A4D53473A52454C204D53472CE9
:1002B00020627574206E6F742061207265706561B4
:1002C0007465720A005453503A4D53473A42430AF8
:1002D000005453503A4D53473A504F4E47205245E1
:1002E00043562028686F70733D2564290A005453D3
:1002F000503A4D53473A50494E47454420284944C7
:100300003D25642C20686F70733D2564290A0054D4
:1003100053503A4D53473A504152204F4B202849B1
:10032000443D25642C20646973743D2564290A00CA
:100330005453503A4D53473A465041522052455338
:10034000202849443D25642C20646973743D25644C
:10035000290A005453503A4D53473A41434B206DBC
:1003600073670A00215453503A4D53473A5056454B
:1003700052206D69736D617463680A005453503A7A
:100380004D53473A524541442025642D25642D257F
:100390006420733D25642C633D25642C743D2564E5
:1003A0002C70743D25642C6C3D25642C73673D25B1
:1003B000643A25730A005453503A50494E473A5311
:1003C000454E442028646573743D2564290A002144
:1003D0005453503A53454E443A544E520A00215415
:1003E00053503A465041523A4143544956452028C9
:1003F0006D7367206E6F742073656E64290A002127
:100400005453503A41535349474E49443A4641495F
:100410004C202849443D2564290A005453503A4150
:10042000535349474E49443A4F4B202849443D25B0
:1004300064290A005453503A43484B55504C3A46AD
:1004400041494C2028686F70733D2564290A005487
:1004500053503A43484B55504C3A44475743202851
:100460006F6C643D25642C6E65773D2564290054CE
:1004700053503A43484B55504C3A4F4B0A00545353
:10048000503A43484B55504C3A4F4B2028464C4429
:100490004354524C290A0054534D3A5044540A00D4
:1004A0002154534D3A4641494C5552450A00215476
:1004B000534D3A55504C204641494C2C20534E50F8
:1004C0000A0054534D3A52454144590A00215453AD
:1004D0004D3A55504C3A4641494C0A0054534D3A16
:1004E00055504C3A4F4B0A0054534D3A55504C0A14
:1004F000002154534D3A43484B49443A4641494CF4
:10050000202849443D2564290A0054534D3A434864
:100510004B49443A4F4B202849443D2564290A0061
:1005200054534D3A49440A002154534D3A465041E0
:10053000523A4641494C0A0054534D3A46504152B2
:100540003A4F4B0A0054534D3A465041520A005418
:10055000534D3A524144494F3A4F4B0A00215453AC
:100560004D3A524144494F3A4641494C0A0054538E
:100570004D3A494E49540A000000000800020100AB
:10058000000304070000000000000000010204084E
:1005900010204080010204081020010204081020ED
:1005A0000404040404040404020202020202030319
:1005B00003030303000000002300260029000000BD
:1005C0000000250028002B00000000002400270068
:1005D0002A0000407A10F35A00A0724E1809001049
:1005E000A5D4E80000E87648170000E40B540200A8
:1005F00000CA9A3B000000E1F505000080969800D3
:10060000000040420F000000A086010000001027FB
:1006100000000000E803000000006400000000008B
:100620000A00000000000100000000002C76D888BD
:10063000DC674F0823DFC1DFAE59E1B1B796E5E3D0
:10064000E453C63AE651997696E8E6C28426EB89E9
:100650008C9B62ED407C6FFCEFBC9C9F40F2BAA586
:100660006FA5F490055A2AF75C936B6CF9676DC11E
:100670001BFCE0E40D47FEF520E6B500D0ED902E22
:100680000300943577050080841E080000204E0A80
:10069000000000C80C333333330F986E12831141BE
:1006A000EF8D2114893BE65516CFFEE6DB18D18489
:1006B0004B381BF77C1D901DA4BBE42420328472B0
:1006C0005E228100C9F124ECA1E53D27310A7018B2
:1006D000C52511241FBECFEFD8E0DEBFCDBF11E08E
:1006E000A0E0B1E0E6EFF0E602C005900D92AA3F6F
:1006F000B107D9F725E0AAEFB1E001C01D92A339F7
:10070000B207E1F716E0C2EDD6E004C02297FE0181
:100710000E941B2ACC3CD107C9F70E947D160C947D
:1007200079300C94000081E080932004089582E0E9
:100730008093200408958EBD00000DB407FEFDCF08
:100740008EB50895BF92CF92DF92EF92FF920F93F2
:100750001F93CF93DF93C82F8B01C42EB22E8091AD
:100760002304882399F03FB7F894809123048130C3
:1007700059F48DB3809321048DB390912204909508
:1007800098239DBB3FBF02C03093210480E58CBD00
:100790001DBC60E08AE00E94E51F8AE090E00E94B4
:1007A0006F218C2F0E949B03D82EE801CC20B9F03A
:1007B000BB2051F08FEF0E949B03D82E011511052D
:1007C00061F08883219609C07E018FEFE81AF80A4C
:1007D00088810E949B03D82EE701CA94E7CF61E08D
:1007E0008AE00E94E51F80912304882361F09FB76F
:1007F000F8942091230480912104213019F48DBBB9
:100800009FBF01C08FBF8AE090E00E946F218D2DB5
:10081000DF91CF911F910F91FF90EF90DF90CF90DC
:10082000BF900895CF93DF931F92CDB7DEB7698352
:1008300020E041E0BE016F5F7F4F0E94A2030F9056
:10084000DF91CF91089560E089E00E94E51F6CE0A0
:1008500080E20C9412046FE080E20E941204609126
:1008600036016F3F19F08AE20E94120461E089E0CC
:100870000C94E51F20E040E060E070E00C94A203DF
:10088000EF92FF921F93CF93DF931F92CDB7DEB706
:10089000182F7B0160E089E049830E94E51F82E810
:1008A00090E00E946F216EE080E20E94120484E6D4
:1008B00090E00E946F21612F8AE20E941204612F52
:1008C00080E30E94120481EE0E943A0420E04981F4
:1008D000B70180EA0E94A20361E089E00E94E51F5F
:1008E000EE24EA94FE2C8FEF0E943A04182F8073B6
:1008F00051F4970121503109EF2811F07901F3CF1C
:10090000EE24EA94FE2C60E089E00E94E51F60E39B
:1009100087E20E94120414FF03C081EE0E943A0491
:100920000E942B0415FF03C081E0EF2809F480E04A
:100930000F90DF91CF911F91FF90EF9008951F933B
:10094000CF93DF93EC0121E041E060E070E080E6CE
:100950000E94A203182F813220F082EE0E943A04F6
:1009600010E021E0412FBE0181E60E94A20360E475
:1009700087E20E941204812FDF91CF911F91089589
:10098000CF9321E041E060E070E086E00E94A203A6
:10099000C82F21E041E060E070E085E00E94A20302
:1009A00091E08C3409F090E081E0C73209F080E0FA
:1009B0008923CF910895CF9361E089E00E94AC1F15
:1009C00061E08AE00E94AC1F0E94671760E089E046
:1009D0000E94E51F61E08AE00E94E51F6EE080E270
:1009E0000E94120465E070E080E090E00E944721E0
:1009F00063E083E20E9412046FE584E20E94120425
:100A00006CE485E20E94120467E286E20E9412040E
:100A10000E94C004C82F8823B1F163E780E30E94DD
:100A2000120466E08DE30E94120462E082E20E94FA
:100A3000120460E081E20E94120463E08CE30E94F1
:100A400012048FEF8093370120E045E067E371E007
:100A50008BE20E94A20320E045E067E371E08AE2B6
:100A60000E94A20320E045E067E371E080E30E947A
:100A7000A20382EE0E943A0481EE0E943A0460E7EB
:100A800087E20E9412048C2FCF9108951F920F923B
:100A90000FB60F9211240F900FBE0F901F90189554
:100AA00020917A002F7720937A00409160008A305D
:100AB0009105B9F083FF02C028E201C028E08770E9
:100AC000822B28E130E00FB6F894A89520936000BF
:100AD0000FBE80936000809160008065809360000D
:100AE00008C088E10FB6F89480936000109260000F
:100AF0000FBE83B7817F846083BFF89483B7816022
:100B000083BF85B7806685BF8F7D85BF78948895C4
:100B100083B78E7F83BFF894A89580916000886129
:100B20008093600040936000789480917A008068A0
:100B300080937A0008958EE480937C0066E470E0F0
:100B400080E090E00E94472180917A008064809349
:100B50007A0080917A0086FDFCCF20917800309158
:100B6000790040E050E064EB7BE281E190E00E949C
:100B7000B129C9010895F8948FEF86BB10928500C2
:100B800010928400109280001092820020916000E8
:100B90003DE088E190E00FB6F894A895809360005E
:100BA0000FBE30936000809160008064809360008D
:100BB000A89585E0809381008091600087FFFCCF3D
:100BC00010928100A89580916000886180936000F8
:100BD000209360007894609184007091850080E09B
:100BE00090E02BE0660F771F881F991F2A95D1F799
:100BF00020EA36E841E050E00E94B129C901089599
:100C0000CF93DF9300D0CDB7DEB720918F05309121
:100C100090052115310511F423E935E0CE01019647
:100C2000821B930B0F900F90DF91CF91089520912D
:100C300013043091140440911A042817390741F025
:100C4000407F40931A04909314048093130408C0C7
:100C500091E0940F9F70842F807F892B80931A04DA
:100C6000E0911304F09114040190F081E02D30978D
:100C700009F009950E9418216093150470931604D9
:100C8000809317049093180408950F931F930E9464
:100C90001821009115041091160420911704309129
:100CA0001804601B710B820B930B1F910F91089519
:100CB0000E944506613177428105910520F080E56B
:100CC00091E00C9417060895E0911304F091140438
:100CD0000280F381E02D309709F0099408958CE3A8
:100CE00091E0909314048093130480E591E00C94B8
:100CF00017068F3F51F08093360163E082E20E9435
:100D0000120461E081E20E9412040C942B046F70C3
:100D10006A3010F480E301C087E3860F08959F9244
:100D2000AF92BF92CF92DF92EF92FF920F931F93F9
:100D3000CF93DF93EC018B01912C8B818695869567
:100D40008695981638F5C92CD12C7601EE0CFF1C2F
:100D50005801AE0CBF1CCC0EDD1EF6016781772753
:100D600067FD7095F4E075956795FA95E1F7CE010A
:100D70000E948706F5018083FFEFEF1AFF0AE00E5D
:100D8000F11EF6016781CE010E948706F70180837C
:100D90009394D3CFF801E80FF11DE80FF11D1082F5
:100DA000C801DF91CF911F910F91FF90EF90DF90DD
:100DB000CF90BF90AF909F9008950F931F93CF93C4
:100DC000DF938C01EB01FC0184818295869587700D
:100DD000209709F462C0811115C04381469546955C
:100DE000469550E0B801695F7F4FCE010E94942A7A
:100DF000F8018381869586958695FE01E80FF11DA1
:100E000010824EC0813029F4F80187814AE090E0D9
:100E100006C0823039F44AE0F801878190850E944B
:100E2000A32A3EC0833039F44AE0F80187819085D7
:100E30000E94FC2A35C0843051F4F8016781708526
:100E4000818592852AE0AE010E94AE2A29C08530B4
:100E500051F4F80167817085818592852AE0AE01A1
:100E60000E94DA2A1DC0873079F4F80123852930E1
:100E700008F028E0F80167817085818592858E01F0
:100E800042E00E942E2A0CC0863051F4C801DF9146
:100E9000CF911F910F910C948F0680E090E001C0DC
:100EA000CE01DF91CF911F910F910895FC01248114
:100EB000229526952770213011F4878108952111FC
:100EC00004C007960E944F2A089580E008950E946A
:100ED000560791E0811101C090E0892F0895FC012F
:100EE0002481229526952770253029F46781708505
:100EF000818592850895211103C007960C946D2A6F
:100F000060E070E0CB0108950F931F93CF93DF93C0
:100F1000EC016115710561F0FB0101900020E9F71A
:100F20003197E61BF70BE931F10518F0E9E101C053
:100F3000E0E00E2F10E0C801B3E0880F991FBA95CA
:100F4000E1F79B819770982B9B838C818F718C83A9
:100F5000EE2329F0A801CE0107960E94942AFE01F3
:100F6000E00FF11F1782CE01DF91CF911F910F91FA
:100F70000895FC01838187708860838384818F71E9
:100F8000806284836783CF010895FC018381877029
:100F9000886283838481806E8483478350876187DE
:100FA00072872387CF010895FC0184818F71806A45
:100FB00084838381877080628383478350876187BE
:100FC0007287CF010895FC0184818F7180668483CC
:100FD000838187708061838370876783CF010895E1
:100FE000FC0184818F718064848383818770806138
:100FF000838370876783CF01089563E086E093E081
:101000000E943F1B811107C066E871E082EF94E007
:101010000E946223FFCF089540E050E064E088E83A
:1010200093E00C94D91E0E94FD070E940C0881E0F9
:1010300090911204911101C080E08093350160E02D
:1010400084E00E94AC1F60E185E093E00C946D1F8A
:10105000CF92DF92EF92FF9220E030E54DE754E42B
:101060000E9409266B017C0120E030E040EF50E453
:101070000E94BD27181654F120E030E040E250E411
:10108000C701B6010E94BD2718161CF120E030E010
:1010900040EF50ECC701B6010E946E2687FD1CC0D0
:1010A00020E030E040E250ECC701B6010E946E261D
:1010B000992787FD90958827990F881F992722E007
:1010C00030E0A901481B590BCA0108C084E090E038
:1010D00005C083E090E002C080E090E0FF90EF90D8
:1010E000DF90CF900895CF93DF93CEECD2E060E015
:1010F00070E0CB0129913991499159910E940A26BA
:1011000022E0C23ED207B1F720E030E040EA50E4EE
:101110000E947226DF91CF910895CF92DF92EF92D5
:10112000FF926B017C012091CC023091CD02C9016C
:1011300065E070E00E949D29880F991F880F991F14
:1011400082539D4FFC01C082D182E282F3822F5FE5
:101150003F4F2A3B31052CF43093CD022093CC0233
:1011600006C086E090E09093CD028093CC028091FF
:10117000CC029091CD028530910559F40E947308FC
:101180006093C8027093C9028093CA029093CB0205
:10119000F5C083329105D9F40E9473082091C802EA
:1011A0003091C9024091CA025091CB020E94092697
:1011B0002DEC3CEC4CEC5DE30E94C1272091060134
:1011C0002223D1F19B01AC010E940A268BC08134FD
:1011D0009105C1F40E9473082091C8023091C902A0
:1011E0004091CA025091CB020E9409262DEC3CECA2
:1011F0004CEC5DE30E94C12720910601222309F4F3
:1012000041C070C08F359105E1F40E9473082091B0
:10121000C8023091C9024091CA025091CB020E948B
:1012200009262DEC3CEC4CEC5DE30E94C12720919B
:101230000601222309F44BC020E030E040EC5FE3DC
:101240004FC08D37910551F50E9473086093C40219
:101250007093C5028093C6029093C7022091C80282
:101260003091C9024091CA025091CB020E940926D6
:101270002DEC3CEC4CEC5DE30E94C1272091060173
:10128000222339F020E030E040E05FE30E94C127F4
:1012900029C020E030E040E450E422C08B399105C1
:1012A00051F50E9473082091C8023091C902409103
:1012B000CA025091CB020E9409262DEC3CEC4CEC6A
:1012C0005DE30E94C12720910601222329F020E03E
:1012D00030E040E250E404C020E030E040E650E47A
:1012E0000E9472266093C0027093C1028093C20272
:1012F0009093C30247C0893B9105F1F50E947308A2
:101300002091C8023091C9024091CA025091CB028B
:101310000E9409262DEC3CEC4CEC5DE30E94C127B9
:1013200020910601222339F020E030E040E450E42F
:101330000E94722606C020E030E040E85EE30E9492
:10134000C1276093C0027093C1028093C202909340
:10135000C3028091C4029091C502A091C602B091CF
:10136000C7028093C8029093C902A093CA02B093A7
:10137000CB021092060106C0839724F480910601E7
:10138000811168C0C090C002D090C102E090C2023A
:10139000F090C30220E030E040E85EEBC701B60108
:1013A0000E946E2687FD4AC020E030E040E85EE300
:1013B000C701B6010E94BD2718160CF442C020E0F8
:1013C00030E040E85EEBC701B6010E94BD27181669
:1013D00054F42DEC3CEC4CE45DEBC701B6010E94EB
:1013E0006E2687FD31C02DEC3CEC4CE45DE3C7017B
:1013F000B6010E94BD27181654F420E030E040E802
:101400005EE3C701B6010E946E2687FD20C02DEC69
:101410003CEC4CE45DEBC701B6010E94BD271816F9
:10142000CCF42DEC3CEC4CE45DE3C701B6010E942A
:101430006E2687FF0FC080E090E00EC084E090E051
:101440000BC083E090E008C082E090E005C081E03E
:1014500090E002C085E090E0FF90EF90DF90CF90A9
:101460000895CF93DF931092F0031092CF03109260
:10147000610382E080936503C1E0C093640310922E
:101480004003C09344031092430310921F03D4E01F
:10149000D093230380E18093220386E093E00E94AF
:1014A0007F1A85E093E00E94111F1092E60285E00A
:1014B0008093EA0297E19093E9021092A102C0930F
:1014C000A5021092A4021092800293E090938402ED
:1014D0001092830210925F0210926302D093620214
:1014E00010923E02109242028093410210921D021D
:1014F0001092210288E1809320021092FC01109248
:10150000000289E18093FF01DF91CF910895CF928E
:10151000DF92EF92FF926B017C0182EF94E00E94D8
:101520000F221092200480912004811108C080E4D1
:10153000C8168FE1D806E104F10408F06FC080916D
:101540002004811108C080EAC8168FE0D806E104A3
:10155000F10408F06EC080912004811108C080ED74
:10156000C81687E0D806E104F10408F06DC0809148
:101570002004811108C088EEC81683E0D806E10473
:10158000F10408F06CC080912004811108C084EF40
:10159000C81681E0D806E104F10408F06BC0809120
:1015A0002004811107C08AEFC816D104E104F104B8
:1015B00008F06BC080912004811107C08DE7C81628
:1015C000D104E104F10408F06AC080912004811183
:1015D00007C080E4C816D104E104F10408F069C032
:1015E00080912004811107C080E2C816D104E10473
:1015F000F10408F068C08091200481116EC080E180
:10160000C816D104E104F10408F467C080E090E05A
:10161000FF90EF90DF90CF900C94500589E090E020
:101620000E94500580E4C81A8FE1D80AE108F10849
:101630007ACF88E090E00E94500580EAC81A8FE0D7
:10164000D80AE108F10887CF87E090E00E945005B2
:1016500080EDC81A87E0D80AE108F10888CF86E053
:1016600090E00E94500588EEC81A83E0D80AE1088D
:10167000F10889CF85E090E00E94500584EFC81AF8
:1016800081E0D80AE108F1088ACF84E090E00E9466
:1016900050058AEFC81AD108E108F1088BCF83E022
:1016A00090E00E94500588E7C81AD108E108F108C7
:1016B0008CCF82E090E00E9450058CE3C81AD108DC
:1016C000E108F1088DCF81E090E00E9450058EE1A5
:1016D000C81AD108E108F1088ECFFF90EF90DF9093
:1016E000CF900895CF92DF92EF92FF926B017C0131
:1016F0000E94230480E090E0892B21F08DE090E0AF
:101700000E940000C701B6010E94870A80E090E0B5
:10171000892B21F08EE090E00E9400008FEFFF9077
:10172000EF90DF90CF900895AF92BF92CF92DF926B
:10173000EF92FF920F931F93CF93DF931F92CDB73A
:10174000DEB7A82EB42E6701780110922004462F30
:1017500050E063E973E029830E94442029818FEFE0
:10176000B81639F0422F50E067E973E08B2D0E94E4
:101770004420C114D104E104F10429F0C701B601E9
:101780000E94870A04C08AE090E00E9450058A2DDA
:101790000E946420EFEFBE1619F08B2D0E9464208A
:1017A00080912004813011F48A2D07C0809120049B
:1017B000823011F48B2D01C08FEF0F90DF91CF910C
:1017C0001F910F91FF90EF90DF90CF90BF90AF905F
:1017D0000895EF92FF920F931F9379018A0120E001
:1017E0004FEF0E94940B1F910F91FF90EF9008957F
:1017F0001F93CF93DF9300D000D01F92CDB7DEB7F9
:10180000182F2A833B834C835D8369830E942304C2
:10181000E0E0F0E02A813B814C815D816981309775
:1018200041F08DE090E0099569815D814C813B81BB
:101830002A81812F0E94E90B182F20E030E0232B12
:1018400021F08EE090E00E940000812F0F900F9019
:101850000F900F900F90DF91CF911F910895CF932C
:10186000DF93CDB7DEB7CC52D1400FB6F894DEBFD0
:101870000FBECDBFFE01EF5CFE4F419151919F0124
:101880006BE271E0CE0101960E94162BBE016F5FE4
:101890007F4F82EF94E00E94552382EF94E00E94F4
:1018A0000F22C45DDE4F0FB6F894DEBF0FBECDBF72
:1018B000DF91CF9108950E944506613D77408105F3
:1018C000910520F48091190481FF089580911004FE
:1018D0008F3FC1F088E395E09F938F930E942F0C78
:1018E000809119048E7F809319040F900F9080E0EF
:1018F00090E0892B21F085E090E00E94000088E4D0
:1019000091E022C00E944506613D77408105910526
:10191000E8F080911A048F7090E003971CF48CE437
:1019200091E012C088E295E09F938F930E942F0C64
:101930000F900F9080E090E0892B21F088E690E0F6
:101940000E9400008CE391E00C94170608958091AA
:101950000F048F3FB9F01F928F938AE095E09F9319
:101960008F930E942F0C0F900F900F900F9080E09C
:1019700090E0892B21F087E090E00E94000084E451
:1019800091E028C00E944506613D774081059105A0
:1019900018F180911A048F7090E003971CF488E48A
:1019A00091E018C080910F041F928F9381EF94E013
:1019B0009F938F930E942F0C0F900F900F900F907A
:1019C00080E090E0892B21F089E690E00E94000001
:1019D0008CE391E00C941706089582EC94E09F93B9
:1019E0008F930E942F0CE9E1F4E080818460808372
:1019F0000F900F90089580911A0482958F7090E057
:101A0000069764F08EEA94E09F938F930E942F0CC8
:101A10000F900F908CE491E00C941706089580EAE3
:101A200094E09F938F930E942F0C809119048B7FD9
:101A30008F7E809319040F900F9080E090E0892BA7
:101A400021F087E690E00E94000087E994E09F93F0
:101A50008F930E942F0C0F900F900C942304CF9320
:101A6000C82F8FEF8C0F8E3FC0F4C0930F048C2FC4
:101A70000E9479066C2F80E090E00E94242D1F9236
:101A8000CF938BE194E09F938F930E942F0C0F9044
:101A90000F900F900F90CF9108951F92CF938FEFDB
:101AA00093E09F938F930E942F0C0F900F900F90B5
:101AB0000F9080E090E0892B21F08CE690E00E946E
:101AC00000008CE391E0CF910C9417068EE695E030
:101AD0009F938F930E942F0C80911A048F70809394
:101AE0001A0480911904877F8F7E809319041092C5
:101AF0001C0410921D0410921E0410921F0443E057
:101B000050E060E070E08FE094E00E94142D0E94AD
:101B1000DB040F900F90811113C08DE595E09F932A
:101B20008F930E942F0C0F900F9080E090E0892BF4
:101B300021F087E690E00E9400008CE391E015C060
:101B40008FE495E09F938F930E942F0C809119044E
:101B500080618093190480910F040F900F908F3F44
:101B600011F00E942F0D8CE491E00C941706CF9297
:101B7000DF92EF92FF920F931F93CF93DF93182F73
:101B8000EB014B814C7F42604B8380910F04888333
:101B900042FD05C0042F06950695069501C000E29A
:101BA00020E030E0232B21F080E090E00E94000054
:101BB000202F30E02A3131051CF447E0400F01C0EE
:101BC00040E2BE01812F0E944004082F69E973E0C2
:101BD000CE010E94DD061F3F29F0002331F04CE5C5
:101BE00051E005C049E551E002C044E551E0609193
:101BF0001A0462956F702B8122FBCC24C0F8D22E80
:101C0000D694D694D6942C81E22EE294E69477E092
:101C1000E722FD80B22FB770AE81FA81E881798129
:101C2000011102C01F3F19F42BEE31E002C02FE575
:101C300031E09F938F935F934F931F926F931F9207
:101C4000CF921F92DF921F92EF921F92FF921F92EC
:101C5000BF931F92AF931F92FF931F921F931F92E8
:101C6000EF931F927F933F932F9324E532E03F93AE
:101C70002F930E942F0C8DB79EB74E960FB6F894F7
:101C80009EBF0FBE8DBF81E0011103C01F3F09F051
:101C900080E0DF91CF911F910F91FF90EF90DF9047
:101CA000CF900895CF93BC01FC01828190911904DB
:101CB00090FF0BC08F3F71F08EED93E09F938F9359
:101CC0000E942F0C0F900F901CC08F3F19F0C091F5
:101CD000100401C0CFEF8C2F0E94B70D909110041B
:101CE000C91317C081110FC080E090E0892B21F04B
:101CF00085E690E00E94000080911A04805F809346
:101D00001A0480E006C080911A048F7080931A0430
:101D100081E0CF91089585E495E09F938F930E9491
:101D20002F0C809119048D7F90911A049F709093CD
:101D30001A0481608B7F809319048FEF80931104C4
:101D4000809310040F900F9080E090E0892B21F099
:101D500084E090E00E94000080910F048093CE0305
:101D60008FEF8093CF038093D30387E08093D203D8
:101D70008091D103807E83608093D1036BEE71E00C
:101D80008DEC93E00E9484070C94520E80E295E063
:101D90009F938F930E942F0C0F900F9080910F04B0
:101DA0008F3F11F580E090E0892B21F086E090E0F4
:101DB0000E94000080910F048093CE031092CF0305
:101DC0008FEF8093D30383E08093D2038091D1037C
:101DD000807E83608093D1036BEE71E08DEC93E0A5
:101DE0000E9484070C94520E08952091190422FD3C
:101DF0000C94520E8FEC93E09F938F930E942F0CC4
:101E00000F900F9080E008950C94F50E0E94450607
:101E1000AB01BC0180910F048093CE031092CF03DD
:101E20008FEF8093D30386E18093D203E1EDF3E05B
:101E30008081807E836080838DEC93E00E94D40754
:101E40000C94040F962F8F3F19F461E671E001C0E6
:101E5000BA0130910F043093CE031092CF038093D8
:101E6000D3039093D20388E0289F9001112480919E
:101E7000D103807F822B8F7E8093D1038DEC93E002
:101E80000E9484070C94040F0F931F93CF93DF934A
:101E90001F92CDB7DEB78B01009709F120910F0497
:101EA0002093CE031092CF032FEF2093D3032BE088
:101EB0002093D2035091D103507F536068E0469F36
:101EC00090011124522B5F7E5093D103BC018DEC05
:101ED00093E049830E9484070E94040F4981011501
:101EE000110521F180910F048093CE031092CF034E
:101EF0008FEF8093D3038CE08093D2038091D10342
:101F0000807F836098E0499FA0011124842B8F7EFD
:101F10008093D103B8018DEC93E00E9484070F9069
:101F2000DF91CF911F910F910C94040F0F90DF91CF
:101F3000CF911F910F91089540E067E671E08BE625
:101F400091E00E94440F20E04BEE51E068E080E019
:101F50000E94220F20E04BEE51E066E081E00E94FB
:101F6000220F20E04BEE51E067E082E00E94220F5A
:101F700020E04BEE51E066E083E00E94220F20E07B
:101F80004BEE51E061E084E00E94220F20E04BEE36
:101F900051E060E185E00C94220FCF93DF93EC01D8
:101FA00080910F0489836A838FEF8E838FE08D8306
:101FB0008C81807E83608C836BEE71E0CE010E9409
:101FC00084078B81877080618B838C818F71806C9B
:101FD0008C8381E08F831886CE01DF91CF910C94A2
:101FE000F50E20910F04FC0121832481207F2160C4
:101FF000F8E06F9FB0011124262BFC01248320916F
:10200000CC0321110C94F50E80ED91E09F938F93FA
:102010000E942F0C0F900F9080E008958F929F9256
:10202000AF92BF92CF92DF92EF92FF920F931F93E6
:10203000CF93DF9340E050E869E074E486E093E0FA
:102040000E94761D0E940D2720E030E048EC52E40B
:102050000E9472266B017C0186E093E00E94AC1B1B
:102060004B015C0180913501811116C020E030E008
:1020700040E151E4C501B4010E94C12720E030E0F5
:1020800040EA50E40E94722620E030E040E052E452
:102090000E940A264B015C01C701B6010E948D080F
:1020A0008C01C701B6010E942808EC0180920B0147
:1020B00090920C01A0920D01B0920E0166E771E0C2
:1020C00082EF94E00E94302322E030E0B501A401C9
:1020D00082EF94E00E944F2580913501882319F00A
:1020E00062E771E002C06EE671E082EF94E00E9468
:1020F000622340910B0150910C0160910D01709190
:102100000E0121E08EE792E00E94C50760E00E9488
:10211000F10F81110CC080E090E0A0E8BFEB80934C
:102120000B0190930C01A0930D01B0930E01C0928E
:102130000F01D0921001E0921101F092120169E5B5
:1021400071E082EF94E00E94302322E030E0B7019A
:10215000A60182EF94E00E944F2564E571E082EFD2
:1021600094E00E94622340910F0150911001609110
:1021700011017091120121E08DE592E00E94C507E6
:1021800060E00E94F10F81110CC080E090E0A0E8B7
:10219000BFEB80930F0190931001A0931101B093B6
:1021A000120110930A010093090168E471E082EFC3
:1021B00094E00E943023F801EE0FFF1FE35EFE4F14
:1021C0006081718182EF94E00E947423E0910901A3
:1021D000F0910A01EE0FFF1FE35EFE4F60817181F7
:1021E0008CE392E00E94840760E00E94F10F882354
:1021F00061F06091090170910A018AEF91E00E94FB
:10220000F00760E00E94F10F06C08FEF9FEF909300
:102210000A0180930901D0930801C09307016BE381
:1022200071E082EF94E00E943023CC0FDD1FCD5E81
:10223000DE4F6881798182EF94E00E94742360917F
:10224000070170910801882777FD8095982F0E94DB
:102250000D27AB01BC0120E08BE192E00E94C50795
:1022600060E00E94F10F811106C08FEF9FEF909305
:1022700008018093070181E0DF91CF911F910F91B9
:10228000FF90EF90DF90CF90BF90AF909F908F9096
:1022900008958F929F92AF92BF92CF92DF92EF926A
:1022A000FF92CF9388E893E00E94051F6B017C01A9
:1022B00088E893E00E94F91E4B015C01A70196019A
:1022C000C701B6010E947028811143C0C0928403E7
:1022D000D0928503E0928603F092870380913501C6
:1022E000811110C026E636E646EE5FE3C701B6016F
:1022F0000E94C12720E030E040E052E40E940A261C
:102300006B017C0163E371E082EF94E00E94302373
:1023100022E030E0B701A60182EF94E00E9451254F
:1023200021E0B701A6018EE393E00E94C50760E0BB
:102330000E94F10F811115C080E090E0A0E8BFEB92
:102340008093840390938503A0938603B0938703BF
:1023500008C06FE071E082EF94E00E946223C0E069
:1023600001C0C1E0A5019401C501B4010E9470281B
:10237000811135C08092800390928103A0928203E4
:10238000B09283036BE071E082EF94E00E9430230F
:1023900022E030E0B501A40182EF94E00E945125D3
:1023A0004091800350918103609182037091830377
:1023B00021E08FE593E00E94C50760E00E94F10FE5
:1023C000811114C080E090E0A0E8BFEB809380030F
:1023D00090938103A0938203B093830307C06AEEB6
:1023E00070E082EF94E00E94622301C0C1E08C2F74
:1023F000CF91FF90EF90DF90CF90BF90AF909F90E4
:102400008F900895CF93DF930E940E1060912D015D
:1024100070912E0180912F01909130010E94720BDA
:102420000E9449116091290170912A0180912B012C
:1024300090912C010E94720B84E00E941B20C1E04D
:10244000019709F0C0E06C2F70E04AE050E082EFA5
:1024500094E00E942924CC2319F062E871E002C0C4
:1024600065E671E08DE193E00E94840760E00E94E0
:10247000F10F20913101309132014091330150919F
:10248000340161E08FEF0E94F80B85E093E00E9439
:10249000121FEC014AE050E0BC0182EF94E00E9480
:1024A0004E24BE0184EE92E00E94E30760E00E94A9
:1024B000F10FD093E302C093E202DF91CF91089530
:1024C000DF92EF92FF920F931F93CF93DF9300D091
:1024D000CDB7DEB78EEE93E00E949F0480E090E0DF
:1024E000892B21F081E090E00E940000F090F2033F
:1024F000D090F303E090EF030091EE031091F0030E
:1025000069E973E08EEE93E00E94DD063091F103FD
:102510002091F2039F938F9332FB882780F91F92BB
:102520008F933695369536951F923F93822F8295DD
:10253000869587701F928F931F92DF9227701F924C
:102540002F938091F4031F928F931F921F931F92DA
:102550000F931F92EF928CE793E09F938F930E94CB
:102560002F0C8091F103982F93700FB6F894DEBF73
:102570000FBECDBF923059F080E090E0892B21F062
:102580008BE690E00E94000084E693E046C13F2D78
:102590003770F32E90910F041913F2C0E82FE770F3
:1025A000869586958695893120F4880F880F880F47
:1025B00001C088ECE82BE093F103E695E695E695FB
:1025C000F0E0E251FC4F17828091F20383FF1FC0BD
:1025D00081E2EEEEF3E0ADECB3E001900D928A956E
:1025E000E1F78091D103877F80618093D1031093BD
:1025F000CE03E092CF0383E593E09F938F930E94F5
:102600002F0C8DEC93E00E94F50E0F900F908091AF
:10261000F20384FDA3C083E0F812A0C094E0D912B5
:102620000FC08EEE93E00E9456070F900F90DF913F
:10263000CF911F910F91FF90EF90DF900C942F0D91
:10264000E8E0DE123BC08EEE93E00E9456071F9238
:102650008F931F92EF9220E333E03F932F938A836F
:102660000E942F0C0F900F900F900F900F900F90D3
:102670008A818F3F09F4D7C08F5F8F3F09F4D3C0A1
:1026800090911104891708F0CEC09091190491FD22
:10269000CAC080931104E09210041F928F931F927E
:1026A000EF928FE093E09F938F930E942F0C0F90F7
:1026B0000F900F900F900F900F90B5C0F8E1DF12C0
:1026C0002CC08EEE93E00E9456071F928F931F92AC
:1026D000EF928EEE92E09F938F930E942F0C809149
:1026E0000F048093CE03E092CF038FEF8093D30348
:1026F00089E18093D2038091D103807E83608093AF
:10270000D10361E08DEC93E00E94B9070F900F9028
:102710000F900F900F900F906EC029E1D2121AC047
:102720008091190483FF7FC0877F809319048EEE08
:1027300093E00E94560780931B041F928F9381EDB4
:1027400092E09F938F930E942F0C0F900F900F9009
:102750000F9069C00E940815811165C080E090E06B
:10276000892B09F460C08EEE93E00F900F90DF91FB
:10277000CF911F910F91FF90EF90DF900C9400008C
:102780001F3F09F048C085EC92E09F938F930E9411
:102790002F0C0F900F9033E0F31238C08091190482
:1027A00082FF03C087E0D816F1F194E1D9123BC053
:1027B00080911004081337C00E9418217370882775
:1027C00099270E9447216091100480910F04809303
:1027D000CE03E092CF038FEF8093D30385E1809304
:1027E000D2038091D103807E83608093D1038DECEE
:1027F00093E00E94B9070F900F90DF91CF911F9146
:102800000F91FF90EF90DF900C94520E8091100486
:10281000081309C0A3CF8FE992E09F938F930E9482
:102820002F0C0F900F900F900F90DF91CF911F9171
:102830000F91FF90EF90DF900895CF93C6E08FEF58
:102840000E943A0490E0959587958770992706979E
:102850002CF4C15019F00E946012F1CFCF9108956D
:102860006F927F928F929F92AF92BF92CF92DF92A0
:10287000EF92FF92CF93DF934B015C01C42F622E46
:102880000E9418216B017C0181E0611080E080933F
:10289000F303712CD0E00E9418216C197D098E0978
:1028A0009F09681579058A059B05B0F4711014C05D
:1028B0008091190484FD0E941D144091F203477019
:1028C00050E04C175D0739F7772473948091F30338
:1028D000861509F3712CDFCF872DDF91CF91FF9003
:1028E000EF90DF90CF90BF90AF909F908F907F90B0
:1028F0006F9008950E9464068091190484FD0C94E1
:102900001D140895A8950C947A146F927F928F925B
:102910009F92AF92BF92CF92DF92EF92FF92CF93AE
:10292000DF934B015C01C42F622E0E9418216B01C2
:102930007C0181E0611080E08093F303712CD0E092
:102940000E9418216C197D098E099F096815790567
:102950008A059B0590F4711010C00E94821440916A
:10296000F203477050E04C175D0751F78091F30375
:102970008611E6CF77247394E3CF872DDF91CF9133
:10298000FF90EF90DF90CF90BF90AF909F908F908F
:102990007F906F90089580E090E0892B21F08BE08C
:1029A00090E00E94000060E08DEC93E00E94CD0F6B
:1029B00020E04BEE51E061E18FEF0E94220F609129
:1029C000100480910F048093CE031092CF038FEFF9
:1029D0008093D30386E08093D2038091D103807EDD
:1029E00083608093D1038DEC93E00E94B9070E942D
:1029F000040F26E043E060ED77E080E090E00E9485
:102A000085148CE99FE0892B11F00C949C0F08959C
:102A1000CF93DF939091F3038091EF038111CDC0A9
:102A20009D30A1F480E090E0892B21F08AE090E0D5
:102A30000E94000028E088E190E00FB6F894A89585
:102A4000809360000FBE20936000FFCF9B31E9F4BC
:102A50008EEE93E00E9467078093CC0380E090E0C5
:102A6000892B21F089E090E00E9400008091CC0346
:102A70001F928F938AEB91E09F938F930E942F0C6C
:102A80000F900F900F900F909DC0963079F4809129
:102A9000F50361E0882319F08D3409F060E060935C
:102AA000120483E091E00E94242D8CC0933119F42C
:102AB0000E94CB1487C0923119F40E94060F82C085
:102AC000913061F480E090E0892B09F47BC08EEEB8
:102AD00093E00E946F070E94000074C09A3009F4CE
:102AE00071C09C3109F06CC08091F503823509F406
:102AF00069C0863519F40E949B0509C0863419F413
:102B00000E94BB0504C08D34E1F40E9400062091B0
:102B10000F042093CE031092CF032FEF2093D30303
:102B20002CE12093D2032091D103207E23602093B7
:102B3000D103BC018DEC93E00E94E3070E94040FD7
:102B400041C0853409F03EC080910F048093CE03CC
:102B50001092CF038FEF8093D3038CE18093D20345
:102B60008091D103807E83608093D1036CE571E016
:102B70008DEC93E00E9484070E94040FC0E0D0E037
:102B80006FEFCE010E94242D2196CD3981E0D80728
:102B9000B9F780E090E0892B21F08AE090E00E9474
:102BA000000028E088E190E00FB6F894A8958093A3
:102BB00060000FBE20936000FFCF81E09A3119F0D2
:102BC00080E001C081E0DF91CF9108951F93CF9302
:102BD000DF938BED91E09F938F930E942F0C0F90CA
:102BE0000F9080E090E0892B21F088E090E00E9437
:102BF000000081E08093CC03C4E0DFEF1AE1809114
:102C00000F048093CE031092CF03D093D30310937D
:102C1000D2038091D103807E83608093D10362E0F0
:102C20008DEC93E00E94B9070E94040F2BE143E072
:102C300060ED77E080E090E00E948514811102C091
:102C4000C150E9F6DF91CF911F91089526E040E051
:102C500052EC61E070E082EF94E00E94962280E006
:102C600090E0892B11F00E94000083E392E09F9393
:102C70008F930E942F0C41E050E063E071E082E10D
:102C800094E00E94142D6FEF81E090E00E94242DCB
:102C90000E946F060F900F908091190482FD04C06E
:102CA000A8950E947A14F8CF83E198E0892B11F05F
:102CB0000E9413080E94CB140E94E6158091CC0359
:102CC0001F928F93809111041F928F938091100413
:102CD0001F928F9380910F041F928F9384EF91E046
:102CE0009F938F930E942F0C8DB79EB70A960FB6B5
:102CF000F8949EBF0FBE8DBF08950E9478210E9458
:102D00002616C2E0D2E100EE11E20E948214209762
:102D100011F00E94021201151105B9F30E94E02181
:102D2000F4CF1F93CF93DF931F92CDB7DEB790916F
:102D3000190493FD40C020910F048217F1F19860AF
:102D4000909319041FEF10931B041F928F9326EB8F
:102D500033E03F932F9389830E942F0C90910F04AF
:102D60009093CE0389818093CF031093D30388E19E
:102D70008093D2038091D103807E83608093D103BE
:102D800061E08DEC93E00E94B9070E94520E29E1A8
:102D900043E060ED77E080E090E00E9430148091A5
:102DA0001904877F8093190480911B040F900F9062
:102DB0000F900F9003C08FEF01C080E00F90DF9164
:102DC000CF911F9108950F931F93811113C00E94FB
:102DD000182100911C0410911D0420911E043091B3
:102DE0001F04601B710B820B930B603177428105CE
:102DF0009105E8F180E00E949116182F8F3F49F16C
:102E00000E94182160931C0470931D0480931E047B
:102E100090931F042FE634E03F932F930E942F0CD2
:102E2000809111040F900F90181749F11F921F9372
:102E30001F928F932FE434E03F932F930E942F0C27
:102E4000109311040F900F900F900F900F900F9010
:102E500016C01F921F9384E394E09F938F930E9468
:102E60002F0C0F900F900F900F9080E009C08EE70D
:102E700094E09F938F930E942F0C0F900F9081E00E
:102E80001F910F91089588EE94E09F938F930E9475
:102E90002F0C81E00E94E3160F900F90882359F0C9
:102EA0008CED94E09F938F930E942F0C0F900F90C6
:102EB00080E491E00AC08DEC94E09F938F930E9490
:102EC0002F0C0F900F908CE491E00C941706CF9389
:102ED000CFB7F89480912404811127C0EAEAF5E085
:102EE0008491E6E9F5E09491E82FF0E0EE0FFF1F02
:102EF000E853FA4FA591B4918C91892321F461E0B4
:102F00008AE00E94E51F61E08AE00E94AC1F8CB558
:102F100080618CBD8CB580648CBD61E08DE00E94C9
:102F2000AC1F61E08BE00E94AC1F809124048F5F96
:102F300080932404CFBFCF9108958091550490E0F1
:102F400020915604821B9109089520915604809186
:102F50005504281750F4E22FF0E0E95AFB4F808126
:102F600090E02F5F2093560408958FEF9FEF089510
:102F7000E091560480915504E81730F4F0E0E95AE6
:102F8000FB4F808190E008958FEF9FEF08950895A3
:102F9000CF92DF92EF92FF920F931F93CF93DF9325
:102FA0007C01CB018A0120913104222389F0EB01BD
:102FB0006B01C40ED51ECC15DD0569F06991D701F2
:102FC000ED91FC910190F081E02DC7010995F3CFBF
:102FD000642F0E942919C801DF91CF911F910F9191
:102FE000FF90EF90DF90CF900895CF93DF931F92E3
:102FF000CDB7DEB76983209131042223D1F020912F
:103000003204203240F021E030E0FC01338322839F
:1030100080E090E015C080913304E82FF0E0EC5C94
:10302000FB4F998190838F5F8093330480933204A8
:1030300005C061E0CE0101960E94291981E090E06F
:103040000F90DF91CF910895FC011382128248EE18
:1030500053E060E070E044835583668377838DECB2
:1030600091E0918380830895109256041092550444
:1030700010923304109232040C947418862F41324B
:1030800008F040E267E574E00E949218109256043E
:1030900080935504089521E00C943E1881E08093BC
:1030A0003104609354041092330410923204089552
:1030B0000C944E180F93062F21E04091320464E3E4
:1030C00074E0809154040E94D61810923304109238
:1030D0003204109231040F91089561E00C945A1853
:1030E00085E294E00C9424181092E40481E080932B
:1030F000E2041092E10461E082E10E94E51F61E0D8
:1031000083E10E94E51FE9EBF0E080818E7F808300
:1031100080818D7F808380E28093B80085E48093F6
:10312000BC000895413208F03FC09091E404911131
:10313000FCCF91E09093E4042093E2042FEF2093DE
:1031400077041092BC04240F2093BB049093E304F3
:103150009091E304880F892B8093E3048091E1042C
:10316000813041F41092E1048091E3048093BB002C
:1031700085EC01C085EE8093BC008091E404813031
:10318000E1F38091BC04841710F44091BC042DEB52
:1031900034E0FB01D9018A2F821B841718F48D912A
:1031A0008193F9CF842F089580E008950F934132E1
:1031B00008F046C09091E4049111FCCF92E0909306
:1031C000E4040093E2049FEF909377041092BC0410
:1031D0004093BB04FB016DEB74E0DB019A2F961B5F
:1031E000941718F491919D93F9CF1092E304909164
:1031F000E304880F892B8093E3048091E1048130FC
:1032000041F41092E1048091E3048093BB0085ECCB
:1032100001C085EE8093BC00222321F08091E4045C
:103220008230E1F3809177048F3F61F080917704E1
:10323000803251F080917704803341F483E007C0FD
:1032400081E005C080E003C082E001C084E00F910E
:103250000895613298F42091E404243089F4609355
:103260009904FC018BE994E0DC012A2F281B261726
:1032700018F421912D93F9CF80E0089581E008950D
:1032800082E0089585ED8093BC008091BC0084FDB0
:10329000FCCF1092E404089585EC8093BC0010925A
:1032A000E40408951F920F920FB60F9211242F93EA
:1032B0003F934F935F936F937F938F939F93AF93BE
:1032C000BF93EF93FF938091B900887F803609F414
:1032D0009CC068F5883209F45BC090F4803109F431
:1032E00054C038F4882309F4F5C0883009F44DC07F
:1032F000F5C0883109F44CC0803209F45DC0EEC0DD
:10330000803409F468C048F4803309F455C0883328
:1033100009F0E4C080937704A8C0803509F44FC059
:10332000883509F45DC0883409F0D8C0D5C0883923
:1033300009F4C6C0A8F4883709F467C038F48836A1
:1033400009F463C0803709F460C0C8C0883809F444
:10335000B7C0803909F45FC0803809F0BFC05BC0D6
:10336000803B09F485C038F4803A09F466C0883A95
:1033700009F47EC0B3C0803C09F4A6C0883C09F4BF
:10338000A3C0883B09F489C0A9C08091E30410C0A0
:103390009091BC048091BB04981770F5E091BC0437
:1033A00081E08E0F8093BC04F0E0E354FB4F8081FA
:1033B0008093BB0085EC85C0809377048DC0E0913D
:1033C000BC0481E08E0F8093BC048091BB00F0E0D0
:1033D000E354FB4F80839091BC048091BB046DC08B
:1033E000E091BC0481E08E0F8093BC048091BB000F
:1033F000F0E0E354FB4F80838091E20481116CC0C4
:1034000081E08093E10484EA60C083E08093E40477
:1034100010927804CFCF80917804803208F050C0A9
:10342000E091780481E08E0F809378048091BB0056
:10343000F0E0E758FB4F8083BDCF80917804803265
:1034400030F4E0917804F0E0E758FB4F10820E94DE
:1034500042196091780470E0E091DD04F091DE049F
:1034600089E794E00995109278040E944C1936C0BF
:1034700084E08093E40410929A0410929904E091FD
:10348000DF04F091E004099580919904811105C051
:1034900081E08093990410929B04E0919A0481E06A
:1034A0008E0F80939A04F0E0E556FB4F8081809365
:1034B000BB0090919A0480919904981708F47ACFF0
:1034C00085E88093BC000AC085EC8093BC00109214
:1034D000E40404C0109277040E944219FF91EF9116
:1034E000BF91AF919F918F917F916F915F914F911C
:1034F0003F912F910F900FBE0F901F901895089538
:10350000CF92DF92EF92FF92FC0185899689481B4A
:10351000590B61097109A389B4899A01AB010E9411
:10352000F2296B017C018FE0F594E794D794C7945E
:103530008A95D1F765857685882777FD8095982FC0
:103540002BE0660F771F881F991F2A95D1F72785D3
:103550003089442737FD4095542F2C0D3D1D4E1DBD
:103560005F1D0E94D3292C0D3D1D4E1D5F1DCA01FC
:10357000B901FF90EF90DF90CF9008951F93CF9304
:10358000DF931F92CDB7DEB7162F67E770E085E2B5
:1035900094E049830E945818612F85E294E00E94CC
:1035A000F5174981642F85E294E00E94F51785E2C2
:1035B00094E00F90DF91CF911F910C946D18CF93F1
:1035C000C62F67E770E085E294E00E9458186C2FE0
:1035D00085E294E00E94F51785E294E00E946D1860
:1035E00067E770E085E294E00E94581841E050E0FF
:1035F00067E770E085E294E00E944B1885E294E072
:103600000E94A517C82F85E294E00E946D188C2FA8
:10361000CF910895CF93DF93C62F67E770E085E2DF
:1036200094E00E9458186C2F85E294E00E94F517F0
:1036300085E294E00E946D1867E770E085E294E00F
:103640000E94581842E050E067E770E085E294E09D
:103650000E944B1885E294E00E94A517D82F80E0C5
:10366000C82F85E294E00E94A517C82BD92B85E2CC
:1036700094E00E946D18CE01DF91CF910895CF9311
:10368000DF93EC01643008F063E0688385E294E046
:103690000E94341860EDCE010E94DF1A853509F0D2
:1036A00044C06AEACE010E940A1B9A8389836CEAAD
:1036B000CE010E940A1B9C838B836EEACE010E947E
:1036C0000A1B9E838D8360EBCE010E940A1B9A8B9E
:1036D000898B62EBCE010E940A1B9C8B8B8B64EB67
:1036E000CE010E940A1B9E8B8D8B66EBCE010E9441
:1036F0000A1B98878F8368EBCE010E940A1B9A876A
:1037000089876AEBCE010E940A1B9C878B876CEB32
:10371000CE010E940A1B9E878D876EEBCE010E9410
:103720000A1B988B8F8781E001C080E0DF91CF91E9
:103730000895CF93DF93EC014EE264EF0E94BE1A2E
:1037400065E070E080E090E00E94472166EFCE01E6
:10375000DF91CF910C940A1BCF93DF93EC010E9471
:10376000991BAC0160E070E0CE010E94801A685F96
:103770007F4F8F4F9F4F34E095958795779567954D
:103780003A95D1F70E940D2720E030E040E251E465
:103790000E947226DF91CF910895CF92DF92EF922F
:1037A000FF92CF93DF93EC0148814295440F440F81
:1037B000407C4C5C64EF0E94BE1A8881811105C078
:1037C00065E070E080E090E012C0813029F468E0AC
:1037D00070E080E090E00BC0823029F46EE070E091
:1037E00080E090E004C06AE170E080E090E00E9438
:1037F000472166EFCE010E940A1B6C01E12CF12CDF
:10380000FE2CED2CDC2CCC2468EFCE010E94DF1ABC
:10381000A7019601282BCA01B901488128E030E0B0
:10382000241B310904C096958795779567952A954D
:10383000D2F7DF91CF91FF90EF90DF90CF90089576
:103840002F923F924F925F926F927F928F929F92B0
:10385000AF92BF92CF92DF92EF92FF920F931F939E
:10386000CF93DF93CDB7DEB72A970FB6F894DEBFBC
:103870000FBECDBF9A8789870E94991B8C018985CD
:103880009A850E94CD1B6D837E838F839887A801C4
:1038900060E070E089859A850E94801A4B015C0186
:1038A00080EA881A8FE0980AA108B108A50194015E
:1038B000C501B4010E948D292B013C010CE07594D7
:1038C0006794579447940A95D1F7A985BA851196BC
:1038D0002D903C9012971C9115960D90BC91A02DA7
:1038E0000E94FD296B017C018DE0F594E794D7944B
:1038F000C7948A95D1F7E985FA85A781B085A30198
:1039000092010E94FD29BB2797FDB095AB2FC80EF1
:10391000D91EEA1EFB1EF2E0CF0ED11CE11CF11CE9
:1039200032E0F594E794D794C7943A95D1F780E8BC
:10393000D80EE11CF11CE985FA85A189B289A7019D
:1039400096010E94F229DC01CB014FE0B695A795C4
:10395000979587954A95D1F789839A83AB83BC83E2
:103960006101EE24D7FCE094FE2C52E0CC0CDD1C6F
:10397000EE1CFF1C5A95D1F7A185B285A3019201D7
:103980000E94FD292B013C016BE0759467945794CC
:1039900047946A95D1F7A381B481A50194010E944F
:1039A000FD29EBE09595879577956795EA95D1F791
:1039B000460E571E681E791EC40CD51CE61CF71C4B
:1039C000012E04C0CC0CDD1CEE1CFF1C0A94D2F7A7
:1039D00092E0C90ED11CE11CF11CC701B60124E024
:1039E00030E040E050E00E94D3298D819E81AF817C
:1039F000B885821B930BA40BB50B9C01AD0160E550
:103A000073EC80E090E004C0969587957795679574
:103A10001A95D2F70E948D2997FD0DC0660F771F6A
:103A2000881F991F29813A814B815C810E94B129AD
:103A300049015A010CC029813A814B815C810E9465
:103A4000B12949015A01880C991CAA1CBB1C992751
:103A5000B7FC9A958B2D7A2D692D9B01AC010E94A4
:103A60008D299B01AC01AEEDBBE00E94F2296C01F7
:103A7000FF24D7FCF094EF2CA3E4B3EEA50194014E
:103A80000E94002ABB2797FDB095AB2FC80ED91E08
:103A9000EA1EFB1E9FECC90E9EE0D91EE11CF11C24
:103AA000A4E0F594E794D794C794AA95D1F7C80CED
:103AB000D91CEA1CFB1CC701B6012A960FB6F89464
:103AC000DEBF0FBECDBFDF91CF911F910F91FF9051
:103AD000EF90DF90CF90BF90AF909F908F907F90AE
:103AE0006F905F904F903F902F9008958F929F928C
:103AF000AF92BF92CF92DF92EF92FF92CF93DF937C
:103B000000D000D0CDB7DEB74A015B010E94201C77
:103B10006B017C0120E03AE24DE257E4C501B401BB
:103B20000E9472269B01AC0160E070E080E89FE398
:103B30000E94092626EF38E248EA50E40E94242831
:103B40009B01AC01C701B60129833A834B835C8397
:103B50000E940D2729813A814B815C810E94722647
:103B60000E94DA260F900F900F900F90DF91CF9167
:103B7000FF90EF90DF90CF90BF90AF909F908F908D
:103B80000895CF93DF93EC010E941821685B7B407E
:103B9000810991096D877E878F87988BDF91CF91FF
:103BA00008954F925F927F928F929F92AF92BF92B1
:103BB000CF92DF92EF92FF920F931F93CF93DF93F9
:103BC0001F92CDB7DEB72C010E941821F2010585A6
:103BD0001685278530896B017C01C01AD10AE20A5B
:103BE000F30A218532852130310529F407EE13E0EF
:103BF00020E030E004C00FEC17E020E030E0C01619
:103C0000D106E206F30608F4C3C0F20165877687A1
:103C10008787908B40E050E060EC7FE740835183E2
:103C200062837383448355836683778360E08085F2
:103C30000E94E51F61E0F20180850E94AC1FF20145
:103C400081859285019739F462E170E080E090E02F
:103C50000E94472104C080E293E00E946F2160E04F
:103C6000F20180850E94AC1F61E0F20180850E9414
:103C7000E51F00E010E0A12CB12CC12CD12C2DEFC0
:103C8000922E0E942421762EF92DF1708F2EEF2E88
:103C9000FF24E7FCF0940E94242167196B3518F08B
:103CA00081E090E030C0F201808569830E941B2092
:103CB00069818E159F0579F397FC08C0882031F043
:103CC000CC0CDD1C6F3110F06894C0F8FFE19F163A
:103CD00039F08FE3981205C08601C12CD12C01C0A8
:103CE00056019394E0E59E12CCCF6B2D7727E12E01
:103CF000F12C802F8A0D860F810F90E08C159D0589
:103D000031F082E090E0F2019487838741C0F201B4
:103D100081859285019779F480E090E00E940B27DD
:103D2000F2016483758386839783B70180E090E016
:103D30000E940B2725C0B50180E090E00E940B2770
:103D40002DEC3CEC4CEC5DE30E94C127F201648356
:103D5000758386839783B80177FF05C07F77002737
:103D60001127061B170BB801882777FD8095982F20
:103D70000E940D272DEC3CEC4CEC5DE30E94C1272A
:103D8000F2016083718382839383F2011486138628
:103D90000F90DF91CF911F910F91FF90EF90DF90E7
:103DA000CF90BF90AF909F908F907F905F904F90FB
:103DB00008950F931F93CF93DF93EC018A016887D7
:103DC0005A8749870E94C11D012B71F482E090E05F
:103DD0009A878987CE010E94D11D8B859C85813071
:103DE000910511F49A878987DF91CF911F910F91E7
:103DF0000895CF93DF93EC010E94D11D6C817D81EA
:103E00008E819F81DF91CF910895CF93DF93EC0155
:103E10000E94D11D688179818A819B81DF91CF9138
:103E200008950895CF93DF9363E270E085E294E014
:103E30000E94581842E050E063E270E085E294E0AE
:103E40000E944B1885E294E00E94A517D82F80E0CD
:103E5000C82F85E294E00E94A517C82BD92B85E2D4
:103E600094E00E946D18BE0180E090E00E940B2754
:103E70002AE939E949E95FE30E9472260E94DF26B8
:103E8000CB01DF91CF910895CF93C62F63E270E00D
:103E900085E294E00E9458186C2F85E294E00E941D
:103EA000F51785E294E0CF910C946D18633161F0C1
:103EB00028F420EF260F223078F406C0603260F03C
:103EC000623210F0633241F40E94441F8FE19EE49D
:103ED0000197F1F700C0000008950F931F93CF934F
:103EE000DF931F92CDB7DEB78C0185E294E0698342
:103EF0000E9434186981C8010F90DF91CF911F9102
:103F00000F910C94561F833081F028F4813099F082
:103F10008230A1F008958730A9F08830B9F084305C
:103F2000D1F4809180008F7D03C0809180008F77D5
:103F300080938000089584B58F7702C084B58F7D0B
:103F400084BD08958091B0008F7703C08091B00048
:103F50008F7D8093B0000895CF93DF9390E0FC01B4
:103F6000E457FA4F2491FC01E056FA4F84918823DC
:103F700049F190E0880F991FFC01E853FA4FA59191
:103F8000B49182549A4FFC01C591D4919FB76111AD
:103F900008C0F8948C91209582238C938881822389
:103FA0000AC0623051F4F8948C91322F30958323FB
:103FB0008C938881822B888304C0F8948C91822B07
:103FC0008C939FBFDF91CF9108950F931F93CF9351
:103FD000DF931F92CDB7DEB7282F30E0F901E85804
:103FE000FA4F8491F901E457FA4F1491F901E05620
:103FF000FA4F04910023C9F0882321F069830E94BD
:10400000831F6981E02FF0E0EE0FFF1FE254FA4FAB
:10401000A591B4919FB7F8948C91611103C010954C
:10402000812301C0812B8C939FBF0F90DF91CF9193
:104030001F910F910895CF93DF93282F30E0F9015E
:10404000E858FA4F8491F901E457FA4FD491F901F5
:10405000E056FA4FC491CC2391F081110E94831F46
:10406000EC2FF0E0EE0FFF1FEC54FA4FA591B49146
:104070002C912D2381E090E021F480E002C080E0CB
:1040800090E0DF91CF9108958230E8F4E82FF0E0DE
:10409000EE0FFF1FEB51FB4F71836083813041F0C6
:1040A000809169008C7F842B80936900E89A089541
:1040B00080916900440F551F440F551F837F842B47
:1040C00080936900E99A0895823068F4813011F094
:1040D000E89801C0E998E82FF0E0EE0FFF1FEB51E0
:1040E000FB4F1182108208951F920F920FB60F920C
:1040F00011242F933F934F935F936F937F938F93ED
:104100009F93AF93BF93EF93FF938091E5049091BA
:10411000E604892B29F0E091E504F091E604099585
:10412000FF91EF91BF91AF919F918F917F916F918F
:104130005F914F913F912F910F900FBE0F901F9065
:1041400018951F920F920FB60F9211242F933F9341
:104150004F935F936F937F938F939F93AF93BF938F
:10416000EF93FF938091E7049091E804892B29F065
:10417000E091E704F091E8040995FF91EF91BF9178
:10418000AF919F918F917F916F915F914F913F91EF
:104190002F910F900FBE0F901F9018951F920F92A6
:1041A0000FB60F9211242F933F938F939F93AF934A
:1041B000BF938091EA049091EB04A091EC04B0913C
:1041C000ED043091E90426E0230F2D3720F4029608
:1041D000A11DB11D05C029E8230F0396A11DB11D26
:1041E0002093E9048093EA049093EB04A093EC04F9
:1041F000B093ED048091EE049091EF04A091F0044F
:10420000B091F1040196A11DB11D8093EE0490932D
:10421000EF04A093F004B093F104BF91AF919F918C
:104220008F913F912F910F900FBE0F901F90189577
:104230002FB7F8946091EA047091EB048091EC043C
:104240009091ED042FBF08953FB7F8948091EE044C
:104250009091EF04A091F004B091F10426B5A89BD1
:1042600005C02F3F19F00196A11DB11D3FBF662764
:10427000782F892F9A2F620F711D811D911D43E0A8
:10428000660F771F881F991F4A95D1F70895CF921F
:10429000DF92EF92FF92CF93DF936B017C010E943C
:1042A0002421EB01C114D104E104F10489F00E943E
:1042B00008260E9424216C1B7D0B683E734090F3FE
:1042C00081E0C81AD108E108F108C851DC4FEACFF3
:1042D000DF91CF91FF90EF90DF90CF9008958330E2
:1042E000910528F0880F991F04970197F1F7089519
:1042F000789484B5826084BD84B5816084BD85B5C1
:10430000826085BD85B5816085BDEEE6F0E0808187
:1043100081608083E1E8F0E01082808182608083A8
:10432000808181608083E0E8F0E08081816080832B
:10433000E1EBF0E0808184608083E0EBF0E080815D
:1043400081608083EAE7F0E08081846080838081FF
:104350008260808380818E7F80838081806880837B
:104360001092C1000895FC01818D228D90E0805C47
:104370009F4F821B91098F7399270895FC01918D9E
:10438000828D981731F0828DE80FF11D858D90E0B8
:1043900008958FEF9FEF0895FC01918D828D9817FE
:1043A00061F0828DDF01A80FB11D5D968C91928D19
:1043B0009F5F9F73928F90E008958FEF9FEF089516
:1043C0008BEB95E2892B49F080E090E0892B29F076
:1043D0000E94BB2581110C9400000895FC01848D7E
:1043E000DF01A80FB11DA35ABF4F2C91848D90E01F
:1043F00001968F739927848FA689B7892C93A089FA
:10440000B1898C9180648C93938D848D981306C0B0
:104410000288F389E02D80818F7D80830895CF937A
:10442000DF93EC01888D8823C9F0EA89FB898081BC
:1044300085FD05C0A889B9898C9186FD0FC00FB68E
:1044400007FCF5CF808185FFF2CFA889B9898C91CF
:1044500085FFEDCFCE010E94EE21E7CFDF91CF9116
:104460000895CF92DF92FF920F931F93CF93DF9324
:104470001F92CDB7DEB76C0181E0D60158968C93C0
:1044800058975B969C915B975C968C915C97981380
:1044900007C05096ED91FC915197808185FD2EC00B
:1044A000F601038D10E00F5F1F4F0F731127F02EE1
:1044B000F601848DF81211C00FB607FCF9CFD601B2
:1044C0005096ED91FC915197808185FFF1CFC60107
:1044D00069830E94EE216981EBCF838DE80FF11D86
:1044E000E35AFF4F6083D6015B960C935B9752961D
:1044F000ED91FC915397808180620CC0D601569655
:10450000ED91FC91579760835096ED91FC915197F6
:1045100080818064808381E090E00F90DF91CF9173
:104520001F910F91FF90DF90CF900895BF92CF928F
:10453000DF92EF92FF92CF93DF93EC016A017B0150
:10454000B22E60E874E88EE190E0A70196010E9427
:10455000B12921503109410951095695479537959F
:104560002795E889F98982E08083211580E1380761
:1045700098F0E889F989108260E472E48FE090E0B5
:10458000A70196010E94B129215031094109510921
:104590005695479537952795EC85FD853083EE85B3
:1045A000FF852083188EEC89FD89B082EA89FB891A
:1045B000808180618083EA89FB8980818860808333
:1045C000EA89FB89808180688083EA89FB89808110
:1045D0008F7D8083DF91CF91FF90EF90DF90CF9020
:1045E000BF900895CF92DF92EF92FF920F931F93A7
:1045F000CF93DF936C017A01EB01E60EF71E00E02A
:1046000010E0CE15DF0561F06991D601ED91FC91C6
:104610000190F081E02DC6010995080F191FF1CF17
:10462000C801DF91CF911F910F91FF90EF90DF9024
:10463000CF9008956115710581F0DB010D90002088
:10464000E9F7AD0141505109461B570BDC01ED91D3
:10465000FC910280F381E02D099480E090E00895C0
:10466000EF92FF920F931F93CF93DF938C01FB0187
:10467000C0E0D0E064917F018FEFE81AF80A66236A
:1046800061F0D801ED91FC910190F081E02DC8011D
:104690000995C80FD91FF701EDCFCE01DF91CF915A
:1046A0001F910F91FF90EF9008950C941A23DC0155
:1046B000ED91FC910190F081E02D099469EE71E09B
:1046C0000C941A230F931F93CF93DF93EC010E9456
:1046D00030238C01CE010E945E23800F911FDF9159
:1046E000CF911F910F9108950F931F93CF93DF9355
:1046F000EC010E941A238C01CE010E945E23800FE0
:10470000911FDF91CF911F910F9108958F929F92EA
:10471000AF92BF92CF92DF92EF92FF920F931F93CF
:10472000CF93DF93CDB7DEB7A1970FB6F894DEBF76
:104730000FBECDBF7C01C42EE52FCB01D22E19A216
:1047400021E02D1510F02AE0D22E8E010F5D1F4FB3
:104750008D2C912CA12CB12C6C2D7E2FA5019401B8
:104760000E94B1298C2DD29E80191124015011096B
:104770008A3014F4805D01C0895CF80180832115C2
:1047800031054105510521F0C22EE32FCA01E4CFC6
:10479000B801C7010E941A23A1960FB6F894DEBF94
:1047A0000FBECDBFDF91CF911F910F91FF90EF9082
:1047B000DF90CF90BF90AF909F908F900895CF9251
:1047C000DF92EF92FF920F931F93CF93DF93EC0151
:1047D0006A017B012115310579F4E881F9810190A5
:1047E000F081E02D642FDF91CF911F910F91FF9009
:1047F000EF90DF90CF9009942A303105E9F477FFEC
:104800001AC06DE20E9457238C0144275527BA0134
:104810004C195D096E097F092AE0CE010E948623AA
:10482000800F911FDF91CF911F910F91FF90EF901B
:10483000DF90CF9008952AE0B701A601CE01DF9165
:10484000CF911F910F91FF90EF90DF90CF900C943C
:1048500086230F931F93CF93DF93EC019A01AB0153
:10486000662757FD6095762F0E94DF238C01CE01CD
:104870000E945E23800F911FDF91CF911F910F91B6
:1048800008952115310541F4DC01ED91FC91019071
:10489000F081E02D642F09940C9486230F931F93CD
:1048A000CF93DF93EC019A01AB0160E070E00E94CE
:1048B00041248C01CE010E945E23800F911FDF9165
:1048C000CF911F910F9108954F925F926F927F92B7
:1048D0008F929F92AF92BF92CF92DF92EF92FF9210
:1048E0000F931F93CF93DF93EC016A017B01B22EEC
:1048F0009A01AB01C701B6010E947028882319F004
:104900006CEE71E027C026013701E89477F82FEFAD
:104910003FEF4FE75FE7C301B2010E9470288111AA
:104920000DC02FEF3FEF4FE75FE7C301B2010E94D9
:104930006E2618161CF460EF71E00CC02FEF3FEFED
:104940004FE75FE4C701B6010E94BD271816ACF41B
:1049500064EF71E0CE01DF91CF911F910F91FF9035
:10496000EF90DF90CF90BF90AF909F908F907F900F
:104970006F905F904F900C941A232FEF3FEF4FE70B
:104980005FECC701B6010E946E2687FDE1CF20E0F3
:1049900030E0A901C701B6010E946E2687FF0AC058
:1049A0006DE2CE010E9457238C01F7FAF094F7F8DC
:1049B000F09402C000E010E0A12C60E070E080E024
:1049C0009FE3AB1441F020E030E040E251E40E946C
:1049D0007226A394F6CF9B01AC01C701B6010E94D9
:1049E0000A266B017C010E94DF262B013C010E94FC
:1049F0000B279B01AC01C701B6010E9409266B0180
:104A00007C012AE0B301A201CE010E948623080F97
:104A1000191FBB2039F068EF71E0CE010E941A2304
:104A2000080F191F7B2C772041F120E030E040E295
:104A300051E4C701B6010E94C1276B017C010E94AD
:104A4000DA264B01AA2497FCA094BA2C2AE030E085
:104A5000B501A401CE010E94DF23080F191FC50173
:104A6000B4010E940D279B01AC01C701B6010E9451
:104A700009266B017C017A94D6CFC801DF91CF91D2
:104A80001F910F91FF90EF90DF90CF90BF90AF906C
:104A90009F908F907F906F905F904F9008950C94AF
:104AA00064240F931F93CF93DF93EC010E9464243F
:104AB0008C01CE010E945E23800F911FDF91CF9168
:104AC0001F910F9108951F920F920FB60F9211240C
:104AD0002F938F939F93EF93FF93E0910205F091B3
:104AE00003058081E0910805F091090582FD12C05F
:104AF000908180910B058F5F8F7320910C05821739
:104B000051F0E0910B05F0E0EE50FB4F958F809354
:104B10000B0501C08081FF91EF919F918F912F91A3
:104B20000F900FBE0F901F9018951F920F920FB607
:104B30000F9211242F933F934F935F936F937F9323
:104B40008F939F93AF93BF93EF93FF9382EF94E084
:104B50000E94EE21FF91EF91BF91AF919F918F91B4
:104B60007F916F915F914F913F912F910F900FBE69
:104B70000F901F90189582EF94E00E94B32121E0DE
:104B8000892B09F420E0822F08951092F5041092E9
:104B9000F40488EE93E0A0E0B0E08093F6049093F4
:104BA000F704A093F804B093F9048DED91E090938D
:104BB000F3048093F20485EC90E09093FF048093DB
:104BC000FE0484EC90E0909301058093000580EC56
:104BD00090E0909303058093020581EC90E0909320
:104BE00005058093040582EC90E09093070580937F
:104BF000060586EC90E090930905809308051092D5
:104C00000B0510920C0510920D0510920E050895DB
:104C100008955058BB27AA270ED075C166D130F031
:104C20006BD120F031F49F3F11F41EF45BC10EF400
:104C3000E095E7FB51C1E92F77D180F3BA176207FE
:104C400073078407950718F071F49EF58FC10EF471
:104C5000E0950B2EBA2FA02D0B01B90190010C018C
:104C6000CA01A0011124FF27591B99F0593F50F4A4
:104C7000503E68F11A16F040A22F232F342F4427FC
:104C8000585FF3CF469537952795A795F0405395F4
:104C9000C9F77EF41F16BA0B620B730B840BBAF0C4
:104CA0009150A1F0FF0FBB1F661F771F881FC2F72F
:104CB0000EC0BA0F621F731F841F48F48795779543
:104CC0006795B795F7959E3F08F0B3CF9395880FFA
:104CD00008F09927EE0F979587950895D9D008F495
:104CE00081E008950CD00FC107D140F0FED030F024
:104CF00021F45F3F19F0F0C0511139C1F3C014D154
:104D000098F39923C9F35523B1F3951B550BBB2792
:104D1000AA2762177307840738F09F5F5F4F220F3F
:104D2000331F441FAA1FA9F333D00E2E3AF0E0E838
:104D300030D091505040E695001CCAF729D0FE2F84
:104D400027D0660F771F881FBB1F26173707480716
:104D5000AB07B0E809F0BB0B802DBF01FF279358CC
:104D60005F4F2AF09E3F510568F0B6C000C15F3F1B
:104D7000ECF3983EDCF3869577956795B795F795B4
:104D80009F5FC9F7880F911D9695879597F90895AC
:104D9000E1E0660F771F881FBB1F62177307840748
:104DA000BA0720F0621B730B840BBA0BEE1F88F757
:104DB000E095089504D06894B111D9C00895BCD08D
:104DC00088F09F5790F0B92F9927B751A0F0D1F0F4
:104DD000660F771F881F991F1AF0BA95C9F712C07E
:104DE000B13081F0C3D0B1E00895C0C0672F782FF3
:104DF0008827B85F39F0B93FCCF3869577956795EA
:104E0000B395D9F73EF490958095709561957F4F55
:104E10008F4F9F4F0895E89409C097FB3EF49095FB
:104E20008095709561957F4F8F4F9F4F9923A9F083
:104E3000F92F96E9BB279395F69587957795679512
:104E4000B795F111F8CFFAF4BB0F11F460FF1BC056
:104E50006F5F7F4F8F4F9F4F16C0882311F096E9E9
:104E600011C0772321F09EE8872F762F05C0662397
:104E700071F096E8862F70E060E02AF09A95660F50
:104E8000771F881FDAF7880F9695879597F9089509
:104E9000990F0008550FAA0BE0E8FEEF161617064B
:104EA000E807F907C0F012161306E407F50798F0B3
:104EB000621B730B840B950B39F40A2661F0232BCC
:104EC000242B252B21F408950A2609F4A140A69548
:104ED0008FEF811D811D089597F99F6780E870E02D
:104EE00060E008959FEF80EC089500240A94161660
:104EF000170618060906089500240A9412161306C8
:104F0000140605060895092E0394000C11F4882355
:104F100052F0BB0F40F4BF2B11F460FF04C06F5F71
:104F20007F4F8F4F9F4F089557FD9058440F551F47
:104F300059F05F3F71F04795880F97FB991F61F01B
:104F40009F3F79F087950895121613061406551F92
:104F5000F2CF4695F1DF08C0161617061806991FFE
:104F6000F1CF86957105610508940895E894BB27F3
:104F700066277727CB0197F908958ADF08F48FEF2A
:104F800008950BD0C0CFB1DF28F0B6DF18F095231D
:104F900009F0A2CFA7CF1124EACFC6DFA0F3959FD7
:104FA000D1F3950F50E0551F629FF001729FBB2710
:104FB000F00DB11D639FAA27F00DB11DAA1F649FBC
:104FC0006627B00DA11D661F829F2227B00DA11D6F
:104FD000621F739FB00DA11D621F839FA00D611DF5
:104FE000221F749F3327A00D611D231F849F600D16
:104FF000211D822F762F6A2F11249F5750408AF04F
:10500000E1F088234AF0EE0FFF1FBB1F661F771FDA
:10501000881F91505040A9F79E3F510570F05CCF1A
:10502000A6CF5F3FECF3983EDCF3869577956795C6
:10503000B795F795E7959F5FC1F7FE2B880F911DF8
:105040009695879597F90895FA01EE0FFF1F309610
:105050002105310599F16115710561F48038BFE3CF
:105060009B0749F168949038810561F08038BFEF63
:105070009B0741F0992342F5FF3FE10531052105EA
:1050800011F1E8940894E795D901AA2329F4AB2FEC
:10509000BE2FF85FD0F310C0FF5F70F4A695E0F765
:1050A000F73950F019F0FF3A38F49F779F930CD0FE
:1050B0000F9007FC905808953EF014CF60E070E028
:1050C00080E89FE308954FE79F775F934F933F9367
:1050D0002F93A2D02F913F914F915F9152DF09C042
:1050E000D7DE880B990B089519F40EF0F5CE3ECF5C
:1050F000F9CE22DFC8F39638C0F707F80F92E8948C
:105100002BE33AEA48EB5FE74ADF0F920F920F92E8
:105110004DB75EB70F92C0D0E8E6F0E016D04F91E1
:105120005F91EF91FF91E595EE1FFF1F49F0FE574C
:10513000E0684427EE0F441FFA95E1F74195550BBF
:1051400032D00F9007FE26C00895DF93CF931F93B0
:105150000F93FF92EF92DF927B018C01689405C060
:10516000DA2EEF011ADFFE01E894A5912591359121
:1051700045915591AEF3EF015EDDFE019701A80167
:10518000DA9479F7DF90EF90FF900F911F91CF9114
:10519000DF9108959B01AC0160E070E080E89FE33F
:1051A000A1CD9ACEACC0C8DEE8F39923D9F3940F11
:1051B000511DBBF39150504094F059F0882332F0C8
:1051C000660F771F881F91505040C1F79E3F5105D1
:1051D00044F7880F911D9695879597F908955F3F3D
:1051E000ACF0983E9CF0BB27869577956795B79570
:1051F00008F4B1609395C1F7BB0F58F711F460FF45
:10520000E8CF6F5F7F4F8F4F9F4FE3CFB0CE0EF051
:1052100076C068CE689460CE8FDEC8F39923D1F350
:10522000C6F3DF93CF931F930F93FF92C92FDD2710
:1052300088232AF02197660F771F881FDAF720E06E
:1052400030E040E85FEB9FE3883920F0803E30F0AB
:1052500021968F77DFDCE0E9F0E003C0DBDCEDEBEB
:10526000F0E073DF8B01BE01EC01FB2E6F5771097B
:105270007595771F880B990BD0DD28E132E741E364
:105280005FE38BDEAF2D9801AE01FF900F911F9170
:10529000CF91DF91D0DC37CEFA01DC01AA0FBB1F22
:1052A0009B01AC01BF5728F42227332744275078AD
:1052B0001FC0B75188F4AB2F00244695379527952A
:1052C000011CA395D2F3002069F0220F331F441F65
:1052D000B395DAF30DD09DCC61307105A0E88A0753
:1052E000B94630F49B01AC01662777278827907870
:1052F000309621F0208331834283538308959F3F6A
:1053000031F0915020F4879577956795B795880F80
:10531000911D9695879597F90895DB018F939F933B
:105320000E94F229BF91AF91A29F800D911DA39F72
:10533000900DB29F900D1124089597FB072E16F43F
:10534000009407D077FD09D00E94052A07FC05D0FC
:105350003EF4909581959F4F0895709561957F4F8C
:105360000895A1E21A2EAA1BBB1BFD010DC0AA1FA6
:10537000BB1FEE1FFF1FA217B307E407F50720F0BE
:10538000A21BB30BE40BF50B661F771F881F991F39
:105390001A9469F760957095809590959B01AC0182
:1053A000BD01CF010895052E97FB1EF400940E94C5
:1053B000EA2957FD07D00E94B12907FC03D04EF41B
:1053C0000C94EA2950954095309521953F4F4F4FC9
:1053D0005F4F089590958095709561957F4F8F4FA1
:1053E0009F4F08950E941F2AA59F900DB49F900D76
:1053F000A49F800D911D11240895B7FF0C94F229EC
:105400000E94F229821B930B0895AA1BBB1B51E13A
:1054100007C0AA1FBB1FA617B70710F0A61BB70B24
:10542000881F991F5A95A9F780959095BC01CD01C9
:105430000895EE0FFF1F0590F491E02D0994A29FAF
:10544000B001B39FC001A39F700D811D1124911D58
:10545000B29F700D811D1124911D0895EF920F933D
:105460001F93CF93DF93E80147FF02C034E101C0EF
:1054700034E0E42FFF27E7FDF095F7FF03C0F19537
:10548000E195F109E32E022F2E2FAE010E94362D59
:10549000CE01DF91CF911F910F91EF900895FC0104
:1054A00088279927E89421912032E9F3293010F0D8
:1054B0002E30C8F32B3241F02D3239F4689404C0F9
:1054C0000E94D22A820F911D219120532A30C0F3CD
:1054D0001EF4909581959F4F08951F93FC01992785
:1054E0008827BC01E89411911032E9F3193010F0CB
:1054F0001E30C8F31B3251F01D3249F4689406C0C7
:105500000E94BD2A610F711D811D911D11911053C3
:105510001A30B0F33EF490958095709561957F4F69
:105520008F4F9F4F1F910895FB01DC014150504068
:1055300048F001900D920020C9F701C01D92415022
:105540005040E0F70895BB274A3031F4992322F404
:10555000BDE2909581959F4F0C94FD2ABB272A3080
:1055600051F4992342F4BDE2909580957095619530
:105570007F4F8F4F9F4F0C94DB2A592F482F372F87
:10558000262F660F771F881F991F660F771F881FAA
:10559000991F620F731F841F951F660F771F881F47
:1055A000991F08957AE0979F902D879F802D910DE8
:1055B00011240895BB27FA01A62F621771058105F2
:1055C0009105330B30FB66F0AA27660F771F881F03
:1055D000991FAA1FA21710F0A21B63953850A9F7B4
:1055E000A05DAA3308F0A95DA19336F7B111B1937C
:1055F0001082CA010C94A22FBB27FB015527AA27B2
:10560000880F991FAA1FA41710F0A41B839550514F
:10561000B9F7A05DAA3308F0A95DA193009779F7C7
:10562000B111B1931192CB010C94A22FAEE0B0E076
:10563000ECE1FBE20C9450308C01CA014EE04C834B
:105640001A83098377FF02C060E070E86150710936
:105650007E836D83A901BC01CE0101960E94422B7D
:105660004D815E8157FD0AC02F813885421753074F
:105670000CF49A01F801E20FF31F10822E96E4E079
:105680000C946C30ACE0B0E0E8E4FBE20C94423007
:105690007C016B018A01FC0117821682838181FFE4
:1056A000BDC1CE0101964C01F7019381F60193FD36
:1056B000859193FF81916F01882309F4ABC18532F5
:1056C00039F493FD859193FF81916F01853229F41F
:1056D000B70190E00E94B22FE7CF512C312C20E08F
:1056E0002032A0F48B3269F030F4803259F08332EA
:1056F00069F420612CC08D3239F0803339F4216097
:1057000026C02260246023C0286021C027FD27C056
:1057100030ED380F3A3078F426FF06C0FAE05F9E8D
:10572000300D1124532E13C08AE0389E300D112401
:10573000332E20620CC08E3221F426FD6BC1206412
:1057400006C08C3611F4206802C0883641F4F60198
:1057500093FD859193FF81916F018111C1CF982FA6
:105760009F7D9554933028F40C5F1F4FFFE3F9831E
:105770000DC0833631F0833771F0833509F05BC09B
:1057800022C0F801808189830E5F1F4F4424439417
:10579000512C540115C03801F2E06F0E711CF80154
:1057A000A080B18026FF03C0652D70E002C06FEFBE
:1057B0007FEFC5012C870E94972F2C0183012C8538
:1057C0002F77222E17C03801F2E06F0E711CF801FE
:1057D000A080B18026FF03C0652D70E002C06FEF8E
:1057E0007FEFC5012C870E948C2F2C012C8520680F
:1057F000222E830123FC1BC0832D90E048165906FE
:10580000B0F4B70180E290E00E94B22F3A94F4CF56
:10581000F50127FC859127FE81915F01B70190E09A
:105820000E94B22F31103A94F1E04F1A51084114FE
:10583000510471F7E5C0843611F0893639F5F80165
:1058400027FF07C060817181828193810C5F1F4FA8
:1058500008C060817181882777FD8095982F0E5F41
:105860001F4F2F76B22E97FF09C0909580957095A7
:1058700061957F4F8F4F9F4F2068B22E2AE030E016
:10588000A4010E94E42FA82EA81844C0853729F44B
:105890002F7EB22E2AE030E025C0F22FF97FBF2EF6
:1058A0008F36C1F018F4883579F0B4C0803719F01C
:1058B000883721F0AFC02F2F2061B22EB4FE0DC06B
:1058C0008B2D8460B82E09C024FF0AC09F2F9660DC
:1058D000B92E06C028E030E005C020E130E002C06B
:1058E00020E132E0F801B7FE07C06081718182815A
:1058F00093810C5F1F4F06C06081718180E090E052
:105900000E5F1F4FA4010E94E42FA82EA818FB2DA4
:10591000FF77BF2EB6FE0BC02B2D2E7FA51450F4A3
:10592000B4FE0AC0B2FC08C02B2D2E7E05C07A2C16
:105930002B2D03C07A2C01C0752C24FF0DC0FE0155
:10594000EA0DF11D8081803311F4297E09C022FF08
:1059500006C07394739404C0822F867809F0739400
:1059600023FD13C020FF06C05A2C731418F4530CE7
:105970005718732C731468F4B70180E290E02C87F9
:105980000E94B22F73942C85F5CF731410F437183E
:1059900001C0312C24FF12C0B70180E390E02C87B6
:1059A0000E94B22F2C8522FF17C021FF03C088E57B
:1059B00090E002C088E790E0B7010CC0822F8678A3
:1059C00059F021FD02C080E201C08BE227FD8DE28B
:1059D000B70190E00E94B22FA51438F4B70180E31C
:1059E00090E00E94B22F5A94F7CFAA94F401EA0DE6
:1059F000F11D8081B70190E00E94B22FA110F5CF78
:105A0000332009F451CEB70180E290E00E94B22F1A
:105A10003A94F6CFF7018681978102C08FEF9FEF0E
:105A20002C96E2E10C945E30DC01CB01FC01F9998B
:105A3000FECF06C0F2BDE1BDF89A319600B40D92DA
:105A400041505040B8F70895262FF999FECF92BDE6
:105A500081BDF89A019700B4021639F01FBA20BD33
:105A60000FB6F894FA9AF99A0FBE08956F927F9242
:105A70009F92AF92BF92CF92DF92EF92FF920F93DD
:105A80001F93CF93DF93CDB7DEB729970FB6F89466
:105A9000DEBF0FBECDBF6A01B22E102F0C3320F433
:105AA000FF24F394F00E02C04CE3F42E0F2D27E0F8
:105AB000AE014F5F5F4F0E94B42E7981272F29706E
:105AC000213031F0E1FC06C0E0FC06C060E005C01A
:105AD0006DE203C06BE201C060E2AE2DA07173FF06
