:100000000C94A7020C9417130C9444130C94CF0275
:100010000C94CF020C94CF020C9481040C94CF0268
:100020000C94CF020C94CF020C94CF020C94CF020C
:100030000C94CF020C94CF020C94CF020C94CF02FC
:100040000C9471130C94CF020C94DD150C940F16C4
:100050000C94CF020C94CF020C94CF020C94CF02DC
:100060000C94CF020C94CF0249443A2025642076A8
:1000700069612025640A004E6F2072656769737498
:10008000726174696F6E2072657175697265640A58
:1000900000496E697420636F6D706C6574652C2007
:1000A00069643D25642C20706172656E743D256421
:1000B0002C2064697374616E63653D25642C207225
:1000C0006567697374726174696F6E3D25640A00B7
:1000D0005472616E73706F727420647269766572A7
:1000E00020696E6974206661696C0A0053746172DC
:1000F00074696E6720676174657761792028524E54
:100100004E47412D2C20322E302E30290A002573E7
:100110005453503A4D53473A53454E442025642D8D
:1001200025642D25642D256420733D25642C633DB5
:1001300025642C743D25642C70743D25642C6C3D25
:1001400025642C73673D25642C66743D25642C73EF
:10015000743D25733A25730A005453503A4D534762
:100160003A52454C2050784E472028686F70733DB6
:100170002564290A005453503A4D53473A52454C8E
:10018000204D53470A005453503A4D53473A46576F
:1001900044204243204D53470A005453503A4D5394
:1001A000473A47574C204F4B0A005453503A4D534F
:1001B000473A4650415220524551202873656E649B
:1001C00065723D2564290A005453503A4D53473A0D
:1001D00042430A005453503A4D53473A504F4E470A
:1001E00020524543562028686F70733D2564290AC4
:1001F000005453503A4D53473A50494E47454420D6
:100200002849443D25642C20686F70733D2564297E
:100210000A005453503A4D53473A41434B206D73B3
:10022000670A00215453503A4D53473A50564552AD
:10023000206D69736D617463680A005453503A4DC0
:1002400053473A524541442025642D25642D2564A9
:1002500020733D25642C633D25642C743D25642C5E
:1002600070743D25642C6C3D25642C73673D2564BA
:100270003A25730A005453503A4352543A4F4B0AAA
:10028000005453503A50494E473A53454E44202863
:10029000646573743D2564290A00215453503A5310
:1002A000454E443A544E520A00215453503A524F4C
:1002B0005554494E473A4445535420554E4B4E4FA2
:1002C000574E2028646573743D25642C2053545088
:1002D0003D2564290A00215453503A465041523A70
:1002E00041435449564520286D7367206E6F742032
:1002F00073656E64290A005453503A43484B555075
:100300004C3A4641494C2028686F70733D2564295A
:100310000A005453503A43484B55504C3A444757BF
:100320004320286F6C643D25642C6E65773D256401
:1003300029005453503A43484B55504C3A4F4B0ABE
:10034000005453503A43484B55504C3A4F4B202899
:10035000464C444354524C290A005453503A53419A
:100360004E43484B3A4F4B0A00215453503A5341A5
:100370004E43484B3A4641494C0A0054534D3A507B
:1003800044540A002154534D3A4641494C55524574
:100390000A0054534D3A52454144590A0054534DB2
:1003A0003A4757204D4F44450A0054534D3A524165
:1003B00044494F3A4F4B0A002154534D3A5241445D
:1003C000494F3A4641494C0A0054534D3A494E4927
:1003D000540A0025643B25643B25643B25643B258A
:1003E000643B25730A00303B3235353B25643B3096
:1003F0003B25643B000000000800020100000304EC
:100400000700000000000000000102040810204066
:1004100080010204081020010204081020040404D2
:10042000040404040402020202020203030303039D
:100430000300000000230026002900000000002522
:100440000028002B0000000000240027002A0000E4
:10045000407A10F35A00A0724E18090010A5D4E893
:100460000000E87648170000E40B54020000CA9A26
:100470003B000000E1F50500008096980000004078
:10048000420F000000A086010000001027000000BD
:1004900000E803000000006400000000000A000003
:1004A0000000000100000000002C76D888DC674FB7
:1004B0000823DFC1DFAE59E1B1B796E5E3E453C6E7
:1004C0003AE651997696E8E6C28426EB898C9B62DF
:1004D000ED407C6FFCEFBC9C9F40F2BAA56FA5F489
:1004E00090055A2AF75C936B6CF9676DC11BFCE0B1
:1004F000E40D47FEF520E6B500D0ED902E03009404
:100500003577050080841E080000204E0A00000098
:10051000C80C333333330F986E12831141EF8D21A2
:1005200014893BE65516CFFEE6DB18D1844B381B09
:10053000F77C1D901DA4BBE424203284725E2281CE
:1005400000C9F124ECA1E53D270050093F16112414
:100550001FBECFEFD8E0DEBFCDBF11E0A0E0B1E01D
:10056000E0ECFAE302C005900D92A835B107D9F787
:1005700023E0A8E5B1E001C01D92A33DB207E1F779
:1005800015E0CEE4D5E004C02297FE010E94A71634
:10059000CA34D107C9F70E940C120C945E1D0C944A
:1005A000000008950895089508958EBD00000DB4CB
:1005B00007FEFDCF8EB50895BF92CF92DF92EF92E6
:1005C000FF920F931F93CF93DF93C82F8B01C42EFD
:1005D000B22E80912303882399F03FB7F89480913D
:1005E0002303813059F48DB3809321038DB390910F
:1005F0002203909598239DBB3FBF02C030932103F7
:1006000081E58CBD81E08DBD60E08AE00E94B8127A
:100610008AE090E00E9412148C2F0E94D502D82EFE
:10062000E801CC20B9F0BB2051F08FEF0E94D50239
:10063000D82E0115110561F08883219609C07E012D
:100640008FEFE81AF80A88810E94D502D82EE701B8
:10065000CA94E7CF61E08AE00E94B8128091230338
:10066000882361F09FB7F8942091230380912103A0
:10067000213019F48DBB9FBF01C08FBF8AE090E08D
:100680000E9412148D2DDF91CF911F910F91FF9039
:10069000EF90DF90CF90BF900895CF93DF931F929C
:1006A000CDB7DEB7698320E041E0BE016F5F7F4FC9
:1006B0000E94DC020F90DF91CF91089560E089E005
:1006C0000E94B8126CE080E20C944D036FE080E26F
:1006D0000E944D03609106016F3F19F08AE20E946B
:1006E0004D0361E089E00C94B81220E040E060E046
:1006F00070E00C94DC02EF92FF921F93CF93DF9394
:100700001F92CDB7DEB7182F7B0160E089E04983E7
:100710000E94B81282E890E00E9412146EE080E21B
:100720000E944D0384E690E00E941214612F8AE239
:100730000E944D03612F80E30E944D0381EE0E94D1
:10074000750320E04981B70180EA0E94DC0261E084
:1007500089E00E94B812EE24EA94FE2C8FEF0E94EA
:100760007503182F807351F4970121503109EF2838
:1007700011F07901F3CFEE24EA94FE2C60E089E0D9
:100780000E94B81260E387E20E944D0314FF03C089
:1007900081EE0E9475030E94660315FF03C081E08D
:1007A000EF2809F480E00F90DF91CF911F91FF9027
:1007B000EF9008951F93CF93DF93EC0121E041E088
:1007C00060E070E080E60E94DC02182F813220F0A9
:1007D00082EE0E94750310E021E0412FBE0181E608
:1007E0000E94DC0260E487E20E944D03812FDF91CA
:1007F000CF911F910895CF9321E041E060E070E038
:1008000086E00E94DC02C82F21E041E060E070E059
:1008100085E00E94DC0291E08C3409F090E081E0F8
:10082000C33209F080E08923CF910895CF9361E02E
:1008300089E00E947F1261E08AE00E947F120E949C
:10084000201260E089E00E94B81261E08AE00E9414
:10085000B8126EE080E20E944D0365E070E080E037
:1008600090E00E94EA1363E083E20E944D036FE58B
:1008700084E20E944D036CE485E20E944D0363E232
:1008800086E20E944D030E94FB03C82F8823B1F12A
:1008900063E780E30E944D0366E08DE30E944D0311
:1008A00062E082E20E944D0360E081E20E944D031B
:1008B00063E08CE30E944D038FEF8093070120E0FB
:1008C00045E067E071E08BE20E94DC0220E045E059
:1008D00067E071E08AE20E94DC0220E045E067E028
:1008E00071E080E30E94DC0282EE0E94750381EEDB
:1008F0000E94750360E787E20E944D038C2FCF9121
:1009000008951F920F920FB60F9211240F900FBEF1
:100910000F901F9018958EE480937C0066E470E041
:1009200080E090E00E94EA1380917A0080648093D6
:100930007A0080917A0086FDFCCF2091780030917A
:10094000790040E050E064EB7BE281E190E00E94BE
:100950008316C9010895F8948FEF86BB1092850025
:10096000109284001092800010928200209160000A
:100970003DE088E190E00FB6F894A8958093600080
:100980000FBE3093600080916000806480936000AF
:10099000A89585E0809381008091600087FFFCCF5F
:1009A00010928100A895809160008861809360001A
:1009B000209360007894609184007091850080E0BD
:1009C00090E02BE0660F771F881F991F2A95D1F7BB
:1009D00020EA36E841E050E00E948316C9010895FC
:1009E000CF93DF9300D0CDB7DEB72091CF03309106
:1009F000D0032115310511F423ED33E0CE0101962A
:100A0000821B930B0F900F90DF91CF9108950F935E
:100A10001F930E94BB1300911A0310911B03209196
:100A20001C0330911D03601B710B820B930B6B3405
:100A300071058105910508F43CC0055B1F4F2F4FE0
:100A40003F4F00931A0310931B0320931C03309312
:100A50001D0380912003837061E009F060E086E06F
:100A60000E94B81280912003882319F0815080934E
:100A7000200380911F03837061E009F060E085E04E
:100A80000E94B81280911F03882319F0815080932F
:100A90001F0380911E03837061E009F060E084E031
:100AA0000E94B81280911E03882319F08150809310
:100AB0001E031F910F91089590912003911104C07E
:100AC000880F880F80932003089590911F03911140
:100AD00004C0880F880F80931F03089590911E0310
:100AE000911104C0880F880F80931E030895CF933F
:100AF000DF93EC018D7F009721F481E00E94650572
:100B00000DC0019721F481E00E945C0507C0C53645
:100B1000D10524F08C2F84560E946E0580E090E071
:100B2000892B29F0CE01DF91CF910C940000DF9149
:100B3000CF9108958A3314F480530895813614F0C8
:100B400087550895875308952091D2013091D3019C
:100B50004091D9012817390741F0407F4093D901CE
:100B60009093D3018093D20108C091E0940F9F70BD
:100B7000842F807F892B8093D901E091D201F0915D
:100B8000D3010190F081E02D309709F009950E9482
:100B9000BB136093D4017093D5018093D6019093D9
:100BA000D70108950F931F930E94BB130091D401A6
:100BB0001091D5012091D6013091D701601B710BA6
:100BC000820B930B1F910F9108950E94D205613102
:100BD00077428105910520F084E191E00C94A40511
:100BE0000895E091D201F091D3010280F381E02DCC
:100BF000309709F0099408958CE091E09093D30127
:100C00008093D20184E191E00C94A4058F3F51F0D0
:100C10008093060163E082E20E944D0361E081E27D
:100C20000E944D030C9466036F706A3010F480E3E9
:100C300001C087E3860F08959F92AF92BF92CF9233
:100C4000DF92EF92FF920F931F93CF93DF93EC010C
:100C50008B01912C8B81869586958695981638F513
:100C6000C92CD12C7601EE0CFF1C5801AE0CBF1C18
:100C7000CC0EDD1EF6016781772767FD7095F4E0E5
:100C800075956795FA95E1F7CE010E941406F50176
:100C90008083FFEFEF1AFF0AE00EF11EF601678175
:100CA000CE010E941406F70180839394D3CFF801FC
:100CB000E80FF11DE80FF11D1082C801DF91CF91FF
:100CC0001F910F91FF90EF90DF90CF90BF90AF906A
:100CD0009F9008950F931F93CF93DF938C01EB01A7
:100CE000FC018481829586958770209709F462C003
:100CF000811115C0438146954695469550E0B8014F
:100D0000695F7F4FCE010E941A17F8018381869593
:100D100086958695FE01E80FF11D10824EC0813048
:100D200029F4F80187814AE090E006C0823039F466
:100D30004AE0F801878190850E9450173EC08330B9
:100D400039F44AE0F801878190850E94A91735C0DF
:100D5000843051F4F80167817085818592852AE09D
:100D6000AE010E945B1729C0853051F4F8016781FC
:100D70007085818592852AE0AE010E9487171DC08B
:100D8000873079F4F8012385293008F028E0F8014C
:100D900067817085818592858E0142E00E94AB1645
:100DA0000CC0863051F4C801DF91CF911F910F9193
:100DB0000C941C0680E090E001C0CE01DF91CF9141
:100DC0001F910F910895CF93DF93EC016AE672E0D3
:100DD0000E946A062C819F938F938D811F928F931F
:100DE00024FB882780F91F928F9327701F922F93DF
:100DF0008E811F928F9389811F928F9383ED93E051
:100E00009F938F931F9288E78F938DE992E09F9332
:100E10008F930E94C3178DB79EB742960FB6F89472
:100E20009EBF0FBE8DBF8DE992E0DF91CF910895F7
:100E3000CF93DF93EC0182E090E00E947705CE0132
:100E40000E94E306BC0182E393E00E94DB1581E08F
:100E5000DF91CF910895FC0124812295269527707A
:100E6000213011F487810895211104C007960E9452
:100E7000CC16089580E00895FC01248122952695E2
:100E80002770253029F467817085818592850895C2
:100E9000211103C007960C94EA1660E070E0CB01C4
:100EA0000895CF93DF93EC018C818F71806C8C83DC
:100EB000842F90E09C01A3E0220F331FAA95E1F755
:100EC0003B813770322B3B83493110F4AC0102C0B7
:100ED00049E150E0CE0107960E941117CE01DF9143
:100EE000CF9108950F931F93CF93DF93EC0161157A
:100EF000710561F0FB0101900020E9F73197E61BD5
:100F0000F70BE931F10518F0E9E101C0E0E00E2F3F
:100F100010E0C801B3E0880F991FBA95E1F79B81F3
:100F20009770982B9B838C818F718C83EE2329F093
:100F3000A801CE0107960E941A17FE01E00FF11FCB
:100F40001782CE01DF91CF911F910F910895CF931A
:100F5000DF93EC018091CE0189836A838FEF8E83CA
:100F60008FE08D838C81807E83608C8360E471E070
:100F7000CE010E9472078B81877080618B838C8188
:100F80008F71806C8C8381E08F831886DF91CF9185
:100F900008956F927F928F929F92AF92BF92CF925D
:100FA000DF92EF92FF920F931F93CF93DF93CDB712
:100FB000DEB76B970FB6F894DEBF0FBECDBF8C01C6
:100FC000CB01AE01465E5F4F68E171E00E942917D8
:100FD000912CA12CE12CF12CB12C712C812C00979F
:100FE00009F485C0E6E0EE16F10409F477C023E0C9
:100FF000E216F10431F14CF4E1E0EE16F10491F067
:10100000F2E0EF16F10499F008C024E0E216F104D2
:10101000E1F035E0E316F104E9F00E94CC16F801A6
:1010200082834FC00E94CC16F80186834AC00E947A
:10103000CC16A82E8770F8019481987F892B848321
:1010400040C00E94CC16982E3CC00E94CC16F801DD
:10105000858337C0F4E0AF1220C06C01B12CF601DB
:101060008081882371F10E949A05682EF6018181A2
:101070000E949A05629490EF6922282F30E0260D95
:10108000311DE1E0F0E0EC0FFD1FEB0DF11D2083C1
:10109000B394F2E0CF0ED11CE2CFFC01019000200E
:1010A000E9F7E81BE2509C012E0F311DF901208168
:1010B0002D3009F4108220812A3009F41082782E14
:1010C000892E3FEFE31AF30AAE01465E5F4F68E1F7
:1010D00071E080E090E00E94291781CFF801118231
:1010E00010828481877F911008C090E007C0F5E0EE
:1010F000EF16F1049CF780E016C098E0892B8F7EF4
:10110000F8018483F4E0AF1208C04B2DBE016F5F7D
:101110007F4FC8010E94510705C0672D782DC80177
:101120000E94720781E06B960FB6F894DEBF0FBE87
:10113000CDBFDF91CF911F910F91FF90EF90DF9086
:10114000CF90BF90AF909F908F907F906F900895B9
:101150001092AE011092AF018FEF8093B3018EE039
:101160008093B201E1EBF1E08081807E8360808337
:101170006AE171E08DEA91E00E9472070E9418070F
:1011800081E00895FC018381877088608383848176
:101190008F71806284836783CF010895FC0183810E
:1011A00087708860838384818F7180628483678382
:1011B000CF01089590911503891739F18093150394
:1011C0001092AE011092AF019FEF9093B30195E0A2
:1011D0009093B2019091B101907E93609093B10190
:1011E000682F8DEA91E00E94CE080E941807809136
:1011F0001503882351F00E94BB136093160370936C
:101200001703809318039093190308950F931F9366
:1012100080911503811105C083E00E94EE12892B95
:10122000E1F0809115038823E1F00E94BB13009147
:101230001603109117032091180330911903601BB6
:10124000710B820B930B61327F4B8240910548F00A
:1012500080E01F910F910C94DA0881E00E94DA0877
:10126000E0CF1F910F910895FC0184818F71806AF6
:1012700084838381877080628383478350876187FB
:101280007287CF010895FC0184818F718066848309
:10129000838187708061838370876783CF0108951E
:1012A0000E94BB136B5471098109910960931A0361
:1012B00070931B0380931C0390931D031092E50110
:1012C0001092AF0110928E010895EF92FF920F934A
:1012D0001F93CF93DF93CDB7DEB7CC52D1400FB67B
:1012E000F894DEBF0FBECDBFCE018B5C9E4FFC01DC
:1012F000819191917F011F9289E08F931F9283E0EA
:101300008F9386EE93E09F938F9381E08F938BE290
:101310008F938E010F5F1F4F1F930F930E94C31770
:10132000B80182E393E00E94DB159701CB5CDE4FAE
:1013300048815981C553D14068E770E0C8010E94D7
:10134000F3178AE0E9968FAFE997EA961FAEEA971E
:10135000B80182E393E00E94DB1582E393E00E94F0
:10136000B4140FB6F894DEBF0FBECDBFC45DDE4F20
:101370000FB6F894DEBF0FBECDBFDF91CF911F91A6
:101380000F91FF90EF90089589EC93E09F938F93D6
:101390000E9465098091D9018F708093D901809155
:1013A000D801877F8F7E8093D8010E94BB13609302
:1013B000DB017093DC018093DD019093DE011092DC
:1013C000DF011092E0011092E1011092E20143E08E
:1013D00050E060E070E08EEC91E00E94F1190E9414
:1013E00016040F900F9081110FC088EB93E09F932C
:1013F0008F930E94650987E690E00E9477050F9021
:101400000F908CE091E020C08AEA93E09F938F9345
:101410000E9465098091D80180618093D8018DE98F
:1014200093E09F938F930E9465091092CF011092D1
:10143000D0011092CE0180E00E9406060F900F901E
:101440000F900F9080E191E00C94A40582E993E065
:101450009F938F930E946509E8EDF1E0808184609D
:1014600080830F900F90089584E893E09F938F936B
:101470000E946509E8EDF1E080818B7F8F7E80839B
:1014800087E690E00E9477058BE793E09F938F9328
:101490000E9465090F900F900F900F900C945E03BF
:1014A000CF93DF93C3E0D0E06FEFCE010E94091A23
:1014B0002196C23081E0D807B9F785E792E09F9383
:1014C0008F930E9465090F900F90DF91CF9108953F
:1014D000CF92DF92EF92FF920F931F93CF93DF9300
:1014E000182FEB014B814C7F42604B838091CE01E2
:1014F000888342FD05C0042F06950695069501C018
:1015000000E280E090E00E947705202F30E02A3151
:1015100031051CF447E0400F01C040E2BE01812FBD
:101520000E947B03082F68E571E0CE010E946A06E5
:101530001F3F29F0002331F04CE351E005C049E39F
:1015400051E002C044E351E06091D90162956F70AF
:101550002B8122FBCC24C0F8D22ED694D694D694DC
:101560002C81E22EE294E69437E0E322FD80B22F54
:10157000B770AE81FA81E8817981011102C01F3F05
:1015800019F420E431E002C02FE331E09F938F9300
:101590005F934F931F926F931F92CF921F92DF9290
:1015A0001F92EF921F92FF921F92BF931F92AF93D1
:1015B0001F92FF931F921F931F92EF931F927F938F
:1015C0003F932F932EE031E03F932F930E946509C4
:1015D0008DB79EB74E960FB6F8949EBF0FBE8DBFC7
:1015E00081E0011103C01F3F09F080E0DF91CF913E
:1015F0001F910F91FF90EF90DF90CF900895EF92A1
:10160000FF920F931F93CF93DF931F92CDB7DEB757
:101610007C01FC0122818091D80180FF0BC02F3F0B
:10162000A1F186ED92E09F938F930E9465090F9040
:101630000F9035C0211103C02091CF0126C02F3F4C
:1016400021F1022F10E0C801039629830E94011A9C
:1016500029818F3FC9F48091CF01F70190819817BC
:10166000A1F01F928F931F930F9389EA92E09F93AB
:101670008F930E9465092091CF010F900F900F90DA
:101680000F900F900F9001C0282FB701822F0E945A
:10169000680A811106C085E690E00E94770580E027
:1016A00001C081E00F90DF91CF911F910F91FF90CA
:1016B000EF9008952091D80122FD0C94FF0A8AE949
:1016C00092E09F938F930E9465090F900F9080E0A6
:1016D0000895FC0132812091CE01321302C00C9496
:1016E00018070C945A0BCF93DF93EC0169818C811E
:1016F0008770833059F48D818F3041F4CE010E9480
:10170000A707CE010E94690B81E001C080E0DF9154
:10171000CF9108950E94D205AB01BC018091CE010A
:1017200080938D0110928E018FEF8093920186E15C
:1017300080939101E0E9F1E08081807E8360808385
:101740008CE891E00E9434090C94690B962F8F3F2E
:1017500019F461E471E001C0BA013091CE01309317
:101760008D0110928E01809392019093910188E0F7
:10177000289F9001112480919001807F822B8F7E81
:10178000809390018CE891E00E9472070C94690BA1
:101790008BE090E00E94770520E040E451E062E1B8
:1017A0008FEF0E94A60B83ED92E0892B11F00C9431
:1017B000D302089581E080938B0187E790E09F93A7
:1017C0008F930E9465090F900F90089582E393E034
:1017D0000E945814892B49F182E393E00E9471140E
:1017E000209104023091050223363105CCF4F90131
:1017F000EA5FFD4F8A3061F4108266E072E083EEAA
:1018000091E00E94C9071092050210920402089507
:1018100080832F5F3F4F3093050220930402D6CF81
:101820001092050210920402D1CF80E008950E9428
:10183000E60B882309F465C081E2E3EEF1E0ADEA4E
:10184000B1E001900D928A95E1F78091AF0181118D
:1018500054C08091B10183FF1BC081E2EDEAF1E049
:10186000ACE8B1E001900D928A95E1F7809190018A
:10187000877F8061809390018091CE0180938D015C
:101880008091AE0180938E018CE891E00E94180750
:101890009091B101892F8770833039F58091B20121
:1018A0008230A1F41092AE011092AF012FEF20937D
:1018B000B301892F807E83608093B10161E471E080
:1018C0008DEA91E00E9472070C941807853059F454
:1018D00084EB91E00E94CC1621E0019709F020E012
:1018E000822F0C94DA080C94B00C80E090E0892BE5
:1018F00041F08DEA91E00C9400008DEA91E00C94A7
:101900005A0B0895A8950E9407050E9406090E9497
:10191000170C0C9488108F929F92AF92BF92CF9227
:10192000DF92EF92FF926B017C010E94BB134B018F
:101930005C010E94BB13681979098A099B096C151F
:101940007D058E059F0518F40E94820CF2CFFF9052
:10195000EF90DF90CF90BF90AF909F908F900895C1
:10196000CF92DF92EF92FF920F931F93CF93DF936B
:1019700000D01F92CDB7DEB71091B2010091AE0139
:10198000011114C11D3081F48AE090E00E947705B6
:1019900028E088E190E00FB6F894A8958093600065
:1019A0000FBE20936000FFCF1B3109F4C5C0163075
:1019B00079F48091B40161E0882319F08D3409F045
:1019C00060E06093D10183E091E00E94091AB4C005
:1019D000133119F40E94C80BAFC0123119F40E94E0
:1019E0008A0BAAC0113061F480E090E0892B09F4E1
:1019F000A3C08DEA91E00E943C070E9400009CC0B9
:101A00001A3019F58091B401833409F095C08CE047
:101A100090E00E9477050E94500A8091CE01809349
:101A20008D0110928E018FEF80939201109391019E
:101A300080919001807E8360809390016CE371E0DF
:101A40008CE891E00E94720775C01C3109F0CFC08C
:101A50008091B401823509F048C000E010E048E60A
:101A6000E42E40E0F42EDD24DA945CE1C52EC801BA
:101A700003960E94011A8F3F91F11F928F931F933B
:101A80000F93FF92EF928B830E94650909838B81EC
:101A90008A838091CE0180938D0110928E01D09225
:101AA0009201C092910180919001807E8360809329
:101AB000900142E0BE016F5F7F4F8CE891E00E9491
:101AC00051070E94690B68EC70E080E090E00E9492
:101AD0008B0C0F900F900F900F900F900F900F5F47
:101AE0001F4F0F3F110519F627C0863519F40E94C4
:101AF0008B0409C0863419F40E94AB0404C08D34F1
:101B0000E9F40E94F0042091CE0120938D011092FF
:101B10008E012FEF209392012CE1209391012091CF
:101B20009001207E236020939001BC018CE891E01D
:101B30000E9443090E94690B81E05AC08534E1F795
:101B40008091CE0180938D0110928E018FEF809352
:101B500092018CE18093910180919001807E83605D
:101B6000809390016CE371E08CE891E00E94720731
:101B70000E94690B00E010E06FEFC8010E94091A93
:101B80000F5F1F4F0D3981E01807B1F78AE090E031
:101B90000E94770528E088E190E00FB6F894A895B8
:101BA000809360000FBE20936000FFCF1A31F9F4DC
:101BB0008DEA91E00E942B079091CE0190938D01C8
:101BC00000938E019FEF909392019BE1909391017E
:101BD00090919001907E93609093900161E08230AB
:101BE00008F460E08CE891E00E94C208A3CF80E096
:101BF0000F900F900F90DF91CF911F910F91FF9059
:101C0000EF90DF90CF900895AF92BF92DF92EF9266
:101C1000FF920F931F93CF93DF9300D0CDB7DEB722
:101C20008DEA91E00E94DA0381E090E00E9477055E
:101C3000D090B101E090B2011091AE01F090AD01F1
:101C40000091AF0168E571E08DEA91E00E946A06BB
:101C50003091B0012091B101A12EB12C9F938F93AF
:101C600032FB882780F91F928F93369536953695EB
:101C70001F923F93822F8295869587701F928F9334
:101C80001F92EF9227701F922F938091B3011F92A2
:101C90008F931F920F931F92FF921F921F938BE3BC
:101CA00092E09F938F930E9465098091B001982FD5
:101CB00093700FB6F894DEBF0FBECDBF923069F0BF
:101CC0008BE690E00E94770583E292E09F938F93EA
:101CD0000E9465090F900F90BCC13D2D3770D32E27
:101CE0009091CE010913B1C0E82FE77086958695D3
:101CF0008695893120F4880F880F880F01C088EC01
:101D0000E82BE093B001E695E695E695F0E0E35523
:101D1000FE4F17828091CF01F81629F06F2DC50173
:101D200003960E94091A8091B10183FF21C081E2CC
:101D3000EDEAF1E0ACE8B1E001900D928A95E1F7AF
:101D400080919001877F8061809390018091CE0186
:101D500080938D0110938E0182E192E09F938F9387
:101D60000E9465098CE891E00E945A0B0F900F9039
:101D70008091B10184FF0FC08DEA91E00F900F9028
:101D8000DF91CF911F910F91FF90EF90DF90BF9067
:101D9000AF900C94180783E0D812EECF8DEA91E053
:101DA0000E94730B811155C198E1E9122CC08DEA94
:101DB00091E00E942B071F928F931F921F9381EF38
:101DC00091E09F938F930E9465098091CE0180934B
:101DD0008D0110938E018FEF8093920189E18093A2
:101DE000910180919001807E83608093900161E0F9
:101DF0008CE891E00E94CE080F900F900F900F900A
:101E00000F900F900CC1E9E1EE121AC08091D80139
:101E100083FF1FC1877F8093D8018DEA91E00E94E4
:101E20002B078093DA011F928F9384ED91E09F93AB
:101E30008F930E9465090F900F900F900F9009C12A
:101E40000E94B00C811105C197CF0F3F09F0AFC0C0
:101E500088EC91E09F938F930E9465090F900F90FB
:101E6000F3E0DF127CC09091D8018091CF0192FF06
:101E700050C027E0E2124DC0181709F4EAC01F92C3
:101E80001F938AEA91E09F938F930E946509612FC7
:101E9000C50103960E94091A80E00E94AC110F90C0
:101EA0000F900F900F90882309F4D3C00E94BB13AA
:101EB0006093DF017093E0018093E1019093E20170
:101EC0008AE991E09F938F930E9465090E94BB135A
:101ED0007370882799270E94EA136091D00180913E
:101EE000CE0180938D0110938E010093920188E0C2
:101EF0008093910180919001807E83608093900116
:101F00008CE891E00E94CE080F900F900F900F90F8
:101F100088C034E1E31223C0F81221C00E94BB1331
:101F20007370882799270E94EA136091CF018091EE
:101F3000CE0180938D0110938E018FEF80939201DB
:101F400085E18093910180919001807E83608093F0
:101F500090018CE891E00E94CE080E94FF0A8091D7
:101F6000CF01F81208C08091CE01181721F080919E
:101F7000D80182FD61C083E0D81609F46AC080915F
:101F8000CF01F81266C080E090E0892B09F461C0AF
:101F90008DEA91E00F900F90DF91CF911F910F91FB
:101FA000FF90EF90DF90BF90AF900C940000809175
:101FB000D80182FF4EC085E791E09F938F930E94E6
:101FC00065090F900F908091CF01F81629F06F2DC1
:101FD000C50103960E94091A93E0D9121EC088EE2B
:101FE0008E0D8230D0F48DEA91E00E942B078E3F57
:101FF000A1F01F928F9329E531E03F932F938A83BD
:102000000E9465098A8161E0680F8DEA91E00E9473
:10201000CE080F900F900F900F908DEA91E00F90E7
:102020000F90DF91CF911F910F91FF90EF90DF9074
:10203000BF90AF900C94FF0A86E891E09F938F9336
:102040000E9465098DEA91E00E94FF0A0F900F90AF
:1020500092CF0F900F90DF91CF911F910F91FF9032
:10206000EF90DF90BF90AF9008950F931F93CF93A1
:102070008091D80184FF48C00E94BB130091DB010E
:102080001091DC012091DD013091DE01005A1541F3
:102090002F4F3F4F061717072807390728F50E94CB
:1020A000BB136093DB017093DC018093DD0190939F
:1020B000DE010E94FB0381110FC089E693E09F932C
:1020C0008F930E9465090F900F908CE091E0CF9163
:1020D0001F910F910C94A4058AE593E09F938F9331
:1020E0000E9465090F900F90C6E08FEF0E94750364
:1020F00090E0959587958770992706972CF4C150A5
:1021000019F00E94040EF1CFCF911F910F91089505
:102110000E94F1050C94351026E040E052EC61E09D
:1021200070E082E393E00E943B1580E090E0892B11
:1021300011F00E9400008CEE90E09F938F930E941C
:1021400065091092200310921F0310921E0361E094
:1021500086E00E947F1261E085E00E947F1261E0CC
:1021600084E00E947F120E94070541E050E063E096
:1021700071E081ED91E00E94F1196FEF81E090E054
:102180000E94091A0E94FC050F900F908091D801BF
:1021900082FD04C0A8950E948810F8CF1092150304
:1021A00060E083E00E947F1261E083E00E94B81249
:1021B0000E94A80881110FC08DE690E00E9477056B
:1021C00080ED90E09F938F930E9465090F900F9090
:1021D0000E940705FDCF82ED92E0892B11F00E944D
:1021E000D2020E94C80B0E94DA0B80918B011F92D1
:1021F0008F938091D0011F928F938091CF011F9276
:102200008F938091CE011F928F9381E990E09F93ED
:102210008F930E9465098DB79EB70A960FB6F89402
:102220009EBF0FBE8DBF08956F927F928F929F9237
:10223000AF92BF92CF92DF92EF92FF92CF93DF9354
:102240004B015C01C42F622E0E94BB136B017C0109
:1022500081E0611080E08093B201712CD0E00E9497
:10226000BB136C197D098E099F09681579058A05CC
:102270009B0590F4711010C00E9435104091B1017F
:10228000477050E04C175D0751F78091B2018611FD
:10229000E6CF77247394E3CF872DDF91CF91FF9022
:1022A000EF90DF90CF90BF90AF909F908F907F90F6
:1022B0006F9008951F93CF93DF931F92CDB7DEB732
:1022C0009091D80193FD40C02091CE018217F1F189
:1022D00098609093D8011FEF1093DA011F928F93AB
:1022E00021E832E03F932F9389830E946509909102
:1022F000CE0190938D01898180938E01109392017C
:1023000088E18093910180919001807E8360809329
:10231000900161E08CE891E00E94CE080E94FF0AE3
:1023200029E143E060ED77E080E090E00E94141145
:102330008091D801877F8093D8018091DA010F9036
:102340000F900F900F9003C08FEF01C080E00F90AF
:10235000DF91CF911F9108950F931F93811113C0A7
:102360000E94BB130091DF011091E0012091E10177
:102370003091E201601B710B820B930B603177424D
:1023800081059105E8F180E00E945A11182F8F3FD6
:1023900049F10E94BB136093DF017093E0018093C9
:1023A000E1019093E20122E333E03F932F930E94F7
:1023B00065098091D0010F900F90181749F11F9275
:1023C0001F931F928F9322E133E03F932F930E943C
:1023D00065091093D0010F900F900F900F900F9000
:1023E0000F9016C01F921F9387EF92E09F938F93D9
:1023F0000E9465090F900F900F900F9080E009C028
:1024000081E493E09F938F930E9465090F900F9052
:1024100081E01F910F9108950E941D140E948C105D
:10242000C4EDD2E005E814E10E94820C209711F07F
:102430000E94D40201151105B9F30E948514F4CF4E
:10244000CF93CFB7F89480912403811127C0E7E29E
:10245000F4E08491E3E1F4E09491E82FF0E0EE0FF2
:10246000FF1FEB5BFB4FA591B4918C91892321F465
:1024700061E08AE00E94B81261E08AE00E947F1267
:102480008CB580618CBD8CB580648CBD61E08DE0C5
:102490000E947F1261E08BE00E947F1280912403F2
:1024A0008F5F80932403CFBFCF910895833081F055
:1024B00028F4813099F08230A1F008958730A9F096
:1024C0008830B9F08430D1F4809180008F7D03C0D2
:1024D000809180008F7780938000089584B58F77F6
:1024E00002C084B58F7D84BD08958091B0008F7740
:1024F00003C08091B0008F7D8093B0000895CF938A
:10250000DF9390E0FC01E75FFB4F2491FC01E35E69
:10251000FB4F8491882349F190E0880F991FFC01BB
:10252000EB5BFB4FA591B491855C9B4FFC01C59182
:10253000D4919FB7611108C0F8948C9120958223A3
:102540008C93888182230AC0623051F4F8948C9174
:10255000322F309583238C938881822B888304C00B
:10256000F8948C91822B8C939FBFDF91CF9108952B
:102570000F931F93CF93DF931F92CDB7DEB7282F12
:1025800030E0F901EB50FC4F8491F901E75FFB4F1C
:102590001491F901E35EFB4F04910023C9F08823F5
:1025A00021F069830E9456126981E02FF0E0EE0F5E
:1025B000FF1FE55CFB4FA591B4919FB7F8948C91F8
:1025C000611103C01095812301C0812B8C939FBFA3
:1025D0000F90DF91CF911F910F910895CF93DF93CB
:1025E000282F30E0F901EB50FC4F8491F901E75FAF
:1025F000FB4FD491F901E35EFB4FC491CC2391F0E2
:1026000081110E945612EC2FF0E0EE0FFF1FEF5CDD
:10261000FB4FA591B4912C912D2381E090E021F402
:1026200080E002C080E090E0DF91CF9108951F929A
:102630000F920FB60F9211242F933F934F935F93F6
:102640006F937F938F939F93AF93BF93EF93FF937A
:102650008091250390912603892B29F0E091250391
:10266000F09126030995FF91EF91BF91AF919F9152
:102670008F917F916F915F914F913F912F910F902B
:102680000FBE0F901F9018951F920F920FB60F92CA
:1026900011242F933F934F935F936F937F938F9367
:1026A0009F93AF93BF93EF93FF93809127039091F4
:1026B0002803892B29F0E0912703F091280309953D
:1026C000FF91EF91BF91AF919F918F917F916F910A
:1026D0005F914F913F912F910F900FBE0F901F90E0
:1026E00018951F920F920FB60F9211242F933F93BC
:1026F0008F939F93AF93BF9380912A0390912B0365
:10270000A0912C03B0912D033091290323E0230FD6
:102710002D3720F40196A11DB11D05C026E8230F19
:102720000296A11DB11D2093290380932A03909343
:102730002B03A0932C03B0932D0380912E03909133
:102740002F03A0913003B09131030196A11DB11D5B
:1027500080932E0390932F03A0933003B093310303
:10276000BF91AF919F918F913F912F910F900FBE8D
:102770000F901F9018952FB7F89460912A037091CD
:102780002B0380912C0390912D032FBF08953FB709
:10279000F89480912E0390912F03A0913003B09173
:1027A000310326B5A89B05C02F3F19F00196A11D46
:1027B000B11D3FBF6627782F892F9A2F620F711D99
:1027C000811D911D42E0660F771F881F991F4A9552
:1027D000D1F70895CF92DF92EF92FF92CF93DF93DC
:1027E0006B017C010E94C713EB01C114D104E10409
:1027F000F10489F00E9482160E94C7136C1B7D0BA6
:10280000683E734090F381E0C81AD108E108F108EE
:10281000C851DC4FEACFDF91CF91FF90EF90DF906E
:10282000CF9008958230910538F0880F991F880F56
:10283000991F05970197F1F70895789484B5826000
:1028400084BD84B5816084BD85B5826085BD85B554
:10285000816085BDEEE6F0E0808181608083E1E803
:10286000F0E010828081826080838081816080833B
:10287000E0E8F0E0808181608083E1EBF0E080813E
:1028800084608083E0EBF0E0808181608083EAE710
:10289000F0E0808184608083808182608083808199
:1028A000816080838081806880831092C100089558
:1028B000FC01818D228D90E0805C9F4F821B9109ED
:1028C0008F7399270895FC01918D828D981731F0AF
:1028D000828DE80FF11D858D90E008958FEF9FEFB9
:1028E0000895FC01918D828D981761F0828DDF0132
:1028F000A80FB11D5D968C91928D9F5F9F73928FF3
:1029000090E008958FEF9FEF089585E396E1892B7E
:1029100049F080E090E0892B29F00E943516811162
:102920000C9400000895FC01848DDF01A80FB11DF7
:10293000A35ABF4F2C91848D90E001968F739927F5
:10294000848FA689B7892C93A089B1898C918064E2
:102950008C93938D848D981306C00288F389E02DA3
:1029600080818F7D80830895CF93DF93EC01888DE4
:102970008823C9F0EA89FB89808185FD05C0A88983
:10298000B9898C9186FD0FC00FB607FCF5CF808109
:1029900085FFF2CFA889B9898C9185FFEDCFCE0153
:1029A0000E949314E7CFDF91CF910895CF92DF92E9
:1029B000FF920F931F93CF93DF931F92CDB7DEB794
:1029C0006C0181E0D60158968C9358975B969C9148
:1029D0005B975C968C915C97981307C05096ED912D
:1029E000FC915197808185FD2EC0F601038D10E08A
:1029F0000F5F1F4F0F731127F02EF601848DF81211
:102A000011C00FB607FCF9CFD6015096ED91FC919D
:102A10005197808185FFF1CFC60169830E9493148D
:102A20006981EBCF838DE80FF11DE35AFF4F60837F
:102A3000D6015B960C935B975296ED91FC91539760
:102A4000808180620CC0D6015696ED91FC9157971B
:102A500060835096ED91FC915197808180648083D2
:102A600081E090E00F90DF91CF911F910F91FF9047
:102A7000DF90CF900895BF92CF92DF92EF92FF92B6
:102A8000CF93DF93EC016A017B01B22EE889F989CB
:102A900082E08083411581EE580761057105A1F040
:102AA00060E079E08DE390E0A70196010E94831633
:102AB0002150310941095109569547953795279578
:102AC000211580E1380798F0E889F989108260E8DB
:102AD00074E88EE190E0A70196010E9483162150D0
:102AE0003109410951095695479537952795EC8548
:102AF000FD853083EE85FF852083188EEC89FD8966
:102B0000B082EA89FB89808180618083EA89FB89C0
:102B1000808188608083EA89FB89808180688083E6
:102B2000EA89FB8980818F7D8083DF91CF91FF903F
:102B3000EF90DF90CF90BF900895CF92DF92EF9209
:102B4000FF920F931F93CF93DF936C017A01EB01F8
:102B5000E60EF71E00E010E0CE15DF0561F069918A
:102B6000D601ED91FC910190F081E02DC60109950F
:102B7000080F191FF1CFC801DF91CF911F910F915D
:102B8000FF90EF90DF90CF9008956115710581F06F
:102B9000DB010D900020E9F7AD0141505109461BC2
:102BA000570BDC01ED91FC910280F381E02D09943B
:102BB00080E090E008950C94C5151F920F920FB617
:102BC0000F9211242F938F939F93EF93FF93E09194
:102BD0004203F09143038081E0914803F09149035F
:102BE00082FD12C0908180914B038F5F8F73209183
:102BF0004C03821751F0E0914B03F0E0EE5CFC4F88
:102C0000958F80934B0301C08081FF91EF919F913D
:102C10008F912F910F900FBE0F901F9018951F92BC
:102C20000F920FB60F9211242F933F934F935F9300
:102C30006F937F938F939F93AF93BF93EF93FF9384
:102C400082E393E00E949314FF91EF91BF91AF91C3
:102C50009F918F917F916F915F914F913F912F91B4
:102C60000F900FBE0F901F90189582E393E00E9483
:102C7000581421E0892B09F420E0822F0895109246
:102C800035031092340388EE93E0A0E0B0E0809327
:102C9000360390933703A0933803B09339038BE442
:102CA00091E0909333038093320385EC90E090930E
:102CB0003F0380933E0384EC90E090934103809324
:102CC000400380EC90E0909343038093420381ECB7
:102CD00090E0909345038093440382EC90E09093BE
:102CE00047038093460386EC90E0909349038093DA
:102CF000480310924B0310924C0310924D03109214
:102D00004E0308950895A1E21A2EAA1BBB1BFD01D4
:102D10000DC0AA1FBB1FEE1FFF1FA217B307E407BA
:102D2000F50720F0A21BB30BE40BF50B661F771F12
:102D3000881F991F1A9469F76095709580959095F2
:102D40009B01AC01BD01CF010895EE0FFF1F05905F
:102D5000F491E02D0994EF920F931F93CF93DF939B
:102D6000E80147FF02C034E101C034E0E42FFF274F
:102D7000E7FDF095F7FF03C0F195E195F109E32E2A
:102D8000022F2E2FAE010E941B1ACE01DF91CF9190
:102D90001F910F91EF900895FC0188279927E894DF
:102DA00021912032E9F3293010F02E30C8F32B3274
:102DB00041F02D3239F4689404C00E947F17820FCD
:102DC000911D219120532A30C0F31EF490958195D6
:102DD0009F4F08951F93FC0199278827BC01E89411
:102DE00011911032E9F3193010F01E30C8F31B3284
:102DF00051F01D3249F4689406C00E946A17610FB1
:102E0000711D811D911D119110531A30B0F33EF4C4
:102E100090958095709561957F4F8F4F9F4F1F9133
:102E20000895FB01DC0102C001900D924150504019
:102E3000D8F70895FB01DC014150504048F0019063
:102E40000D920020C9F701C01D9241505040E0F79B
:102E50000895FA01A191B081009719F41097E1F05B
:102E6000CD01DC01CD010D90002011F4C00113C093
:102E7000FB012191222319F02015D9F7F3CFFB0193
:102E80002191201519F41E92119606C02223C1F734
:102E90000D900020A1F7D001FA01A193B08308950D
:102EA000BB274A3031F4992322F4BDE290958195F5
:102EB0009F4F0C94AA17BB272A3051F4992342F450
:102EC000BDE290958095709561957F4F8F4F9F4F94
:102ED0000C948817592F482F372F262F660F771FEE
:102EE000881F991F660F771F881F991F620F731F16
:102EF000841F951F660F771F881F991F08957AE01A
:102F0000979F902D879F802D910D11240895BB27A9
:102F1000FA01A62F6217710581059105330B30FB6D
:102F200066F0AA27660F771F881F991FAA1FA2178E
:102F300010F0A21B63953850A9F7A05DAA3308F0E2
:102F4000A95DA19336F7B111B1931082CA010C9417
:102F5000871CBB27FB015527AA27880F991FAA1F8B
:102F6000A41710F0A41B83955051B9F7A05DAA33A4
:102F700008F0A95DA193009779F7B111B19311926F
:102F8000CB010C94871CAEE0B0E0E9ECF7E10C94C7
:102F9000351D0D891E898F89988D2EE02C831A830B
:102FA000098397FF02C080E090E801979E838D839C
:102FB000AE01455E5F4F698D7A8DCE0101960E940C
:102FC0001F184D815E8157FD0AC02F813885421739
:102FD00053070CF49A01F801E20FF31F10822E96AA
:102FE000E4E00C94511DAEE0B0E0E9EFF7E10C94A1
:102FF000351D8C01CA014EE04C831A83098377FF8B
:1030000002C060E070E8615071097E836D83A901A0
:10301000BC01CE0101960E941F184D815E8157FDB3
:103020000AC02F813885421753070CF49A01F80122
:10303000E20FF31F10822E96E4E00C94511DACE0D9
:10304000B0E0E5E2F8E10C94271D7C016B018A01F8
:10305000FC0117821682838181FFBDC1CE010196DA
:103060004C01F7019381F60193FD859193FF8191C6
:103070006F01882309F4ABC1853239F493FD859142
:1030800093FF81916F01853229F4B70190E00E948E
:10309000971CE7CF512C312C20E02032A0F48B324A
:1030A00069F030F4803259F0833269F420612CC029
:1030B0008D3239F0803339F4216026C022602460DB
:1030C00023C0286021C027FD27C030ED380F3A30DB
:1030D00078F426FF06C0FAE05F9E300D1124532ECF
:1030E00013C08AE0389E300D1124332E20620CC0AC
:1030F0008E3221F426FD6BC1206406C08C3611F49B
:10310000206802C0883641F4F60193FD859193FF53
:1031100081916F018111C1CF982F9F7D955493307C
:1031200028F40C5F1F4FFFE3F9830DC0833631F0A5
:10313000833771F0833509F05BC022C0F8018081CC
:1031400089830E5F1F4F44244394512C540115C0B2
:103150003801F2E06F0E711CF801A080B18026FFEB
:1031600003C0652D70E002C06FEF7FEFC5012C87B3
:103170000E947C1C2C0183012C852F77222E17C0E6
:103180003801F2E06F0E711CF801A080B18026FFBB
:1031900003C0652D70E002C06FEF7FEFC5012C8783
:1031A0000E94711C2C012C852068222E830123FC97
:1031B0001BC0832D90E048165906B0F4B70180E299
:1031C00090E00E94971C3A94F4CFF50127FC85917A
:1031D00027FE81915F01B70190E00E94971C31109A
:1031E0003A94F1E04F1A51084114510471F7E5C0C7
:1031F000843611F0893639F5F80127FF07C0608160
:103200007181828193810C5F1F4F08C06081718141
:10321000882777FD8095982F0E5F1F4F2F76B22E4F
:1032200097FF09C090958095709561957F4F8F4F5E
:103230009F4F2068B22E2AE030E0A4010E94C91CF2
:10324000A82EA81844C0853729F42F7EB22E2AE074
:1032500030E025C0F22FF97FBF2E8F36C1F018F471
:10326000883579F0B4C0803719F0883721F0AFC0C5
:103270002F2F2061B22EB4FE0DC08B2D8460B82E8E
:1032800009C024FF0AC09F2F9660B92E06C028E00F
:1032900030E005C020E130E002C020E132E0F8017A
:1032A000B7FE07C060817181828193810C5F1F4FDF
:1032B00006C06081718180E090E00E5F1F4FA40125
:1032C0000E94C91CA82EA818FB2DFF77BF2EB6FEA2
:1032D0000BC02B2D2E7FA51450F4B4FE0AC0B2FCF7
:1032E00008C02B2D2E7E05C07A2C2B2D03C07A2CE6
:1032F00001C0752C24FF0DC0FE01EA0DF11D808177
:10330000803311F4297E09C022FF06C073947394A0
:1033100004C0822F867809F0739423FD13C020FF28
:1033200006C05A2C731418F4530C5718732C7314CA
:1033300068F4B70180E290E02C870E94971C739498
:103340002C85F5CF731410F4371801C0312C24FFED
:1033500012C0B70180E390E02C870E94971C2C8557
:1033600022FF17C021FF03C088E590E002C088E774
:1033700090E0B7010CC0822F867859F021FD02C081
:1033800080E201C08BE227FD8DE2B70190E00E9450
:10339000971CA51438F4B70180E390E00E94971CB5
:1033A0005A94F7CFAA94F401EA0DF11D8081B70178
:1033B00090E00E94971CA110F5CF332009F451CE64
:1033C000B70180E290E00E94971C3A94F6CFF70193
:1033D0008681978102C08FEF9FEF2C96E2E10C94DB
:1033E000431DDC01CB01FC01F999FECF06C0F2BD03
:1033F000E1BDF89A319600B40D9241505040B8F7B3
:103400000895F999FECF92BD81BDF89A992780B5AC
:103410000895262FF999FECF92BD81BDF89A0197A4
:1034200000B4021639F01FBA20BD0FB6F894FA9A0C
:10343000F99A0FBE08956F927F929F92AF92BF92BA
:10344000CF92DF92EF92FF920F931F93CF93DF9370
:10345000CDB7DEB729970FB6F894DEBF0FBECDBF4C
:103460006A01B22E102F0C3320F4FF24F394F00ED7
:1034700002C04CE3F42E0F2D27E0AE014F5F5F4FEB
:103480000E94991B7981272F2970213031F0E1FCAE
:1034900006C0E0FC06C060E005C06DE203C06BE260
:1034A00001C060E2AE2DA07173FF36C0662311F03B
:1034B00084E001C083E08B1510F4B81A01C0B12C70
:1034C000A1110BC0F6018B2D90E2882319F0919386
:1034D0008150FBCFCB0CD11CB12C662331F0F6010F
:1034E000608396012F5F3F4F6901C6010396E2FE9C
:1034F00005C02EE4F601208331E404C02EE6F60177
:10350000208331E631832283FC012B2D30E22223FC
:10351000F1F131932150FBCF72FF40C0662311F0CF
:1035200084E001C083E08B1510F4B81A01C0B12CFF
:10353000A1110BC0F6018B2D90E2882319F0919315
:103540008150FBCFCB0CD11CB12C662331F0F6019E
:10355000608396012F5F3F4F6901C6010396E2FE2B
:1035600007C029E4F60120832EE4218326E406C067
:1035700029E6F60120832EE6218326E62283FC013C
:103580002B2D30E2222319F031932150FBCFFC0187
:10359000EB0DF11D10828EEF9FEFB7C0B1E061110E
:1035A00001C0B0E04B2F50E01816190624F49C011E
:1035B0002F5F3F4F02C021E030E0240F351F112361
:1035C00029F0412F50E04F5F5F4F02C040E050E0D4
:1035D000420F531F2B2D30E04217530714F4B41A37
:1035E00001C0B12C2E2D287159F4F6012B2D30E29B
:1035F000222319F031932150FBCFCB0CD11CB12CDD
:10360000BB2331F0F601608396012F5F3F4F6901C4
:10361000A1110BC0F6012B2D30E3222319F03193B9
:103620002150FBCFCB0CD11CB12CF80E0A81372FC7
:103630003071A32E74FF03C0013309F4FA941F14F0
:103640002CF42F2D293018F028E001C021E0682F3C
:10365000392F97FF02C060E030E0462F532F612CD6
:10366000712C3EE2932EBC01621B71099B01DC01AF
:10367000A41BB50BE1E0F0E0EC0FFD1FAE0FBF1F88
:10368000E12EF12CF194E194F1084F3FFFEF5F0739
:1036900031F4F6019082B6016F5F7F4F6B018417A2
:1036A00095074CF02417350734F4BD01660D771DDE
:1036B000FB01118101C010E341505109FFEF6F1A66
:1036C0007F0AB6016F5F7F4F4E155F0524F0F6014C
:1036D00010836B01DACF4817590739F4063320F409
:1036E000053319F4A11001C011E3F6011083FB01A9
:1036F0008B2D90E2882319F091938150FBCFFB0131
:10370000EB0DF11D108280E090E029960FB6F89441
:10371000DEBF0FBECDBFDF91CF911F910F91FF9004
:10372000EF90DF90CF90BF90AF909F907F906F9081
:103730000895283008F027E03327DA01990F311D6A
:1037400087FD916000966105710539F432602E5F46
:103750003D9330E32A95E1F708959F3F30F080389C
:103760007105610509F03C5F3C5F3D93913008F0C5
:103770008068911DDF93CF931F930F93FF92EF9279
:10378000192F987F9695E92F96959695E90FFF2723
:10379000E755FB4F99273327EE24FF24A701E701C4
:1037A00005900894079428F4360FE71EF81E491F69
:1037B000511D660F771F881F991F0694A1F705906A
:1037C000079428F4E70EF81E491F561FC11D770FF6
:1037D000881F991F661F0694A1F70590079428F487
:1037E000F80E491F561FC71FD11D880F991F661F4E
:1037F000771F0694A1F70590079420F4490F561FF0
:10380000C71FD81F990F661F771F881F0694A9F737
:1038100084911095177041F0D695C79557954795A7
:10382000F794E7941A95C1F7EFE4F4E068941590E3
:10383000159135916591959105907FE27395E11809
:10384000F10A430B560BC90BD009C0F7E10CF11E6E
:10385000431F561FC91FD01D7EF4703311F48A9583
:10386000E6CFE894015030F0080F0AF40027021761
:1038700008F4202F2395022F7A3328F079E37D93E3
:103880002A95E9F710C07D932A9589F606949795B5
:103890006795379517951794E118F10A430B560B66
:1038A000C90BD00998F023957E9173957A3308F06F
:1038B00070E37C932013B8F77E9170617D9330F0B4
:1038C000839571E37D9370E32A95E1F71124EF90DE
:1038D000FF900F911F91CF91DF91992787FD9095D0
:1038E0000895FC010590615070400110D8F7809553
:1038F00090958E0F9F1F0895FC01615070400190BC
:103900000110D8F7809590958E0F9F1F0895DC01C8
:10391000FC01672F71917723E1F7329704C07C9106
:103920006D9370836291AE17BF07C8F308950F932C
:103930001F93CF93DF93182F092FEB018B8181FD0C
:1039400003C08FEF9FEF20C082FF10C04E815F81C8
:103950002C813D81421753077CF4E881F9819F0156
:103960002F5F3F4F39832883108306C0E885F98590
:10397000812F0995892B29F72E813F812F5F3F4F9A
:103980003F832E83812F902FDF91CF911F910F9135
:103990000895FA01AA27283051F1203181F1E894E5
:1039A0006F936E7F6E5F7F4F8F4F9F4FAF4FB1E032
:1039B0003ED0B4E03CD0670F781F891F9A1FA11D2D
:1039C000680F791F8A1F911DA11D6A0F711D811D2E
:1039D000911DA11D20D009F468943F912AE0269FF3
:1039E00011243019305D3193DEF6CF010895462F52
:1039F0004770405D4193B3E00FD0C9F7F6CF462F33
:103A00004F70405D4A3318F0495D31FD405241939B
:103A100002D0A9F7EACFB4E0A69597958795779558
:103A20006795BA95C9F700976105710508959B01DF
:103A3000AC010A2E06945795479537952795BA9568
:103A4000C9F7620F731F841F951FA01D08952F9241
:103A50003F924F925F926F927F928F929F92AF921E
:103A6000BF92CF92DF92EF92FF920F931F93CF936B
:103A7000DF93CDB7DEB7CA1BDB0B0FB6F894DEBF02
:103A80000FBECDBF09942A88398848885F846E8428
:103A90007D848C849B84AA84B984C884DF80EE8072
:103AA000FD800C811B81AA81B981CE0FD11D0FB67B
:103AB000F894DEBF0FBECDBFED010895F894FFCF9F
:103AC0000000D3038000FF00FCE1A8A8340AE5054C
:103AD000260AD102C40900003B0047617465776182
:103AE00079207374617274757020636F6D706C658A
:103AF00074652E006661696C006263006F6B002163
:103B000000322E302E300000000000D6149D1558D3
:083B10001471146314B41400D5
:00000001FF
