:10000000B7C30000D1C30000CFC300000C94781325
:10001000CBC30000C9C30000C7C30000C5C30000B4
:10002000C3C30000C1C300000C945630BDC3000020
:10003000BBC30000B9C30000B7C30000B5C30000D4
:10004000B3C300000C948A0FAFC30000ADC300001F
:10005000ABC30000D0C60000A7C30000A5C30000CA
:10006000A3C30000A1C300009FC300009DC3000004
:100070009BC3000099C3000097C3000095C3000014
:1000800093C3000091C300008FC300008DC3000024
:100090008BC3000089C3000087C3000085C3000034
:1000A00083C3000081C300007FC30000632D952D32
:1000B000792E952D792EDD2D052E792E212E492E86
:1000C000426F0A43820546C40C69F42041DF1D4E8D
:1000D000A31945B01E6B422447C70C4DFF0C4B6D56
:1000E0000D55F20D59842152DA0954102856DA0AB6
:1000F000571A0A580B0F65990A66CB2B6D162D4CB3
:10010000E4076C5E0A745B0775B61A78490500004F
:10011000002A03430055004C002D004100520044CA
:1001200000550049004E004F0034003300330000FA
:10013000002A03430055004C002D004100520044AA
:1001400000550049004E004F0038003600380000CE
:10015000001603620075007300770061007200658D
:10016000002E006400650000000403090409024336
:1001700000020100803209040000010202010005B2
:1001800024000110052401030104240206052406AD
:100190000001070582030800FF09040100020A00AC
:1001A000000007050402400000070583024000002C
:1001B0001201100102000008EB034B2000000102B5
:1001C0000001202F2000203D2000072E050DD39197
:1001D000FF080500000C0021656A2D3B1322F86220
:1001E000073F181D1CC700B0876BF8B611EA2A003C
:1001F0001F41000D2E2D07D3913D04320000060053
:1002000021656A57C43023B900070018146C070031
:1002100090876BF85611E92A001F410000030F1E5A
:100220002627000000030F1E2536386700030F2520
:100230006740605000030F275188838100030F2718
:1002400050C8C3C200270000000000000067000083
:1002500000000000005000000000000000810000CD
:100260000000000000C2000000000000504C4C31B3
:100270000D0A00504C4C300D0A002028462D4261DA
:100280006E643A203836384D487A29002028462DA9
:1002900042616E643A203433334D487A2900435525
:1002A0004C2D41524455494E4F3836380043554C39
:1002B0002D41524455494E4F343333005620312E90
:1002C00032302E303620612D63756C667720427592
:1002D000696C643A20707269766174652062756930
:1002E0006C642028756E6B6E6F776E292000435505
:1002F0004C2D41524455494E4F00202F2000203DA7
:1003000020004C4F56460D0A00424F56460D0A003B
:10031000737065636966792076616C6964206D6FBE
:100320006465206E756D6265720D0A000302FF0040
:1003300000000000000000000000000000000000BD
:10034000030210881182FF0000000000000000007E
:100350000000000003071088110B0D210E6B0FD059
:100360001553FF00000000000B060D210E650F6AFB
:100370001700181819161B431C68250026110001C8
:10038000024605D4042D0302070008021089115CFF
:1003900012061556FF004552523A4343410D0A00DA
:1003A0000B08105B11F81547191D1A1C1BC71C0000
:1003B0001DB221B623EA0007022E030D04E905CA87
:1003C000070C0B060D210E650F6A10C8119312035E
:1003D00015341733181819161B43215625002611FA
:1003E00029592C812D353EC300070246030D049A7E
:1003F000057D0642070C0B060D210E650F6A10C81D
:100400001193120315341700181819161B431C6892
:1004100025002611FF000000000000000000000081
:10042000000000000D2E2D07D3913D043200000680
:100430000010B07155E43023B900070018146C07A0
:100440000090876BF85611E92A001F41000D2E2DF0
:1004500007D3913D04320000060010ABA5550A30C9
:1004600023B900070018146C070090876BF8561129
:10047000E92A001F41000D0A006B720020436865E5
:10048000636B73756D204572726F720D0A004B6F4E
:10049000707020436F6D6D616E6420556E6B6E6F72
:1004A000776E0D0A004B6F70702052656365697638
:1004B0006520537562436F6D6D616E6420556E6B80
:1004C0006E6F776E0D0A0052585F494E49545F4572
:1004D00052525F4D41524353544154455F5258006C
:1004E0006B72532D526563656976655374617274DE
:1004F0000D0A006B72452D52656365697665456E20
:10050000640D0A00204279746573206F72204B6578
:1005100079636F6465206973206E6F206865782049
:1005200076616C75650D0A004B6F707020547261B6
:100530006E736D69747420436F6D6D616E64206EAF
:100540006F7420657175616C20746F2000426C6F50
:10055000636B330D0A00426C6F636B320D0A005BF4
:100560006865785D0D0A007469636B732D426C6F6A
:10057000636B537461727454696D653A20005B68F3
:1005800065785D0D0A004B65794F666654696D6547
:100590003A2020202020202020202020005B686599
:1005A000785D0D0A00426C6F636B20537461727446
:1005B0002054696D653A2020202020005B68657812
:1005C0005D0D0A005469636B2054696D65723A20B1
:1005D00020202020202020202020005B6865785DDE
:1005E0000D0A004B65794F666654696D6520696E2A
:1005F000207469636B733A2020006D7365630D0A84
:10060000004B65794F666654696D653A202020205D
:1006100020202020202020000D0A005469636B2038
:1006200054696D65723A202020202020202020204F
:1006300020000D0A000D0A416D6F756E74206F6603
:1006400020427974657320284865782920666F7583
:100650006E6420696E7369646520636F6D6D616E91
:1006600064206C696E6520706172616D657465727D
:100670003A2020202020202020202020000D0A4E7B
:1006800065787420436861726163746572202869BB
:100690006E742920616674657220706172616D6587
:1006A000746572202873686F756C64206265206CB5
:1006B000696E6520656E642063686172616374654C
:1006C00072293A20000D0A537472696E676C656E68
:1006D0006774683A202020202000636F6D6D616E82
:1006E000646C696E65706172616D657465723A20E3
:1006F000005472616E736D6974740D0A0054585F12
:10070000494E49545F4552525F00012E4604AA5497
:100710000FE0000000060021656A97831663B94761
:10072000070C29366C074091876BF85611E92A00AF
:100730001F41004E2F4100454F420D0A004E2F41F0
:10074000004E2F410000535300547D7DFFFF4B4B63
:100750007E7E0020697320756E6B6E6F776E292028
:10076000557365206F6E65206F66003F202800007E
:1007700011241FBECFEFDAE0DEBFCDBF11E0A0E055
:10078000B1E0EAEBF8E602C005900D92A636B1079B
:10079000D9F716E0A6E6B1E001C01D92AB36B1076D
:1007A000E1F703D00C945B342BCC2FE088E190E090
:1007B0000FB6F894A895809360000FBE2093600058
:1007C00091E080E80FB6F894809361009093610007
:1007D0000FBE2E9A2D9A04B603FE11C083E390E05B
:1007E000D0D5882361F060E083E390E0C5D5F8942C
:1007F00081E085BF82E085BFE0E0F8E3099589EFFD
:1008000087BD84E085BD82E084BD80936E00109238
:1008100080008AE08093810084B7877F84BF559AE7
:100820000E94E42CB4D60E942B300E94B0270E9474
:10083000EA0E83EA9CE290936A04809369040E9422
:10084000D81989E080936A0121D75D9A0E94073107
:100850000DD20E94131045D30E94102C0E94581BE9
:100860000E94561C0E942D1E0E9464190E947E2622
:10087000EDCF292F33272230310559F023303105B0
:1008800069F02130310539F582E190E020EB31E06B
:1008900026C083E490E02DE631E021C09927813025
:1008A000910539F018F0029751F015C0E9E6F1E032
:1008B00002C0E1E5F1E0849190E09F0110C01E9933
:1008C00003C021E131E002C021E331E0E1E3F1E0E6
:1008D000849190E004C080E090E020E030E0FA01F4
:1008E0003183208308958EBD0DB407FEFDCF8EB5F4
:1008F0000895A1E0B0E0EFE7F4E00C944331482F15
:100900008A3008F048E088E0489F70011124F70120
:10091000E45EFD4F7F018BE290E0F70164918C0172
:100920000F5F1F4F498328D5FFEFEF1AFF0A498158
:100930000333110511F0C801F0CF4550453010F4D4
:1009400061E101C067E184E290E016D52196E6E01E
:100950000C945F31CF93DF9382E090E0FC01EF5085
:10096000FE4F6491EC01219607D5CB32D10511F0F1
:10097000CE01F4CF87E390E0FC01ED56FE4F649189
:10098000EC012196F9D4C036D10511F0CE01F4CF97
:100990001E9918C060E18FE090E0EED460EB80E13A
:1009A00090E0EAD461E781E190E0E6D460E184E49C
:1009B00090E0E2D460EB85E490E0DED461E786E489
:1009C00090E0DAD488E095DFDF91CF910895289800
:1009D000806C89DF80E087DF289A0895A1E0B0E08D
:1009E000E4EFF4E00C9447312898806469837BDF5E
:1009F0006981862F78DF289A2196E2E00C94633192
:100A0000289871DF289A0895EF92FF920F931F9311
:100A1000CF93DF93EC01EA98209A289A8EE190E038
:100A200022D328988EE190E01ED3289A8DE290E0A0
:100A30001AD380E3E5DF84E690E015D3289880E4BC
:100A400052DF7E0189E2E80EF11C8E010F5F1F4F1D
:100A5000CE0197D448DF0E151F0511F0E801F5CF40
:100A6000289A28988EE73FDF8BE290E0EC012196F0
:100A700088D439DFC333D10511F0CE01F7CF289ADE
:100A800083E3BEDF81E0F4D2CDB7DEB7E6E00C94BD
:100A90005F31A1E0B0E0EFE4F5E00C94473122E0F3
:100AA000298341E0BE016F5F7F4F01960AD489819F
:100AB00020DF82E090E0A8DF2196E2E00C94633131
:100AC000CF93EA9886E39CDFCFEF85E399DFC150AF
:100AD0008077803229F08AE090E0C5D2C111F5CF4D
:100AE000CF910895CF93CFEF84E38ADFC150807711
:100AF000803129F08AE090E0B6D2C111F5CFEA9AB0
:100B0000CF910895A2E0B0E0E8E8F5E00C9445311B
:100B10008C01FC0181818737E9F441E0BE016F5F00
:100B20007F4FC8010296CDD3892BA1F041E0BE01D1
:100B30006E5F7F4FC8010496C4D3892B59F06A8138
:100B400089814CDF83E35CDFCDDF8981B6D38A8185
:100B5000B4D32CC041E0BE016E5F7F4FC801019647
:100B6000B0D3892B21F18A81893969F410E0812F72
:100B70002EDFA3D3812F8770873009F42AD31F5F1C
:100B80001033A9F714C023DF182F83E4D6D28A814B
:100B900094D386EC91E010D3812F8FD382EC91E037
:100BA0000BD340E262E0812F90E017D312D322965C
:100BB000E4E00C94613186E323DF10926B04109221
:100BC0000B03089582E090E01FDF81E080936B04C7
:100BD00010920B0308950F931F93CF93DF93082F69
:100BE00010E0C62FD0E085E3F2DE801731F0CE01B1
:100BF0003AD21150C1F781E001C080E0DF91CF917E
:100C00001F910F91089585E2E2DE8F3311F080E0AD
:100C1000089586E3F5DE80916601811104C083E7C3
:100C200092E0CAD202C08DE3EBDE83E3E9DE64E04A
:100C300081E0D1DF85E2CBDE8F3349F78091660119
:100C4000811103C08CE692E0B7D281E0089585E37C
:100C5000BEDE8D3051F485E2BADE8F3331F4D3DF5E
:100C600084E3CEDE80778031D9F7089580915C06E9
:100C7000843009F069C08093E90080916701811197
:100C80002AC08091E80085FF26C08091F2009091F3
:100C9000F300892B31F06091F10085ED95E0ACD443
:100CA000F4CF8091E800982F9B7F9093E8008F7796
:100CB0008093E80081E08093670186E396E090935B
:100CC000670480936604E0916904F0916A0481E00E
:100CD00009951092670183E08093E90080915405A3
:100CE000882391F18091E80085FF2EC0F8948091CF
:100CF0005405882369F08091F2009091F3008034CC
:100D0000910530F482E595E08DD48093F100EFCF2A
:100D100078948091F2009091F3002091E800322FB6
:100D20003E7F3093E8002F772093E80080349105D0
:100D300059F40E94CF2E8091E800982F9E7F9093C7
:100D4000E8008F778093E800089542E061EC82E04C
:100D50000E947F2E42E361E883E00E947F2E42E3FF
:100D600060E884E00E947F2E109200011092010141
:100D70001092020110920301089580915D069091F6
:100D80005E06913229F0923261F1903299F512C0EB
:100D9000813A81F58091E800877F8093E80067E0E1
:100DA00070E080E091E00E94F82E8091E800982F9A
:100DB0009B7F11C08132F1F48091E800877F80939E
:100DC000E80067E070E080E091E00E94A22F80914F
:100DD000E800982F9E7F9093E8008F778093E8003B
:100DE0000895813239F48091E800877F8093E8008C
:100DF0000C94A92E08951F920F920FB60F921124F2
:100E00008F939F93AF93BF93EF93FF9380916D0464
:100E100090916E04A0916F04B09170040196A11D91
:100E2000B11D80936D0490936E04A0936F04B093F2
:100E3000700480916C048F5F80936C04E3E1F5E0B3
:100E400080819181181619061CF401979183808383
:100E5000369685E0EB32F80799F780912D05909151
:100E60002E05009729F0019790932E0580932D056C
:100E7000809140058F3F19F0815080934005FF918C
:100E8000EF91BF91AF919F918F910F900FBE0F90F7
:100E90001F9018952FB7F89440916D0450916E04EF
:100EA00060916F0470917004FC01408351836283F0
:100EB00073832FBF0895A4E0B0E0E1E6F7E00C945F
:100EC0004731CE010196E6DF8C81F7D18B81F5D1D8
:100ED0008A81F3D18981F1D17CD12496E2E00C940E
:100EE00063311F93CF93DF9380916D0490916E04D3
:100EF000A0916F04B091700420916901281709F442
:100F00005FC080916D0490916E04A0916F04B091C8
:100F1000700480936901A895C3E1D5E010E02881B1
:100F20003981232B19F4812F0E943E2A1F5F2696B8
:100F30001430A9F780912D0590912E05892B11F47D
:100F40000E949A2A80914005811102C00E94F62ACF
:100F50008091FF04882339F081508093FF04811130
:100F600002C00E94ED1B80916C048D3748F11092F5
:100F70006C048091070181FF04C08BB190E2892746
:100F80008BB98091710490917204843823E09207A8
:100F900028F4019690937204809371048091680103
:100FA0008F5F809368018C3359F4109268018091AF
:100FB00012058F5F809312058C3310F0109212058A
:100FC000DF91CF911F910895EF92FF920F931F939E
:100FD000CF93DF938C016EE070E00E9406348D3079
:100FE00009F03CC05D9880916B04811101C0EADD7D
:100FF00067DD84E0F82E5B9A88EE93E034D0C1E0A0
:10100000D0E0EE24E394F801EC0FFD1F80818133E2
:1010100009F0E12C5B98EE2019F088EE93E002C015
:1010200080ED97E020D05B9AEE2019F080ED97E0FC
:1010300002C088EE93E017D02196CD30D10509F794
:101040005B9883E215D0FA94B1F6809173048823FB
:1010500011F048DD02C086E3D3DC5D9ACDB7DEB780
:10106000E6E00C945F31880F991F0197F1F708951E
:1010700020ED37E0815020F0F9013197F1F7FACFF8
:101080000895CF93DF93DC0113968C9113978435E9
:1010900009F050C0CD010396CC91FD0170964DE052
:1010A0004C1750F050E0D0E09E012F50310942170C
:1010B000530709F03FC005C021912B3399F34F5FCF
:1010C000EFCFFE013E97E80FF91F2081243591F5FF
:1010D00014963C911497218132132CC015963C91A3
:1010E00015972281321326C016963C9116972381BC
:1010F000321320C017963C911797248132131AC0DF
:101100006197C80FD91F85818883868189838185EE
:101110008A8382858B8383858C8384858D83858573
:101120008E838C918A508C9312968C9112978A5050
:1011300012968C93DF91CF910895CF93C82F809111
:101140005C06843079F480916A0180FF0BC0809145
:10115000540587FD8BDD6C2F82E595E04DD2CA30BA
:1011600009F484DD80910A058823C9F080916A0121
:1011700083FF15C0CA3099F0CD3011F46BE301C084
:101180006C2F8AE794E038D2CD3019F48AE794E0E6
:1011900078DF83E08093FF0482E080930505CF91A0
:1011A0000895CF93DF93EC018991882311F0C5DF77
:1011B000FBCFDF91CF910895CF93DF93EC01FE0138
:1011C0008491882319F0B9DF2196F9CFDF91CF916F
:1011D00008958DE0B2DF8AE0B0CFA6E0B0E0E3EFA3
:1011E000F8E00C944531062F1E8215E02AE030E02D
:1011F0001150E1E0F0E0EC0FFD1FE10FF11DB9012E
:101200000E942331805D8083CB010150009769F0FB
:101210001111EECF0AC0112359F01150E1E0F0E0B6
:10122000EC0FFD1FE10FF11D4083015007FFF3CFCD
:1012300081E090E08C0F9D1F810F911DB2DF2696FB
:10124000E4E00C946131A5E0B0E0E9E2F9E00C944F
:1012500047311D8224E0382F3F702150E22FF0E00B
:101260003A3010F4305D01C0395CA1E0B0E0AC0F61
:10127000BD1FEA0FFB1F308334E0969587953A95A2
:10128000E1F76150009739F7615067FD0BC02223E9
:1012900049F02150E1E0F0E0EC0FFD1FE20FF11DFD
:1012A0004083F2CF81E090E08C0F9D1F820F911D53
:1012B00078DF2596E2E00C94633140E362E090E051
:1012C000C2CFDC01FB0130E090E08D918823A9F0D2
:1012D000813608F0805220ED280F2A3030F02FEBB5
:1012E000280F263030F429EC280F292B332379F0EE
:1012F00006C0803251F38A3341F3CF0105C0CF01DC
:1013000001962083415041F4861B970B0895922F3C
:101310009295907F31E0D9CFFC01D5CF20E030E02D
:101320005AE0FC014191CF01442379F0E0EDE40F54
:10133000EA30B8F7F9015E9F90015F9F300D1124EC
:1013400020533109240F311DECCFFB013183208361
:101350000895982F92959F709A3010F4905D01C077
:10136000995CFB0190838F708A3010F4805D01C01E
:10137000895CFB01818308950E941934F999FECF9D
:1013800008950C94113408951F93CF93DF93162F73
:1013900011501F3F59F0EC012196F3DF8EDF11232E
:1013A00011F08AE3CADE1150CE01F3CFDF91CF9165
:1013B0001F910895A2E0B0E0E0EEF9E00C94443112
:1013C000FC0121812D3421F466E08AEF93E005C011
:1013D000203529F460E18AED93E0D6DF26C01A8239
:1013E000198242E0BE016F5F7F4F01966ADF09817B
:1013F00010E0823021F4102F00278A81082BC801C9
:10140000C0DFF82E82E599DE40E364E0C8011BDF0F
:101410008EEF92E0D1DE8F2D50DF8AEF92E0CCDEAE
:1014200040E262E08F2D90E0D8DED3DE2296E5E048
:101430000C946031A6E0B0E0E0E2FAE00C944131B7
:101440006C0143E0BE016F5F7F4F01963ADF82304F
:1014500088F1098110E0823021F0102F00272A81C5
:10146000022B7C01FF24FE01EE0DFF1D6081C801EF
:1014700083DFC8010F97039708F408D1EE0CFF1C17
:101480008FEFE81AF80AEC0CFD1CF7018081882325
:1014900089F041E0BE016F5F7F4FC70112DF892BEA
:1014A00049F00F5F1F4F6981C80166DFE2E0EE0E71
:1014B000F11CEBCF2696E8E00C945D3141E067E04B
:1014C00071E00196FEDE8091070180FF02C05D9809
:1014D00001C05D9A6091070184E390E04DCFA1E0E7
:1014E000B0E0E5E7FAE00C9447311982009731F05B
:1014F00041E0BE016F5F7F4F0196E3DE89818F3F40
:1015000009F4FFCF882321F061E083E390E034DF2A
:101510000E94363010926E00F89428E088E190E046
:101520000FB6F894A895809360000FBE20936000DA
:10153000FFCFCF93DF93EC0161E080E090E01CDF10
:1015400064E181E090E018DF05DAA0D060E080E699
:1015500090E012DF60E081E690E00EDF60E083E380
:1015600090E00ADF62E084E390E006DF60E080E67E
:1015700090E002DF60E081E690E0FEDE898188375E
:1015800019F080E090E0ABDFDF91CF91089580E02B
:1015900090E0F7DE813029F481E090E0F2DE8431E2
:1015A00019F080E090E0C5DF84E390E0EADE80930C
:1015B00007010895FC018181883419F48EEE92E0D0
:1015C00014C08CEB92E0F8DD1E9903C08DEA92E026
:1015D00002C08EE992E0F0DD80916C01813019F457
:1015E0008CE892E002C08AE792E0E6DDF2CDFC01F1
:1015F0001282108211820895FC018FB7F8949281B3
:1016000097FD0EC09F5F9283208191E0920F90839F
:10161000DF01A20FB11D13966C93903809F410826C
:101620008FBF0895FC019FB7F8948281882371F0E1
:1016300081508283818121E0280F2183DF01A80F5F
:10164000B11D13968C91203809F411829FBF089523
:10165000A2E0B0E0EEE2FBE00C9447311A8219827E
:1016600042E0BE016F5F7F4F2CDE9981823039F4FA
:10167000892F90E0982F88272A81822B02C0892FFA
:1016800090E07FDE2296E2E00C946331CF93DF930B
:101690008AE591E0DDDFD82F8DE591E0D9DFC82F15
:1016A00080E691E0D5DF4D2F50E060E070E0332719
:1016B0002227280F311D411D511D8C2F90E0982F9E
:1016C0008827280F391F411D511DAAE1B0E00E9453
:1016D0001931853F914010F082E001C081E0809394
:1016E0006C01DF91CF910895FA013081882369F070
:1016F000E1E0F0E0022E01C0EE0F0A94EAF7DB0110
:10170000A30FB11D9C919E2B9C93222319F08FEF68
:10171000820F0BC081E0830F8C3010F4FA018083BC
:10172000FB01E80FF11D108287E090E00895CF9350
:10173000C82F5B9A882319F080916E0102C08091B6
:10174000700120E1829FC00111248DDC5B98CC23C5
:1017500019F080916D0102C080916F0120E1829F9C
:10176000C001112480DCCF910895A0E0B0E0EBEB44
:10177000FBE00C9437315C01162F622EC42FD0E0B1
:101780004091710450917204CE010296089F802D01
:101790001124992787FD90954817590720F482E076
:1017A00093E00ADD66C0481B590B509372044093C6
:1017B00071045D9880916B04811101C003DA80D9B6
:1017C000812E912CCC24C394D12C712CF12C8F2DF3
:1017D000992787FD90958815990524F480E0A7DF67
:1017E000F394F5CF112311F081E0A1DFF12C4F2C00
:1017F000552447FC50944C165D062CF097E0392E8A
:101800004A0C5B1C15C087E0282E312C4A0C5B1C4F
:10181000C601022C01C0880F0A94EAF7F2019081F8
:10182000892385DFF1E02F1A310890F7F394DFCF99
:10183000832D992787FD90956816790664F4C60173
:10184000032C01C0880F0A94EAF7F20190818923E2
:101850006EDF3A94EDCF8E2D0BDC015009F0B6CF40
:1018600080917304882311F03DD902C086E3C8D863
:101870005D9ACDB7DEB7E2E10C945331ADE0B0E054
:10188000E4E4FCE00C943A317C01162F842F022F03
:101890006701C60ED11C462FB701D2D2D6018C9358
:1018A0001F5F1D8619825E2C670127E06624639402
:1018B000712C8C2D8519811788F547E0A42EB12C49
:1018C0004701880E911CF3010A2C01C0EE0F0A9407
:1018D000EAF7D4018C91AE01435F5F4FBE016F5FA9
:1018E0007F4F8E2301DF282FB1E0AB1AB10858F7E4
:1018F000D6018D916D01082E82958025082E869542
:10190000869580258F5F86958170AE01435F5F4F1E
:10191000BE016F5F7F4FE8DE282FCBCF222311F06F
:10192000215004C08D858F5F8D8727E089E18093EA
:101930006F018093700185E280936D0180936E0149
:101940003AE0E32E4D856CE0CE0101960EDF2D9638
:10195000EFE00C945631ADE0B0E0E1EBFCE00C942C
:101960004631162F242F4BE0BE016F5F7F4F01964B
:101970002D87A7DC2D85412F682FCE0101967EDFB4
:101980002D96E3E00C94623143E066E0E4CFEF9201
:101990000F93CF93DF93CDB7DEB760970FB6F89470
:1019A000DEBF0FBECDBF40E1BE016F5F7F4F01962E
:1019B00088DC69814A810B818C81809370018D81E3
:1019C00080936F018E8180936E018F8180936D0172
:1019D000E02EE2947FE0E7220F70242F2F704295D3
:1019E0004F70CE010896C1DE60960FB6F894DEBF48
:1019F0000FBECDBFDF91CF910F91EF900895A9E178
:101A0000B0E0E5E0FDE00C943F314BE0BE016F5FDC
:101A10007F4F019656DC182F893009F05AC099E1A2
:101A200090936F019093700190936E0182E3809385
:101A30006D0169E0CE0101960DD2E1E0F0E0EC0F1E
:101A4000FD1FE10FF11D8083198E1D86CE010196C9
:101A50007C016E019BE0C90ED11C27E0AA24A3944F
:101A6000B12CEC14FD0429F100E010E0F501002E8A
:101A700001C0EE0F0A94EAF7D7018C91AE01475EE0
:101A80005F4FBE01635F7F4F8E232EDE282F0F5FD7
:101A90001F4F0830110551F7AE01475E5F4FBE0181
:101AA000635F7F4F81E020DE282FBFEFEB1AFB0A38
:101AB000D8CF222311F0215004C0898D8F5F898FE8
:101AC00027E0EAE0EE2E03E0498D6CE0CE010D96B2
:101AD0004CDE6996EAE00C945B31A9E1B0E0E3E703
:101AE000FDE00C943E314BE09E012F5F3F4F7901AA
:101AF000B9010196E6DB182F85E38093700196E12A
:101B000090936F0190936E0180936D01612FC701D7
:101B1000ADD1F701E10FF11D808399249394910ECB
:101B2000198E1D86870127E0AA24A394B12C802F4B
:101B30008E19891508F04AC0C12CD12CF5010C2C46
:101B400001C0EE0F0A94EAF7D8018C91AE01475E0E
:101B50005F4FBE01635F7F4F8E23C6DD282FBFEF2F
:101B6000CB1ADB0A34E0C316D10441F7AE01475E5D
:101B70005F4FBE01635F7F4F81E0B6DD282FB4E089
:101B8000CB2ED12CF5010C2C01C0EE0F0A94EAF7F4
:101B9000D8018C91AE01475E5F4FBE01635F7F4FFE
:101BA0008E23A2DD282FBFEFCB1ADB0A38E0C31645
:101BB000D10441F7AE01475E5F4FBE01635F7F4FC7
:101BC00081E092DD282F0F5F1F4FB1CFAAE0EA2EF0
:101BD00003E0498D6AE0CE010D96C7DD6996EBE022
:101BE0000C945A31EF920F93CF93DF9300D000D033
:101BF000CDB7DEB743E0BE016F5F7F4F019661DB7B
:101C00008AE68093700194E290936F0191E2909341
:101C10006E0180936D0180E88C839FE0E92E03E0E4
:101C200026E043E060E0CE0101969FDD0F900F902B
:101C30000F900F90DF91CF910F91EF9008954F92F9
:101C40005F926F927F928F929F92AF92CF92EF921C
:101C5000FF920F931F93CF93DF931092B001FC017B
:101C60002181220F220F220F3381231BA7E09A2EFE
:101C7000920E1092D802F12CB8E0AB2EA20EB1E079
:101C8000A7E0C7E0EC2EC12C70E007E010E0C1E057
:101C9000D0E0BA1509F47FC0FC01EC0DF11D2481E0
:101CA00030E00E2C02C0359527950A94E2F721709A
:101CB0003327E22FEE2011F0EA9403C0C394F7E03B
:101CC000EF2E6B3461F4A33009F048C0F11005C069
:101CD000E1115DC01092B0016DC0F12C41C0AF3F69
:101CE00031F56634A9F4E72FF0E0E852FD4FE081CA
:101CF0000E2EE295E0250E2EE695E695E025EF5FA7
:101D0000E1FB662460F8712C6216730641F004C092
:101D1000653429F4E11103C0F092B0014BC07F5F3C
:101D2000E72FF0E0E852FD4F1082A7E032C0EE232B
:101D300061F1663471F4E72FF0E0E852FD4F8080E6
:101D40009E010A2E01C0220F0A94EAF7822A80829D
:101D50001CC0653439F06B34C1F404C0AF3FD1F21C
:101D6000EE2399F0E72FF0E0E852FD4F98012A1B8F
:101D70003109A7FD33952E0102C0440C551C2A954C
:101D8000E2F792013081322B3083A15002C0FF2450
:101D9000F394BF5F7ECFF092B0019B1658F4653488
:101DA00011F4AF3F09F0F1107F5FFA01708381E019
:101DB000711101C080E0DF91CF911F910F91FF90D1
:101DC000EF90CF90AF909F908F907F906F905F90AB
:101DD0004F900895539A5B985298E9E6F0E080811D
:101DE0008061808382EC91E090937204809371040F
:101DF0001092FD011092460210928F0210926B0415
:101E0000089580917304882321F00E94E2050C94C8
:101E100072050C94DB05FC01218121110BC080911E
:101E200073044BDA40E265E0809171049091720492
:101E3000D4D9CFC941E063E774E0019642DAE1CF3B
:101E4000442339F04150FB01E40FF11D9081890FCB
:101E5000F7CF089520E0662339F06150FC01E60FCA
:101E6000F11D30812327F7CF822F0895A091B00173
:101E700040E035E020E0662399F06150FC01E60F78
:101E8000F11D5081752F72957F702727370FAA2378
:101E900011F0442319F05F702527350F4F5FEBCF0A
:101EA000320F40E1349FC0011124822B0895FC01C0
:101EB000908180916804993611F0933761F4982FDE
:101EC0009370913011F4826008C080FF02C08B7F54
:101ED00005C08D7F03C080FD03C0846080936804CB
:101EE0000895109278011092770110926F00E0919E
:101EF000B30189E4E89FF0011124EC54FE4F1082F5
:101F0000809168048D7F80936804109289001092FC
:101F1000880008951F920F920FB60F9211242F93ED
:101F20003F934F935F936F937F938F939F93AF9361
:101F3000BF93EF93FF9310926F0080918800909170
:101F4000890020E23EE4309389002093880090933A
:101F50008500809384008091730483FF02C08EE229
:101F6000ECD88091B30199E4899FF0011124EC54DD
:101F7000FE4F9081933018F09181923010F4B1DFD0
:101F800017C09091B101933041F48091730482FFA6
:101F9000F6CF89E093E010D9F2CF9F5F9093B10123
:101FA0008F5F843019F08093B30102C01092B301A7
:101FB000FF91EF91BF91AF919F918F917F916F9121
:101FC0005F914F913F912F910F900FBE0F901F90F7
:101FD0001895DC0112962D913C91139750E0F90170
:101FE000E41BF50B8D919C91EC30F105D4F4E53FA9
:101FF000FF4FBCF070E0FC01E61BF70BEC30F10585
:1020000084F4E53FFF4F6CF0280F391F640F751FF4
:10201000261B370B2C30310524F481E0253F3F4F40
:102020000CF480E00895A2E0B0E0E9E1F0E10C9466
:1020300043311A8219828091730190917401892B26
:10204000A1F18091730487FF16C084E30E94E70426
:102050008058803458F0803C58F490E080559109C5
:1020600063E0959587956A95E1F703C080E001C02C
:102070008FE08F5962D88091730483FF12C082E78A
:102080005CD88091730484FF03C08091750155D89A
:1020900086E653D88091730484FF03C08091730156
:1020A0004CD810927401109273018091B101882371
:1020B00009F40AC35D980091B20189E4089F800188
:1020C00011240C541E4F9E012F5F3F4F48ED52E0EC
:1020D000BE016E5F7F4FC8010DD79E012F5F3F4F3E
:1020E00048ED52E0BE016E5F7F4FC8019DD79E0153
:1020F0002F5F3F4F48ED52E0BE016E5F7F4FC8013A
:102100000E948A1880916C01F8013081813039F584
:102110008A81811124C03D3011F52181E8EDF2E082
:1021200080E090E0821740F4D801A80FB91F149600
:102130004C9141930196F6CFF8018381873061F08D
:10214000822F90E0FC01E852FD4FD801A80FB91F83
:1021500014968C9180832F5F29838FE68A838A81EE
:10216000811124C03B3011F5F8012181E8EDF2E046
:1021700080E090E0821740F4D801A80FB91F1496B0
:102180003C9131930196F6CFF8018381873061F05D
:10219000822F90E0FC01E852FD4FD801A80FB91F33
:1021A00014968C9180832F5F29839FC0333009F070
:1021B0009CC081113AC0AE014F5F5F4F66E4C80119
:1021C0003EDD882391F1F980FA94F9824F2D68ED74
:1021D00072E086E035DEEF2DF0E0E852FD4FE08062
:1021E0008E1105C093E09F1510F486E41BC0282FC4
:1021F00030E02F5F3F4F6E2D70E02617370739F420
:1022000093E09F1520F496E49A8380830EC04F2DAF
:1022100068ED72E08CE014DE8E1106C0E3E0EF158D
:1022200018F484E58A8301C01A8280916C0182309F
:10223000D1F48A81811117C0AE014F5F5F4F65E411
:10224000C801FDDC882379F0898181508983893038
:1022500051F469E088ED92E0FDDD9091E10289138F
:1022600002C085E48A839E012F5F3F4F48ED52E014
:10227000BE016E5F7F4FC80109D78A81811135C0C9
:10228000F801208145AD60917501C801CB96A1DEB2
:10229000682FC801B5D5AE014F5F5F4F6BE4C80131
:1022A000CEDC8823A1F0F980FA94F9826F2D88EDB5
:1022B00092E0DCDDEF2DF0E09091B001E91BF10937
:1022C000E852FD4F9081891302C08BE48A838A8192
:1022D00081110BC0F801838191E0980F93838730BF
:1022E00021F413828181815081833A81332309F45F
:1022F000F9C02091730420FFF5C0809168048E7F9F
:102300008B7F8093680421FD63C05091AF01F980F9
:102310005F113DC040E04517C0F4842F90E061E0BC
:10232000640FFC01E358FE4FDC01A852BD4F7081E1
:102330008C91781741F04093AF01809168048D7FB4
:102340008093680404C0462FE6CF4093AF01451345
:102350001EC040916D0450916E0460916F047091A5
:1023600070048091790190917A01A0917B01B091E4
:102370007C01481B590B6A0B7B0B463251056105EA
:10238000710528F48091680481608093680440E0BE
:102390004F1560F4842F90E0FC01E358FE4FDC0100
:1023A000A852BD4F8C9180834F5FF2CF4093AF0115
:1023B00080916D0490916E04A0916F04B0917004AF
:1023C0008093790190937A01A0937B01B0937C0173
:1023D0003435E1F426FD1AC089818530B8F080914A
:1023E000DA028B3471F0893661F09DEA980F9230F1
:1023F00040F08D57823028F08091DB028077803763
:1024000029F480916804816080936804B801CE014A
:1024100002964DDD8091680482FF64C08A810E942B
:102420009D08F80180818A3019F488E60E949D0891
:10243000F80180818D3019F48DE60E949D0880910D
:10244000B001882319F0898181508983F12CE981B9
:10245000FE1648F4EF2DF0E0E852FD4F80810E9417
:102460005D09F394F4CF8091B001882351F0F0E03E
:10247000E852FD4F80818F7040E361E090E00E9460
:1024800023098091730485FF05C084E30E94E7045B
:102490000E945D09F8018081883011F58BE30E946C
:1024A0009D08F801ED5BFF4F8081918140E265E07E
:1024B00034E0880F991F3A95E1F70E94ED088AE30E
:1024C0000E949D08F801EB5BFF4F8081918140E203
:1024D00065E054E0880F991F5A95E1F70E94ED08D6
:1024E0000E94E9088091730482FFCCC080E70E94BB
:1024F0009D08F801808140E262E090E00E94ED08D2
:10250000F80187A990AD40E265E024E0880F991FAB
:102510002A95E1F70E94ED08F80181AD92AD40E205
:1025200065E034E0880F991F3A95E1F70E94ED08C5
:10253000F80183AD94AD40E265E054E0880F991F47
:102540005A95E1F70E94ED08F80185AD96AD40E29D
:1025500065E074E0880F991F7A95E1F70E94ED0815
:10256000F801FF968081918140E265E0E4E0880F08
:10257000991FEA95E1F70E94ED08F801EF5BFF4F24
:102580008081918140E265E0F4E0880F991FFA951F
:10259000E1F70E94ED08F80186A940E264E090E0CE
:1025A0000E94ED08F801828140E263E090E00E9421
:1025B000ED08F801818140E263E090E00E94ED08BF
:1025C000F801238140E262E087E090E0821B9109FC
:1025D0000E94ED0880E20E949D08F801ED5BFF4F2C
:1025E0008081918140E265E0A4E0880F991FAA955F
:1025F000E1F70E94ED0880E20E949D08F801EB5B84
:10260000FF4F8081918140E265E0B4E0880F991F1F
:10261000BA95E1F70E94ED0880E20E949D08F8015A
:10262000E95BFF4F8081918140E265E024E0880F03
:10263000991F2A95E1F70E94ED0880E20E949D080B
:102640008091730485FF08C084E30E94E7040E9420
:102650005D0980E20E949D08F8018381873019F0AE
:1026600081818F5F8183F12CF8018181F81640F41C
:10267000F801EF0DF11D84810E945D09F394F4CF00
:102680000E94E908F801108216AA109278011092AF
:1026900077018091B10181508093B1018091B201A5
:1026A0008F5F843019F08093B20102C01092B201A2
:1026B0005D9A80916C01823039F48A81843521F4ED
:1026C00088ED92E00E94052B2296E6E00C945F31A3
:1026D0009BED980F973150F496EF960F9D3130F4A3
:1026E00091E0681708F090E0892F089580E0089540
:1026F0001F920F920FB60F921124FF920F931F9308
:102700002F933F934F935F936F937F938F939F93F9
:10271000AF93BF93CF93DF93EF93FF9380915105D6
:10272000882321F082E080935105F9C28091000551
:10273000823021F483E080930005F1C2609184002F
:1027400070918500A4E076956795AA95E1F7C09110
:10275000B30129E4C29FE0011124CC54DE4F4A9911
:102760005DC0709376016093750188818D3009F0AA
:10277000D6C28E01095B1F4FF80120813181C9014A
:10278000969587956817790740F0C901880F991FBA
:10279000820F931F8617970718F482E08883BFC2C1
:1027A0008FA998ADEBADFCAD260F371FAF01480FD9
:1027B000591F5695479542175307E8F48E2FD9D2E3
:1027C00090E09CAF8BAFF801208131814091750181
:1027D00050917601BA016A5071098091710190910E
:1027E00072016217730728F4465F5F4F241735079D
:1027F00050F0029609C0BDD290E098AF8FAB8091A7
:102800007101909172010196909372018093710110
:102810008091710180FF83C261E06CC0809175017D
:1028200090917601681B790B70937401609373012A
:10283000109285001092840082E086BB88818D30E2
:1028400009F05BC060917301709174018E01095BA6
:102850001F4FF80120813181C9019695879568172E
:10286000790740F0C901880F991F820F931F8617BF
:10287000970718F482E0888340C089AD9AADEDAD2A
:10288000FEAD260F371FAF01480F591F56954795CC
:1028900042175307E8F48E2F6CD290E09EAF8DAFB5
:1028A000F801208131814091730150917401BA0186
:1028B0006A507109809171019091720162177307DA
:1028C00028F4465F5F4F2417350750F0029609C081
:1028D00050D290E09AAF89AF8091710190917201CE
:1028E000019690937201809371018091710180FF34
:1028F00016C260E0CE0184D212C21881123009F4EF
:10290000CDC018F4112369F0D1C1163009F4C7C144
:102910001B3009F415C1CAC18A81843008F0E0C0B7
:10292000188218AE1FAA1AAE19AE1CAE1BAE1EAE90
:102930001DAEFE01FF9611821082FE01EF5BFF4F7C
:102940001182108210927201109271018E01095B46
:102950001F4FF801118210821EAA198287E08B8313
:102960001C8243E751E065E771E0CE0101D481119B
:10297000D6C18091750190917601FE01ED5BFF4F0C
:10298000918380832091730130917401FE01EB5B90
:10299000FF4F3183208360916C01613081F4AC0181
:1029A0004A5051094A32510550F4A901495C510974
:1029B000423A524040F48BE088836A83BDC085363A
:1029C000910508F0ACC12536310508F0A8C198AFD3
:1029D0008FAB3AAF29AF41E04A8342E04883613090
:1029E00009F09DC1A9014A5051094817590730F40F
:1029F000A901465F5F4F84179507E0F0A901455094
:102A00005048440F551F4817590728F44C5E5F4F34
:102A10008417950778F036952795A9014A505109F2
:102A20004817590708F07BC1265F3F4F821793076D
:102A300008F075C12DE028839C0136952795F80193
:102A40003183208341E050E0509372014093710143
:102A50002231310510F491838083F80180819181C6
:102A60000C97C39710F082E0888380EA9FE09093F0
:102A700089008093880082E080936F0080917301C9
:102A8000909174019EAF8DAF809175019091760108
:102A90009CAF8BAF61E0CE01B3D1D4CE1091750164
:102AA00022E040917301612FCE01C79692DA88230C
:102AB00009F432CF612F8FA95CD190E098AF8FAB32
:102AC0006091730189AD55D190E09AAF89AFFE0155
:102AD000E95BFF4F118210828A818F5F8A831FC159
:102AE00080EA9FE090938900809388008091790428
:102AF000882381F06091730180917501E9DD88235D
:102B000049F06FA989ADE4DD882321F081E080934D
:102B1000000504C183E0888380917501909176015E
:102B20009CAF8BAF80917301909174019EAF8DAF7C
:102B3000198287E08B831C8282E080936F00EFC054
:102B400080917301909174018735F1E09F0708F03F
:102B5000E6C020917501309176016EA9AC014A5012
:102B600051094217530748F4AC01465F5F4F2417E1
:102B7000350718F4662309F4D3CE6830A8F54091E0
:102B80007701509178014217530720F43093780170
:102B90002093770120917701309178012817390728
:102BA00020F490937801809377016730E9F42091C5
:102BB00077013091780121153105B1F0FE01EB5B11
:102BC000FF4F80819181821B930B969587959695F7
:102BD0008795820F931FE4E0880F991FEA95E1F72C
:102BE00090938900809388002EA980917301909121
:102BF0007401211108C0209175013091760138AF20
:102C00002FAB9AAF89AF80379105A8F4FE01EB5B3B
:102C1000FF4F208131812A31314080F020917501B0
:102C200030917601245F3F4F8217930710F460E0E4
:102C300029C061E013C08C39910518F5FE01EB5BEA
:102C4000FF4F20813181293371E0370730F48D3512
:102C50009105B8F428333140A1F060E0CE01D0D026
:102C6000FE01FF968091750190917601918380839A
:102C7000CF5BDF4F809173019091740199838883BA
:102C80004EC061E0CE01BCD080917501909176017B
:102C90009CAF8BAF809173019091740122C043E788
:102CA00051E065E771E0CE019CD239C0F09073012C
:102CB00000917501212F4F2D602FCE01CB9689D920
:102CC000882391F061E0CE019BD0609175018BADBE
:102CD00050D090E09CAF8BAF609173018DAD49D027
:102CE00090E09EAF8DAF1BC0212F4F2D602FCE01E6
:102CF000C7966FD9882391F060E0CE0181D06091B2
:102D000075018FA936D090E098AF8FAB60917301B9
:102D100089AD2FD090E09AAF89AF01C0E2D8FF9182
:102D2000EF91DF91CF91BF91AF919F918F917F9163
:102D30006F915F914F913F912F911F910F91FF9054
:102D40000F900FBE0F901F901895E091B30189E48A
:102D5000E89FF0011124EC54FE4F8081811107C0DF
:102D600081E0909140059F3F19F480E0089581E053
:102D70000895282F30E0C901880F991F820F931FF3
:102D8000860F911D95958795959587950895EF9256
:102D90000F931F93CF93DF93742FD901FA019E2FC6
:102DA000971B981740F4EE2019F09081909590832E
:102DB00091919D93F4CF6730D9F0E82FF0E0EE20A9
:102DC00079F0EA01CE0FDF1F988190956F5FAFEF2A
:102DD000B0E0062E01C0AA0F0A94EAF79A2398835E
:102DE000DA01AE0FBF1F9C91E20FF31F90838F5F3C
:102DF000F8018083DF91CF911F910F91EF9008959B
:102E0000FC012181223308F06CC83381662381F0F4
:102E100081E090E0032E01C0880F0A94EAF7DF01F9
:102E2000A20FB11D14969C911497982B14969C9305
:102E3000332319F03150338309C087E083832F5F38
:102E40002183DF01A20FB11D14961C9286A98F5F0A
:102E500086AB0895FC0134812581A081B181A30F47
:102E6000B11D8C9190E0022E02C0959587950A9431
:102E7000E2F7817099274FEF420F4583211104C07B
:102E80003F5F348327E025830895A2E0B0E0EBE4C0
:102E9000F7E10C943F317C01A12CB12CD12CCC2436
:102EA000C394062F10E001501109A616F0F4C701D3
:102EB0004A836983CFDF4A816981882391F0442363
:102EC00049F098012A193B098C2D01C0880F2A95D9
:102ED000EAF706C08C2D0A2C01C0880F0A94EAF785
:102EE000D82A8FEFA81AB80AE0CF8D2D2296EAE0F3
:102EF0000C945B31A0E0B0E0E0E8F7E10C944131E4
:102F0000EC016B01CA01890120916C01213009F0AB
:102F100086C0DB012C91211182C028812B3009F061
:102F20007EC04EA9242F2B7F283139F0493329F058
:102F3000242F277F213409F072C02DAD3EAD2D37EF
:102F4000310508F06CC0FE01EF5BFF4F208131813D
:102F50002D37310508F063C0483159F4AE014C5F9C
:102F60005F4FEE24E3949C016B81898110DF87E041
:102F700052C04C3111F0493351F4AE014C5F5F4FF8
:102F8000E12C9C016B81898102DF8AE044C0477F8C
:102F9000413409F041C029AD3AAD2E353105E0F19B
:102FA000F12C6981F616A0F54F2D50E09A012F5FA4
:102FB0003F4F70E0FC01E40FF51F4C0F5D1F26171B
:102FC0003707B1F4DA0114964C91440F40834B81DA
:102FD0004730E1F0DE01A20FB31F14962C91149735
:102FE000218314963C91331F3327331F20810CC05B
:102FF0002C0F3D1FD90114962C91221F2227221F2E
:10300000DA0114963C91330F230F2083F394C9CF38
:10301000F801F08289E0888389E6D6018C93CDB7E8
:10302000DEB7E8E00C945D31CF92DF92EF920F9320
:103030001F93CF93DF93EC016B0180916C01813082
:10304000E9F4FB018081811119C08EA9982F9B7F23
:10305000983131F09CED980F923010F08A3271F473
:10306000CE010496E12C89019A01AC016B81898122
:103070008EDE88E0888383E7F6018083DF91CF913D
:103080001F910F91EF90DF90CF900895A6E0B0E0F0
:10309000ECE4F8E10C943E318B017A015901FB011B
:1030A0002081211133C01D8227E02E839C012C5FDB
:1030B0003F4F3A832983FC012181243039F58381F4
:1030C000813021F56A01912C41E0911006C067E042
:1030D000CE010196DADE806804C068E0CE01019678
:1030E000D4DEF60181936F019394F4E09F12ECCF4C
:1030F00041E067E0CE010196C8DE880FF7018483C6
:1031000085E0F501808384E7F80180832696EBE073
:103110000C945A31CF93DF93FC0180916C01813084
:1031200021F5DB018C91811120C081818C30E9F483
:1031300080818630D1F48381811117C0DA0180E06B
:1031400090E040E0EF01C80FD91F5C81450F5D930F
:1031500001968B309105B1F78BE0D9018C9387856F
:10316000481303C082E7FB018083DF91CF9108956C
:10317000CF93DF93FC01A0916C01A13071F5EB01BD
:1031800088819981835392408B3B910530F5EA0108
:10319000888199810A97479700F589E090E090AF80
:1031A00087AB8EE090E092AF81AF20E130E034AFAA
:1031B00023AF96AF85AFA28386E08083118287E03C
:1031C0008383148280EA9FE0909389008093880033
:1031D00082E080936F0081E001C080E0DF91CF91B9
:1031E000089520916C01213051F4FB01208131813F
:1031F0002B30310510F460E001C061E001CE08958C
:10320000A0E0B0E0E6E0F9E10C944231D82EEA9873
:10321000209A10920A03289A8EE190E00E943308C7
:1032200028988EE190E00E943308289A8DE290E081
:103230000E94330880E30E94000584E690E00E942B
:1032400033088FEF8D0D833008F039C0C8E6D3E026
:10325000FE018491813470F0F4E1DF9E900111242D
:10326000C0E0D0E0C901885E9C4F7C018901075E07
:103270001C4F15C0FE01319664910E94EE04229607
:1032800093E0C43AD90721F7E7CFF801EC0FFD1F0F
:1032900064910E94EE042296C431D10531F0F70109
:1032A000EC0FFD1F8491813480F383E30E940005BD
:1032B000D0920A030E94460B81E00E943808CDB7E5
:1032C000DEB7E7E00C945E31CF93DF9380910A0381
:1032D0008823B1F14A9B21C086E30E9400058BE35D
:1032E0000E94E704D82FDF7759F128988FEF0E94CA
:1032F00073048EE40E949D0880910A030E945D0978
:10330000C0E080E00E9473040E945D09CF5FCD138E
:10331000F8CF289A0E94E90813C085E30E94E704C9
:10332000813011F0813161F48AE30E94000586E367
:103330000E9400058DE30E94000584E30E940005C1
:10334000DF91CF910895A1E0B0E0E9EAF9E10C94B2
:1033500047311982FC0121812237A9F422812223DD
:1033600031F0BE016F5F7F4F02960E948E09898106
:103370009FEF980F933028F080E193E00E94DC08E3
:1033800013C03EDF0BC0283749F480910A0388231D
:1033900019F086E30E94000510920A0380910A0347
:1033A0000E945D090E94E9082196E2E00C946331D5
:1033B00080E690E00E94C1098093790481E690E064
:1033C0000E94C10980930A05882329F081E2809335
:1033D00073040C94010F08955B9A0C9433085B9866
:1033E0000C943308A7E0B0E0E8EFF9E10C94423127
:1033F00090918204943559F420910305309104058D
:103400002F5F3F4F30930405209303053EC0963451
:1034100059F420910105309102052F5F3F4F309301
:1034200002052093010531C0953459F420917604AA
:10343000309177042F5F3F4F3093770420937604C9
:1034400024C09B3459F420910605309107052F5F65
:103450003F4F309307052093060517C0983459F461
:1034600020910805309109052F5F3F4F30930905E2
:10347000209308050AC020917404309175042F5FD1
:103480003F4F309375042093740495E79983882304
:1034900099F0BE016E5F7F4F80910A050E94A909D5
:1034A000BE016C5F7F4F809179040E94A90985E578
:1034B0008E8386E0D82E02C0DD24D3940E94E205DC
:1034C0000E94600516E080E891E086DF80E093E0EE
:1034D00086DF1150C1F780E093E07EDF80E891E065
:1034E0007EDF80E891E078DF5B9887E390E00E94E0
:1034F000040583E00E94380828988FE70E9473042F
:1035000080917C048D0D0E947304CE0101967C0194
:103510008C01F80181918F010E947304802F8E1914
:103520008D15B8F380917C04882339F08AE794E004
:103530000E94120B0E947304F5CF289A0E94600526
:103540008AE794E00E94F70A15E18AE30E94E70403
:103550008F7731F0115021F081E00E943808F5CFCB
:103560000E94010F2796E7E00C945E31CF93DF9322
:10357000EC018981811107C0809179040E945D0965
:1035800080910A0513C08436A1F480916D04909156
:103590006E04A0916F04B091700440E364E00E9457
:1035A00023098EE20E949D088091FF040E945D091C
:1035B0004DC0833709F04DC040E361E080910305C1
:1035C000909104050E9423098EE20E949D0840E329
:1035D00061E080910105909102050E9423098EE22D
:1035E0000E949D0840E361E0809176049091770409
:1035F0000E9423098EE20E949D0840E361E08091D1
:103600000605909107050E9423098EE20E949D08FD
:1036100040E361E080910805909109050E9423092B
:103620008EE20E949D0840E361E0809174049091D5
:1036300075040E9423098EE20E949D0840E361E028
:103640008091FD049091FE040E9423090E94E908E4
:103650002CC08936D9F441E069E774E0CE010296C6
:103660000E9461096091790480E690E00E94BC09A3
:1036700041E06AE075E0CE0104960E946109609124
:103680000A0581E690E00E94BC090FC08AE794E039
:103690000E94F70A21966991662329F08AE794E04F
:1036A0000E94FC0AF8CF80E09DDEDF91CF91089563
:1036B000A1E0B0E0EEE5FBE10C9441318091000522
:1036C000882309F486C0C0906D04D0906E04E09009
:1036D0006F04F0907004833009F061C08FE30E94A2
:1036E000E704182F8630C8F085ED95E00E94F70AB0
:1036F00028988FEF0E94730480E00E947304082FC3
:10370000115049F080E00E947304682F85ED95E028
:103710000E94FC0AF5CF289A01C000E00E94010F28
:1037200010920005053709F054C041E0BE016F5FFB
:103730007F4F88ED95E00E946109019759F59981C5
:1037400080917904981326C08091DC05853571F449
:103750008091D705882339F085ED95E00E94120B02
:103760000E949D08F5CF0E94E90833C08091D705DB
:1037700084508093D70584E08093D6056AE085ED78
:1037800095E00E94FC0AE0916904F0916A0488E0E7
:1037900009951FC085ED95E00E94F70A1AC0823096
:1037A00059F4809178049C2D981B983090F00E94D9
:1037B000010F109200050DC0813059F487E390E0AD
:1037C0000E9404050E94720582E080930005C09269
:1037D00078042196E8E00C945D31B7DA882361F033
:1037E00083E0809305058091FD049091FE0401968D
:1037F0009093FE048093FD04809105058150809391
:103800000505882321F083E08093FF04089581E07B
:10381000E9CDCF93DF93EA98209A289A8EE190E041
:103820000E94330828988EE190E00E943308289A7D
:103830008DE290E00E94330880E30E94000584E658
:1038400090E00E943308C6EBD3E0FE01319664910C
:10385000FE0184910E94EE042296F3E0C83EDF0749
:10386000A1F780910C03811107C083E30E9400053A
:1038700084E00E9438080FC0C0EAD3E0FE01319610
:103880006491FE0184910E94EE042296F3E0C63B0F
:10389000DF07A1F7EACF84E30E94000585E30E94D9
:1038A000E7048D30C1F7DF91CF910895A2E3B0E036
:1038B000ECE5FCE10C94453180910B03882309F47D
:1038C000A1C04A9B8AC08FE30E94E7048F77898357
:1038D000823368F08AE30E94000586E30E940005B7
:1038E0008DE30E94000584E30E9400058BC02898A8
:1038F0008FEF0E94730410E08981181760F480E054
:103900000E947304E2E0F0E0EC0FFD1FE10FF11DF7
:1039100080831F5FF1CF80E00E947304082F80E056
:103920000E947304289A84E30E94000585E30E94A4
:10393000E7048D30C1F72A8196E792279A8392E0B7
:103940008981E92FF0E0981768F441E050E04C0FCE
:103950005D1FE40FF51F30812452232720839F5FD2
:10396000232FEECF81E090E08C0F9D1FE80FF91F11
:1039700090818B81982790838091730484FF12C07B
:1039800081E60E949D0810E08981811730F1E1E015
:10399000F0E0EC0FFD1FE10FF11D80810E949D08FA
:1039A0001F5FF2CF81E40E949D0810E0898181179A
:1039B00058F0E1E0F0E0EC0FFD1FE10FF11D808118
:1039C0000E945D091F5FF2CF8091730485FF03C0E1
:1039D000802F0E945D090E94E90885E30E94E704A8
:1039E000813029F0813161F48AE30E94000586E389
:1039F0000E9400058DE30E94000584E30E940005FB
:103A00000E942706E296E4E00C9461318F929F9227
:103A1000AF92BF92DF92EF92FF920F931F93CF93DB
:103A2000DF93CDB7DEB7EA970FB6F894DEBF0FBECF
:103A3000CDBF41E38E010F5F1F4FB80101960E9479
:103A400061097C0199270197298130E0821793074A
:103A500009F0A3C080910B03811104C0DADE83E07A
:103A60000E943808DB808A8196E789278A8322E0D2
:103A70003981822F90E0F801E80FF91F231750F4E5
:103A8000DE01A80FB91F8C91845290818927808311
:103A90002F5FEECF80818D258083CE01C7960E9457
:103AA0004A0785E30E94000585E30E94E70483310D
:103AB00081F1CE01C3960E944A074BA95CA96DA96A
:103AC0007EA98FA998ADA9ADBAAD84179507A607B1
:103AD000B70760F44A015B01881A990AAA0ABB0A6F
:103AE0002DEB82169104A104B10470F44817590714
:103AF0006A077B0770F484549F4FAF4FBF4F841702
:103B00009507A607B70728F486E993E00E94DC082A
:103B100027C085E30E94E704833119F6D4FE08C06C
:103B200088E70E94380888E70E94380888E701C0C3
:103B30008AE00E94380828988FE70E947304580191
:103B40008A2D801B8E1530F4F50181915F010E9452
:103B50007304F6CF289A85E30E94E7048331D9F3F2
:103B600085E30E94E704863149F48BE30E94000557
:103B700086E30E9400058DE30E94000580910B03FF
:103B8000882349F084E30E94000585E30E94E7044E
:103B90008D30C1F702C00E94010FEA960FB6F8946B
:103BA000DEBF0FBECDBFDF91CF911F910F91FF9070
:103BB000EF90DF90BF90AF909F908F900895FC01A1
:103BC0002181223731F0223559F481E080930C03B2
:103BD00002C010920C031DDE81E080930B03089558
:103BE000233711F4019612CF10920B030895CF934F
:103BF000DF93EA98209A289A8EE190E00E94330899
:103C000028988EE190E00E943308289A8DE290E097
:103C10000E94330880E30E94000584E690E00E9441
:103C20003308C8EED3E0FE018491813458F083E379
:103C30000E94000581E00E9438080E94460BDF9137
:103C4000CF910895FE01319664910E94EE04229670
:103C5000F4E0C432DF0739F7EACFAEE1B0E0E3E3E6
:103C6000FEE10C94453180910D03882309F474C062
:103C70004A9B5FC08FE30E94E7048F778E3108F084
:103C80008DE1898328988FEF0E94730410E0898169
:103C9000181760F480E00E947304E2E0F0E0EC0F9B
:103CA000FD1FE10FF11D80831F5FF1CF80E00E94B7
:103CB0007304082F289A8AE30E94000586E30E9475
:103CC00000058DE30E94000584E30E9400058091B9
:103CD000730484FF12C087E70E949D0810E0898169
:103CE0008117D0F1E1E0F0E0EC0FFD1FE10FF11DD5
:103CF00080810E949D081F5FF2CF87E50E949D088A
:103D000010E08981811758F0E1E0F0E0EC0FFD1F31
:103D1000E10FF11D80810E945D091F5FF2CF80914C
:103D2000730485FF03C0802F0E945D090E94E9088B
:103D300013C085E30E94E704813011F0813161F402
:103D40008AE30E94000586E30E9400058DE30E943D
:103D5000000584E30E9400056E96E4E00C94613156
:103D6000FC018181823729F442DF81E080930D03D9
:103D70000895833711F010920D030895CF93DF93C8
:103D8000EA98209A289A8EE190E00E9433082898B9
:103D90008EE190E00E943308289A8DE290E00E9424
:103DA000330880E30E94000584E690E00E94330817
:103DB000289880E40E947304C4E2D4E0FE01849158
:103DC0000E9473042196F4E0C133DF07B9F78091B4
:103DD00008010E947304809109010E94730480917C
:103DE0000A010E947304C0E0D0E0FE01EC5CFB4FCE
:103DF00084910E9473042196C931D105B1F7289AA4
:103E000028988EE70E9473048BE290E0EC012196E3
:103E10000E94C1090E947304C333D10511F0CE0181
:103E2000F5CF289A83E30E94000581E00E943808BC
:103E300081E080936B04DF91CF910895A0E0B0E022
:103E4000E4E2FFE10C944131EC01162F5D98809182
:103E5000100381110DC080910B03882329F081E0AC
:103E600080930F0310920B0389DF83E00E943808D0
:103E700086E30E9400058AE30E9400058BE30E940E
:103E800000050E946005FE0101900020E9F73197CE
:103E9000EC1BFD0BDD24DA94DE0EEB7F01E0E23259
:103EA00009F000E08EEF810F823018F4F2E0CF2E9F
:103EB00002C0CC24C394E12C80910B0190E02E2D04
:103EC000332727FD3095281739070CF03EC11130F4
:103ED00041F55B9A0130C9F480911E0190E00E9487
:103EE00033085B9880911601909117010E94330866
:103EF0005B9A80911C0190911D010E9433085B9890
:103F000080911A0190911B0129C080911F0190910D
:103F100020010E9433085B9880911601909117014F
:103F20001DC0123069F45B9A8091140190911501C3
:103F30000E9433085B9880911001909111010EC08E
:103F4000133071F45B9A80911C0190911D010E94C5
:103F500033085B9880910E0190910F010E94330805
:103F6000FC2CFD140CF0EFC0FE01EF0DF11DF7FC71
:103F7000FA9581815B9A803309F04EC0113091F53A
:103F8000013061F480911C0190911D010E94330861
:103F90005B9880911C0190911D0183C080911F014D
:103FA000909120010E9433085B9880911F019091AD
:103FB00020019C01220F331F820F931F0E943308A0
:103FC0005B9A80911F01909120010E9433085B98B9
:103FD00080911F01909120019C01220F331F820FBD
:103FE000931FADC0123029F48091120190911301FA
:103FF00004C080911C0190911D010E9433085B98C0
:10400000123029F4809114019091150198C080918B
:104010000C0190910D0193C08133B1F51130F9F489
:10402000013061F480911C0190911D010E943308C0
:104030005B9880911801909119014FC080911F01E8
:10404000909120019C01220F331F820F931F0E9429
:1040500033085B9880911F01909120015DC0123060
:1040600029F4809114019091150104C080911C01E4
:1040700090911D010E9433085B981230C1F5809128
:104080001201909113015BC08233D1F480911C0125
:1040900090911D010E9433085B98809118019091C6
:1040A00019010E9433085B9A80911C0190911D01B7
:1040B0000E9433085B9880911801909119013FC0CC
:1040C0000130D1F480911C0190911D010E943308B0
:1040D0005B9880911C0190911D010E9433085B9AAE
:1040E00080911C0190911D010E9433085B98809182
:1040F0001C0190911D0123C080911F01909120010E
:104100000E9433085B9880911F01909120019C01CF
:10411000220F331F820F931F0E9433085B9A8091F6
:104120001F01909120019C01220F331F820F931FCA
:104130000E9433085B9880911F01909120010E949A
:104140003308F3940ECFE394B7CE80911003882305
:1041500041F08091730481110EC086E30E94000536
:104160000FC080910F03882349F010920F0351DB99
:1041700081E080930B030E94720502C00E94010F30
:104180005D9A89E60E949D0883E70E949D0812308F
:1041900031F488E60E949D08FF24F39413C0133085
:1041A000D9F785E6F7CFFE01EF0DF11DF7FCFA9583
:1041B0008181803379F0813369F0823359F0113095
:1041C00021F0F394FD147CF308C0013011F484E471
:1041D00001C086E40E949D08F4CF0E94E908CDB793
:1041E000DEB7E8E00C945D31FC012181243761F4F5
:1041F0006FE171E002960E948E0940E260E08091DA
:104200001F019091200110C02337E1F4FC012281AD
:10421000223771F46BE071E003960E948E09809161
:104220000B0140E260E090E00E94ED080C94E90888
:10423000283611F462E003C0253611F463E0FECDA8
:1042400061E0FDCF223771F480910B03882329F0C0
:1042500081E080930F0310920B0390DD81E0809347
:1042600010030895263651F5FC012281203351F4C4
:1042700080E18093080180EB8093090181E78093BE
:104280000A0106C043E068E071E002960E946109FD
:1042900089E60E949D0886E60E949D088AE30E94A6
:1042A0009D08809108010E945D09809109010E948A
:1042B0005D0980910A010E945D09B8CF2837E1F4B9
:1042C00080910F03882339F010920F03A2DA81E066
:1042D00080930B0308C082E090E00E940405809167
:1042E0007304882319F00E94720503C086E30E94BC
:1042F0000005109210030895233629F46FE171E050
:1043000001960C948E090895A2E0B0E0EAE8F1E28B
:104310000C943A317C01FC018181833709F08CC116
:10432000198287E090E00E9483318C0141E0BE0158
:104330006F5F7F4FC70102960E9461098981F80172
:10434000808341E0BE016F5F7F4FC70104960E94EA
:1043500061092981207FF801218341E0BE016F5F5F
:104360007F4FC70106962A830E9461098981F8015F
:10437000828341E0BE016F5F7F4FC70108960E94B4
:1043800061098981F801838341E0BE016F5F7F4F3E
:10439000C7010A960E9461098981F801868341E07C
:1043A000BE016F5F7F4FC7010C960E946109898132
:1043B000F801858341E0BE016F5F7F4FC7010E9614
:1043C0000E9461098981F801848380E090E02A815C
:1043D0004191342F32953F70342783279F5F973068
:1043E000B9F78F70822BF801818387E090E00E94FB
:1043F00083315C0187E0F801D50101900D928A9527
:10440000E1F7D8011196C8010696F8013D91219176
:1044100023272083E817F907C9F75D9880911303D4
:10442000811159C080910B03882329F081E080938A
:10443000120310920B03EA98209A289A8EE190E0DA
:104440000E94330828988EE190E00E943308289A51
:104450008DE290E00E94330880E30E94000584E62C
:1044600090E00E943308289880E40E9473046DE471
:10447000E62E64E0F62EF70184910E947304FFEFAC
:10448000EF1AFF0A26E7E21624E0F206A1F7289ABF
:1044900028988EE70E9473048BE290E07C01EFEF96
:1044A000EE1AFE0A0E94C1090E947304F3E3EF169C
:1044B000F10411F0C701F2CF289A83E30E940005AE
:1044C00081E00E94380881E080936B040E94460BD3
:1044D00083E00E94380886E30E9400058AE30E9478
:1044E00000058BE30E9400050E9460055B9A87EC43
:1044F00094E20E9433085B9889E50E94380885E3BE
:1045000092E00E943308712C8091250190E0272DC4
:10451000332727FD3095281739070CF057C0711045
:1045200002C022E001C027E0F12C5B9A86EF99E0FF
:104530002A830E9433085B9886EF99E00E94330833
:10454000F3942A81F2168CF35B9A8CEF92E10E942D
:1045500033085B9880912101909122010E943308D9
:104560006801612CF60181906F0148E0542E50E8FB
:10457000E52EF12C912CC70188219921892B49F432
:104580005B9A80912101909122010E9433085B98EF
:1045900008C05B9880912101909122010E9433080C
:1045A0005B9A80912101909122010E943308F69438
:1045B000E7945A9401F76394F7E06F12D3CF5B98B6
:1045C00080E090E00E94330873949ECF80911303A3
:1045D000882341F08091730481110EC086E30E940C
:1045E00000050FC080911203882349F01092120336
:1045F00010D981E080930B030E94720502C00E94D3
:10460000010F5D9A89E50E949D0883E70E949D083D
:104610007501D12CF70181917F010E945D09D3942E
:10462000F7E0DF12F7CF0E94E908C5010E941B32B4
:10463000C8010E941B3265C08237A9F465E271E0AF
:10464000C70102960E948E0989E50E949D0882E7B3
:104650000E949D088AE30E949D088091250140E206
:1046600060E090E02CC0843779F5F70182818033D7
:1046700039F488ED94E0909324018093230106C0DF
:1046800063E271E0C70102960E948E0980912301C6
:104690009091240196958795909322018093210112
:1046A00089E50E949D0884E70E949D088AE30E9494
:1046B0009D0840E266E080912301909124010E94D0
:1046C000ED080E94E9081DC08837D9F480911203D3
:1046D000882339F0109212039CD881E080930B0359
:1046E00008C082E090E00E94040580917304882352
:1046F00019F00E94720503C086E30E940005109223
:1047000013032296EFE00C945631CF93DF93EA988F
:10471000209A289A8EE190E00E94330828988EE132
:1047200090E00E943308289A8DE290E00E943308BE
:1047300080E30E94000584E690E00E9433082898F8
:1047400080E40E947304CAE0D7E0FE0184910E94D5
:1047500073042196F7E0C333DF07B9F7289A289846
:104760008EE70E9473048BE290E0EC0121960E9498
:10477000C1090E947304C333D10511F0CE01F5CFF6
:10478000289A83E30E94000581E00E94380881E0B6
:1047900080936B04809326030E94460BDF91CF9198
:1047A0000895A0E0B0E0E7EDF3E20C9440318C0115
:1047B00080910B05F801838364839DE0E92EF12C41
:1047C0000E94600585E30E94E704833169F08DEF64
:1047D00096E00E94DC0885E30E94E7040E945D09E0
:1047E0000E94E90892DF49C040916D0450916E0427
:1047F00060916F047091700440930C0550930D0507
:1048000060930E0570930F0528988FE70E9473043C
:104810006801C0E0D0E08AEAB82EF60180810E94EB
:104820007304C930D10544F4F6018081B826C7303D
:10483000D10511F4F801B0862196FFEFCF1ADF0AF7
:10484000CF30D10551F7289AC8EC85E30E94E704E0
:10485000833169F081E0E81AF108E114F10409F00C
:10486000AFCF80910B058F5F80930B0506C081E071
:104870000E943808C15049F7EDCFCDB7DEB7E9E067
:104880000C945C31ABE3B0E0E8E4F4E20C943D312D
:104890007C01FC0101900020E9F7AF014150510972
:1048A000481B590B6C01F2E0CF0ED11CBE01625DBA
:1048B0007F4FC6010E946109082F63E671E087E21D
:1048C00091E00E94F033F70111818DE8810F823071
:1048D00008F0D7C181E08093240387858A3411F4DE
:1048E00089E501C08EE48093260180906D0490904C
:1048F0006E04A0906F04B090700440916D045091CC
:104900006E0460916F047091700440930C05509395
:104910000D0560930E0570930F0580912601893572
:1049200009F050C081EF96E00E94DC088AED96E025
:104930000E94DC08C7010E94D10885EC96E00E9425
:10494000DC08F70101900020E9F7319740E260E0D0
:10495000CF018E199F090E94ED088DE796E00E9415
:10496000DC08F70101900020E9F73197808140E2EF
:1049700060E090E00E94ED0885E396E00E94DC088C
:1049800040E260E0802F90E00E94ED0882E396E034
:104990000E94DC088BE196E00E94DC0840E364E0C2
:1049A00080910E0590910F050E94230940E364E079
:1049B00080910C0590910D050E94230988E196E0F5
:1049C0000E94DC08F70101900020E9F77197EE15CD
:1049D000FF0509F03DC142E0BE01625D7F4FC601A7
:1049E0000E946109029709F033C18FDE0EA5B7015D
:1049F000665F7F4F45E050E0CE0101960E94F7339D
:104A00001E824AE050E060E070E0CE0101960E9414
:104A1000AA326B017C0123E0F694E794D794C79403
:104A20002A95D1F7809126018935F1F481E096E04D
:104A30000E94DC08CE0101960E94D1088AEF95E021
:104A40000E94DC0883EE95E00E94DC0840E364E00D
:104A5000C7010E94230940E364E0C6010E942309C4
:104A60008BED95E00E94DC088FE0EBE4F1E0DE01E5
:104A70005F9601900D928A95E1F78FA588A388A98A
:104A800089A389A98EA3602FCE014F968ADE1337A2
:104A900009F4EEC007FFECC040910C0550910D05E4
:104AA00060910E0570910F0580916D0490916E04D8
:104AB000A0916F04B091700488199909AA09BB09E3
:104AC0008E379105A105B10548F480906D04909052
:104AD0006E04A0906F04B0907004A89580916D044E
:104AE00090916E04A0916F04B0917004841B950B9B
:104AF000A60BB70BC816D906EA06FB06A8F68090E7
:104B00006D0490906E04A0906F04B090700480913A
:104B10002601893509F073C084EC95E00E94DC0819
:104B200040E364E0C5010E94230940E364E0C4015E
:104B30000E9423098CEB95E00E94DC0885EA95E051
:104B40000E94DC0840E364E080910E0590910F051F
:104B50000E94230940E364E080910C0590910D05CB
:104B60000E9423098DE995E00E94DC0886E895E023
:104B70000E94DC0840E364E0C7010E94230940E38F
:104B800064E0C6010E9423098EE795E00E94DC08DC
:104B900087E695E00E94DC0880916D0490916E0498
:104BA000A0916F04B091700440910C0550910D05D7
:104BB00060910E0570910F05841B950BA60BB70B2A
:104BC00040E364E0CD010E94230980916D0490913F
:104BD0006E04A0916F04B091700420910C05309187
:104BE0000D05821B930B40E364E00E9423098FE5CF
:104BF00095E00E94DC0886E595E00E94DC0867EFFE
:104C0000CE014F96CEDD40910C0550910D0560917F
:104C10000E0570910F0580916D0490916E04A09126
:104C20006F04B0917004841B950BA60BB70B4597CE
:104C3000A105B10580F380912601893521F48DE429
:104C400095E00E94DC0867EFCE014F96AADD10C008
:104C500088E295E00E94DC0840E260E08EE090E0AF
:104C60000E94ED0884E095E00E94DC081092260383
:104C700080912503813011F40E9472051092240363
:104C800039C0123789F5F7018281853441F41092D9
:104C9000250386E30E94000583EF94E022C083355C
:104CA000F1F481E08093250330DD80EE94E00E94F2
:104CB000DC080E94720585E30E94E7048D30D1F084
:104CC00087EC94E00E94DC0885E30E94E7040E94E0
:104CD0005D090E94E90819DD109225030BC085EAE1
:104CE00094E00E94DC0806C08EE894E00E94DC0894
:104CF00010922603EB96ECE00C945931A0E1B0E061
:104D0000E4E8F6E20C9442318E010F5F1F4F80E120
:104D1000F80111928A95E9F780912503813009F015
:104D200064C080912403813009F45FC04A9B5DC058
:104D30008BE30E94E7048F778F3008F08FE0898340
:104D400028988FEF0E947304F12CD12C3AEAE32EBD
:104D50008981F816F0F480E00E947304E2E0F0E04C
:104D6000EC0FFD1FEF0DF11D8083F7E0FF1510F034
:104D7000E8260DC098E0F9120AC0E81641F00E943A
:104D80005D098CE794E00E94DC08DD24D394F39461
:104D9000DFCF289A4AE050E064E173E0C8010E9446
:104DA000E333892B11F1E1E0DE16F9F089E794E0B5
:104DB0000E94DC0880E1F801A4E1B3E001900D92CB
:104DC0008A95E1F78E010E5F1F4F7E01FBE0EF0E2B
:104DD000F11CF80181918F010E945D090E151F05DC
:104DE000C1F786E794E00E94DC086096E7E00C9447
:104DF0005E3110922B051092E20383E080932C0326
:104E00008FEF809340050895EDE2F3E020812111BA
:104E100005C0892BB1F080E090E00895B3E0EB3D50
:104E2000FB07B8F7009751F04181DC013C91431337
:104E300005C0428111963C91431751F0E20FF11DDC
:104E4000E5CF33E0EB3DF30719F010F0EBEDF3E0C5
:104E5000CF01089594E0899FF0011124EF5BFA4F90
:104E600080818F3F91F08093270381818093280375
:104E7000828180932903838180932A0321E04CE07F
:104E800064E087E293E00C943E0C08958CED93E08F
:104E9000BBDF009799F020912C03FC013081231790
:104EA00068F4E20FF11D80818093DE0389E780932F
:104EB000DF0381818093E00381E0089580E008951D
:104EC000EF92FF921F93CF93DF931F92CDB7DEB780
:104ED000182F8091730486FF18C084E599830E947F
:104EE0009D08E12E9981F92E15E0F70181917F014E
:104EF0000E945D091150C9F78091730485FF03C0BA
:104F00008AEF0E945D090E94E9080F90DF91CF911E
:104F10001F91FF90EF90089586E30E940005809115
:104F2000DE03833511F48BE901C08BE40E9438085D
:104F300021E04CE065E08CED93E00E943E0C0E9485
:104F400072058CED93E0BCCFE7DF8091DE038936FC
:104F500031F081E08093DB0389E28093400508957E
:104F6000CF9385E390E00E94C1098093110586E309
:104F700090E00E94C10980933F05CFEFC0932F05B9
:104F8000C0933105C0933305C0933505C0933705F1
:104F9000C0933905C0933B05C0933D052ADF1092AD
:104FA0002D0381E080931005C09341058FEF9FEFA3
:104FB0009093140580931305109216051092150511
:104FC0001092180510921705C093450590931A0585
:104FD0008093190510921C0510921B0510921E0556
:104FE00010921D05C09349059093200580931F05DD
:104FF000109222051092210510922405109223058B
:10500000C0934D05909326058093250510922805A1
:105010001092270510922A0510922905CF91089524
:10502000ACE0B0E0E6E1F8E20C9440316C018C01B8
:105030000F5F1F4F45E0BE016F5F7F4FC8010E94A9
:105040006109843008F0F3C099819130A9F483306C
:1050500061F46A8185E390E00E94BC096B8186E37C
:1050600090E00E94BC097CDF06C2809111050E947D
:105070005D0980913F059AC0923009F051C081309E
:1050800039F081E09A81913009F080E0F82E02C079
:10509000FF24F39480912D03811104C083E397E0F2
:1050A0000E94DC080DE213E0F8018081882309F4F6
:1050B000BBC0F3E00B3D1F0708F0B6C033E00D3274
:1050C000130719F080E20E949D08F80181810E9477
:1050D0005D09F80182810E945D09FF20E1F08AE309
:1050E0000E949D0893E0F80180819817A0F4943005
:1050F00038F090FF05C08CE29C870E949D089C853B
:10510000EE24E394E90EF801E90FF11D80810E947D
:105110005D099E2DE8CFF8018081080F111DC4CFD5
:10512000933049F480E090E06FDE8D5293409EEA28
:10513000981B892F3BC0903171F50FE215E080E399
:10514000E82E85E0F82EC12CD12CF80180818F3F0C
:10515000A1F0DD2019F080E20E949D088C2D0E94B4
:105160005D098AE30E949D08F80180810E945D0923
:10517000F70180810E945D09D3940E5F1F4FC39495
:10518000F2E0EF0EF11C38E0C312DFCFD1104CC0BB
:1051900081E497E047C0913161F480912D059091B1
:1051A0002E056DE770E00E942331862F0E945D0975
:1051B0003BC09231C9F511E4E12E15E0F12E04E473
:1051C00015E0C12CD12CF70180818F3FF1F0DD205B
:1051D00019F080E20E949D088C2D0E945D098AE3EF
:1051E0000E949D08F70180810E945D09F8013297B5
:1051F00080810E945D09F801319780810E945D09DC
:10520000F80180810E945D09D394F4E0EF0EF11C57
:10521000C3940C5F1F4F34E0C312D5CFD11004C02C
:105220008DE397E00E94DC080E94E90824C144E075
:10523000BE01695F7F4FC8010E9461094F814936F5
:1052400008F477C07A85588569857C3009F04BC0B1
:1052500020E030E080E090E0F901EF5BFA4F7081F0
:1052600074131CC0A181A51319C0A281A61316C076
:105270002CE023839C01220F331F280F391FF901D3
:10528000EE0FFF1FED5EFA4F11821082F901EE0F53
:10529000FF1FEB5EFA4F11821082CFC07F3FD9F41F
:1052A0004083518362832CE023839C01220F331FB0
:1052B000280F391FF901EE0FFF1FED5EFA4F118223
:1052C0001082F901EE0FFF1FEB5EFA4F1182108280
:1052D00010921005B2C001962C5F3F4F203131056E
:1052E00009F0BACFC8C080E090E020E030E0FC01D7
:1052F000EF5BFA4FA081A41315C0A181A51312C0C2
:10530000A281A6130FC07383F901EE0FFF1FE20FF6
:10531000F31FEE0FFF1FEB5EFA4F81E090E09183E9
:105320008083A9C02F5F3F4F049680319105F9F625
:10533000A2C0E98180911105E817C0F190E0F0E08A
:105340009C01295F3F4F2E173F0784F13A8120913E
:105350003F0532132BC03C813F3231F442E06CE018
:10536000C6010E94AB0C87C02D813C32B1F4209362
:105370002C0581E090E090932E0580932D0580917F
:10538000710490917204E4E02E9F800D911D112410
:1053900090937204809371046EC0E81BF90BEE0FBA
:1053A000F0E0E15DFA4F3083218365C080E090E05A
:1053B0002BDD7C01F80101900020E9F73197E01B1B
:1053C000F10BF695E795BB24B394BE0EC7018B0D88
:1053D000911D8D5293408F3A91050CF048C0F70112
:1053E000B1928F0121E0822F880F81502B15D8F4C4
:1053F00041E0B801F601E80FF11DCF012C870E94B2
:1054000061092C85233058F020FD09C0D80111977F
:105410008C91843621F4F8018081809312052F5FEE
:105420000F5F1F4FE0CFFBEDEF16F3E0FF0618F51F
:10543000F701E20FF11D10821EC022E04CE064E093
:10544000CE0107960E943E0C8FE08A8722E04CE056
:1054500064E0CE0107960E943E0C82E08A8722E03B
:105460004CE064E0CE0107960E943E0C04C087E346
:1054700097E00E94DC082C96E9E01EC70F931F936B
:10548000CF93DF939091100591114FC093E0899FC6
:1054900080011124F801EE0FFF1FED5EFA4F94E03A
:1054A000899FD0011124AF5BBA4F12969C919770DF
:1054B00040E850E0491B51099AEF949F9001959F55
:1054C000300D112435952795359527953183208307
:1054D000E801CC0FDD1FC95EDA4F288139812F5FCB
:1054E0003F4F39832883000F111F0B5E1A4FF801BD
:1054F000408151814115510529F424303105A9F429
:10550000A9DC11C04130510539F4A4DC82E090E0FF
:10551000F8019183808309C04230510531F49ADC4F
:10552000F8011182108219821882DF91CF911F91A8
:105530000F910895A6E0B0E0EFE9FAE2A4C6209149
:105540003F052A831B8280912C05882341F08330FC
:1055500019F487E791E00FC08DE790E00CC0277049
:1055600030E02A513F4F4DE7429FC001439F900DCD
:1055700011249595879590932E0580932D0500E332
:1055800015E0F12C7CE2E72EF801319790819F3FE6
:10559000C1F0809111058F0D898380912C0588239E
:1055A00011F0EC8203C09C83F80180818D8321E09F
:1055B0004CE065E0CE0101960E943E0CCE010196C2
:1055C0007FDCF3940E5F1F4FF8E0FF12DDCF809178
:1055D0002C05882341F0833019F410922C0503C068
:1055E000825080932C052696E6E069C68091DB0305
:1055F000882351F091DC89E2809340058091DB03A0
:1056000081508093DB030895F4CBFF920F931F9397
:10561000CF93DF93FC01F0800181C281D38114819B
:105620008FE5809340051092DB0380911105811175
:1056300005C080913F05882309F4A9C08091DC034F
:105640008F1104C08091DD03801729F0D2DBF09226
:10565000DC030093DD0380912B058F3F09F497C095
:10566000C093DE03D093DF031093E003CC23F1F06B
:1056700081111CC080911105181761F0143651F08A
:105680008DEA8C0F823010F0CD3739F48FEF809394
:105690002B057DC0C43509F47AC08D2F807F8036FC
:1056A00009F075C0D067D093DF0357C0EFDB8111DD
:1056B00005C080912B05882309F469C08091E2031D
:1056C000811107C0E0912B05F0E0EB5BF84FE4910E
:1056D00001C0E82FE33541F4C43531F490912B0536
:1056E0009E5F90932B0504C0EC1711F082DB4FC036
:1056F000882369F080912C038E5F80932C03C6DB96
:1057000081110EC080912B058E5F80932B058091B7
:105710002B05E82FF0E0EA5BF84F14911F3F59F496
:105720008091DE038093E2038436B9F48091120500
:105730008093E00312C01093DE0397E79093DF039A
:10574000909111059093E0038E5F80932B0510924A
:10575000E2038E3021F01123D1F0F6DB18C08CED7E
:1057600093E052DBDC01009781F02C9130E08BED6F
:1057700093E0821B930BA817B90730F4ED01C20F19
:10578000D31F48814D93F7CF1C9233DBE4CFCDB7C5
:10579000DEB7E5E095C5FF920F931F93CF93DF939C
:1057A0008C01EC0109900020E9F72197C81BD90B67
:1057B000FC018181823751F487E390E00E94040567
:1057C0000E94720581E08093510526C0833711F550
:1057D000FC2E28988FE70E9473048C2F82500E9421
:1057E0007304E801229612E01F1528F489910E94A3
:1057F00073041F5FF9CF289A0E9460058AE30E9414
:10580000E7048F7721F081E00E943808F7CF0E94EB
:10581000720502C010925105CDB7DEB7E5E050C564
:10582000A0E8B0E0E5E1FCE22CC5809151058823B9
:1058300009F454C0813011F580916D0490916E048B
:10584000A0916F04B09170042091E303281709F42C
:1058500045C085E30E94E704813129F48AE30E9470
:1058600000050E94720580916D0490916E04A091D4
:105870006F04B09170048093E30330C08FE30E9403
:10588000E704D82E87FD27C028988FEF0E94730465
:105890008E010F5F1F4F7801C02E8E2D801B8D153E
:1058A00038F480E00E947304F70181937F01F5CF03
:1058B000289A81E080936A01802F8C198D1530F42D
:1058C000F80181918F010E949D08F6CF0E94E9089E
:1058D0008FEF80936A0181E080935105C058DF4FBC
:1058E000E8E0EBC40F931F93CF93DF93EC0110E03C
:1058F000812F90E09C01220F331F280F391FF901DF
:10590000E054FF4F04912F533F4FF90145915491BB
:10591000002399F0209739F480E20E949D08802F9F
:105920000E949D0808C08881801305C0CE01FA013D
:10593000099581E003C01F5FDBCF80E0DF91CF914D
:105940001F910F910895CF93C0916A0180936A01CE
:105950008091D7058823A1F185ED95E00E94120B77
:10596000E091E4038A3011F08D30F9F4EE2381F3F5
:10597000F0E0EB51FC4F108285EE93E0B3DF811134
:1059800011C08BE697E00E94DC0885EE93E00E9450
:10599000D10883E597E00E94DC0880E090E0A2DF78
:1059A0000E94E9081092E403D3CFE7FDD1CF91E044
:1059B0009E0F9093E403F0E0EB51FC4F8083C8CF3F
:1059C000C0936A01CF910895E4E6F0E080818B7F77
:1059D0008083299A84B1876084B9239880E58CBD3F
:1059E0008DB581608DBD0895209165063091660664
:1059F0002115310521F42091470130914801809112
:105A0000450190914601009741F48DB79EB74091B2
:105A1000490150914A01841B950B2817390718F446
:105A2000821B930B089580E090E0089582E40E9429
:105A30009D0840E265E080916506909166060E94AF
:105A4000ED080E94E90883E50E949D0840E265E0B8
:105A500080914701909148010E94ED080E94E90859
:105A600085E40E949D0840E265E0809145019091A7
:105A700046010E94ED080E94E90886E40E949D0804
:105A8000B3DF40E265E00E94ED080C94E908A2E073
:105A9000B0E0ECE4FDE2FBC3EDE5F6E08091F1005F
:105AA000819386E0E536F807C9F720915D063091CD
:105AB0005E06832F90E08A30910508F01AC1FC0140
:105AC000EA5AFF4F0BC4203879F0223809F011C18F
:105AD000809161068093E9008091EB0085FB882727
