:100000000C94F2010C9464110C948B110C941A0250
:100010000C941A020C941A020C9426020C941A02E4
:100020000C941A020C941A020C941A020C941A02E0
:100030000C941A020C941A020C941A020C941A02D0
:100040000C94B2110C941A020C94B1140C94E31495
:100050000C941A020C941A020C941A020C941A02B0
:100060000C941A020C941A02636C65617220726F10
:100070007574696E67207461626C650A00496E6907
:100080007420636F6D706C6574652C2069643D2508
:10009000642C20706172656E743D25642C20646947
:1000A0007374616E63653D25640A005472616E73FA
:1000B000706F72742064726976657220696E6974FB
:1000C000206661696C0A00526164696F20696E691B
:1000D00074207375636365737366756C2E0A0052C2
:1000E0006164696F20696E6974206661696C65641A
:1000F0002E20436865636B20776972696E672E0AEC
:10010000005374617274696E67206761746577610A
:10011000792028524E4E47412D2C20322E302E3041
:100120002D62657461290A00010204081020111271
:10013000131415160A0B0C0D0E0F726570656174A1
:1001400020646973636F76657279207369676E6185
:100150006C0A00646973636F7665727920736967EE
:100160006E616C0A0069643D25640A0066756C6CFA
:100170000A00706172656E743D25642C20643D2513
:10018000640A00766572206D69736D617463680A34
:10019000007265616420616E6420666F72776172BF
:1001A000643A2025642D25642D256420733D256443
:1001B0002C633D25642C743D25642C70743D2564AE
:1001C0002C6C3D25642C73673D25640A00726561C3
:1001D000643A2025642D25642D256420733D256413
:1001E0002C633D25642C743D25642C70743D25647E
:1001F0002C6C3D25642C73673D25643A25730A00F9
:1002000066696E6420706172656E740A0072657151
:100210002069640A0044657374696E6174696F6E65
:1002200020256420756E6B6E6F776E0A0073656EA5
:10023000643A2025642D25642D25642D25642073C2
:100240003D25642C633D25642C743D25642C70741D
:100250003D25642C6C3D25642C73673D25642C730F
:10026000743D25733A25730A0025643B25643B25BC
:10027000643B25643B25643B25730A00303B3235E3
:10028000353B25643B303B25643B00000000080003
:10029000020100000304070000000000000000014C
:1002A000020408102040800102040810200102040A
:1002B00008102004040404040404040202020202DC
:1002C00002030303030303000000002300260029A8
:1002D0000000000000250028002B00000000002482
:1002E0000027002A0000407A10F35A00A0724E182E
:1002F000090010A5D4E80000E87648170000E40BD8
:1003000054020000CA9A3B000000E1F5050000809D
:10031000969800000040420F000000A086010000F7
:1003200000102700000000E8030000000064000047
:100330000000000A00000000000100000000002C86
:1003400076D888DC674F0823DFC1DFAE59E1B1B74B
:1003500096E5E3E453C63AE651997696E8E6C28418
:1003600026EB898C9B62ED407C6FFCEFBC9C9F4030
:10037000F2BAA56FA5F490055A2AF75C936B6CF955
:10038000676DC11BFCE0E40D47FEF520E6B500D02B
:10039000ED902E0300943577050080841E08000040
:1003A000204E0A000000C80C333333330F986E120E
:1003B000831141EF8D2114893BE65516CFFEE6DB14
:1003C00018D1844B381BF77C1D901DA4BBE424205E
:1003D0003284725E228100C9F124ECA1E53D270040
:1003E000EA0A131511241FBECFEFD8E0DEBFCDBF40
:1003F00011E0A0E0B1E0E8EEF8E302C005900D9254
:10040000A634B107D9F723E0A6E4B1E001C01D92FC
:10041000A63BB207E1F713E0C4EED3E004C0229795
:10042000FE010E94BB15C03ED107C9F70E941911F9
:100430000C94721C0C9400000895089508958EBDCC
:1004400000000DB407FEFDCF8EB508951F920F92E8
:100450000FB60F9211240F900FBE0F901F9018959A
:100460008A3314F480530895813614F08755089523
:1004700087530895FC0181810C940D13FC01808148
:10048000918189130C940D1308951F93CF93DF93DB
:10049000EC01162F60E00E943A02812F8F710E94BA
:1004A0001F028FEF0E941F02182F61E0CE010E94F1
:1004B0003A02812FDF91CF911F910895CF92DF9261
:1004C000EF92FF920F931F93CF93DF9300D0CDB79E
:1004D000DEB78C01E62EF22E60E049835A830E943B
:1004E0003A028E2D8F7180620E941F02E82E498190
:1004F000C42E5A81D52EF40EFC1431F0F6018191F0
:100500006F010E941F02F8CF61E0C8010E943A0209
:100510008E2D0F900F90DF91CF911F910F91FF9033
:10052000EF90DF90CF900895EF92FF921F93CF93BB
:10053000DF931F92CDB7DEB77C01162F60E04983B1
:100540000E943A02812F8F7180620E941F02182F31
:100550004981842F0E941F0261E0C7010E943A0274
:10056000812F0F90DF91CF911F91FF90EF90089511
:10057000AF92BF92CF92DF92EF92FF920F931F93B1
:10058000CF93DF9300D0CDB7DEB78C01D62EFC0120
:10059000E380F42EE41608F4FE2CF8018481811126
:1005A00002C0EF1801C0E12C60E0C80129837A8302
:1005B0000E943A022981822F0E941F02C82EAD2C70
:1005C0007A81B72EFD0CFA1431F0F50181915F01AB
:1005D0000E941F02F8CFEE2029F080E00E941F0247
:1005E000EA94F9CF61E0C8010E943A028C2D0F9085
:1005F0000F90DF91CF911F910F91FF90EF90DF90BF
:10060000CF90BF90AF900895AF92BF92CF92DF92FC
:10061000EF92FF920F931F93CF93DF931F92CDB76B
:10062000DEB78C01D62EFC01E380F42EE41608F42C
:10063000FE2CF8018481811102C0EF1801C0E12C69
:1006400060E0C80179830E943A0281E60E941F029D
:10065000C82EAD2C7981B72EFD0CFA1439F08FEF2E
:100660000E941F02F50181935F01F7CFEE2029F070
:100670008FEF0E941F02EA94F9CF61E0C8010E9447
:100680003A028C2D0F90DF91CF911F910F91FF9027
:10069000EF90DF90CF90BF90AF9008951F93CF93CE
:1006A000DF93EC01162F60E00E943A02812F0E9436
:1006B0001F02182F61E0CE010E943A02812FDF91C4
:1006C000CF911F91089562EE0C944E0361EE0C944D
:1006D0004E036FEF0C944E03462F6E3708F04DE734
:1006E00065E00C949402CF93DF93EC0160E00E94EC
:1006F0003E0282E890E00E9465126DE1CE010E9408
:10070000450281FF03C0CE010E94660360E0CE0176
:100710000E944502482F4E7F60E0CE010E94940265
:1007200062E0CE010E944502E8E2F1E04491482BEC
:1007300062E0CE010E94940284E690E0DF91CF91C6
:100740000C946512CF93DF93EC0160E00E944502A8
:1007500081FD12C060E0CE010E944502482F426038
:1007600060E0CE010E94940265E070E080E090E0DD
:10077000DF91CF910C942B12DF91CF910895CF93FD
:10078000DF93EC01222311F020EB01C020EACE011F
:100790000E94B80261E0CE01DF91CF910C943E023D
:1007A000CF93DF93EC010E94BF03CE010E94690347
:1007B0008073D9F360E0CE010E943E0240E767E01B
:1007C000CE010E94940284FF05C0CE010E94660300
:1007D00080E001C081E0DF91CF9108951F93CF9316
:1007E000DF93EC0160E00E943A0280E60E941F0263
:1007F0008FEF0E941F02182F61E0CE010E943A0283
:10080000113258F0CE010E94630362E070E080E094
:1008100090E00E942B1280E001C0812FDF91CF91E8
:100820001F910895CF92DF92EF92FF920F931F9343
:10083000CF93DF93EC018B018F858823C9F00E9451
:100840000812CB84DC84ED84FE846C197D098E094A
:100850009F09603273408105910518F48F858111DD
:10086000EECF0E9408126B877C878D879E871F863C
:1008700067E1CE010E94450280FD0DC00115110502
:1008800061F0CE010E94690390E09595879587708D
:10089000F801808302C080E001C081E0DF91CF9148
:1008A0001F910F91FF90EF90DF90CF90089560E03F
:1008B00070E00C941204CF93DF93EC010E940403C8
:1008C00040E767E0CE01DF91CF910C949402EF9264
:1008D000FF920F931F93CF93DF93CDB7DEB7289787
:1008E0000FB6F894DEBF0FBECDBF7C0109831A831B
:1008F0002B833C834D835E836F837887FC01228545
:10090000AE014F5F5F4F6AE00E945E02F7012285F1
:10091000AE014F5F5F4F60E1C7010E945E02F701C9
:10092000438161E1C7010E94940228960FB6F894B2
:10093000DEBF0FBECDBFDF91CF911F910F91FF9012
:10094000EF900895BF92CF92DF92EF92FF920F93B4
:100950001F93CF93DF93CDB7DEB728970FB6F894E8
:10096000DEBF0FBECDBF6C01B62EE982FA820B83CB
:100970001C832D833E834F83588761110AC0FC017D
:10098000428550E0BE016F5F7F4F05960E9425169D
:1009900006C0F6E0F61778F181E0681308C0EB2D89
:1009A000F0E0EC5CFE4F6491F601228506C0E62F74
:1009B000F0E0EC5CFE4F649121E0AE014F5F5F4FD1
:1009C000C6010E945E020B2D10E0F801E25DFE4FB1
:1009D0006491F6014381C6010E94940262E0C6015F
:1009E0000E944502F801E85DFE4F4491482B62E009
:1009F000C6010E94940228960FB6F894DEBF0FBE7F
:100A0000CDBFDF91CF911F910F91FF90EF90DF90BD
:100A1000CF90BF9008951F93CF93DF93EC01162FD3
:100A200062E00E944502E12FF0E0E85DFE4F449154
:100A30004095482362E0CE01DF91CF911F910C9445
:100A40009402CF93DF93EC010E94A20360E0CE01F9
:100A50000E944502482F416060E0CE010E9494024E
:100A600040E767E0CE010E9494028D81882349F01F
:100A70002A85AE014B5F5F4F6AE0CE010E945E02A5
:100A800004C060E0CE010E940B056DE1CE010E9422
:100A9000450281FF03C0CE010E94660361E0CE01E2
:100AA000DF91CF910C943E02CF93DF93EC0160E095
:100AB0000E943A0280E50E941F0283E70E941F0203
:100AC00061E0CE01DF91CF910C943A02CF93DF9396
:100AD000EC010E9454056DE1CE010E944502482FB1
:100AE00044606DE1CE010E9494026CE1CE010E944F
:100AF0004502482F4F636CE1CE010E94940281E0D1
:100B00008C83DF91CF910895CF93DF93EC010E9406
:100B100054056DE1CE010E944502482F46606DE10B
:100B2000CE010E9494026CE1CE010E944502482F42
:100B300043606CE1CE010E94940281E08C83DF91DE
:100B4000CF910895662311F04FE301C040E061E0CA
:100B50000C949402EF92FF921F93CF93DF931F9216
:100B6000CDB7DEB77C01162F673010F561E0498301
:100B70000E9445024981442349F041E050E0012EA2
:100B800001C0440F0A94EAF7482B08C041E050E046
:100B900001C0440F1A95EAF74095482361E0C70168
:100BA0000F90DF91CF911F91FF90EF900C949402E2
:100BB0000F90DF91CF911F91FF90EF9008951F93B9
:100BC000CF93DF93EC01162F66E00E944502887FE9
:100BD000143020F4612F660F6F5F01C067E0462F6D
:100BE000482B66E0CE01DF91CF911F910C949402C7
:100BF000EF92FF920F931F93CF93DF931F92CDB786
:100C0000DEB77C018B0166E00E944502282F277D1C
:100C10000230110511F4206204C00130110509F4FD
:100C20002860422F66E0C70129830E94940266E093
:100C3000C7010E94450291E02981821390E0892F2B
:100C40000F90DF91CF911F910F91FF90EF9008953A
:100C50000F931F93CF93DF93EC018B0160E00E9411
:100C60004502482F437F0115110531F00130110570
:100C700011F4486001C04C6060E0CE01DF91CF917B
:100C80001F910F910C949402CF93DF93EC01888114
:100C90009981891719F061E00E94D41289819881A5
:100CA000981719F061E00E94D4120E942D1160E0A3
:100CB000CE010E943E0261E0CE010E943A0265E050
:100CC00070E080E090E00E942B124FE564E0CE01DE
:100CD0000E94940262E070E0CE010E94F805882331
:100CE00011F081E08A8360E070E0CE010E94F80597
:100CF00062E070E0CE010E94280640E767E0CE0186
:100D00000E9494026CE4CE010E946C03CE010E940A
:100D10006303CE010E946603CE010E94A20360E03D
:100D2000CE010E944502482F4E7F60E0CE01DF9148
:100D3000CF910C949402EF92FF920F931F93CF9355
:100D400085EC91E00E9444068091C701811102C0A8
:100D5000C0E041C061E085EC91E00E94A20540E066
:100D600062E085EC91E00E94AA0585EC91E00E948A
:100D700084056CE485EC91E00E946C0361E085ECF5
:100D800091E00E94DF0562E070E085EC91E00E9456
:100D9000F805C82F8823E1F24FE564E085EC91E087
:100DA0000E94940262E070E085EC91E00E942806C7
:100DB00085EC91E00E946605EE24EA94ECEFFE2EAD
:100DC00001EE18EA28EA30E040E050E062E085EC0D
:100DD00091E00E94A2048C2FCF911F910F91FF9060
:100DE000EF9008957F928F929F92AF92BF92CF9291
:100DF000DF92EF92FF920F931F93CF93DF931F9297
:100E0000CDB7DEB78093C401282F30E040E050E03A
:100E100060E070E080E090E034504E415745674517
:100E20007F4F8F4F9F4F862E982EA92EE22EF32EA6
:100E3000042F152F262F372F482F592F60E085ECD0
:100E400091E079830E94A204282D7981372F492DC2
:100E50005A2D61E085EC91E00E94A20485EC91E0BE
:100E60000F90DF91CF911F910F91FF90EF90DF9046
:100E7000CF90BF90AF909F908F907F900C94210562
:100E80008091C0010C94F206EF92FF920F931F9392
:100E9000CF93DF93F82EEB01E42E85EC91E00E94D6
:100EA000A20385EC91E00E9473032F2D30E040E017
:100EB00050E060E070E080E090E034504E415745F3
:100EC00067457F4F8F4F9F4F89019A01AB01BC014E
:100ED00085EC91E00E94670421E08FEFF81220E09A
:100EE0004E2DBE0185EC91E00E94D003C82F85EC09
:100EF00091E00E9421058C2FDF91CF911F910F91DE
:100F0000FF90EF900895FF920F931F93CF93DF937D
:100F10001F92CDB7DEB78C01FF24FA94F982BE018F
:100F20006F5F7F4F85EC91E00E94120489818130D0
:100F300029F48091C401F801808304C0823011F447
:100F4000F801F08285EC91E00E945704882321F09B
:100F500081E09981963008F080E00F90DF91CF9189
:100F60001F910F91FF9008951F93CF93DF93EC0192
:100F700085EC91E00E94EE03182F482FBE0185EC0E
:100F800091E00E945B04812FDF91CF911F91089522
:100F9000FC01248122952695277011F40796089567
:100FA00080E090E008956F706A3010F480E301C033
:100FB00087E3860F08959F92AF92BF92CF92DF9200
:100FC000EF92FF920F931F93CF93DF93EC018B016E
:100FD000912C892D90E0EB81E695E695E695F0E081
:100FE0008E179F0734F57C01EE0CFF1C5801AE0CE8
:100FF000BF1C6E01C80ED91EF6016781772767FDF9
:10100000709584E0759567958A95E1F7CE010E9409
:10101000D307F5018083FFEFEF1AFF0AE00EF11E00
:10102000F6016781CE010E94D307F7018083939474
:10103000D0CFEE0FFF1FE00FF11F1082C801DF912C
:10104000CF911F910F91FF90EF90DF90CF90BF90C5
:10105000AF909F9008950F931F93CF93DF938C01D0
:10106000EB01FC018481829586958770209709F4B5
:1010700062C0811115C0438146954695469550E062
:10108000B801695F7F4FCE010E942E16F80183815F
:10109000869586958695FE01E80FF11D10824EC05B
:1010A000813029F4F80187814AE090E006C082305F
:1010B00039F44AE0F801878190850E9464163EC0A9
:1010C000833039F44AE0F801878190850E94BD168B
:1010D00035C0843051F4F80167817085818592852F
:1010E0002AE0AE010E946F1629C0853051F4F80144
:1010F00067817085818592852AE0AE010E949B16EA
:101100001DC0873079F4F8012385293008F028E0E4
:10111000F80167817085818592858E0142E00E9489
:10112000BF150CC0863051F4C801DF91CF911F91DB
:101130000F910C94DB0780E090E001C0CE01DF91BD
:10114000CF911F910F910895CF93DF93EC016FE53D
:1011500072E00E942B082C819F938F938D811F92A8
:101160008F9324FB882780F91F928F9327701F92FB
:101170002F938E811F928F9389811F928F9389E67F
:1011800092E09F938F931F9288E78F9382E992E07A
:101190009F938F930E94D7168DB79EB742960FB636
:1011A000F8949EBF0FBE8DBF82E992E0DF91CF9190
:1011B00008950E94A408BC0189E193E00E9494155F
:1011C00081E00895FC012481229526952770213025
:1011D00011F487810895211104C007960E94E0153B
:1011E000089580E00895FC012481229526952770BA
:1011F000253029F4678170858185928508952111B4
:1012000003C007960C94FE1560E070E0CB010895D2
:10121000CF93DF93EC018C818F71806C8C83842F52
:1012200090E09C0153E0220F331F5A95E1F73B8178
:101230003770322B3B83493110F4AC0102C049E1D5
:1012400050E0CE0107960E942516CE01DF91CF9186
:1012500008950F931F93CF93DF93EC0161157105F0
:1012600061F0FB0101900020E9F73197E61BF70BD5
:10127000E931F10518F0E9E101C0E0E00E2F10E0DE
:10128000C801F3E0880F991FFA95E1F79B819770E9
:10129000982B9B838C818F718C83EE2329F0A8017E
:1012A000CE0107960E942E16FE01E00FF11F178255
:1012B000CE01DF91CF911F910F910895CF93DF93CE
:1012C000EC018091C00189836A838FEF8E838FE068
:1012D0008D838C81807E83608C836FE171E0CE0191
:1012E0000E9429098B81877080618B8381E08F83C5
:1012F0001886DF91CF9108956F927F928F929F927F
:10130000AF92BF92CF92DF92EF92FF920F931F9313
:10131000CF93DF93CDB7DEB76B970FB6F894DEBFF0
:101320000FBECDBF8C01CB01AE01465E5F4F64E0C6
:1013300071E00E943D16912CA12CE12CF12CB12CD6
:10134000712C812C009709F485C0E6E0EE16F104BB
:1013500009F477C023E0E216F10431F14CF4E1E046
:10136000EE16F10491F0F2E0EF16F10499F008C0E6
:1013700024E0E216F104E1F035E0E316F104E9F0CF
:101380000E94E015F80182834FC00E94E015F80129
:1013900086834AC00E94E015A82E8770F8019481C8
:1013A000987F892B848340C00E94E015982E3CC012
:1013B0000E94E015F801858337C0F4E0AF1220C029
:1013C0006C01B12CF6018081882371F10E943002FA
:1013D000682EF60181810E9430026294A0EF6A2299
:1013E000282F30E0260D311DE1E0F0E0EC0FFD1F6D
:1013F000EB0DF11D2083B394F2E0CF0ED11CE2CFB0
:10140000FC0101900020E9F7E81BE2509C012E0F3F
:10141000311DF90120812D3009F4108220812A30FC
:1014200009F41082782E892E3FEFE31AF30AAE01F9
:10143000465E5F4F64E071E080E090E00E943D1600
:1014400081CFF801118210828481877F911008C0BA
:1014500090E007C0F5E0EF16F1049CF780E016C0BD
:1014600098E0892B8F7EF8018483F4E0AF1208C0E6
:101470004B2DBE016F5F7F4FC8010E94080905C058
:10148000672D782DC8010E94290981E06B960FB65F
:10149000F894DEBF0FBECDBFDF91CF911F910F91AA
:1014A000FF90EF90DF90CF90BF90AF909F908F9084
:1014B0007F906F9008951092A0011092A1018FEF7C
:1014C0008093A5018EE08093A401E3EAF1E080819E
:1014D000807E8360808366E071E08FE991E00E9406
:1014E00029090E94D90881E00895FC018381877051
:1014F0008860838384818F71806284836783CF0156
:10150000089590910A03891739F180930A03109284
:10151000A0011092A1019FEF9093A50195E09093F7
:10152000A4019091A301907E93609093A301682FF2
:101530008FE991E00E94750A0E94D90880910A0300
:10154000882351F00E94FC1160930B0370930C03ED
:1015500080930D0390930E0308950F931F93809132
:101560000A03811105C083E00E944313892BE1F037
:1015700080910A038823E1F00E94FC1100910B0383
:1015800010910C0320910D0330910E03601B710B21
:10159000820B930B61367A4E8105910548F080E00D
:1015A0001F910F910C94810A81E00E94810AE0CF83
:1015B0001F910F910895FC0184818F71806A84834B
:1015C00083818770806283834783508761877287B6
:1015D000CF0108951092DA0189E08093C5018AE075
:1015E0008093C6011092C70180E28093C8011092D7
:1015F000C90185E08093CF011092A1011092800172
:101600000895EF92FF920F931F93CF93DF93CDB77F
:10161000DEB7CC52D1400FB6F894DEBF0FBECDBFBF
:10162000CE018B5C9E4FFC01819191917F011F92B5
:1016300089E08F931F9283E08F938CE792E09F93D2
:101640008F9381E08F938BE28F938E010F5F1F4FFB
:101650001F930F930E94D716B80189E193E00E946F
:1016600094159701CB5CDE4F48815981C553D14019
:1016700068E770E0C8010E9407178AE0E9968FAF1B
:10168000E997EA961FAEEA97B80189E193E00E94D4
:10169000941589E193E00E94C8130FB6F894DEBF59
:1016A0000FBECDBFC45DDE4F0FB6F894DEBF0FBED8
:1016B000CDBFDF91CF911F910F91FF90EF900895D3
:1016C0000F931F93CF93DF93182FEB014B814C7F28
:1016D00042604B8342FD04C046954695469501C045
:1016E00040E28091C0018883242F30E02A31310507
:1016F00014F4495F01C040E2BE01812F0E944407FB
:10170000082F6BE471E0CE010E942B081F3F29F0E7
:10171000002331F028E231E005C025E231E002C0CB
:1017200020E231E05B814C819F938F933F932F9315
:1017300052FB882780F91F928F93569556955695A0
:101740001F925F93842F8295869587701F928F9347
:101750008D811F928F9347701F924F938E811F929E
:101760008F938A811F928F931F921F9388811F925C
:101770008F9389811F928F932DE232E03F932F93B5
:101780000E94010B8DB79EB74A960FB6F8949EBF84
:101790000FBE8DBF802FDF91CF911F910F910895C4
:1017A00026E040E052EC61E070E089E193E00E94C5
:1017B0004F1480E090E0892B11F00E94000081E03E
:1017C00091E09F938F930E94010B1092D6010E948B
:1017D0009B060F900F90811109C08FED90E09F93B1
:1017E0008F930E94010B0F900F90FFCF87EC90E03A
:1017F0009F938F930E94010B10920A0360E083E095
:101800000E94D41261E083E00E940D130E945B0AE3
:101810000F900F90811109C08BEA90E09F938F93F6
:101820000E94010B0F900F90FFCF41E050E063E06A
:1018300071E083EC91E00E9405198091C3018F3F14
:1018400019F481E08093C3011092C1011092C2018A
:101850001092C0018CE192E0892B11F00E941C02D1
:101860000E9440078DE192E0892B11F00E941D0239
:101870008091C2011F928F938091C1011F928F931B
:101880008091C0011F928F938DE790E09F938F937B
:101890000E94010B8DB79EB708960FB6F8949EBFB5
:1018A0000FBE8DBF0895CF93C0E089E193E00E9401
:1018B0006C13892B11F189E193E00E94851320912B
:1018C000F9013091FA012336310594F4C11110C0A9
:1018D000F901E550FE4F8A3019F41082C1E0E5CFDE
:1018E00080832F5F3F4F3093FA012093F901DDCFC2
:1018F0001092FA011092F901D8CFCC2359F06BEF76
:1019000071E088ED91E00E947C09C82F1092FA01E5
:101910001092F9018C2FCF9108950E94530C8823C7
:1019200009F465C081E2E8EDF1E0AFE9B1E00190D2
:101930000D928A95E1F78091A101811154C08091A7
:10194000A30183FF1BC081E2EFE9F1E0AEE7B1E064
:1019500001900D928A95E1F780918201877F8061E5
:10196000809382018091C00180937F018091A001CA
:10197000809380018EE791E00E94D9089091A301A5
:10198000892F8770833039F58091A4018230A1F4CA
:101990001092A0011092A1012FEF2093A501892F91
:1019A000807E83608093A3016BE271E08FE991E018
:1019B0000E9429090C94D908853059F486EA91E0EF
:1019C0000E94E01521E0019709F020E0822F0C949D
:1019D000810A0C948F0E80E090E0892B41F08FE912
:1019E00091E00C9400008FE991E00C94D30D0895E0
:1019F000A8950E94AD0A0E948D0C0C94210F8F9225
:101A00009F92AF92BF92CF92DF92EF92FF926B01C3
:101A10007C010E94FC114B015C010E94FC116819C1
:101A200079098A099B096C157D058E059F0518F4B7
:101A30000E94F80CF2CFFF90EF90DF90CF90BF9014
:101A4000AF909F908F900895CF9380914601811120
:101A500034C081E0809346011092D601CFEFC0934D
:101A6000C20180E092E09F938F930E94010B8091CE
:101A7000C0018093A001C093A101C093A50187E09C
:101A80008093A4018091A301807E83608093A30151
:101A90006FE171E08FE991E00E9429096FE971E03F
:101AA0008FEF0E94600B60ED77E080E090E00E9495
:101AB000FF0C109246010F900F90CF9108958F92D6
:101AC0009F92AF92BF92CF92DF92EF92FF921F93BD
:101AD000CF93DF934B015C01C42F122F0E94FC11A6
:101AE0006B017C0181E0111180E08093A401D0E0C2
:101AF0000E94FC116C197D098E099F0968157905F2
:101B00008A059B0570F48091A301877090E08C1783
:101B10009D0721F48091A401811719F00E94F80C0F
:101B2000E7CFDF91CF911F91FF90EF90DF90CF90A3
:101B3000BF90AF909F908F900895CF93DF938DE0EB
:101B400092E09F938F930E94010BC0ECD1E08881BB
:101B50000E94F20688818093A0011092A1018FEF6C
:101B60008093A50183E08093A401E3EAF1E0808102
:101B7000807E836080836FE171E08FE991E00E9455
:101B800029096FE971E08091C1010E94600B0F90FB
:101B90000F9024E043E060ED77E080E090E0DF919B
:101BA000CF910C945F0D0F931F93CF93DF93EC01B4
:101BB00068818091C1018F3F19F40E94240D54C0A7
:101BC0008091C0018F3F19F40E949D0D4DC08B8103
:101BD0008C7F82608B8309811A8111110DC0802F47
:101BE00090E003960E941D19BE018091C1010E94E0
:101BF000600B811135C028C01F3F31F0812F90E06C
:101C000003960E94151901C08FEF9FEF980F9E3F1A
:101C100010F4BE0106C001110AC01F3F41F4BE010D
:101C20008FEFDF91CF911F910F910C94600B1F925A
:101C30001F9385E192E09F938F930E94010B0F9079
:101C40000F900F900F9010C08091D6018F5F8093FE
:101C5000D6019091D701992339F0863028F0ADCF85
:101C60001092D60181E001C080E0DF91CF911F91F9
:101C70000F910895409147015091480160914901A9
:101C800070914A014F5F5F4F6F4F7F4F4093470105
:101C9000509348016093490170934A01FC013281DD
:101CA0002091C001321302C00C94D9080C94D30DBA
:101CB000CF93DF93EC0169818C818770833059F475
:101CC0008D818F3041F4CE010E945E09CE010E94C9
:101CD0003A0E81E001C080E0DF91CF9108954091FC
:101CE0004701509148016091490170914A018091EA
:101CF000C0018093A0011092A1018FEF8093A501F4
:101D000086E18093A401E3EAF1E08081807E836034
:101D100080838FE991E00E94DB0A0C943A0ECF9306
:101D20008091A4018D3061F428E088E190E00FB645
:101D3000F894A895809360000FBE20936000FFCFB9
:101D4000863099F48FE991E00E94C80761E000971E
:101D500029F0FC0180818D3409F060E06093C301BB
:101D600083E091E0CF910C941D19833171F480913F
:101D7000A30184FD64C00E9440078DE192E0892B9D
:101D800009F45DC0CF910C941D02823119F4CF91FA
:101D90000C946F0E813061F480E090E0892B09F49F
:101DA0004EC08FE991E00E94F308CF910C9400009F
:101DB0008A3009F044C08FE991E00E94C807FC0115
:101DC00080818334E1F588E690E09F938F930E94B1
:101DD000010B0F900F90CFEF8C2F90E06FEF0396D9
:101DE0000E941D198FEF8C0FCC2311F0C82FF4CF58
:101DF0006FEF81E090E00E941D196FEF82E090E0AC
:101E00000E941D190E94240D8091C0018093A001A1
:101E10001092A1018FEF8093A5018AE08093A40125
:101E20008091A301807E83608093A3016FE171E0C4
:101E30008FE991E00E942909CF910C943A0ECF913D
:101E40000895DF92EF92FF920F931F93CF93DF934A
:101E500000D0CDB7DEB71982CE0101960E9483076C
:101E6000882309F4DCC18FE991E00E94B407D09087
:101E7000A3010091A4011091A001E0909F01F090B6
:101E8000A1018091C0016BE471E0F8122EC08FE9CE
:101E900091E00E942B083091A2012091A3019F9311
:101EA0008F9332FB882780F91F928F933695369552
:101EB00036951F923F93822F8295869587701F9249
:101EC0008F931F920F9327701F922F938091A501DC
:101ED0001F928F931F92FF9280919F011F928F9369
:101EE0001F921F938DEC91E02DC08FE991E00E942D
:101EF0002B083091A2012091A3019F938F9332FB75
:101F0000882780F91F928F933695369536951F92C4
:101F10003F93822F8295869587701F928F931F9291
:101F20000F9327701F922F938091A5011F928F937B
:101F30001F92FF9280919F011F928F931F921F9378
:101F400081E991E09F938F930E94010B0FB6F89463
:101F5000DEBF0FBECDBFE091A2018E2F8370823015
:101F600049F083E891E09F938F930E94010B0F90BB
:101F70000F9055C14D2D47708091C001F812C7C018
:101F80002E2F26952695269530E02A31310514F01E
:101F900029E130E0B3E0220F331FBA95E1F7E77093
:101FA000E22BE093A201E695E695E695F0E0E15696
:101FB000FE4F178260919F018091C101681739F02F
:101FC000812F90E003964A830E941D194A818091D7
:101FD000A30183FF1BC081E2EFE9F1E0AEE7B1E0CE
:101FE00001900D928A95E1F780918201877F80614F
:101FF000809382018091C00180937F0110938001C2
:102000008EE791E04A830E943A0E4A81433009F0FC
:1020100070C08FE991E00E94580E811100C1083014
:10202000C9F58091D701882309F4F9C08FE991E0BF
:102030000E94E2088F3F09F4F2C08F5F8F3F09F4DE
:10204000EEC09091C201891708F0E9C08093C201E7
:102050001093C101612F81E090E00E941D196091F1
:10206000C20182E090E00E941D198091C2011F927E
:102070008F938091C1011F928F9382E791E09F938C
:102080008F930E94010B0F900F900F900F900F9065
:102090000F90C5C011112DC0043041F58091C001D1
:1020A0008F3F21F58FE991E00E94E2088093C00103
:1020B0008F3F49F48CE691E09F938F930E94010B30
:1020C0000F900F90FFCF0E9440076091C00180E009
:1020D00090E00E941D198091C0011F928F9385E6A8
:1020E00091E09F938F930E94010B4EC00E948F0E30
:1020F00096C08FE991E00E94D90880E090E0892B9A
:1021000009F48DC08FE991E00E94000088C09FEF24
:10211000F9123FC0433009F075C0043109F07CC0AA
:102120009091C101E9126EC023E531E03F932F93F6
:102130000E94010B0E94FC117370882799270E944E
:10214000FF0C6091C1018091C00180937F011093C9
:102150008001F092840185E1809383018091820166
:10216000807E8360809382018EE791E00E94750AF1
:102170000E943A0E8AE391E09F938F930E94010B95
:102180008FE991E00E943A0E0F900F900F900F9000
:1021900046C08F3F09F443C04330B1F50730A1F585
:1021A0008091C1011817D9F18091C2018F3F11F4BC
:1021B0000E94240D8091C2018F3F89F10E94FC1181
:1021C0007370882799270E94FF0C6091C20180914B
:1021D000C0018093A0011093A1018FEF8093A5010E
:1021E00088E08093A4018091A301807E8360809326
:1021F000A3018FE991E00E94750ABC01812F0E9422
:10220000600B0DC08F3F59F09981981308C08FE97A
:1022100091E00E943A0E03C08F3F09F0BFCF0F90AC
:102220000F90DF91CF911F910F91FF90EF90DF9072
:1022300008950E9470120E94D00BCEE1D2E009E90D
:1022400013E10E94F80C209711F00E941E02011564
:102250001105B9F30E949913F4CFCF93CFB7F89437
:1022600080910F03811127C0EDEBF2E08491E9EA40
:10227000F2E09491E82FF0E0EE0FFF1FE552FD4FE2
:10228000A591B4918C91892321F461E08AE00E94A8
:102290000D1361E08AE00E94D4128CB580618CBD80
:1022A0008CB580648CBD61E08DE00E94D41261E049
:1022B0008BE00E94D41280910F038F5F80930F03F5
:1022C000CFBFCF91089508951F920F920FB60F922E
:1022D00011242F933F934F935F936F937F938F932B
:1022E0009F93AF93BF93EF93FF93E0910001F09121
:1022F00001010995FF91EF91BF91AF919F918F914E
:102300007F916F915F914F913F912F910F900FBEF1
:102310000F901F9018951F920F920FB60F921124D5
:102320002F933F934F935F936F937F938F939F93DD
:10233000AF93BF93EF93FF93E0910201F0910301FC
:102340000995FF91EF91BF91AF919F918F917F91EF
:102350006F915F914F913F912F910F900FBE0F9012
:102360001F9018951F920F920FB60F9211242F9362
:102370003F938F939F93AF93BF938091110390915D
:102380001203A0911303B09114033091100323E0C2
:10239000230F2D3720F40196A11DB11D05C026E89D
:1023A000230F0296A11DB11D2093100380931103EA
:1023B00090931203A0931303B09314038091150319
:1023C00090911603A0911703B09118030196A11DD7
:1023D000B11D8093150390931603A0931703B09338
:1023E0001803BF91AF919F918F913F912F910F90C3
:1023F0000FBE0F901F9018952FB7F894609111039E
:102400007091120380911303909114032FBF0895CC
:102410003FB7F8948091150390911603A09117038C
:10242000B091180326B5A89B05C02F3F19F001965F
:10243000A11DB11D3FBF6627782F892F9A2F620FEC
:10244000711D811D911D42E0660F771F881F991F26
:102450004A95D1F708958F929F92AF92BF92CF92F3
:10246000DF92EF92FF926B017C010E9408124B01F8
:102470005C01C114D104E104F104F1F00E9496154D
:102480000E940812681979098A099B09683E7340FD
:102490008105910570F321E0C21AD108E108F10825
:1024A00088EE880E83E0981EA11CB11CC114D104D3
:1024B000E104F10429F7DDCFFF90EF90DF90CF909A
:1024C000BF90AF909F908F9008958230910538F023
:1024D000880F991F880F991F05970197F1F70895A5
:1024E000789484B5826084BD84B5816084BD85B5EF
:1024F000826085BD85B5816085BDEEE6F0E08081B6
:1025000081608083E1E8F0E01082808182608083D6
:10251000808181608083E0E8F0E080818160808359
:10252000E1EBF0E0808184608083E0EBF0E080818B
:1025300081608083EAE7F0E080818460808380812D
:1025400082608083808181608083808180688083D5
:102550001092C1000895833081F028F4813099F001
:102560008230A1F008958730A9F08830B9F0843026
:10257000D1F4809180008F7D03C0809180008F779F
:1025800080938000089584B58F7702C084B58F7DD5
:1025900084BD08958091B0008F7703C08091B00012
:1025A0008F7D8093B0000895CF93DF9390E0FC017E
:1025B000E156FD4F2491FC01ED54FD4F8491882399
:1025C00049F190E0880F991FFC01E552FD4FA5915C
:1025D000B4918F529D4FFC01C591D4919FB7611169
:1025E00008C0F8948C91209582238C938881822353
:1025F0000AC0623051F4F8948C91322F30958323C5
:102600008C938881822B888304C0F8948C91822BD0
:102610008C939FBFDF91CF9108950F931F93CF931A
:10262000DF931F92CDB7DEB7282F30E0F901E557D1
:10263000FD4F8491F901E156FD4F1491F901ED54DC
:10264000FD4F04910023C9F0882321F069830E9483
:10265000AB126981E02FF0E0EE0FFF1FEF52FD4F4C
:10266000A591B4919FB7F8948C91611103C0109516
:10267000812301C0812B8C939FBF0F90DF91CF915D
:102680001F910F910895CF93DF93282F30E0F90128
:10269000E557FD4F8491F901E156FD4FD491F901C1
:1026A000ED54FD4FC491CC2391F081110E94AB12E7
:1026B000EC2FF0E0EE0FFF1FE953FD4FA591B49111
:1026C0002C912D2381E090E021F480E002C080E095
:1026D00090E0DF91CF910895FC01818D228D90E0F3
:1026E000805C9F4F821B91098F7399270895FC018D
:1026F000918D828D981731F0828DE80FF11D858DB7
:1027000090E008958FEF9FEF0895FC01918D828DE9
:10271000981761F0828DDF01A80FB11D5D968C9135
:10272000928D9F5F9F73928F90E008958FEF9FEF40
:10273000089589E095E1892B49F080E090E0892BAC
:1027400029F00E94091581110C9400000895FC01E4
:10275000848DDF01A80FB11DA35ABF4F2C91848D2A
:1027600090E001968F739927848FA689B7892C935F
:10277000A089B1898C9180648C93938D848D9813FA
:1027800006C00288F389E02D80818F7D80830895C3
:10279000CF93DF93EC01888D8823C9F0EA89FB8908
:1027A000808185FD05C0A889B9898C9186FD0FC0FF
:1027B0000FB607FCF5CF808185FFF2CFA889B989D4
:1027C0008C9185FFEDCFCE010E94A713E7CFDF915B
:1027D000CF910895CF92DF92FF920F931F93CF93E3
:1027E000DF931F92CDB7DEB76C0181E0D60158961A
:1027F0008C9358975B969C915B975C968C915C97B9
:10280000981307C05096ED91FC915197808185FDFA
:102810002EC0F601038D10E00F5F1F4F0F731127BD
:10282000F02EF601848DF81211C00FB607FCF9CF17
:10283000D6015096ED91FC915197808185FFF1CFA3
:10284000C60169830E94A7136981EBCF838DE80FCE
:10285000F11DE35AFF4F6083D6015B960C935B97A3
:102860005296ED91FC915397808180620CC0D60105
:102870005696ED91FC91579760835096ED91FC919F
:10288000519780818064808381E090E00F90DF9198
:10289000CF911F910F91FF90DF90CF900895BF923D
:1028A000CF92DF92EF92FF92CF93DF93EC016A0118
:1028B0007B01B22EE889F98982E08083411581EE9F
:1028C000580761057105A1F060E079E08DE390E0C3
:1028D000A70196010E94971521503109410951091C
:1028E0005695479537952795211580E1380798F03B
:1028F000E889F989108260E874E88EE190E0A70128
:1029000096010E94971521503109410951095695A8
:10291000479537952795EC85FD853083EE85FF85B6
:102920002083188EEC89FD89B082EA89FB89808139
:1029300080618083EA89FB89808188608083EA895D
:10294000FB89808180688083EA89FB8980818F7D13
:102950008083DF91CF91FF90EF90DF90CF90BF9079
:1029600008951F920F920FB60F9211242F938F93F9
:102970009F93EF93FF93E0912903F0912A038081C5
:10298000E0912F03F091300382FD12C0908180917D
:1029900032038F5F8F7320913303821751F0E091E0
:1029A0003203F0E0E75EFC4F958F8093320301C065
:1029B0008081FF91EF919F918F912F910F900FBE8A
:1029C0000F901F9018951F920F920FB60F9211241F
:1029D0002F933F934F935F936F937F938F939F9327
:1029E000AF93BF93EF93FF9389E193E00E94A71306
:1029F000FF91EF91BF91AF919F918F917F916F91D7
:102A00005F914F913F912F910F900FBE0F901F90AC
:102A1000189589E193E00E946C1321E0892B09F459
:102A200020E0822F089510921C0310921B0388EE61
:102A300093E0A0E0B0E080931D0390931E03A09369
:102A40001F03B09320038AE391E090931A038093CD
:102A5000190385EC90E0909326038093250384EC82
:102A600090E0909328038093270380EC90E090936C
:102A70002A038093290381EC90E090932C038093A8
:102A80002B0382EC90E090932E0380932D0386EC31
:102A900090E09093300380932F03109232031092B2
:102AA000330310923403109235030895CF92DF92CE
:102AB000EF92FF920F931F93CF93DF937C016A01F4
:102AC000EB0100E010E00C151D0571F06991D701D4
:102AD000ED91FC910190F081E02DC7010995892BC2
:102AE00019F00F5F1F4FEFCFC801DF91CF911F91FA
:102AF0000F91FF90EF90DF90CF90089561157105D1
:102B000081F0DB010D900020E9F7AD014150510942
:102B1000461B570BDC01ED91FC910280F381E02D07
:102B2000099480E090E008950C947E150895A1E248
:102B30001A2EAA1BBB1BFD010DC0AA1FBB1FEE1F37
:102B4000FF1FA217B307E407F50720F0A21BB30B82
:102B5000E40BF50B661F771F881F991F1A9469F7FE
:102B600060957095809590959B01AC01BD01CF015A
:102B70000895EE0FFF1F0590F491E02D0994EF9258
:102B80000F931F93CF93DF93E80147FF02C034E117
:102B900001C034E0E42FFF27E7FDF095F7FF03C005
:102BA000F195E195F109E32E022F2E2FAE010E943F
:102BB0002F19CE01DF91CF911F910F91EF900895C2
:102BC000FC0188279927E89421912032E9F32930E4
:102BD00010F02E30C8F32B3241F02D3239F46894C6
:102BE00004C00E949316820F911D219120532A3018
:102BF000C0F31EF4909581959F4F08951F93FC019B
:102C000099278827BC01E89411911032E9F3193013
:102C100010F01E30C8F31B3251F01D3249F4689495
:102C200006C00E947E16610F711D811D911D1191BC
:102C300010531A30B0F33EF49095809570956195DD
:102C40007F4F8F4F9F4F1F910895FB01DC0102C002
:102C500001900D9241505040D8F70895FB01DC01DE
:102C60004150504048F001900D920020C9F701C03A
:102C70001D9241505040E0F70895FA01A191B081B2
:102C8000009719F41097E1F0CD01DC01CD010D9012
:102C9000002011F4C00113C0FB012191222319F07F
:102CA0002015D9F7F3CFFB012191201519F41E92BD
:102CB000119606C02223C1F70D900020A1F7D00184
:102CC000FA01A193B0830895BB274A3031F49923C8
:102CD00022F4BDE2909581959F4F0C94BE16BB27C0
:102CE0002A3051F4992342F4BDE290958095709575
:102CF00061957F4F8F4F9F4F0C949C16592F482FF3
:102D0000372F262F660F771F881F991F660F771F93
:102D1000881F991F620F731F841F951F660F771FEF
:102D2000881F991F08957AE0979F902D879F802D87
:102D3000910D11240895BB27FA01A62F6217710582
:102D400081059105330B30FB66F0AA27660F771FCC
:102D5000881F991FAA1FA21710F0A21B6395385055
:102D6000A9F7A05DAA3308F0A95DA19336F7B111C8
:102D7000B1931082CA010C949B1BBB27FB01552702
:102D8000AA27880F991FAA1FA41710F0A41B8395C8
:102D90005051B9F7A05DAA3308F0A95DA19300973F
:102DA00079F7B111B1931192CB010C949B1BAEE05A
:102DB000B0E0EDEDF6E10C94491C0D891E898F8978
:102DC000988D2EE02C831A83098397FF02C080E040
:102DD00090E801979E838D83AE01455E5F4F698DBC
:102DE0007A8DCE0101960E9433174D815E8157FD89
:102DF0000AC02F813885421753070CF49A01F80155
:102E0000E20FF31F10822E96E4E00C94651CAEE0F6
:102E1000B0E0EDE0F7E10C94491C8C01CA014EE0F2
:102E20004C831A83098377FF02C060E070E8615029
:102E300071097E836D83A901BC01CE0101960E94B8
:102E400033174D815E8157FD0AC02F8138854217A7
:102E500053070CF49A01F801E20FF31F10822E962B
:102E6000E4E00C94651CACE0B0E0E9E3F7E10C941D
:102E70003B1C7C016B018A01FC0117821682838155
:102E800081FFBDC1CE0101964C01F7019381F6018E
:102E900093FD859193FF81916F01882309F4ABC164
:102EA000853239F493FD859193FF81916F018532CD
:102EB00029F4B70190E00E94AB1BE7CF512C312CD5
:102EC00020E02032A0F48B3269F030F4803259F0E7
:102ED000833269F420612CC08D3239F0803339F4AB
:102EE000216026C02260246023C0286021C027FD05
:102EF00027C030ED380F3A3078F426FF06C0FAE0EC
:102F00005F9E300D1124532E13C08AE0389E300D81
:102F10001124332E20620CC08E3221F426FD6BC1A9
:102F2000206406C08C3611F4206802C0883641F453
:102F3000F60193FD859193FF81916F018111C1CFBE
:102F4000982F9F7D9554933028F40C5F1F4FFFE31B
:102F5000F9830DC0833631F0833771F0833509F082
:102F60005BC022C0F801808189830E5F1F4F44241B
:102F70004394512C540115C03801F2E06F0E711CBE
:102F8000F801A080B18026FF03C0652D70E002C06B
:102F90006FEF7FEFC5012C870E94901B2C018301EE
:102FA0002C852F77222E17C03801F2E06F0E711C8E
:102FB000F801A080B18026FF03C0652D70E002C03B
:102FC0006FEF7FEFC5012C870E94851B2C012C859C
:102FD0002068222E830123FC1BC0832D90E048161D
:102FE0005906B0F4B70180E290E00E94AB1B3A941E
:102FF000F4CFF50127FC859127FE81915F01B70190
:1030000090E00E94AB1B31103A94F1E04F1A510846
:103010004114510471F7E5C0843611F0893639F551
:10302000F80127FF07C060817181828193810C5F65
:103030001F4F08C060817181882777FD8095982F88
:103040000E5F1F4F2F76B22E97FF09C09095809587
:10305000709561957F4F8F4F9F4F2068B22E2AE069
:1030600030E0A4010E94DD1BA82EA81844C08537BB
:1030700029F42F7EB22E2AE030E025C0F22FF97F0E
:10308000BF2E8F36C1F018F4883579F0B4C0803780
:1030900019F0883721F0AFC02F2F2061B22EB4FE77
:1030A0000DC08B2D8460B82E09C024FF0AC09F2F4D
:1030B0009660B92E06C028E030E005C020E130E07F
:1030C00002C020E132E0F801B7FE07C060817181E3
:1030D000828193810C5F1F4F06C06081718180E007
:1030E00090E00E5F1F4FA4010E94DD1BA82EA818C0
:1030F000FB2DFF77BF2EB6FE0BC02B2D2E7FA51408
:1031000050F4B4FE0AC0B2FC08C02B2D2E7E05C0C0
:103110007A2C2B2D03C07A2C01C0752C24FF0DC0F6
:10312000FE01EA0DF11D8081803311F4297E09C072
:1031300022FF06C07394739404C0822F867809F02E
:10314000739423FD13C020FF06C05A2C731418F487
:10315000530C5718732C731468F4B70180E290E095
:103160002C870E94AB1B73942C85F5CF731410F43D
:10317000371801C0312C24FF12C0B70180E390E062
:103180002C870E94AB1B2C8522FF17C021FF03C098
:1031900088E590E002C088E790E0B7010CC0822F7C
:1031A000867859F021FD02C080E201C08BE227FD44
:1031B0008DE2B70190E00E94AB1BA51438F4B70173
:1031C00080E390E00E94AB1B5A94F7CFAA94F401DD
:1031D000EA0DF11D8081B70190E00E94AB1BA110A8
:1031E000F5CF332009F451CEB70180E290E00E9480
:1031F000AB1B3A94F6CFF7018681978102C08FEF1F
:103200009FEF2C96E2E10C94571CDC01CB01FC01F2
:10321000F999FECF06C0F2BDE1BDF89A319600B42F
:103220000D9241505040B8F70895F999FECF92BDE4
:1032300081BDF89A992780B50895262FF999FECF78
:1032400092BD81BDF89A019700B4021639F01FBAF9
:1032500020BD0FB6F894FA9AF99A0FBE08956F92AE
:103260007F929F92AF92BF92CF92DF92EF92FF92A6
:103270000F931F93CF93DF93CDB7DEB729970FB688
:10328000F894DEBF0FBECDBF6A01B22E102F0C33F3
:1032900020F4FF24F394F00E02C04CE3F42E0F2D23
:1032A00027E0AE014F5F5F4F0E94AD1A7981272F53
:1032B0002970213031F0E1FC06C0E0FC06C060E07E
:1032C00005C06DE203C06BE201C060E2AE2DA071EB
:1032D00073FF36C0662311F084E001C083E08B15D4
:1032E00010F4B81A01C0B12CA1110BC0F6018B2D3E
:1032F00090E2882319F091938150FBCFCB0CD11C25
:10330000B12C662331F0F601608396012F5F3F4FA9
:103310006901C6010396E2FE05C02EE4F601208392
:1033200031E404C02EE6F601208331E631832283A6
:10333000FC012B2D30E22223F1F131932150FBCF00
:1033400072FF40C0662311F084E001C083E08B155A
:1033500010F4B81A01C0B12CA1110BC0F6018B2DCD
:1033600090E2882319F091938150FBCFCB0CD11CB4
:10337000B12C662331F0F601608396012F5F3F4F39
:103380006901C6010396E2FE07C029E4F601208325
:103390002EE4218326E406C029E6F60120832EE6EA
:1033A000218326E62283FC012B2D30E2222319F013
:1033B00031932150FBCFFC01EB0DF11D10828EEFFC
:1033C0009FEFB7C0B1E0611101C0B0E04B2F50E0FA
:1033D0001816190624F49C012F5F3F4F02C021E00C
:1033E00030E0240F351F112329F0412F50E04F5FAB
:1033F0005F4F02C040E050E0420F531F2B2D30E0E2
:103400004217530714F4B41A01C0B12C2E2D2871A1
:1034100059F4F6012B2D30E2222319F0319321507B
:10342000FBCFCB0CD11CB12CBB2331F0F601608358
:1034300096012F5F3F4F6901A1110BC0F6012B2DA3
:1034400030E3222319F031932150FBCFCB0CD11C58
:10345000B12CF80E0A81372F3071A32E74FF03C0F0
:10346000013309F4FA941F142CF42F2D293018F08D
:1034700028E001C021E0682F392F97FF02C060E0EB
:1034800030E0462F532F612C712C3EE2932EBC016D
:10349000621B71099B01DC01A41BB50BE1E0F0E0AC
:1034A000EC0FFD1FAE0FBF1FE12EF12CF194E19444
:1034B000F1084F3FFFEF5F0731F4F6019082B6014C
:1034C0006F5F7F4F6B01841795074CF0241735070A
:1034D00034F4BD01660D771DFB01118101C010E3BD
:1034E00041505109FFEF6F1A7F0AB6016F5F7F4F9E
:1034F0004E155F0524F0F60110836B01DACF4817F3
:10350000590739F4063320F4053319F4A11001C02A
:1035100011E3F6011083FB018B2D90E2882319F053
:1035200091938150FBCFFB01EB0DF11D108280E0E8
:1035300090E029960FB6F894DEBF0FBECDBFDF91A5
:10354000CF911F910F91FF90EF90DF90CF90BF90A0
:10355000AF909F907F906F900895283008F027E0FB
:103560003327DA01990F311D87FD916000966105BF
:10357000710539F432602E5F3D9330E32A95E1F70F
:1035800008959F3F30F080387105610509F03C5F78
:103590003C5F3D93913008F08068911DDF93CF939D
:1035A0001F930F93FF92EF92192F987F9695E92F13
:1035B00096959695E90FFF27E15CFC4F99273327F5
:1035C000EE24FF24A701E70105900894079428F44E
:1035D000360FE71EF81E491F511D660F771F881F03
:1035E000991F0694A1F70590079428F4E70EF81E9A
:1035F000491F561FC11D770F881F991F661F06940C
:10360000A1F70590079428F4F80E491F561FC71F0D
:10361000D11D880F991F661F771F0694A1F705908B
:10362000079420F4490F561FC71FD81F990F661F14
:10363000771F881F0694A9F784911095177041F0A1
:10364000D695C79557954795F794E7941A95C1F77E
:10365000E5EEF2E06894159015913591659195919C
:1036600005907FE27395E118F10A430B560BC90BE5
:10367000D009C0F7E10CF11E431F561FC91FD01D12
:103680007EF4703311F48A95E6CFE894015030F05F
:10369000080F0AF40027021708F4202F2395022FA1
:1036A0007A3328F079E37D932A95E9F710C07D936A
:1036B0002A9589F6069497956795379517951794E7
:1036C000E118F10A430B560BC90BD00998F023956A
:1036D0007E9173957A3308F070E37C932013B8F7EA
:1036E0007E9170617D9330F0839571E37D9370E3FB
:1036F0002A95E1F71124EF90FF900F911F91CF9140
:10370000DF91992787FD90950895FC010590615000
:1037100070400110D8F7809590958E0F9F1F0895E7
:10372000FC016150704001900110D8F78095909590
:103730008E0F9F1F0895DC01FC01672F7191772385
:10374000E1F7329704C07C916D9370836291AE175C
:10375000BF07C8F308950F931F93CF93DF93182FDC
:10376000092FEB018B8181FD03C08FEF9FEF20C0FC
:1037700082FF10C04E815F812C813D81421753072B
:103780007CF4E881F9819F012F5F3F4F39832883C3
:10379000108306C0E885F985812F0995892B29F7C3
:1037A0002E813F812F5F3F4F3F832E83812F902FAC
:1037B000DF91CF911F910F910895FA01AA27283028
:1037C00051F1203181F1E8946F936E7F6E5F7F4FEE
:1037D0008F4F9F4FAF4FB1E03ED0B4E03CD0670F6A
:1037E000781F891F9A1FA11D680F791F8A1F911DBD
:1037F000A11D6A0F711D811D911DA11D20D009F40D
:1038000068943F912AE0269F11243019305D31934E
:10381000DEF6CF010895462F4770405D4193B3E037
:103820000FD0C9F7F6CF462F4F70405D4A3318F0DE
:10383000495D31FD4052419302D0A9F7EACFB4E08F
:10384000A6959795879577956795BA95C9F7009747
:103850006105710508959B01AC010A2E06945795E8
:10386000479537952795BA95C9F7620F731F841F3F
:10387000951FA01D08952F923F924F925F926F92D5
:103880007F928F929F92AF92BF92CF92DF92EF92F0
:10389000FF920F931F93CF93DF93CDB7DEB7CA1B71
:1038A000DB0B0FB6F894DEBF0FBECDBF09942A889C
:1038B000398848885F846E847D848C849B84AA8444
:1038C000B984C884DF80EE80FD800C811B81AA81D1
:1038D000B981CE0FD11D0FB6F894DEBF0FBECDBF9C
:0838E000ED010895F894FFCFFB
:1038E800631163113B0047617465776179207374D4
:1038F800617274757020636F6D706C6574652E00ED
:103908006661696C006263006F6B00322E302E3086
:103918002D626574610000000000EA1356156C13EF
:0639280085137713C8139C
:107800000C94343C0C94513C0C94513C0C94513CE1
:107810000C94513C0C94513C0C94513C0C94513CB4
:107820000C94513C0C94513C0C94513C0C94513CA4
:107830000C94513C0C94513C0C94513C0C94513C94
:107840000C94513C0C94513C0C94513C0C94513C84
:107850000C94513C0C94513C0C94513C0C94513C74
:107860000C94513C0C94513C11241FBECFEFD8E036
:10787000DEBFCDBF11E0A0E0B1E0ECE9FFE702C060
:1078800005900D92A230B107D9F712E0A2E0B1E065
:1078900001C01D92AD30B107E1F70E942D3D0C945F
:1078A000CC3F0C94003C982F959595959595959582
:1078B000905D8F708A307CF0282F295A8091C0000B
:1078C00085FFFCCF9093C6008091C00085FFFCCF60
:1078D0002093C6000895282F205DF0CF982F809127
:1078E000C00085FFFCCF9093C6000895EF92FF92F1
:1078F0000F931F93EE24FF2487018091C00087FD22
:1079000017C00894E11CF11C011D111D81E4E8164B
:1079100082E4F8068FE0080780E0180770F3E09132
:107920000401F091050109958091C00087FFE9CF1E
:107930008091C6001F910F91FF90EF9008950E94D3
:10794000763C982F8091C00085FFFCCF9093C600B5
:1079500091362CF490330CF09053892F089597555D
:10796000892F08951F930E949F3C182F0E949F3CCF
:107970001295107F810F1F9108951F93182F882350
:1079800021F00E94763C1150E1F71F9108951F935A
:10799000182F0E94763C803249F0809103018F5F5E
:1079A000809303018530C1F01F9108958091C0003C
:1079B00085FFFCCF84E18093C6008091C00085FFE5
:1079C000FCCF1093C6008091C00085FFFCCF80E102
:1079D0008093C6001F910895E0910401F091050184
:1079E00009951F9108950E94763C803241F0809164
:1079F00003018F5F80930301853081F008958091AA
:107A0000C00085FFFCCF84E18093C6008091C00058
:107A100085FFFCCF80E18093C6000895E0910401CA
:107A2000F09105010995089540E951E08823A1F0FE
:107A30002D9A28EE33E0FA013197F1F721503040CA
:107A4000D1F72D9828EE33E0FA013197F1F7215064
:107A50003040D1F7815061F708953F924F925F9285
:107A60006F927F928F929F92AF92BF92CF92DF924E
:107A7000EF92FF920F931F93CF93DF93000080E16B
:107A80008093C4001092C50088E18093C10086E015
:107A90008093C2005098589A259A81E00E94143D24
:107AA00024E1F22E9EE1E92E85E9D82E0FE0C02ECA
:107AB00010E1B12EAA24A394B1E49B2EA6E58A2E50
:107AC000F2E57F2EE0E26E2E79E4572E63E5462E36
:107AD00050E5352E0E94763C8033B1F18133B9F107
:107AE000803409F46FC0813409F476C0823409F41B
:107AF00085C0853409F488C0803531F1823521F1A3
:107B0000813511F1853509F485C0863509F48DC0BC
:107B1000843609F496C0843709F403C1853709F423
:107B200072C1863709F466C0809103018F5F80932C
:107B30000301853079F6E0910401F0910501099582
:107B40000E94763C803351F60E94F33CC3CF0E94E2
:107B5000763C803249F78091C00085FFFCCFF092DF
:107B6000C6008091C00085FFFCCF9092C600809136
:107B7000C00085FFFCCF8092C6008091C00085FFC9
:107B8000FCCF7092C6008091C00085FFFCCF609250
:107B9000C6008091C00085FFFCCF5092C600809146
:107BA000C00085FFFCCF4092C6008091C00085FFD9
:107BB000FCCF3092C6008091C00085FFFCCFB09210
:107BC000C60088CF0E94763C863808F4BDCF0E945C
:107BD000763C0E94F33C7ECF0E94763C803809F4CC
:107BE0009CC0813809F40BC1823809F43CC1883942
:107BF00009F48FC080E00E94C73C6CCF84E10E94F2
:107C0000BD3C0E94F33C66CF85E00E94BD3C0E94D3
:107C1000F33C60CF0E94763C809306010E94763C44
:107C2000809307010E94F33C55CF0E94763C80333D
:107C300009F41DC183E00E94BD3C80E00E94C73C66
:107C400049CF0E94763C809309020E94763C809343
:107C5000080280910C028E7F80930C020E94763C79
:107C6000853409F415C18091080290910902892B8D
:107C700089F000E010E00E94763CF801E85FFE4FDA
:107C800080830F5F1F4F80910802909109020817AF
:107C9000190788F30E94763C803209F045CF809125
:107CA0000C0280FF01C16091060170910701660F0F
:107CB000771F7093070160930601A0910802B091AD
:107CC00009021097C9F0E8E0F1E09B01AD014E0F09
:107CD0005F1FF999FECF32BD21BD819180BDFA9A17
:107CE000F99A2F5F3F4FE417F50799F76A0F7B1F4B
:107CF00070930701609306018091C00085FFFCCF5F
:107D0000F092C6008091C00085FFFCCFB092C60003
:107D1000E1CE83E00E94C73CDDCE82E00E94C73CFA
:107D2000D9CE0E94763C809309020E94763C8093D3
:107D300008028091060190910701880F991F909386
:107D40000701809306010E94763C853409F4A6C0A1
:107D500080910C028E7F80930C020E94763C8032D0
:107D600009F0B8CE8091C00085FFFCCFF092C6002C
:107D7000609108027091090261157105B9F140E046
:107D800050E080910C02A82FA170B82FB27011C0E2
:107D9000BB2309F45CC0E0910601F0910701319624
:107DA000F0930701E09306014F5F5F4F46175707B7
:107DB000E8F4AA2369F3F999FECF209106013091E6
:107DC000070132BD21BDF89A90B58091C00085FFB2
:107DD000FCCF9093C6002F5F3F4F30930701209355
:107DE00006014F5F5F4F4617570718F38091C00099
:107DF00085FDE5CE8091C00085FFF8CFE0CE81E023
:107E00000E94C73C67CE0E94763C803209F08CCE3F
:107E10008091C00085FFFCCFF092C6008091C00029
:107E200085FFFCCFE092C6008091C00085FFFCCFAB
:107E3000D092C6008091C00085FFFCCFC092C600E2
:107E40008091C00085FFFCCFB092C60043CEE09188
:107E50000601F091070194918091C00085FFFCCF4D
:107E60009093C6009CCF80E10E94C73C33CE0E9415
:107E7000763C0E94763C182F0E94763C112309F430
:107E800083C0113009F484C08FE00E94C73C22CE29
:107E900080910C02816080930C02E5CE80910C02EF
:107EA000816080930C0259CF809107018823880F4D
:107EB000880B8A2180930B02809106019091070123
:107EC000880F991F90930701809306018091080203
:107ED00080FF09C080910802909109020196909359
:107EE000090280930802F894F999FECF1127E091D6
:107EF0000601F0910701C8E0D1E08091080290915D
:107F00000902103091F40091570001700130D9F34B
:107F100003E000935700E89500915700017001308D
:107F2000D9F301E100935700E89509901990009169
:107F3000570001700130D9F301E000935700E89534
:107F40001395103498F011270091570001700130FB
:107F5000D9F305E000935700E895009157000170B0
:107F60000130D9F301E100935700E895329602976A
:107F700009F0C7CF103011F00296E5CF112480919F
:107F8000C00085FFB9CEBCCE8EE10E94C73CA2CD19
:0C7F900085E90E94C73C9ECDF894FFCF0D
:027F9C00800063
:040000030000780081
:00000001FF
