:100000000C94A8010C94E41C0C94111D0C94D001C8
:100010000C94D0010C94D0010C94A9050C94D0013F
:100020000C94D0010C94D0010C94D0010C94D0010C
:100030000C94D0010C94D0010C94D0010C94D001FC
:100040000C943E1D0C94D0010C942D200C945F2038
:100050000C94D0010C94D0010C94D0010C94D001DC
:100060000C94871B0C94D001303B303B25643B3013
:100070003B25643B00636C6561720A0069643D2541
:10008000640A0066756C6C0A00706172656E743D7E
:1000900025642C20643D25640A00766572206D6914
:1000A000736D617463680A007265616420616E64D7
:1000B0002064726F703A2025642D25642D256420FC
:1000C000733D25642C633D25642C743D25642C70A0
:1000D000743D25642C6C3D25642C73673D25643A82
:1000E00025730A007265616420616E6420666F7218
:1000F000776172643A2025642D25642D2564207370
:100100003D25642C633D25642C743D25642C70745E
:100110003D25642C6C3D25642C73673D25643A2590
:10012000730A00726561643A2025642D25642D25CB
:100130006420733D25642C633D25642C743D256447
:100140002C70743D25642C6C3D25642C73673D2513
:10015000643A25730A0073656E643A2025642D2580
:10016000642D25642D256420733D25642C633D2575
:10017000642C743D25642C70743D25642C6C3D25E5
:10018000642C73673D25642C73743D25733A257385
:100190000A0066696E6420706172656E740A00728E
:1001A00065712069640A0025732073746172746537
:1001B000642C2069643D25642C20706172656E7426
:1001C0003D25642C2064697374616E63653D25640C
:1001D0000A00726164696F20696E697420666169E2
:1001E0006C0A000102040810201112131415160ADB
:1001F0000B0C0D0E0F0000000800020100000304AC
:100200000700000000000000000102040810204068
:1002100080010204081020010204081020040404D4
:10022000040404040402020202020203030303039F
:100230000300000000230026002900000000002524
:100240000028002B0000000000240027002A0000E6
:10025000407A10F35A00A0724E18090010A5D4E895
:100260000000E87648170000E40B54020000CA9A28
:100270003B000000E1F5050000809698000000407A
:10028000420F000000A086010000001027000000BF
:1002900000E803000000006400000000000A000005
:1002A0000000000100000000002C76D888DC674FB9
:1002B0000823DFC1DFAE59E1B1B796E5E3E453C6E9
:1002C0003AE651997696E8E6C28426EB898C9B62E1
:1002D000ED407C6FFCEFBC9C9F40F2BAA56FA5F48B
:1002E00090055A2AF75C936B6CF9676DC11BFCE0B3
:1002F000E40D47FEF520E6B500D0ED902E03009406
:100300003577050080841E080000204E0A0000009A
:10031000C80C333333330F986E12831141EF8D21A4
:1003200014893BE65516CFFEE6DB18D1844B381B0B
:10033000F77C1D901DA4BBE424203284725E2281D0
:1003400000C9F124ECA1E53D2700FE04A51A8F2089
:1003500011241FBECFEFD8E0DEBFCDBF11E0A0E07B
:10036000B1E0E0E0F6E502C005900D92A03CB107D7
:10037000D9F724E0A0ECB1E001C01D92A736B20786
:10038000E1F713E0C0E5D3E004C02297FE010E942C
:100390003723CA34D107C9F70E94D3200C94FE2A10
:1003A0000C9400000F931F93CF930E94881D00911F
:1003B000C0011091C1012091C2013091C3016017A9
:1003C00071078207930758F0AB01BC01401B510B2A
:1003D000620B730B483E53406105710578F183E071
:1003E0000E94BD1EC1E0019709F0C0E06C2F85E0BE
:1003F0000E94871ECC23E1F080912102909122027D
:10040000892BB1F468E171E083E292E00E94220955
:1004100040E0BC0181E792E00E94850B0E94881DAC
:100420006093C0017093C1018093C2019093C30196
:100430006C2F70E07093220260932102CF911F9184
:100440000F9108950F93CF930FEF21E04FEF60E0EE
:1004500070E081E792E00E94770C40E050E064E0B9
:1004600080E192E00E94A1178091190290911A02F6
:10047000019719F468EE73E002C060ED77E0882719
:1004800077FD8095982F0E94B71D80E192E00E9431
:10049000CD17C0E09B01AC010E940F23811101C068
:1004A000C1E0C093CD0141E063E670E085E692E0F3
:1004B0000E94C118811103C01092CC0103C081E0D9
:1004C0008093CC0160E083E00E944E1E61E085E0F5
:1004D0000E944E1E60E085E00E94871E80910A0106
:1004E000882339F06DE271E08AE191E00E94D62420
:1004F00002C08AE191E02091CC01222321F06FE239
:1005000071E00E94D6242091CD01222321F061E3E5
:1005100071E00E94D62464E371E00E94D62420E0BA
:1005200046E351E0BC0181E792E00E94BB0B809161
:100530000A01882349F000E02CE231E041E062E06A
:1005400081E792E00E94950B8091CC01882349F0CD
:1005500000E02CE231E040E161E081E792E00E94BE
:10056000950B8091CD01882389F000E02CE231E0E9
:1005700047E064E081E792E00E94950B2CE231E0D5
:1005800046E063E081E792E00E94950B80910A01CA
:10059000882349F041E050E062ED71E081E0CF91C5
:1005A0000F910C94B41CCF910F9108958F929F924C
:1005B000AF92BF92CF92DF92EF92FF92CF930E94C1
:1005C000881DC090C801D090C901E090CA01F09088
:1005D000CB016C157D058E059F0570F0DC01CB010C
:1005E0008C199D09AE09BF0980362AEE9207A10534
:1005F000B10508F4CDC003C08FEF9FEFDC01C1E06F
:10060000803C9742A940B10508F4C0E080E192E047
:100610000E94CD176B017C019B01AC010E940F234E
:1006200081115FC0C1112AC020910F0130911001CA
:100630004091110150911201C701B6010E9425217C
:100640004B015C0120E030E0A9010E94A8221816AD
:100650005CF420E030E040E85FE3C501B4010E94B3
:10066000A82218165CF03DC020E030E040E85FEBC7
:10067000C501B4010E948A2187FF33C0C0920F01D7
:10068000D0921001E0921101F092120180911301B9
:10069000811110C026E636E646EE5FE3C701B601DB
:1006A0000E94AC2220E030E040E052E40E9426218B
:1006B0006B017C0121E0B701A6018EEC91E00E9464
:1006C000530940E0BC0181E792E00E94850B0E9443
:1006D000881D6093C8017093C9018093CA019093EB
:1006E000CB0180E192E00E94C1176B017C019B016C
:1006F000AC010E940F2381114BC0C1112AC020916F
:100700000B0130910C0140910D0150910E01C70178
:10071000B6010E9425214B015C0120E030E0A901D7
:100720000E94A82218165CF420E030E040EA50E471
:10073000C501B4010E94A82218165CF029C020E06F
:1007400030E040EA50ECC501B4010E948A2187FFE5
:100750001FC0C0920B01D0920C01E0920D01F092EB
:100760000E0121E0B701A6018FEE91E00E9453092E
:1007700040E0BC0181E792E00E94850B0E94881D49
:100780006093C8017093C9018093CA019093CB0113
:10079000CF91FF90EF90DF90CF90BF90AF909F9060
:1007A0008F9008954F925F926F927F928F929F9257
:1007B000AF92BF92CF92DF92EF92FF921F93CF93AF
:1007C000DF9300D000D0CDB7DEB785E692E00E947F
:1007D000A219882309F4DDC00E94881DC090C401BD
:1007E000D090C501E090C601F090C7016C157D0561
:1007F0008E059F0588F09B01AC012C193D094E091F
:100800005F0929833A834B835C83283E334041054B
:10081000510508F4BEC007C02FEF3FEFA90129839F
:100820003A834B835C8367EB7DE185E692E00E942F
:1008300014192B013C018090140190901501A09097
:100840001601B0901701A50194010E9425216B01AA
:100850007C0120E030E0A9010E94A822181624F0B3
:10086000F7FAF094F7F8F09420E030E040E85FE326
:10087000C501B4010E948A2187FF06C011E020E073
:1008800030E040E05FE354C020E030E040EA50E474
:10089000C501B4010E948A2187FF06C011E020E053
:1008A00030E040E85FE344C020E030E040E251E463
:1008B000C501B4010E948A2187FF06C011E020E033
:1008C00030E040E050E434C020E030E048EC52E456
:1008D000C501B4010E948A2187FF06C011E020E013
:1008E00030E040E251E424C020E030E04AE754E444
:1008F000C501B4010E948A2187FF06C011E020E0F3
:1009000030E048EC52E414C020E030E44CE156E41E
:10091000C501B4010E948A2111E087FF05C020E0D3
:1009200030E04AE754E404C020E030E44CE156E40F
:10093000C701B6010E94A82218160CF010E08981A8
:100940009A81AB81BC81803C9742A940B10510F4EB
:100950001123F9F022E0B301A20184E492E00E94A5
:10096000530940E0BC0181E792E00E94850B409270
:1009700014015092150160921601709217010E94A5
:10098000881D6093C4017093C5018093C601909344
:10099000C7010F900F900F900F90DF91CF911F9193
:1009A000FF90EF90DF90CF90BF90AF909F908F908F
:1009B0007F906F905F904F9008950F931F93809159
:1009C0000A0181110E94D2018091CC0181110E9403
:1009D000D2038091CD0181110E94D60208EE13E06E
:1009E00020E030E041E061E081E792E00E944110C8
:1009F00081E792E01F910F910C94420D0F931F938A
:100A0000CF93DF9382E090E00E94E2208C010E946D
:100A1000BD0585E190E00E94E220EC0123E04AE080
:100A200069E00E94CA11A801BE0181E792E00E941C
:100A30006F0963E285E692E00E94D91747E161E021
:100A400084E492E00E94190840E162E083E292E0CF
:100A50000E94190841E064E08FEE91E00E941908BD
:100A600040E063E08EEC91E00E9419080E94881D2E
:100A70006F5975418F4F9F4F6093C8017093C901A3
:100A80008093CA019093CB010E94881D67517C4FCF
:100A90008F4F9F4F6093C4017093C5018093C6012F
:100AA0009093C7010E94881D67517C4F8F4F9F4FC5
:100AB0006093C0017093C1018093C2019093C30100
:100AC000DF91CF911F910F910895CF93CFB7F894F5
:100AD0008091F602811127C0E7E2F2E08491E3E120
:100AE000F2E09491E82FF0E0EE0FFF1FEB5BFD4F7B
:100AF000A591B4918C91892321F461E08AE00E9450
:100B0000871E61E08AE00E944E1E8CB580618CBD1C
:100B10008CB580648CBD61E08DE00E944E1E61E06A
:100B20008BE00E944E1E8091F6028F5F8093F6024A
:100B3000CFBFCF9108952EE331E0FC0131832083B4
:100B4000089581E08093F702089582E08093F70290
:100B500008951F920F920FB60F9211248F9388E180
:100B60000FB6F89480936000109260000FBE8F91D2
:100B70000F900FBE0F901F901895CF93DF93EC014D
:100B80000E949B058AE491E099838883DF91CF914D
:100B9000089520917A002F7720937A008A3091056A
:100BA000B1F083FF02C028E201C028E08770822BE9
:100BB00028E130E00FB6F894A895209360000FBEAE
:100BC000809360008091600080648093600083B7B0
:100BD000817F846083BFF89483B7816083BF85B7CA
:100BE000806685BF8F7D85BF7894889583B78E7F1B
:100BF00083BF789480917A00806880937A0008950A
:100C0000CF93DF9300D000D0CDB7DEB786EC93E072
:100C100049835A836B837C830E94441F1092F7029E
:100C200049815A816B817C818091F70281112DC0AD
:100C300040348FE158076105710588F089E090E044
:100C400049835A836B837C830E94C90549815A81F9
:100C50006B817C8140545F4161097109E5CF403A65
:100C6000EFE05E076105710580F088E090E0498360
:100C70005A836B837C830E94C90549815A816B81A9
:100C80007C81405A5F40610971098091F7028111AE
:100C900016C0403DF7E05F076105710580F087E011
:100CA00090E049835A836B837C830E94C905498104
:100CB0005A816B817C81405D574061097109809147
:100CC000F702811116C0483E83E05807610571059F
:100CD00080F086E090E049835A836B837C830E9496
:100CE000C90549815A816B817C81485E5340610905
:100CF00071098091F702811116C0443FE1E05E075F
:100D00006105710580F085E090E049835A836B832B
:100D10007C830E94C90549815A816B817C81445F33
:100D20005140610971098091F702811115C04A3F54
:100D300051056105710580F084E090E049835A8394
:100D40006B837C830E94C90549815A816B817C81B8
:100D50004A5F5109610971098091F702811115C03B
:100D60004D3751056105710580F083E090E04983BE
:100D70005A836B837C830E94C90549815A816B81A8
:100D80007C8148575109610971098091F7028111ED
:100D900015C0403451056105710580F082E090E096
:100DA00049835A836B837C830E94C90549815A8198
:100DB0006B817C814C535109610971098091F70263
:100DC000811115C0403251056105710580F081E047
:100DD00090E049835A836B837C830E94C9054981D3
:100DE0005A816B817C814E51510961097109809151
:100DF000F70281110FC0403151056105710550F0B6
:100E000080E090E00F900F900F900F90DF91CF91C6
:100E10000C94C9050F900F900F900F90DF91CF9118
:100E200008950C940006BF92CF92DF92EF92FF924A
:100E30000F931F93CF93DF93EC01B62E68017901D6
:100E400050E061EA75E08B2D0E94B41CC114D104FE
:100E5000E104F10471F01092F702B701A601CE018E
:100E60000E940006C1E08091F70281110BC0C0E032
:100E700009C086EC93E00E94441F8AE090E00E9443
:100E8000C905C1E08B2D0E94D41C8C2FDF91CF911E
:100E90001F910F91FF90EF90DF90CF90BF9008953A
:100EA000BF92CF92DF92EF92FF920F931F93CF9357
:100EB000DF93EC01B62E122F50E061EA75E08B2D26
:100EC0000E94B41C402F50E065EA75E0812F0E941B
:100ED000B41CC114D104E104F10461F01092F702D2
:100EE000B701A601CE010E9400068091F702882377
:100EF00059F008C086EC93E00E94441F8AE090E01D
:100F00000E94C905C1E001C0CFEF8B2D0E94D41C07
:100F1000812F0E94D41C8091F702813011F4CB2DD7
:100F200003C0823009F4C12F8C2FDF91CF911F9124
:100F30000F91FF90EF90DF90CF90BF900895FF92B8
:100F40000F931F93CF93DF93CDB7DEB7CE52D1402F
:100F50000FB6F894DEBF0FBECDBFC85CDE4FF88081
:100F6000C853D140C75CDE4F48815981C953D14035
:100F70008E010F5F1F4FFF2081F11F9289E08F9339
:100F80001F9283E08F9388E690E09F938F9381E098
:100F90008F938BE28F931F930F93C35DDE4F488334
:100FA000CD52D140C25DDE4F5883CE52D1400E9417
:100FB0006325B80186EC93E00E9422210FB6F894D5
:100FC000DEBF0FBECDBFC25DDE4F5881CE52D140D5
:100FD000C35DDE4F4881CD52D1409E01255C3E4F1E
:100FE000FF2049F06CE370E0C8010E9493258AE07D
:100FF0008CAF1DAE05C06BE271E0C8010E94932565
:10100000B80186EC93E00E94222186EC93E00E94D6
:10101000441FC25DDE4F0FB6F894DEBF0FBECDBFDA
:10102000DF91CF911F910F91FF900895FC011282E3
:101030000895FC011282668345830895FC01248192
:1010400022952695277011F40796089580E090E088
:1010500008956F706A3010F480E301C087E3860F53
:1010600008959F92AF92BF92CF92DF92EF92FF923C
:101070000F931F93CF93DF93EC018B01912C892D5C
:1010800090E0EB81E695E695E695F0E08E179F07F8
:1010900034F57C01EE0CFF1C5801AE0CBF1C6E0138
:1010A000C80ED91EF6016781772767FD709534E079
:1010B000759567953A95E1F7CE010E942908F501EB
:1010C0008083FFEFEF1AFF0AE00EF11EF601678141
:1010D000CE010E942908F70180839394D0CFEE0FB0
:1010E000FF1FE00FF11F1082C801DF91CF911F9108
:1010F0000F91FF90EF90DF90CF90BF90AF909F90B7
:101100000895EF92FF920F931F93CF93DF937C018B
:10111000EB01FC018481829586958770209709F404
:1011200060C0811115C0438146954695469550E0B3
:10113000B701695F7F4FCE010E94E124F7018381EF
:10114000869586958695FE01E80FF11D10824CC0AC
:10115000813029F4F70187814AE090E006C08230AF
:1011600039F44AE0F701878190850E94F0243CC061
:10117000833039F44AE0F701878190850E94492540
:1011800033C0843051F4F701678170858185928581
:101190002AE0AE010E94FB2427C0853051F4F701FC
:1011A00067817085818592852AE0AE010E9427259E
:1011B0001BC0873059F4F70167817085818592855E
:1011C0008E01238542E00E943B230EC0863061F4ED
:1011D000C701DF91CF911F910F91FF90EF900C9479
:1011E000310880E090E001C0CE01DF91CF911F91E6
:1011F0000F91FF90EF900895FC0124812295269590
:101200002770213011F487810895211104C00796B9
:101210000E948824089580E00895FC01248122958D
:1012200026952770253029F4678170858185928500
:101230000895211103C007960C94A62460E070E085
:10124000CB010895CF93DF93EC01FB0101900020C7
:10125000E9F73197E61BF70BE931F10508F0E9E111
:101260004E2F50E0CA01E3E0880F991FEA95E1F79D
:101270009B819770982B9B838C818F718C83CE017F
:1012800007960E94E124CE01DF91CF910895FC01E1
:10129000838187708860838384818F718062848377
:1012A0006783CF010895FC018381877088628383FF
:1012B0008481806E84834783508761877287238708
:1012C000CF010895FC0184818F71806484838381C0
:1012D00087708061838370876783CF010895EF9261
:1012E000FF920F931F93CF93DF93EC017B018A0151
:1012F00007960E941608CE0188960E941608FE01E5
:10130000E75BFF4FF182E082C55BDF4F1983088303
:10131000DF91CF911F910F91FF90EF900895AF92C1
:10132000BF92CF92DF92EF92FF920F931F93CF93D2
:10133000DF938C01B62EEA012B812C7F22602B8358
:1013400022FD04C026952695269501C020E2D801ED
:101350008C918883F801E75BFF4F80819181DC01EC
:10136000ED91FC910680F781E02D422F50E04A314B
:10137000510514F4295F01C020E2AE016B2D0995DF
:10138000A82E7801BBE4EB0EF11CD701ED91FC9186
:101390000190F081E02DC680D780B801635B7F4F5C
:1013A000CE010E948108BFEFBB1629F0AA2031F0C0
:1013B0002AE531E005C027E531E002C022E531E051
:1013C0005B814C81F701608171819F938F933F9383
:1013D0002F9352FB882780F91F928F93569556952D
:1013E00056951F925F93842F8295869587701F92E2
:1013F0008F938D811F928F9347701F924F938E8191
:101400001F928F938A811F928F931F92BF92888120
:101410001F928F9389811F928F9326E531E03F932E
:101420002F93D80116968C918F937F936F93F6012B
:1014300009958DB79EB74D960FB6F8949EBF0FBE17
:101440008DBF8A2DDF91CF911F910F91FF90EF906B
:10145000DF90CF90BF90AF9008958F929F92AF9200
:10146000BF92CF92DF92EF92FF92CF93DF93EC0186
:101470006A017B010E94881D4B015C010E94881D4E
:10148000681979098A099B096C157D058E059F05E8
:1014900020F4CE010E94420DF1CFDF91CF91FF9059
:1014A000EF90DF90CF90BF90AF909F908F90089576
:1014B0000F931F93CF93DF93EC01FC01E55BFF4F8C
:1014C0000190F081E02DA081B1818FE991E09F939F
:1014D0008F938E818F93FF93EF931696ED91FC91EE
:1014E00017970995FE01E75BFF4F80819181DC0131
:1014F000ED91FC910280F381E02D688109958E01C8
:10150000095F1F4F8881888719868FEF8D8783E059
:101510008C878B85807E83608B876CE271E0C8014D
:101520000E942209A8016981CE010E948F090F90B3
:101530000F900F900F900F9040ED57E060E070E03B
:10154000CE01DF91CF911F910F910C942D0AFF9244
:101550000F931F93CF93DF93EC018091F8028111D9
:1015600042C081E08093F802FE01E058FF4F1082F4
:10157000FF24FA94FA82F5970190F081E02DA08182
:10158000B18182E991E09F938F938E818F93FF9336
:10159000EF931696ED91FC91179709958E01095FCF
:1015A0001F4F88818887F986FD8687E08C878B8529
:1015B000807E83608B876CE271E0C8010E94220903
:1015C000A8016FEFCE010E948F0940ED57E060E067
:1015D00070E0CE010E942D0A1092F8020F900F9039
:1015E0000F900F900F90DF91CF911F910F91FF906F
:1015F0000895CF92DF92FF920F931F93CF93DF93C3
:1016000000D0CDB7DEB76C01AB01FB0111810281C7
:10161000F080FC0181818F3F21F4C6010E94A70A5E
:101620004BC0F60180818F3F21F4C6010E94580A09
:1016300043C0FB0193819C7F92609383F601848178
:10164000002319F0811114C00CC0882351F0812FA0
:1016500090E06F2D039649835A830E94A9275A81EF
:101660004981F6016181C6010E948F09082F32C0AD
:10167000802F90E0039669835A830E94A1279FEFF1
:10168000980F49815A819E3F10F4682F05C01111AF
:101690000FC00F3F69F46FEFC6010F900F90DF91FD
:1016A000CF911F910F91FF90DF90CF900C948F09F5
:1016B000F6018681882311F080E01DC0F60161816A
:1016C000C6010E948F09082F812F90E06F2D03968D
:1016D0000E94A927F601E058FF4F01110AC080813E
:1016E0008F5F8083F6019581992331F3863020F353
:1016F00094CF108281E00F900F90DF91CF911F91D6
:101700000F91FF90DF90CF900895FC012081FB01A5
:1017100021832481207F2160F8E04F9FA0011124C4
:10172000242BFB0124830C94F90A0F931F93CF936E
:10173000DF93EC016F3F19F48DE591E001C0C90121
:101740002881288719866D874C8728E0029F8001B1
:1017500011242B85207F202B2F7E2B87BC01CE01CF
:1017600007960E942209BC01CE01DF91CF911F9103
:101770000F910C94F90AEF92FF920F931F93CF935E
:10178000DF931F92CDB7DEB77C018A016115710529
:10179000E9F0FC018081808711868FEF85878BE0DF
:1017A00084873385307F3360F8E02F9FC001112498
:1017B000382B3F7EF7013387C701079629830E94A4
:1017C0002209BC01C7010E94F90A298101151105EE
:1017D00019F1F7018081808711868FEF85878CE072
:1017E00084878385807F8360F8E02F9F9001112498
:1017F000822B8F7EF7018387B801C70107960E946D
:101800002209BC01C7010F90DF91CF911F910F9169
:10181000FF90EF900C94F90A0F90DF91CF911F91F8
:101820000F91FF90EF900895EF92FF920F93CF9357
:10183000DF93EC01FC01E75BFF4F80819181DC01CC
:10184000ED91FC910280F381E02D688109958E81F4
:10185000811147C088818F3F09F443C0888719866A
:101860008FEF8D878FE08C878B85807E83608B8761
:101870007E01B7E0EB0EF11C60E070E0C7010E9452
:101880006209BC01CE010E94F90A8C81882311F003
:1018900042E101C041E100E02CE231E06FEFCE0116
:1018A0000E94950B69818881888719868FEF8D87C3
:1018B00086E08C878B85807E83608B87C7010E9442
:1018C0004709BC01CE010E94F90A40ED57E060E0F3
:1018D00070E0CE01DF91CF910F91FF90EF900C94CB
:1018E0002D0ADF91CF910F91FF90EF900895DF9235
:1018F000EF92FF920F931F93CF93DF93EC017B0145
:10190000142FD22E26E040E052EC61E070E086EC2D
:1019100093E00E94CB1FDC82FE01ED57FF4FF18266
:10192000E0823397108281E0111180E08E83FE0106
:10193000E75BFF4F80819181DC01ED91FC9101908B
:10194000F081E02D0995FE01E55BFF4F7F012E81BF
:10195000811117C00190F081E02DA081B18182ED4D
:1019600091E09F938F932F93FF93EF931696ED91B2
:10197000FC91179709950F900F900F900F900F9073
:10198000FFCF222321F019821A82188239C043E046
:1019900050E060E070E0CE010E94912741E050E00D
:1019A00063E071E0CE0103960E9491278B818F3F07
:1019B00011F481E08B8381E00F3F09F080E08D839B
:1019C000811109C00983602F81E090E00E94A9275E
:1019D00081E08A8306C089818F3F19F4CE010E947D
:1019E000A70A1F3F39F01883612F80E090E00E9422
:1019F000A92706C088818F3F19F489818F3FF1F5AF
:101A0000CE010E94140CF701A081B181ED91FC91EF
:101A100011970680F781E02D5A81498138812E8106
:101A2000211106C08C81882331F082E791E005C046
:101A300083E691E002C08BE691E01F925F931F92D4
:101A40004F931F923F939F938F9387EA91E09F93C9
:101A50008F932F93BF93AF9309952DB73EB7235F15
:101A60003F4F0FB6F8943EBF0FBE2DBFDF91CF9111
:101A70001F910F91FF90EF90DF900895CE010E948B
:101A8000580ABECFAF92BF92CF92DF92EF92FF92F1
:101A90000F931F93CF93DF9300D01F92CDB7DEB784
:101AA0008C01A89519827C0129E4E20EF11CD70172
:101AB0008D919C91DC01ED91FC910084F185E02DEC
:101AC000BE016F5F7F4F0995882309F4CBC2F701F0
:101AD000808191816801F7E0CF0ED11CDC01ED918E
:101AE000FC910284F385E02DB6010995F80180810F
:101AF00091859801255B3F4F7901B801635B7F4F6A
:101B0000981339C0D901ED91FC910190F081E02D3D
:101B1000A680B780C6010E948108F801328523851E
:101B2000D7014C9111965C919F938F9332FB88273C
:101B300080F91F928F933695369536951F923F9375
:101B4000822F8295869587701F928F9384851F922E
:101B50008F9327701F922F9385851F928F93818576
:101B60001F928F9387811F928F9380851F928F93EF
:101B700083E291E06EC09481D901ED91FC910190D6
:101B8000F081E02DA680B780992399F18F3F89F1EC
:101B9000C6010E948108F80132852385D7014C9146
:101BA00011965C919F938F9332FB882780F91F9247
:101BB0008F933695369536951F923F93822F829557
:101BC000869587701F928F9384851F928F932770BD
:101BD0001F922F9385851F928F9381851F928F93DC
:101BE00087811F928F9380851F928F9384EE90E060
:101BF00030C0C6010E948108F80132852385D701D3
:101C00004C9111965C919F938F9332FB882780F9BA
:101C10001F928F933695369536951F923F93822F5C
:101C20008295869587701F928F9384851F928F93DC
:101C300027701F922F9385851F928F9381851F9206
:101C40008F9387811F928F9380851F928F9388EA4D
:101C500090E09F938F9386818F935F934F93F501CD
:101C600009950FB6F894DEBF0FBECDBFD8011A9606
:101C70004C91842F83708230D9F0D701ED91FC9183
:101C8000208131818AE990E09F938F93D801169645
:101C90008C918F93FF93EF93D9011696ED91FC9160
:101CA000179709950F900F900F900F900F90DAC132
:101CB000F801338537702485B08467818081518530
:101CC000948158137BC1842F8B7F8287869586955C
:101CD0008695E80FF11D1686992371F0D8011196AB
:101CE0008C91681749F08B2D90E003962B833A83F3
:101CF0000E94A9273A812B81F801838583FF24C0A4
:101D000081E23796D801989601900D928A95E1F775
:101D1000D8019C968C919C97877F80619C968C9330
:101D20009C978C9199968C93999718968C9118976B
:101D30009A968C93B801685D7F4FC8012B833A83D4
:101D40000E94F90A3A812B81333009F02BC12830E7
:101D500009F044C0F8018581882309F483C1C601D4
:101D60000E94FC088F3F09F47DC18F5F8F3F09F40B
:101D700079C1D80112969C91891708F073C1F801B6
:101D800082836085618381E090E00E94A927D80169
:101D900012966C9182E090E00E94A927D701ED9104
:101DA000FC9120813181D80112968C9112971F925B
:101DB0008F9311968C9111971F928F9389E890E0E1
:101DC0009F938F9316968C918F93FF93EF93D901E6
:101DD0001696ED91FC91179709953FC1B110E2C09D
:101DE0002D3061F428E088E190E00FB6F894A895D2
:101DF000809360000FBE20936000FFCF243009F075
:101E000049C0F80180818F3F09F02CC1C6010E94B2
:101E1000FC08D8018C938F3FD9F4D701ED91FC9148
:101E20002081318183E890E09F938F93D8011696AB
:101E30008C918F93FF93EF93D9011696ED91FC91BE
:101E4000179709950F900F900F900F900F90FFCF5D
:101E5000C8010E94140CF801608180E090E00E94AB
:101E6000A927D701ED91FC9120813181D8018C9176
:101E70001F928F938CE790E09F938F9316968C918F
:101E80008F93FF93EF93D9011696ED91FC911797DD
:101E90000995E3C0263081F4C6010E941E0861E066
:101EA000DC018C918D3409F060E0F801638383E0FC
:101EB00091E00E94A927D6C02A3009F061C0D8015C
:101EC00014968C91882309F4CDC0C6010E941E0887
:101ED000FC018081833409F0C5C0D701ED91FC91EC
:101EE0002081318185E790E09F938F93D8011696EA
:101EF0008C918F93FF93EF93D9011696ED91FC91FE
:101F0000179709950F900F900F900F900F90FF2447
:101F1000FA948F2D90E06FEF03960E94A9278FEF20
:101F20008F0DFF2011F0F82EF4CF6FEF81E090E0DD
:101F30000E94A9276FEF82E090E00E94A927C801C4
:101F40000E94A70AD8018C9118968C93189719961D
:101F50001C9219978FEF1D968C931D978AE01C9603
:101F60008C931C971B968C911B97807E83601B968D
:101F70008C936CE271E0C6010E942209BC0167C02B
:101F8000213009F06FC0F801EF57FF4F0081118138
:101F90000115110509F466C0C6010E940D09F8017A
:101FA000099560C0F801ED57FF4F0190F081E02DD9
:101FB000309709F450C0C60109954DC0992309F422
:101FC00051C08F3F09F44EC03330E9F52730D9F5C1
:101FD0008181B81609F446C082818F3F19F4C80187
:101FE0000E94A70AF80182818F3FE1F10E94881DBB
:101FF000AB01BC01537066277727C8010E942D0AE8
:10200000D80112966C9112978C9118968C93189710
:102010001996BC9219978FEF1D968C931D9788E0A7
:102020001C968C931C971B968C911B97807E8360CB
:102030001B968C93C6010E944709AC016B2DC80109
:102040000E948F090FC0998198130CC0B601C80176
:102050000E94F90A07C081E006C00FB6F894DEBFFF
:102060000FBECDBF80E00F900F900F90DF91CF910A
:102070001F910F91FF90EF90DF90CF90BF90AF90A6
:102080000895AF92BF92CF92DF92EF92FF920F939B
:102090001F93CF93DF9300D0CDB7DEB75C0168010B
:1020A0007901FC01E75BFF4F80819181DC01ED91BB
:1020B000FC910484F585E02D4A8369830995F50137
:1020C000E55BFF4F80819181DC01ED91FC91028005
:1020D000F381E02D970186014A81698109950F906E
:1020E0000F90DF91CF911F910F91FF90EF90DF90B4
:1020F000CF90BF90AF9008952FE731E0FC0131837E
:1021000020830895FC0183890895DF92EF92FF9266
:102110000F931F93CF93DF938C01EC012296CE0196
:102120000E942916CE010E948415D82E8823A9F179
:1021300061E0CE010E94871540E062E0CE010E947E
:102140008F15CE010E9466156CE4CE010E943C13EF
:10215000F8016489CE010E94C41562E070E0CE01EE
:102160000E94DD154FE065E0CE010E94801662E01E
:1021700070E0CE010E940D16CE010E944815EE249B
:10218000EA948CEFF82E01EE18EA28EA30E040E0FD
:1021900050E062E0CE010E9484148D2DDF91CF913A
:1021A0001F910F91FF90EF90DF9008954F925F92F3
:1021B0007F928F929F92AF92BF92CF92DF92EF92D7
:1021C000FF920F931F93CF93DF931F92CDB7DEB78C
:1021D000FC01262F638B30E040E050E060E070E0CF
:1021E00080E090E034504E41574567457F4F8F4F18
:1021F0009F4F922EA32EB42EC52ED62E782E892E2A
:102200002F0182E0480E511CE92CFA2C0B2D1C2DBD
:102210002D2D372F472D582D60E0C20179830E9464
:1022200084142D2D7981372F472D582D61E0C2015F
:102230000E948414C2010F90DF91CF911F910F91E2
:10224000FF90EF90DF90CF90BF90AF909F908F90D6
:102250007F905F904F900C940315CF92DF92EF9296
:10226000FF920F931F93CF93DF93D62E7A01C22E46
:10227000EC012296CE010E948413CE010E944313EA
:102280002D2D30E040E050E060E070E080E090E034
:1022900034504E41574567457F4F8F4F9F4F8901BF
:1022A0009A01AB01BC01CE010E94491421E08FEFDD
:1022B000D81220E04C2DB701CE010E94B213F82EA7
:1022C000CE010E9403158F2DDF91CF911F910F91A9
:1022D000FF90EF90DF90CF900895BF92CF92DF9262
:1022E000EF92FF920F931F93CF93DF931F92CDB77F
:1022F000DEB77C018B01BB24BA94B9826C0182E009
:10230000C80ED11CBE016F5F7F4FC6010E94F4133F
:102310008981813029F4F7018389F801808304C021
:10232000823011F4F801B082C6010E94391488236A
:1023300021F081E09981963008F080E00F90DF91E4
:10234000CF911F910F91FF90EF90DF90CF90BF90B2
:102350000895EF92FF921F93CF93DF9300D0CDB7F4
:10236000DEB702967C0169837A830E94D013182F0E
:10237000482F69817A81C7010E943D14812F0F90F7
:102380000F90DF91CF911F91FF90EF9008950296EB
:102390000C9472130F931F93CF93DF9300D01F926F
:1023A000CDB7DEB78C012B834A8369830E947C10F2
:1023B000E1E9F1E0D801ED93FD93CD014A81698116
:1023C0000E9432132B81F801248B0F900F900F90F5
:1023D000DF91CF911F910F9108958EBD00000DB434
:1023E00007FEFDCF8EB508952CB52F7D2CBD2CB5E5
:1023F000237F2CBD2CB52C7F2CBD2DB521602DBD90
:10240000FC0181810C94871EFC01808191818913DC
:102410000C94871E08951F93CF93DF93EC01162F22
:1024200060E00E94F411812F8F710E94ED118FEFF7
:102430000E94ED11182F61E0CE010E94F411812F4E
:10244000DF91CF911F910895CF92DF92EF92FF928B
:102450000F931F93CF93DF9300D0CDB7DEB78C01DE
:10246000E62EF22E60E049835A830E94F4118E2DED
:102470008F7180620E94ED11E82E4981C42E5A812D
:10248000D52EF40EFC1431F0F60181916F010E94FB
:10249000ED11F8CF61E0C8010E94F4118E2D0F906C
:1024A0000F90DF91CF911F910F91FF90EF90DF90F0
:1024B000CF900895EF92FF921F93CF93DF931F92D7
:1024C000CDB7DEB77C01162F60E049830E94F4117E
:1024D000812F8F7180620E94ED11182F4981842F06
:1024E0000E94ED1161E0C7010E94F411812F0F904D
:1024F000DF91CF911F91FF90EF900895AF92BF921F
:10250000CF92DF92EF92FF920F931F93CF93DF93BF
:1025100000D0CDB7DEB78C01D62EFC01E380F42EBF
:10252000E41608F4FE2CF8018481811102C0EF1832
:1025300001C0E12C60E0C80129837A830E94F41174
:102540002981822F0E94ED11C82EAD2C7A81B72EE1
:10255000FD0CFA1431F0F50181915F010E94ED113B
:10256000F8CFEE2029F080E00E94ED11EA94F9CF37
:1025700061E0C8010E94F4118C2D0F900F90DF9143
:10258000CF911F910F91FF90EF90DF90CF90BF9070
:10259000AF900895AF92BF92CF92DF92EF92FF92E9
:1025A0000F931F93CF93DF931F92CDB7DEB78C01AC
:1025B000D62EFC01E380F42EE41608F4FE2CF8017C
:1025C0008481811102C0EF1801C0E12C60E0C801D4
:1025D00079830E94F41181E60E94ED11C82EAD2C82
:1025E0007981B72EFD0CFA1439F08FEF0E94ED11AE
:1025F000F50181935F01F7CFEE2029F08FEF0E9464
:10260000ED11EA94F9CF61E0C8010E94F4118C2D1C
:102610000F90DF91CF911F910F91FF90EF90DF907E
:10262000CF90BF90AF9008951F93CF93DF93EC01AD
:10263000162F60E00E94F411812F0E94ED11182FD7
:1026400061E0CE010E94F411812FDF91CF911F91A3
:10265000089562EE0C94141361EE0C9414136FEF52
:102660000C941413FC0160834183128280E2838303
:10267000148285E082870895462F603808F04FE77E
:1026800065E00C945A12CF93DF93EC0160E00E9456
:10269000041282E890E00E94DF1D6DE1CE010E94ED
:1026A0000B1281FF03C0CE010E942C1360E0CE010B
:1026B0000E940B12482F4E7F60E0CE010E945A12FA
:1026C00062E0CE010E940B12E3EEF1E04491482B50
:1026D00062E0CE010E945A1284E690E0DF91CF9131
:1026E0000C94DF1DCF93DF93EC0160E00E94041295
:1026F00060E0CE010E940B12482F4D7F60E0CE01BA
:10270000DF91CF910C945A12CF93DF93EC0160E0EC
:102710000E940B1281FD12C060E0CE010E940B12DC
:10272000482F426060E0CE010E945A1265E070E0DE
:1027300080E090E0DF91CF910C94B71DDF91CF91B5
:102740000895CF93DF93EC01222311F020EB01C019
:1027500020EACE010E947E1261E0CE01DF91CF918E
:102760000C940412CF93DF93EC010E94A113CE01CD
:102770000E942F138073D9F360E0CE010E940412EF
:1027800040E767E0CE010E945A1284FF05C0CE01E7
:102790000E942C1380E001C081E0DF91CF91089569
:1027A0001F93CF93DF93EC0160E00E94F41180E669
:1027B0000E94ED118FEF0E94ED11182F61E0CE0104
:1027C0000E94F411113258F0CE010E94291362E0E8
:1027D00070E080E090E00E94B71D80E001C0812F92
:1027E000DF91CF911F910895CF92DF92EF92FF92E8
:1027F0000F931F93CF93DF93EC018B018F85882379
:10280000C9F00E94941DCB84DC84ED84FE846C1995
:102810007D098E099F09603273408105910518F486
:102820008F858111EECF0E94941D6B877C878D87E9
:102830009E871F8667E1CE010E940B1280FD0DC0AE
:102840000115110561F0CE010E942F1390E09595BE
:1028500087958770F801808302C080E001C081E025
:10286000DF91CF911F910F91FF90EF90DF90CF906C
:10287000089560E070E00C94F413CF93DF93EC01C3
:102880000E94CA1240E767E0CE01DF91CF910C941D
:102890005A12EF92FF920F931F93CF93DF93CDB70E
:1028A000DEB728970FB6F894DEBF0FBECDBF7C0110
:1028B00009831A832B833C834D835E836F837887E0
:1028C000FC012285AE014F5F5F4F6AE00E94241237
:1028D000F7012285AE014F5F5F4F60E1C7010E94A3
:1028E0002412F701438161E1C7010E945A12289620
:1028F0000FB6F894DEBF0FBECDBFDF91CF911F9111
:102900000F91FF90EF900895BF92CF92DF92EF92D8
:10291000FF920F931F93CF93DF93CDB7DEB7289726
:102920000FB6F894DEBF0FBECDBF6C01B62EE982A4
:10293000FA820B831C832D833E834F83588761115A
:102940000AC0FC01428550E0BE016F5F7F4F0596D3
:102950000E94CD2406C0F6E0F61778F181E06813F6
:1029600008C0EB2DF0E0E151FE4F6491F6012285A5
:1029700006C0E62FF0E0E151FE4F649121E0AE0188
:102980004F5F5F4FC6010E9424120B2D10E0F8012B
:10299000E751FE4F6491F6014381C6010E945A122D
:1029A00062E0C6010E940B12F801ED51FE4F449106
:1029B000482B62E0C6010E945A1228960FB6F8947E
:1029C000DEBF0FBECDBFDF91CF911F910F91FF9062
:1029D000EF90DF90CF90BF9008951F93CF93DF9338
:1029E000EC01162F62E00E940B12E12FF0E0ED5196
:1029F000FE4F44914095482362E0CE01DF91CF9194
:102A00001F910C945A12CF93DF93EC010E94841310
:102A100060E0CE010E940B12482F416060E0CE01C1
:102A20000E945A1240E767E0CE010E945A128D813F
:102A3000882349F02A85AE014B5F5F4F6AE0CE01E3
:102A40000E94241204C060E0CE010E94ED146DE1EA
:102A5000CE010E940B1281FF03C0CE010E942C13F5
:102A600061E0CE01DF91CF910C940412CF93DF93FC
:102A7000EC0160E00E94F41180E50E94ED1183E713
:102A80000E94ED1161E0CE01DF91CF910C94F41121
:102A9000CF93DF93EC010E9436156DE1CE010E94C9
:102AA0000B12482F44606DE1CE010E945A126CE176
:102AB000CE010E940B12482F4F636CE1CE010E94A1
:102AC0005A1281E08C83DF91CF910895CF93DF93E9
:102AD000EC010E9436156DE1CE010E940B12482FC9
:102AE00046606DE1CE010E945A126CE1CE010E9457
:102AF0000B12482F43606CE1CE010E945A1281E014
:102B00008C83DF91CF910895FC0182810895662323
:102B100011F04FE301C040E061E00C945A12EF92D3
:102B2000FF921F93CF93DF931F92CDB7DEB77C0147
:102B3000162F673010F561E049830E940B1249811E
:102B4000442349F041E050E0012E01C0440F0A94B3
:102B5000EAF7482B08C041E050E001C0440F1A9545
:102B6000EAF74095482361E0C7010F90DF91CF91CC
:102B70001F91FF90EF900C945A120F90DF91CF911C
:102B80001F91FF90EF9008951F93CF93DF93EC0177
:102B9000162F66E00E940B12887F143020F4612FFC
:102BA000660F6F5F01C067E0462F482B66E0CE01DD
:102BB000DF91CF911F910C945A12EF92FF920F93D5
:102BC0001F93CF93DF931F92CDB7DEB77C018B01AC
:102BD00066E00E940B12282F277D0230110511F4A8
:102BE000206204C00130110509F42860422F66E01C
:102BF000C70129830E945A1266E0C7010E940B1286
:102C000091E02981821390E0892F0F90DF91CF917D
:102C10001F910F91FF90EF9008950F931F93CF9303
:102C2000DF93EC018B0160E00E940B12482F437F81
:102C30000115110531F00130110511F4486001C092
:102C40004C6060E0CE01DF91CF911F910F910C9409
:102C50005A12CF93DF93EC0188819981891719F07B
:102C600061E00E944E1E89819881981719F061E0F9
:102C70000E944E1E0E94650560E0CE010E94041273
:102C800061E0CE010E94F41165E070E080E090E028
:102C90000E94B71D4FE564E0CE010E945A1262E027
:102CA00070E0CE010E94DD15882311F081E08A8357
:102CB00060E070E0CE010E94DD1562E070E0CE01C0
:102CC0000E940D1640E767E0CE010E945A126CE4A4
:102CD000CE010E943C13CE010E942913CE010E9416
:102CE0002C13CE010E94841360E0CE010E940B12CF
:102CF000482F4E7F60E0CE01DF91CF910C945A12A5
:102D000020E1629FB00111244F70462B64E00C94C7
:102D10005A12CF93DF93EC010E94881D685B7B40C1
:102D2000810991096D877E878F87988BDF91CF917D
:102D300008954F925F927F928F929F92AF92BF922F
:102D4000CF92DF92EF92FF920F931F93CF93DF9377
:102D50001F92CDB7DEB72C010E94881DF2010585B8
:102D60001685278530896B017C01C01AD10AE20AD9
:102D7000F30A218532852130310529F407EE13E06D
:102D800020E030E004C00FEC17E020E030E0C01697
:102D9000D106E206F30608F4C3C0F2016587768720
:102DA0008787908B40E050E060EC7FE74083518361
:102DB00062837383448355836683778360E0808571
:102DC0000E94871E61E0F20180850E944E1EF20182
:102DD00081859285019739F462E170E080E090E0AE
:102DE0000E94B71D04C080E293E00E94DF1D60E0F6
:102DF000F20180850E944E1E61E0F20180850E94F2
:102E0000871E00E010E0A12CB12CC12CD12C2DEF9D
:102E1000922E0E94941D762EF92DF1708F2EEF2E9A
:102E2000FF24E7FCF0940E94941D67196B3518F09D
:102E300081E090E030C0F201808569830E94BD1E70
:102E400069818E159F0579F397FC08C0882031F0C1
:102E5000CC0CDD1C6F3110F06894C0F8FFE19F16B8
:102E600039F08FE3981205C08601C12CD12C01C026
:102E700056019394E0E59E12CCCF6B2D7727E12E7F
:102E8000F12C802F8A0D860F810F90E08C159D0507
:102E900031F082E090E0F2019487838741C0F20133
:102EA00081859285019779F480E090E00E94F62177
:102EB000F2016483758386839783B70180E090E095
:102EC0000E94F62125C0B50180E090E00E94F62125
:102ED0002DEC3CEC4CEC5DE30E94AC22F2016483EF
:102EE000758386839783B80177FF05C07F770027B6
:102EF0001127061B170BB801882777FD8095982F9F
:102F00000E94F8212DEC3CEC4CEC5DE30E94AC22DD
:102F1000F2016083718382839383F20114861386A6
:102F20000F90DF91CF911F910F91FF90EF90DF9065
:102F3000CF90BF90AF909F908F907F905F904F9079
:102F400008950F931F93CF93DF93EC018A01688755
:102F50005A8749870E948916012B71F482E090E01C
:102F60009A878987CE010E9499168B859C8581302E
:102F7000910511F49A878987DF91CF911F910F9165
:102F80000895CF93DF93EC010E9499166C817D81A7
:102F90008E819F81DF91CF910895CF93DF93EC01D4
:102FA0000E949916688179818A819B81DF91CF91F6
:102FB000089570E0FC01718360832FEF22830895F0
:102FC000CF93DF93EC0180E090E00E94F6212AE9A4
:102FD00039E949E95FE30E948E212B81253431F0E4
:102FE0002C813D814E815F810E94AC222A8121315A
:102FF00011F0213231F420E030E040E05FE30E9444
:10300000AC22DF91CF910895FF920F931F93CF933E
:10301000DF93EC016881798189EF92E00E948D1A3B
:103020006881798142E050E089EF92E00E94801A45
:1030300089EF92E00E94DA19F82E89EF92E00E945F
:10304000DA198C0189EF92E00E94A21A811109C05D
:1030500020E030E03F2D81E08B87C901802B912B50
:1030600002C08FEF9FEFDF91CF911F910F91FF90E3
:103070000895CF93C62FFC016081718189EF92E0A2
:103080000E948D1A6C2F89EF92E00E942A1A89EF14
:1030900092E00E94A21A91E0811190E0892FCF91D5
:1030A0000895CF93DF93EA01FC0122812F3FE9F0DD
:1030B000FC0162831386633161F028F420EF260F50
:1030C000223098F406C0603280F0623210F0633231
:1030D00061F40E943918882341F065E070E080E0D7
:1030E00090E0FE01099581E001C080E0DF91CF9181
:1030F0000895FC0162816F3F29F0138647EB5DE183
:103100000C94511808950F931F93CF93DF93EC0104
:103110006F3120F06F3F19F46EEF01C06FE18B81CA
:10312000681751F16B83062F10E0B801882777FDEF
:103130008095982F0E94F8219B01AC0160E070E01F
:103140008AE892E40E948E216C837D838E839F8324
:10315000B80185E0759567958A95E1F7062F0064BB
:10316000602FCE010E943918602FCE01DF91CF91E0
:103170001F910F910C943918DF91CF911F910F91EE
:1031800008950F931F93CF93DF931F92CDB7DEB7B0
:103190008C01FC0171876087428789EF92E0498347
:1031A0000E94691A65E4C8010E948318F8018085AD
:1031B000918549818230910579F01CF4019741F0A5
:1031C00019C08330910571F08336910589F012C0E2
:1031D000442371F083E20FC0442311F080E20BC05E
:1031E00080E109C0442311F081E205C081E103C000
:1031F00083E101C08FEFF8018283F80162816F3FA4
:1032000051F047EB5DE1C8010E945118811105C0E2
:103210008FEFF801828380E001C081E00F90DF91A1
:10322000CF911F910F9108950F931F93CF93DF9329
:10323000EC018B018A818F3F09F47BC08A8588234A
:1032400031F08B85882319F0CE010E94791888858A
:1032500099858336910509F050C065E4CE010E943E
:103260008318A80163E1CE010E94511860E170E06B
:1032700080E090E0F8010995CE010E9404188A30A0
:10328000910598F46EEFCE010E9483188A858823F9
:1032900011F061E201C061E1A801CE010E94511864
:1032A00069EB71E080E090E026C08F3FFFE79F0769
:1032B00058F465E4CE010E9483188A85882311F0B2
:1032C00061E211C061E10FC080369A4E10F465E4EE
:1032D00001C060E2CE010E9483188A85882311F024
:1032E00060E201C060E1A801CE010E94511868E7C8
:1032F00070E080E090E0F8010995CE010E9404188A
:103300008C018F3FFFEF9F0741F0B801CE01DF91A5
:10331000CF911F910F910C94E0176881798189EF0B
:1033200092E00E948D1A89EF92E00E94A21A8823EF
:1033300061F360E070E080E89FEBDF91CF911F9137
:103340000F9108951F93CF93DF93EC0168817981EA
:1033500089EF92E00E948D1A89EF92E00E94A21AF2
:1033600081111AC01A811F3F41F447EB5DE163E20E
:10337000CE010E9451181A8303C0CE010E94791811
:1033800067EB7DE1CE010E941419C1E020E030E03E
:10339000A9010E94A82287FDC0E08C2FDF91CF9168
:1033A0001F9108958091290390E020912A03821BA8
:1033B0009109089520912A0380912903281750F438
:1033C000E22FF0E0E55DFC4F808190E02F5F2093DD
:1033D0002A0308958FEF9FEF0895E0912A038091CB
:1033E0002903E81730F4F0E0E55DFC4F808190E0C0
:1033F00008958FEF9FEF08950895CF92DF92EF9297
:10340000FF920F931F93CF93DF937C01CB018A012F
:1034100020910503222389F0EB016B01C40ED51E18
:10342000CC15DD0569F06991D701ED91FC91019012
:10343000F081E02DC7010995F3CF642F0E945E1B38
:10344000C801DF91CF911F910F91FF90EF90DF9016
:10345000CF900895CF93DF931F92CDB7DEB76983E6
:10346000209105032223D1F020910603203240F061
:1034700021E030E0FC013383228380E090E015C03E
:1034800080910703E82FF0E0E85FFC4F998190837B
:103490008F5F809307038093060305C061E0CE0130
:1034A00001960E945E1B81E090E00F90DF91CF912A
:1034B0000895FC011382128248EE53E060E070E050
:1034C000448355836683778383EA91E09183808385
:1034D000089510922A031092290310920703109264
:1034E00006030C94A91A862F413208F040E26BE2E1
:1034F00073E00E94C71A10922A038093290308954B
:1035000021E00C94731A81E08093050360932803F3
:10351000109207031092060308950C94831A0F93D8
:10352000062F21E04091060368E073E080912803B4
:103530000E940B1B109207031092060310920503C2
:103540000F91089561E00C948F1A89EF92E00C942A
:10355000591A1092B80381E08093B6031092B50314
:1035600061E082E10E94871E61E083E10E94871E84
:10357000E9EBF0E080818E7F808380818D7F808386
:1035800088E48093B80085E48093BC0008954132BC
:1035900008F03FC09091B8039111FCCF91E0909357
:1035A000B8032093B6032FEF20934B0310929003A0
:1035B000240F20938F039093B7039091B703880F44
:1035C000892B8093B7038091B503813041F4109229
:1035D000B5038091B7038093BB0085EC01C085EEF5
:1035E0008093BC008091B8038130E1F38091900317
:1035F000841710F44091900321E933E0FB01D901D5
:103600008A2F821B841718F48D918193F9CF842F10
:10361000089580E008950F93413208F046C09091DC
:10362000B8039111FCCF92E09093B8030093B603D6
:103630009FEF90934B031092900340938F03FB01F5
:1036400061E973E0DB019A2F961B941718F49191AE
:103650009D93F9CF1092B7039091B703880F892BF0
:103660008093B7038091B503813041F41092B50384
:103670008091B7038093BB0085EC01C085EE8093F9
:10368000BC00222321F08091B8038230E1F38091C5
:103690004B038F3F61F080914B03803251F080915A
:1036A0004B03803341F483E007C081E005C080E034
:1036B00003C082E001C084E00F910895613298F464
:1036C0002091B803243089F460936D03FC018FE6E8
:1036D00093E0DC012A2F281B261718F421912D9343
:1036E000F9CF80E0089581E0089582E0089585EDA6
:1036F0008093BC008091BC0084FDFCCF1092B80385
:10370000089585EC8093BC001092B80308951F9231
:103710000F920FB60F9211242F933F934F935F9305
:103720006F937F938F939F93AF93BF93EF93FF9389
:103730008091B900887F803609F49CC068F5883292
:1037400009F45BC090F4803109F454C038F4882344
:1037500009F4F5C0883009F44DC0F5C0883109F48A
:103760004CC0803209F45DC0EEC0803409F468C0FA
:1037700048F4803309F455C0883309F0E4C08093DD
:103780004B03A8C0803509F44FC0883509F45DC0EB
:10379000883409F0D8C0D5C0883909F4C6C0A8F467
:1037A000883709F467C038F4883609F463C0803775
:1037B00009F460C0C8C0883809F4B7C0803909F47A
:1037C0005FC0803809F0BFC05BC0803B09F485C092
:1037D00038F4803A09F466C0883A09F47EC0B3C070
:1037E000803C09F4A6C0883C09F4A3C0883B09F4D6
:1037F00089C0A9C08091B70310C0909190038091B7
:103800008F03981770F5E091900381E08E0F8093FD
:103810009003F0E0EF56FC4F80818093BB0085EC75
:1038200085C080934B038DC0E091900381E08E0FA3
:10383000809390038091BB00F0E0EF56FC4F8083B3
:103840009091900380918F036DC0E091900381E08F
:103850008E0F809390038091BB00F0E0EF56FC4FF9
:1038600080838091B60381116CC081E08093B503A1
:1038700084EA60C083E08093B80310924C03CFCFFA
:1038800080914C03803208F050C0E0914C0381E0FD
:103890008E0F80934C038091BB00F0E0E35BFC4F04
:1038A0008083BDCF80914C03803230F4E0914C0393
:1038B000F0E0E35BFC4F10820E94771B60914C03A9
:1038C00070E0E091B103F091B2038DE493E00995CB
:1038D00010924C030E94811B36C084E08093B80391
:1038E00010926E0310926D03E091B303F091B40354
:1038F000099580916D03811105C081E080936D036E
:1039000010926F03E0916E0381E08E0F80936E033F
:10391000F0E0E159FC4F80818093BB0090916E03F1
:1039200080916D03981708F47ACF85E88093BC00E6
:103930000AC085EC8093BC001092B80304C01092BA
:103940004B030E94771BFF91EF91BF91AF919F9125
:103950008F917F916F915F914F913F912F910F9038
:103960000FBE0F901F9018958230E8F4E82FF0E01A
:10397000EE0FFF1FE754FC4F71836083813041F0ED
:10398000809169008C7F842B80936900E89A089568
:1039900080916900440F551F440F551F837F842B6E
:1039A00080936900E99A0895823068F4813011F0BB
:1039B000E89801C0E998E82FF0E0EE0FFF1FE75408
:1039C000FC4F1182108208951F920F920FB60F9232
:1039D00011242F933F934F935F936F937F938F9314
:1039E0009F93AF93BF93EF93FF938091B90390910F
:1039F000BA03892B29F0E091B903F091BA03099534
:103A0000FF91EF91BF91AF919F918F917F916F91B6
:103A10005F914F913F912F910F900FBE0F901F908C
:103A200018951F920F920FB60F9211242F933F9368
:103A30004F935F936F937F938F939F93AF93BF93B6
:103A4000EF93FF938091BB039091BC03892B29F0E6
:103A5000E091BB03F091BC030995FF91EF91BF91F9
:103A6000AF919F918F917F916F915F914F913F9116
:103A70002F910F900FBE0F901F9018951F920F92CD
:103A80000FB60F9211242F933F938F939F93AF9371
:103A9000BF938091BE039091BF03A091C003B091EA
:103AA000C1033091BD0323E0230F2D3720F401968D
:103AB000A11DB11D05C026E8230F0296A11DB11D51
:103AC0002093BD038093BE039093BF03A093C003D4
:103AD000B093C1038091C2039091C303A091C4032A
:103AE000B091C5030196A11DB11D8093C2039093AF
:103AF000C303A093C403B093C503BF91AF919F913B
:103B00008F913F912F910F900FBE0F901F9018959E
:103B10002FB7F8946091BE037091BF038091C003EA
:103B20009091C1032FBF08953FB7F8948091C203CD
:103B30009091C303A091C403B091C50326B5A89B7F
:103B400005C02F3F19F00196A11DB11D3FBF66278B
:103B5000782F892F9A2F620F711D811D911D42E0D0
:103B6000660F771F881F991F4A95D1F70895CF9246
:103B7000DF92EF92FF92CF93DF936B017C010E9463
:103B8000941DEB01C114D104E104F10489F00E94F9
:103B900024210E94941D6C1B7D0B683E734090F3A2
:103BA00081E0C81AD108E108F108C851DC4FEACF1A
:103BB000DF91CF91FF90EF90DF90CF90089582300A
:103BC000910538F0880F991F880F991F0597019765
:103BD000F1F70895789484B5826084BD84B58160DE
:103BE00084BD85B5826085BD85B5816085BDEEE605
:103BF000F0E0808181608083E1E8F0E010828081E4
:103C000082608083808181608083E0E8F0E0808151
:103C100081608083E1EBF0E0808184608083E0EB71
:103C2000F0E0808181608083EAE7F0E08081846059
:103C300080838081826080838081816080838081B5
:103C4000806880831092C1000895833081F028F449
:103C5000813099F08230A1F008958730A9F0883042
:103C6000B9F08430D1F4809180008F7D03C08091C1
:103C700080008F7780938000089584B58F7702C08D
:103C800084B58F7D84BD08958091B0008F7703C087
:103C90008091B0008F7D8093B0000895CF93DF9323
:103CA00090E0FC01E75FFD4F2491FC01E35EFD4FD6
:103CB0008491882349F190E0880F991FFC01EB5B08
:103CC000FD4FA591B491855C9D4FFC01C591D491A8
:103CD0009FB7611108C0F8948C91209582238C9332
:103CE000888182230AC0623051F4F8948C91322F7B
:103CF000309583238C938881822B888304C0F89429
:103D00008C91822B8C939FBFDF91CF9108950F935D
:103D10001F93CF93DF931F92CDB7DEB7282F30E0EC
:103D2000F901EB50FE4F8491F901E75FFD4F1491CB
:103D3000F901E35EFD4F04910023C9F0882321F0CF
:103D400069830E94251E6981E02FF0E0EE0FFF1FBE
:103D5000E55CFD4FA591B4919FB7F8948C916111EA
:103D600003C01095812301C0812B8C939FBF0F90BE
:103D7000DF91CF911F910F910895CF93DF93282F5B
:103D800030E0F901EB50FE4F8491F901E75FFD4F00
:103D9000D491F901E35EFD4FC491CC2391F08111E0
:103DA0000E94251EEC2FF0E0EE0FFF1FEF5CFD4F91
:103DB000A591B4912C912D2381E090E021F480E035
:103DC00002C080E090E0DF91CF9108950E948324AB
:103DD000FC01818D228D90E0805C9F4F821B9109B8
:103DE0008F7399270895FC01918D828D981731F07A
:103DF000828DE80FF11D858D90E008958FEF9FEF84
:103E00000895FC01918D828D981761F0828DDF01FC
:103E1000A80FB11D5D968C91928D9F5F9F73928FBD
:103E200090E008958FEF9FEF089585E890E2892B49
:103E300049F080E090E0892B29F00E9485208111D3
:103E40000C9400000895FC01848DDF01A80FB11DC2
:103E5000A35ABF4F2C91848D90E001968F739927C0
:103E6000848FA689B7892C93A089B1898C918064AD
:103E70008C93938D848D981306C00288F389E02D6E
:103E800080818F7D80830895CF93DF93EC01888DAF
:103E90008823C9F0EA89FB89808185FD05C0A8894E
:103EA000B9898C9186FD0FC00FB607FCF5CF8081D4
:103EB00085FFF2CFA889B9898C9185FFEDCFCE011E
:103EC0000E94231FE7CFDF91CF910895CF92DF9219
:103ED000FF920F931F93CF93DF931F92CDB7DEB75F
:103EE0006C0181E0D60158968C9358975B969C9113
:103EF0005B975C968C915C97981307C05096ED91F8
:103F0000FC915197808185FD2EC0F601038D10E054
:103F10000F5F1F4F0F731127F02EF601848DF812DB
:103F200011C00FB607FCF9CFD6015096ED91FC9168
:103F30005197808185FFF1CFC60169830E94231FBD
:103F40006981EBCF838DE80FF11DE35AFF4F60834A
:103F5000D6015B960C935B975296ED91FC9153972B
:103F6000808180620CC0D6015696ED91FC915797E6
:103F700060835096ED91FC9151978081806480839D
:103F800081E090E00F90DF91CF911F910F91FF9012
:103F9000DF90CF900895BF92CF92DF92EF92FF9281
:103FA000CF93DF93EC016A017B01B22EE889F98996
:103FB00082E08083411581EE580761057105A1F00B
:103FC00060E079E08DE390E0A70196010E94132361
:103FD0002150310941095109569547953795279543
:103FE000211580E1380798F0E889F989108260E8A6
:103FF00074E88EE190E0A70196010E9413232150FE
:104000003109410951095695479537952795EC8512
:10401000FD853083EE85FF852083188EEC89FD8930
:10402000B082EA89FB89808180618083EA89FB898B
:10403000808188608083EA89FB89808180688083B1
:10404000EA89FB8980818F7D8083DF91CF91FF900A
:10405000EF90DF90CF90BF9008951F920F920FB610
:104060000F9211242F938F939F93EF93FF93E091DF
:10407000D603F091D7038081E091DC03F091DD035A
:1040800082FD12C090818091DF038F5F8F7320913A
:10409000E003821751F0E091DF03F0E0EA53FC4FB8
:1040A000958F8093DF0301C08081FF91EF919F91F5
:1040B0008F912F910F900FBE0F901F9018951F9208
:1040C0000F920FB60F9211242F933F934F935F934C
:1040D0006F937F938F939F93AF93BF93EF93FF93D0
:1040E00086EC93E00E94231FFF91EF91BF91AF9167
:1040F0009F918F917F916F915F914F913F912F9100
:104100000F900FBE0F901F90189586EC93E00E94C1
:10411000E81E21E0892B09F420E0822F08951092F7
:10412000C9031092C80388EE93E0A0E0B0E080934A
:10413000CA039093CB03A093CC03B093CD0383EB3E
:1041400091E09093C7038093C60385EC90E0909331
:10415000D3038093D20384EC90E09093D5038093B3
:10416000D40380EC90E09093D7038093D60381EC46
:1041700090E09093D9038093D80382EC90E09093E1
:10418000DB038093DA0386EC90E09093DD03809369
:10419000DC031092DF031092E0031092E10310920F
:1041A000E203089508950E94EA1D0E94D2200E9411
:1041B0002202C5E1DFE10E94DD042097E1F30E94C5
:1041C000151FF9CF0C945C23CF92DF92EF92FF92F0
:1041D0000F931F93CF93DF936C017A01EB01E60EEF
:1041E000F71E00E010E0CE15DF0561F06991D60101
:1041F000ED91FC910190F081E02DC6010995080F29
:10420000191FF1CFC801DF91CF911F910F91FF903E
:10421000EF90DF90CF9008956115710581F0DB017B
:104220000D900020E9F7AD0141505109461B570B95
:10423000DC01ED91FC910280F381E02D099480E096
:1042400090E008950C940C2108955058BB27AA279C
:104250000ED044C135D130F03AD120F031F49F3F37
:1042600011F41EF42AC10EF4E095E7FB20C1E92FFA
:1042700046D180F3BA17620773078407950718F0D1
:1042800071F49EF55EC10EF4E0950B2EBA2FA02DB1
:104290000B01B90190010C01CA01A0011124FF27F3
:1042A000591B99F0593F50F4503E68F11A16F040EE
:1042B000A22F232F342F4427585FF3CF46953795ED
:1042C0002795A795F0405395C9F77EF41F16BA0BB2
:1042D000620B730B840BBAF09150A1F0FF0FBB1F60
:1042E000661F771F881FC2F70EC0BA0F621F731FA9
:1042F000841F48F4879577956795B795F7959E3F06
:1043000008F0B3CF9395880F08F09927EE0F979593
:1043100087950895A8D008F481E008950CD0DEC0F8
:10432000D6D040F0CDD030F021F45F3F19F0BFC0BF
:10433000511108C1C2C0E3D098F39923C9F35523A2
:10434000B1F3951B550BBB27AA2762177307840788
:1043500038F09F5F5F4F220F331F441FAA1FA9F33E
:1043600033D00E2E3AF0E0E830D091505040E69530
:10437000001CCAF729D0FE2F27D0660F771F881F91
:10438000BB1F261737074807AB07B0E809F0BB0B80
:10439000802DBF01FF2793585F4F2AF09E3F5105A4
:1043A00068F085C0CFC05F3FECF3983EDCF38695A4
:1043B00077956795B795F7959F5FC9F7880F911D1A
:1043C0009695879597F90895E1E0660F771F881F06
:1043D000BB1F621773078407BA0720F0621B730BB9
:1043E000840BBA0BEE1F88F7E0950895E89409C096
:1043F00097FB3EF490958095709561957F4F8F4F18
:104400009F4F9923A9F0F92F96E9BB279395F6952D
:10441000879577956795B795F111F8CFFAF4BB0FAB
:1044200011F460FF1BC06F5F7F4F8F4F9F4F16C00F
:10443000882311F096E911C0772321F09EE8872F99
:10444000762F05C0662371F096E8862F70E060E055
:104450002AF09A95660F771F881FDAF7880F9695CE
:10446000879597F90895990F0008550FAA0BE0E872
:10447000FEEF16161706E807F907C0F01216130626
:10448000E407F50798F0621B730B840B950B39F466
:104490000A2661F0232B242B252B21F408950A26CC
:1044A00009F4A140A6958FEF811D811D089597F90C
:1044B0009F6780E870E060E008959FEF80EC0895CA
:1044C00000240A94161617061806090608950024F3
:1044D0000A9412161306140605060895092E03946D
:1044E000000C11F4882352F0BB0F40F4BF2B11F4E1
:1044F00060FF04C06F5F7F4F8F4F9F4F089557FD40
:104500009058440F551F59F05F3F71F04795880F41
:1045100097FB991F61F09F3F79F0879508951216D8
:1045200013061406551FF2CF4695F1DF08C0161684
:1045300017061806991FF1CF869571056105089435
:104540000895E894BB2766277727CB0197F908954C
:104550008ADF08F48FEF08950BD0C0CFB1DF28F0C9
:10456000B6DF18F0952309F0A2CFA7CF1124EACF28
:10457000C6DFA0F3959FD1F3950F50E0551F629FC2
:10458000F001729FBB27F00DB11D639FAA27F00DAC
:10459000B11DAA1F649F6627B00DA11D661F829FD3
:1045A0002227B00DA11D621F739FB00DA11D621FB8
:1045B000839FA00D611D221F749F3327A00D611DD5
:1045C000231F849F600D211D822F762F6A2F1124B7
:1045D0009F5750408AF0E1F088234AF0EE0FFF1F0A
:1045E000BB1F661F771F881F91505040A9F79E3F41
:1045F000510570F05CCFA6CF5F3FECF3983EDCF343
:10460000869577956795B795F795E7959F5FC1F77D
:10461000FE2B880F911D9695879597F9089523DFB6
:10462000880B990B0895A1E21A2EAA1BBB1BFD0152
:104630000DC0AA1FBB1FEE1FFF1FA217B307E40781
:10464000F50720F0A21BB30BE40BF50B661F771FD9
:10465000881F991F1A9469F76095709580959095B9
:104660009B01AC01BD01CF010895EE0FFF1F059026
:10467000F491E02D0994EF920F931F93CF93DF9362
:10468000E80147FF02C034E101C034E0E42FFF2716
:10469000E7FDF095F7FF03C0F195E195F109E32EF1
:1046A000022F2E2FAE010E94BB27CE01DF91CF91AA
:1046B0001F910F91EF900895CF93DF938230910572
:1046C00010F482E090E0E0916504F091660420E04F
:1046D00030E0A0E0B0E0309739F1408151814817D7
:1046E0005907B8F04817590771F4828193811097E0
:1046F00029F013969C938E9312972CC09093660486
:104700008093650427C02115310531F04217530706
:1047100018F0A901DB0101C0EF019A01BD01DF0121
:104720000280F381E02DD7CF21153105F9F0281B48
:10473000390B2430310580F48A819B816115710524
:1047400021F0FB019383828304C0909366048093DD
:104750006504FE01329644C0FE01E20FF31F81930F
:10476000919322503109398328833AC02091630400
:1047700030916404232B41F4209102013091030114
:10478000309364042093630420910001309101016F
:104790002115310541F42DB73EB7409104015091E8
:1047A0000501241B350BE0916304F0916404E217CA
:1047B000F307A0F42E1B3F0B2817390778F0AC0144
:1047C0004E5F5F4F2417350748F04E0F5F1F509321
:1047D0006404409363048193919302C0E0E0F0E0AD
:1047E000CF01DF91CF910895CF93DF93009709F424
:1047F00087C0FC01329713821282C0916504D09168
:104800006604209781F420813181280F391F80911F
:104810006304909164048217930779F5F09364041C
:10482000E09363046DC0DE0120E030E0AE17BF0707
:1048300050F412964D915C9113979D0141155105CD
:1048400009F1DA01F3CFB383A28340815181840F50
:10485000951F8A179B0771F48D919C911197840F76
:10486000951F02969183808312968D919C91139748
:10487000938382832115310529F4F0936604E09334
:1048800065043EC0D9011396FC93EE9312974D91A7
:104890005D91A40FB51FEA17FB0779F48081918120
:1048A000840F951F0296D90111969C938E93828155
:1048B000938113969C938E931297E0E0F0E08A81A7
:1048C0009B81009719F0FE01EC01F9CFCE01029611
:1048D00028813981820F931F2091630430916404F1
:1048E0002817390769F4309729F41092660410925A
:1048F000650402C013821282D0936404C0936304DF
:10490000DF91CF91089581E090E0F8940C94FE2A15
:10491000FC0188279927E89421912032E9F3293076
:1049200010F02E30C8F32B3241F02D3239F4689458
:1049300004C00E941F25820F911D219120532A300F
:10494000C0F31EF4909581959F4F08951F93FC012D
:1049500099278827BC01E89411911032E9F31930A6
:1049600010F01E30C8F31B3251F01D3249F4689428
:1049700006C00E940A25610F711D811D911D1191B4
:1049800010531A30B0F33EF4909580957095619570
:104990007F4F8F4F9F4F1F910895FB01DC0102C095
:1049A00001900D9241505040D8F70895FB01DC0171
:1049B0000D900020E9F7119701900D920020E1F78A
:1049C0000895FB01DC014150504048F001900D92E8
:1049D0000020C9F701C01D9241505040E0F70895F2
:1049E000BB274A3031F4992322F4BDE2909581959A
:1049F0009F4F0C944A25BB272A3051F4992342F447
:104A0000BDE290958095709561957F4F8F4F9F4F38
:104A10000C942825592F482F372F262F660F771FE4
:104A2000881F991F660F771F881F991F620F731FBA
:104A3000841F951F660F771F881F991F08957AE0BE
:104A4000979F902D879F802D910D11240895BB274E
:104A5000FA01A62F6217710581059105330B30FB12
:104A600066F0AA27660F771F881F991FAA1FA21733
:104A700010F0A21B63953850A9F7A05DAA3308F087
:104A8000A95DA19336F7B111B1931082CA010C94BC
:104A9000272ABB27FB015527AA27880F991FAA1F82
:104AA000A41710F0A41B83955051B9F7A05DAA3349
:104AB00008F0A95DA193009779F7B111B193119214
:104AC000CB010C94272AAEE0B0E0E9E6F5E20C94C5
:104AD000D52A0D891E898F89988D2EE02C831A8303
:104AE000098397FF02C080E090E801979E838D8341
:104AF000AE01455E5F4F698D7A8DCE0101960E94B1
:104B0000BF254D815E8157FD0AC02F813885421730
:104B100053070CF49A01F801E20FF31F10822E964E
:104B2000E4E00C94F12AAEE0B0E0E9E9F5E20C949F
:104B3000D52A8C01CA014EE04C831A83098377FF82
:104B400002C060E070E8615071097E836D83A90145
:104B5000BC01CE0101960E94BF254D815E8157FDAB
:104B60000AC02F813885421753070CF49A01F801C7
:104B7000E20FF31F10822E96E4E00C94F12AACE0D1
:104B8000B0E0E5ECF5E20C94C72A7C016B018A01E8
:104B9000FC0117821682838181FFBDC1CE0101967F
:104BA0004C01F7019381F60193FD859193FF81916B
:104BB0006F01882309F4ABC1853239F493FD8591E7
:104BC00093FF81916F01853229F4B70190E00E9433
:104BD000372AE7CF512C312C20E02032A0F48B3241
:104BE00069F030F4803259F0833269F420612CC0CE
:104BF0008D3239F0803339F4216026C02260246080
:104C000023C0286021C027FD27C030ED380F3A307F
:104C100078F426FF06C0FAE05F9E300D1124532E73
:104C200013C08AE0389E300D1124332E20620CC050
:104C30008E3221F426FD6BC1206406C08C3611F43F
:104C4000206802C0883641F4F60193FD859193FFF8
:104C500081916F018111C1CF982F9F7D9554933021
:104C600028F40C5F1F4FFFE3F9830DC0833631F04A
:104C7000833771F0833509F05BC022C0F801808171
:104C800089830E5F1F4F44244394512C540115C057
:104C90003801F2E06F0E711CF801A080B18026FF90
:104CA00003C0652D70E002C06FEF7FEFC5012C8758
:104CB0000E941C2A2C0183012C852F77222E17C0DD
:104CC0003801F2E06F0E711CF801A080B18026FF60
:104CD00003C0652D70E002C06FEF7FEFC5012C8728
:104CE0000E94112A2C012C852068222E830123FC8E
:104CF0001BC0832D90E048165906B0F4B70180E23E
:104D000090E00E94372A3A94F4CFF50127FC859170
:104D100027FE81915F01B70190E00E94372A311090
:104D20003A94F1E04F1A51084114510471F7E5C06B
:104D3000843611F0893639F5F80127FF07C0608104
:104D40007181828193810C5F1F4F08C060817181E6
:104D5000882777FD8095982F0E5F1F4F2F76B22EF4
:104D600097FF09C090958095709561957F4F8F4F03
:104D70009F4F2068B22E2AE030E0A4010E94692AE9
:104D8000A82EA81844C0853729F42F7EB22E2AE019
:104D900030E025C0F22FF97FBF2E8F36C1F018F416
:104DA000883579F0B4C0803719F0883721F0AFC06A
:104DB0002F2F2061B22EB4FE0DC08B2D8460B82E33
:104DC00009C024FF0AC09F2F9660B92E06C028E0B4
:104DD00030E005C020E130E002C020E132E0F8011F
:104DE000B7FE07C060817181828193810C5F1F4F84
:104DF00006C06081718180E090E00E5F1F4FA401CA
:104E00000E94692AA82EA818FB2DFF77BF2EB6FE98
:104E10000BC02B2D2E7FA51450F4B4FE0AC0B2FC9B
:104E200008C02B2D2E7E05C07A2C2B2D03C07A2C8A
:104E300001C0752C24FF0DC0FE01EA0DF11D80811B
:104E4000803311F4297E09C022FF06C07394739445
:104E500004C0822F867809F0739423FD13C020FFCD
:104E600006C05A2C731418F4530C5718732C73146F
:104E700068F4B70180E290E02C870E94372A73948F
:104E80002C85F5CF731410F4371801C0312C24FF92
:104E900012C0B70180E390E02C870E94372A2C854E
:104EA00022FF17C021FF03C088E590E002C088E719
:104EB00090E0B7010CC0822F867859F021FD02C026
:104EC00080E201C08BE227FD8DE2B70190E00E94F5
:104ED000372AA51438F4B70180E390E00E94372AFE
:104EE0005A94F7CFAA94F401EA0DF11D8081B7011D
:104EF00090E00E94372AA110F5CF332009F451CE5B
:104F0000B70180E290E00E94372A3A94F6CFF70189
:104F10008681978102C08FEF9FEF2C96E2E10C947F
:104F2000E32ADC01CB01FC01F999FECF06C0F2BDFA
:104F3000E1BDF89A319600B40D9241505040B8F757
:104F40000895F999FECF92BD81BDF89A992780B551
:104F50000895262FF999FECF92BD81BDF89A019749
:104F600000B4021639F01FBA20BD0FB6F894FA9AB1
:104F7000F99A0FBE08956F927F929F92AF92BF925F
:104F8000CF92DF92EF92FF920F931F93CF93DF9315
:104F9000CDB7DEB729970FB6F894DEBF0FBECDBFF1
:104FA0006A01B22E102F0C3320F4FF24F394F00E7C
:104FB00002C04CE3F42E0F2D27E0AE014F5F5F4F90
:104FC0000E9439297981272F2970213031F0E1FCA5
:104FD00006C0E0FC06C060E005C06DE203C06BE205
:104FE00001C060E2AE2DA07173FF36C0662311F0E0
:104FF00084E001C083E08B1510F4B81A01C0B12C15
:10500000A1110BC0F6018B2D90E2882319F091932A
:105010008150FBCFCB0CD11CB12C662331F0F601B3
:10502000608396012F5F3F4F6901C6010396E2FE40
:1050300005C02EE4F601208331E404C02EE6F6011B
:10504000208331E631832283FC012B2D30E22223A1
:10505000F1F131932150FBCF72FF40C0662311F074
:1050600084E001C083E08B1510F4B81A01C0B12CA4
:10507000A1110BC0F6018B2D90E2882319F09193BA
:105080008150FBCFCB0CD11CB12C662331F0F60143
:10509000608396012F5F3F4F6901C6010396E2FED0
:1050A00007C029E4F60120832EE4218326E406C00C
:1050B00029E6F60120832EE6218326E62283FC01E1
:1050C0002B2D30E2222319F031932150FBCFFC012C
:1050D000EB0DF11D10828EEF9FEFB7C0B1E06111B3
:1050E00001C0B0E04B2F50E01816190624F49C01C3
:1050F0002F5F3F4F02C021E030E0240F351F112306
:1051000029F0412F50E04F5F5F4F02C040E050E078
:10511000420F531F2B2D30E04217530714F4B41ADB
:1051200001C0B12C2E2D287159F4F6012B2D30E23F
:10513000222319F031932150FBCFCB0CD11CB12C81
:10514000BB2331F0F601608396012F5F3F4F690169
:10515000A1110BC0F6012B2D30E3222319F031935E
:105160002150FBCFCB0CD11CB12CF80E0A81372F6C
:105170003071A32E74FF03C0013309F4FA941F1495
:105180002CF42F2D293018F028E001C021E0682FE1
:10519000392F97FF02C060E030E0462F532F612C7B
:1051A000712C3EE2932EBC01621B71099B01DC0154
:1051B000A41BB50BE1E0F0E0EC0FFD1FAE0FBF1F2D
:1051C000E12EF12CF194E194F1084F3FFFEF5F07DE
:1051D00031F4F6019082B6016F5F7F4F6B01841747
:1051E00095074CF02417350734F4BD01660D771D83
:1051F000FB01118101C010E341505109FFEF6F1A0B
:105200007F0AB6016F5F7F4F4E155F0524F0F601F0
:1052100010836B01DACF4817590739F4063320F4AD
:10522000053319F4A11001C011E3F6011083FB014D
:105230008B2D90E2882319F091938150FBCFFB01D5
:10524000EB0DF11D108280E090E029960FB6F894E6
:10525000DEBF0FBECDBFDF91CF911F910F91FF90A9
:10526000EF90DF90CF90BF90AF909F907F906F9026
:105270000895283008F027E03327DA01990F311D0F
:1052800087FD916000966105710539F432602E5FEB
:105290003D9330E32A95E1F708959F3F30F0803841
:1052A0007105610509F03C5F3C5F3D93913008F06A
:1052B0008068911DDF93CF931F930F93FF92EF921E
:1052C000192F987F9695E92F96959695E90FFF27C8
:1052D000E755FD4F99273327EE24FF24A701E70167
:1052E00005900894079428F4360FE71EF81E491F0E
:1052F000511D660F771F881F991F0694A1F705900F
:10530000079428F4E70EF81E491F561FC11D770F9A
:10531000881F991F661F0694A1F70590079428F42B
:10532000F80E491F561FC71FD11D880F991F661FF2
:10533000771F0694A1F70590079420F4490F561F94
:10534000C71FD81F990F661F771F881F0694A9F7DC
:1053500084911095177041F0D695C795579547954C
:10536000F794E7941A95C1F7EFE4F2E0689415908A
:10537000159135916591959105907FE27395E118AE
:10538000F10A430B560BC90BD009C0F7E10CF11E13
:10539000431F561FC91FD01D7EF4703311F48A9528
:1053A000E6CFE894015030F0080F0AF40027021706
:1053B00008F4202F2395022F7A3328F079E37D9388
:1053C0002A95E9F710C07D932A9589F6069497955A
:1053D0006795379517951794E118F10A430B560B0B
:1053E000C90BD00998F023957E9173957A3308F014
:1053F00070E37C932013B8F77E9170617D9330F059
:10540000839571E37D9370E32A95E1F71124EF9082
:10541000FF900F911F91CF91DF91992787FD909574
:105420000895FC010590615070400110D8F78095F7
:1054300090958E0F9F1F0895FC0161507040019060
:105440000110D8F7809590958E0F9F1F0895DC016D
:10545000FC01672F71917723E1F7329704C07C91AB
:105460006D9370836291AE17BF07C8F308950F93D1
:105470001F93CF93DF93182F092FEB018B8181FDB1
:1054800003C08FEF9FEF20C082FF10C04E815F816D
:105490002C813D81421753077CF4E881F9819F01FB
:1054A0002F5F3F4F39832883108306C0E885F98535
:1054B000812F0995892B29F72E813F812F5F3F4F3F
:1054C0003F832E83812F902FDF91CF911F910F91DA
:1054D0000895FA01AA27283051F1203181F1E8948A
:1054E0006F936E7F6E5F7F4F8F4F9F4FAF4FB1E0D7
:1054F0003ED0B4E03CD0670F781F891F9A1FA11DD2
:10550000680F791F8A1F911DA11D6A0F711D811DD2
:10551000911DA11D20D009F468943F912AE0269F97
:1055200011243019305D3193DEF6CF010895462FF6
:105530004770405D4193B3E00FD0C9F7F6CF462FD7
:105540004F70405D4A3318F0495D31FD4052419340
:1055500002D0A9F7EACFB4E0A695979587957795FD
:105560006795BA95C9F700976105710508959B0184
:10557000AC010A2E06945795479537952795BA950D
:10558000C9F7620F731F841F951FA01D08952F92E6
:105590003F924F925F926F927F928F929F92AF92C3
:1055A000BF92CF92DF92EF92FF920F931F93CF9310
:1055B000DF93CDB7DEB7CA1BDB0B0FB6F894DEBFA7
:1055C0000FBECDBF09942A88398848885F846E84CD
:1055D0007D848C849B84AA84B984C884DF80EE8017
:1055E000FD800C811B81AA81B981CE0FD11D0FB620
:1055F000F894DEBF0FBECDBFED010895F894FFCF44
:105600000000670480000100000001000080BF006E
:10561000C079C401000080BF3100556E69766572A3
:1056200073616C2073656E736F722028004D004C9F
:10563000005448002900312E320000000000E61E10
:10564000E61EE61EE61E00000000110713075007C5
:105650009F076661696C006263006F6B00312E35D5
:105660002E3400676174657761790073656E736FBE
:10567000720072657065617465720000000000E67A
:105680001EE61EE61EE61EE61EE61EE61E000000E4
:10569000008510D61082102D116D11A911C71100AF
:1056A0000000002A1AFD19D219DA19ED19FC1900A7
:1056B000000000661FE420E81E011FF31E441F00C7
:00000001FF
